:100000000C9464000C94C40A0C94EB0A0C948C00BD
:100010000C948C000C948C000C948C000C948C0030
:100020000C948C000C948C000C948C000C948C0020
:100030000C948C000C948C000C948C000C948C0010
:100040000C94120B0C948C000C94060E0C94380E2D
:100050000C948C000C948C000C948C000C948C00F0
:100060000C9479080C948C00000000080002010038
:100070000003040700000000000000000102040863
:100080001020408001020408102001020408102002
:10009000040404040404040402020202020203032E
:1000A00003030303000000002300260029000000D2
:1000B0000000250028002B0000000000240027007D
:1000C0002A00C907820A680E11241FBECFEFD8E0AC
:1000D000DEBFCDBF12E0A0E0B1E0E4E7F6E202C08F
:1000E00005900D92AC33B107D9F724E0ACE3B2E050
:1000F00001C01D92AD32B207E1F710E0C8ECD0E0CC
:1001000004C02297FE010E941E13C23CD107C9F70A
:100110000E94AC0E0C9438130C94000082E00E94F4
:10012000980C019771F483E00E94980C4091410271
:10013000509142026091430270914402892B99F4DC
:100140000DC083E00E94980C409141025091420200
:100150006091430270914402019729F44F5F5F4F11
:100160006F4F7F4F04C0415051096109710940939D
:1001700041025093420260934302709344020895F7
:1001800083E00E94980C019771F482E00E94980C21
:1001900040914102509142026091430270914402A9
:1001A000019799F40DC082E00E94980C40914102A1
:1001B000509142026091430270914402892B29F4CC
:1001C0004F5F5F4F6F4F7F4F04C04150510961092E
:1001D000710940934102509342026093430270932D
:1001E000440208950F931F93CF93DF931F92CDB7CF
:1001F000DEB78C0169830E9422136981681741F080
:10020000C8010F90DF91CF911F910F910C942A1389
:100210000F90DF91CF911F910F9108950C942213AD
:10022000CF93DF9382E090E00E940E01C82FD0E0D0
:10023000D0937002C0936F0283E090E00E940E01A1
:1002400090E090936E0280936D02892B39F4D195E2
:10025000C195D109D0937002C0936F0280916A0258
:10026000882301F165E171E080E993E00E94F90ED5
:1002700060916F02709170024AE050E080E993E073
:100280000E94B10F64E271E080E993E00E94F90EF0
:1002900060916D0270916E024AE050E080E993E057
:1002A0000E94B10F80E090E00E940E01C82FD0E0C4
:1002B000D0937402C093730281E090E00E940E011B
:1002C00090E09093720280937102892B39F4D1955A
:1002D000C195D109D0937402C093730280916A02D0
:1002E000882311F168E371E080E993E00E94F90E40
:1002F00060917302709174024AE050E080E993E0EB
:100300000E94B10F67E471E080E993E00E94F90E6A
:1003100060917102709172024AE050E080E993E0CE
:10032000DF91CF910C94B10FDF91CF910895DF92BF
:10033000EF92FF920F931F93CF93DF937C01EA011B
:10034000D22E882777FD8095982F0E948B0B602FE7
:100350008D2D0E94620CB701882777FD8095982F1C
:100360000E948B0B61E0012B09F060E08D2D0E9453
:10037000620CBE01882777FD8095982FDF91CF9181
:100380001F910F91FF90EF90DF900C948B0BEF92E9
:10039000FF920F931F93CF93DF937A01672B61F046
:1003A00000E010E02DE030E040E050E060E070E080
:1003B00088EE93E00E94970101E010E02DE030E02C
:1003C00044EF51E060E070E084EF91E00E9497011B
:1003D0002DE030E048EC50E060E070E088EC90E028
:1003E0000E9497012DE030E048EC50E060E070E0C2
:1003F00088EC90E00E9497012DE030E044EF51E05E
:1004000060E070E084EF91E00E949701C3E0D0E0EB
:1004100001E010E02DE030E048EC50E060E070E0FA
:1004200088EC90E00E949701219791F72DE030E051
:1004300044EF51E060E070E084EF91E00E949701AA
:10044000C4E0D0E001E010E02DE030E048EC50E006
:1004500060E070E088EC90E00E949701219791F7AE
:10046000EF2861F000E010E02DE030E040E050E0E7
:1004700060E070E088EE93E00E949701DF91CF91F9
:100480001F910F91FF90EF900895CF93DF9385E038
:1004900090E00E940E01811104C080913C028823EB
:1004A00079F16BE571E080E993E00E94060FC0E00E
:1004B000D0E060E0CE010E942A132196C630D1051B
:1004C000C1F7C0E0D0E0CE010E940E018111109270
:1004D00010012196C630D105B1F78091100181112C
:1004E00009C040E050E061E070E081E090E00E94EF
:1004F000C701F3CF69E671E080E993E00E94060F3F
:1005000084E090E00E940E01C82FD0E0209741F0D7
:1005100040E050E061E070E0CE010E94C701F8CFFA
:10052000DF91CF91089548EB5BE060E070E08FE3EE
:1005300093E00E94D00920E835E240E050E060E915
:1005400073E08FE393E00E94E60961E08FE393E0BC
:100550000E94A609882391F06DE771E080918103E4
:10056000909182030E94F90E6AE070E080E090E0D2
:100570000E948B0B8FE393E00E94CF0941E060E083
:100580008FE393E00E94640A26E040E855E260E0D1
:1005900070E080E993E00E94A40D81E080937A02EC
:1005A0008093100180936A0210923C0260E082E026
:1005B0000E94290C60E083E00E94290C60E08AE040
:1005C0000E94290C60E087E00E94290C61E088E02D
:1005D0000E94290C61E084E00E94290C61E086E021
:1005E0000E94290C61E086E00E94620C1092790260
:1005F0001092780210926C0210926B020E944502D7
:100600000E94100141E050E06EE870E080E00E943E
:10061000A40A41E050E060EC70E081E00E94A40A8E
:1006200068E070E08BE792E00E94A0076EED75E055
:100630008BE792E00E94C40764E670E080E090E0FF
:100640000C948B0B8F929F92AF92BF92CF92DF92BE
:10065000EF92FF920F931F93CF93DF936B017C0177
:1006600049015A0120E030E04FE753EC0E948F121D
:1006700087FD0AC020E030E04FE753E4C701B60130
:100680000E94401118167CF520E030E04FE753E45B
:10069000C701B6010E948F1218164CF420E030E01A
:1006A0004FE753E4C701B6010E94DB1012C020E0FF
:1006B00030E04FE753ECC701B6010E94401187FFBD
:1006C00012C020E030E04FE753E4C701B6010E94BA
:1006D000DC106B017C0120E030E0A9010E948F1248
:1006E0001816ACF003C0C12CD12C7601C1E0D0E0CB
:1006F00020E030E0A901C701B6010E94401187FD4A
:1007000002C0C0E0D0E0D195C195D10902C0C1E0DE
:10071000D0E020E030E0A901C501B4010E948F12B1
:1007200001E010E0181674F020E030E0A901C501E6
:10073000B4010E94401187FD02C000E010E0119555
:1007400001951109C017D10759F420E030E0A90143
:10075000C701B6010E944011882311F081E000C05A
:10076000DF91CF911F910F91FF90EF90DF90CF908D
:10077000BF90AF909F908F9008954F925F926F922D
:100780007F928F929F92AF92BF92CF92DF92EF9221
:10079000FF92CF93DF9300D000D0CDB7DEB76B01CF
:1007A0007C0120910C0130910D0140910E0150917E
:1007B0000F010E9493124B015C01609355027093EC
:1007C00056028093570290935802609149027091AB
:1007D0004A0280914B0290914C02A70196010E941F
:1007E0002203882321F020E030E0A9010AC02DEC8B
:1007F0003CEC4CE45DE3C701B6010E9493129B01FF
:10080000AC0160915102709152028091530290911B
:1008100054020E94DC106093510270935202809344
:1008200053029093540220910801309109014091A4
:100830000A0150910B016091510270915202809116
:100840005302909154020E9493122B013C01609339
:1008500051027093520280935302909354028091FC
:10086000450290914602A0914702B09148028983C7
:100870009A83AB83BC8320910401309105014091A0
:10088000060150910701C701B6010E949312298108
:100890003A814B815C810E94DB10209100013091F4
:1008A000010140910201509103010E9493126B01DA
:1008B0007C0160934D0270934E0280934F0290939F
:1008C0005002A3019201C501B4010E94DC10A701EE
:1008D00096010E94DC104B015C0160934902709309
:1008E0004A0280934B0290934C0220E030E04FE7A5
:1008F00053E40E948F1218168CF020E030E04FE78E
:1009000053ECC501B4010E94401187FF0DC0812C3A
:10091000912C9FE7A92E93ECB92E06C0812C912C27
:100920008FE7A82E83E4B82E2DEC3CEC4CE45DE37D
:10093000C701B6010E9493129B01AC0169817A81C3
:100940008B819C810E94DC1060934502709346026B
:100950008093470290934802C501B4010F900F9015
:100960000F900F90DF91CF91FF90EF90DF90CF909D
:10097000BF90AF909F908F907F906F905F904F90BF
:100980000895CF92DF92EF92FF92CF93DF93609121
:1009900041027091420280914302909144020E9470
:1009A000DF116B017C0160916F02709170028827EA
:1009B00077FD8095982F0E94DF119B01AC01C70144
:1009C000B6010E94DC106B017C01609359027093A8
:1009D0005A0280935B0290935C0260917302709163
:1009E0007402882777FD8095982F0E94DF1120914F
:1009F00065023091660240916702509168020E9440
:100A0000DC109B01AC01C701B6010E94DB106B0139
:100A10007C0120E030E0A9010E948F1218165CF4DE
:100A20002AE939E949E15EE3C701B6010E944011B4
:100A300018165CF013C02AE939E949E15EEBC701F9
:100A4000B6010E948F1287FF09C0C0925D02D0924A
:100A50005E02E0925F02F092600208C010925D02B6
:100A600010925E0210925F021092600260915D022D
:100A700070915E0280915F02909160020E94BD03BE
:100A800060933D0270933E0280933F029093400238
:100A900020E030E0A90160915D0270915E028091DA
:100AA0005F02909160020E944011811108C0109273
:100AB0003D0210923E0210923F0210924002C090FE
:100AC0003D02D0903E02E0903F02F090400220E0D4
:100AD00030E0A901C701B6010E94401187FF1BC089
:100AE00022E030E0B701A60180E993E00E94C8103F
:100AF00080913D0290913E02A0913F02B091400250
:100B0000B05880933D0290933E02A0933F02B09371
:100B1000400260E001C061E088E00E94620C20E0D9
:100B200030E048EC52E460913D0270913E028091C9
:100B30003F02909140020E94441120916102309145
:100B4000620240916302509164020E94931260938A
:100B50003D0270933E0280933F029093400287E0F3
:100B60000E94980C892B19F169E070E08BE792E004
:100B70000E94AC07C0917B02D0917C0260913D0243
:100B800070913E0280913F02909140020E94AC1110
:100B9000E881F9818BE792E009958BE792E0DF919C
:100BA000CF91FF90EF90DF90CF900C94C107DF9131
:100BB000CF91FF90EF90DF90CF900895CF92DF928A
:100BC000EF92FF920F931F93CF93DF93C5E7D2E08D
:100BD0008C010B581D4FC017D10731F08BE792E005
:100BE0000E94C5068993F7CF20917602822F90E06C
:100BF00090936C0280936B022130E1F120F022305F
:100C000009F466C0B1C06091750270E080E090E0C8
:100C10000E94DD1160936502709366028093670203
:100C2000909368026091770270E080E090E00E940B
:100C3000DD1160936102709362028093630290936E
:100C400064028AE00E94980C892B89F480916502E5
:100C500090916602A0916702B0916802B0588093AB
:100C6000650290936602A0936702B09368021092A7
:100C700069027AC080916902811176C0209369026D
:100C8000C0905902D0905A02E0905B02F0905C0252
:100C900020E030E0A901C701B6010E94401187FFA2
:100CA0000BC0C701B60190580E94B11180E090E0DE
:100CB0000E94F20060E009C0C701B6010E94B111B4
:100CC00080E090E00E94F20061E081E090E042C0AC
:100CD00080916902811148C081E0809369026FE8C8
:100CE00071E080E993E00E94F90E40915902509121
:100CF0005A0260915B0270915C0222E030E080E970
:100D000093E00E94C810C0905902D0905A02E0901F
:100D10005B02F0905C0220E030E0A901C701B6015F
:100D20000E94401187FF0BC0C701B60190580E9476
:100D3000B11182E090E00E94F20060E009C0C701BA
:100D4000B6010E94B11182E090E00E94F20061E0E1
:100D500083E090E0DF91CF911F910F91FF90EF9092
:100D6000DF90CF900C94F200DF91CF911F910F9103
:100D7000FF90EF90DF90CF9008958091AF0290E0C8
:100D80002091B002821B910908952091B0028091B8
:100D9000AF02281750F4E22FF0E0EF54FD4F8081AE
:100DA00090E02F5F2093B00208958FEF9FEF08959A
:100DB000E091B0028091AF02E81730F4F0E0EF5418
:100DC000FD4F808190E008958FEF9FEF0895089583
:100DD000E0918702F09188023097E1F03091B00203
:100DE0002091AF023217B0F040E0242F30E02617F8
:100DF000370754F4DC01A20FB31F5C91D901AF5443
:100E0000BD4F5C934F5FF1CF1092B0026093AF0281
:100E1000CB0109940895E0918902F0918A023097FC
:100E200029F010928D0210928C0209940895CF92AD
:100E3000DF92EF92FF920F931F93CF93DF937C018A
:100E4000CB018A0120918B02222389F0EB016B01F7
:100E5000C40ED51ECC15DD0569F06991D701ED9161
:100E6000FC910190F081E02DC7010995F3CF642F2B
:100E70000E944608C801DF91CF911F910F91FF900A
:100E8000EF90DF90CF900895CF93DF931F92CDB76F
:100E9000DEB7698320918B022223D1F020918C024E
:100EA000203240F021E030E0FC013383228380E0F7
:100EB00090E015C080918D02E82FF0E0E257FD4FE1
:100EC000998190838F5F80938D0280938C0205C0FF
:100ED00061E0CE0101960E94460881E090E00F900B
:100EE000DF91CF910895FC011382128248EE53E006
:100EF00060E070E0448355836683778389EA91E0FC
:100F00009183808308951092B0021092AF021092E4
:100F10008D0210928C020C94CD07CF93DF93EC01DD
:100F2000862F0E94EB078BE097E00E94640888EE12
:100F300096E00E945F08CE01DF91CF910C94830769
:100F40000C948D0781E080938B026093AE02109227
:100F50008D0210928C0208950C94A2070F93062F15
:100F600021E040918C026EE872E08091AE020E9416
:100F7000EF0710928D0210928C0210928B020F914B
:100F8000089561E00C94AE07709388026093870225
:100F900008958BE792E00C94730710923E0381E072
:100FA00080933C0310923B0361E082E10E94620C5B
:100FB00061E083E10E94620CE9EBF0E080818E7FCA
:100FC000808380818D7F808388E48093B80085E46E
:100FD0008093BC000895880F8093BA0008950F9302
:100FE000413208F04AC090913E039111FCCF92E04B
:100FF00090933E0300933C039FEF9093D102109295
:10100000160340931503FB0167E173E0DB019A2FA0
:10101000961B941718F491919D93F9CF10923D036C
:1010200090913D03880F892B80933D0380913B0372
:10103000813061F410923B0380913D038093BB00AB
:101040008091BC0083FDF8CF85EC01C085EE8093D4
:10105000BC00222321F080913E038230E1F3809195
:10106000D1028F3F61F08091D102803251F08091A6
:10107000D102803341F483E007C081E005C080E005
:1010800003C082E001C084E00F910895613298F4BA
:1010900020913E03243089F46093F302FC0185EF34
:1010A00092E0DC012A2F281B261718F421912D939A
:1010B000F9CF80E0089581E0089582E0089590934B
:1010C000380380933703089590933A03809339034C
:1010D000089585ED8093BC008091BC0084FDFCCF19
:1010E00010923E03089585EC8093BC0010923E035D
:1010F00008951F920F920FB60F9211242F933F93D2
:101100004F935F936F937F938F939F93AF93BF930F
:10111000EF93FF938091B900887F803609F49EC0D9
:1011200078F5883209F45DC090F4803109F456C036
:1011300038F4882309F4F5C0883009F44FC0F5C0AD
:10114000883109F44EC0803209F45FC0EEC08034AB
:1011500009F46AC058F4803309F457C0883309F0A1
:10116000E4C08093D1020E947308DFC0803509F487
:101170004FC0883509F45DC0883409F0D6C0D3C0AB
:10118000883909F4C4C0A8F4883709F467C038F472
:10119000883609F463C0803709F460C0C6C0883857
:1011A00009F4B5C0803909F45FC0803809F0BDC0CA
:1011B0005BC0803B09F483C038F4803A09F466C010
:1011C000883A09F47CC0B1C0803C09F4A4C0883CD2
:1011D00009F4A1C0883B09F487C0A7C080913D03F2
:1011E00010C09091160380911503981770F5E09147
:1011F000160381E08E0F80931603F0E0E95EFC4F4A
:1012000080818093BB0085EC83C08093D1028BC02A
:10121000E091160381E08E0F809316038091BB004E
:10122000F0E0E95EFC4F80839091160380911503F6
:101230006BC0E091160381E08E0F809316038091BE
:10124000BB00F0E0E95EFC4F808380913C0381119C
:101250006AC081E080933B0384EA5EC083E08093B0
:101260003E031092D202CFCF8091D202803208F09A
:101270004EC0E091D20281E08E0F8093D202809125
:10128000BB00F0E0ED52FD4F8083BDCF0E9473089C
:101290008091D202803230F4E091D202F0E0ED523F
:1012A000FD4F10826091D20270E0E0913703F0911F
:1012B000380383ED92E009951092D20236C084E0A3
:1012C00080933E031092F4021092F302E0913903EE
:1012D000F0913A0309958091F302811105C081E0F4
:1012E0008093F3021092F502E091F40281E08E0FF8
:1012F0008093F402F0E0EB50FD4F80818093BB00BF
:101300009091F4028091F302981708F47CCF85E85D
:101310008093BC000AC085EC8093BC0010923E0311
:1013200004C01092D1020E946908FF91EF91BF9111
:10133000AF919F918F917F916F915F914F913F916D
:101340002F910F900FBE0F901F9018950F931F9322
:10135000CF93DF93EC01611116C00E945C0B0A81F0
:101360001B812C813D81601B710B820B930B6233BF
:1013700071058105910538F463E070E080E090E04C
:101380000E948B0BEACF0E945C0B6A837B838C8369
:101390009D8381E0DF91CF911F910F910895089572
:1013A000FC01EC5BFF4F1082118212821382FC0160
:1013B000128213821482158241155105610571054F
:1013C00021F0CB01BA010C948B0B0895FB01BA01FB
:1013D000A9018E5B9F4FDC01ED93FC9326E0CF01CA
:1013E0000C94A40D8E5B9F4FDC018D919C91DC01D0
:1013F000ED91FC910680F781E02D099508958E5BB3
:101400009F4FDC018D919C91DC01ED91FC9104805A
:10141000F581E02D099508951F93CF93DF93EC019B
:10142000162F0E945C0B6A837B838C839D83CE5B2B
:10143000DF4F67EC71E0888199810E94F90E4AE0E4
:1014400050E0612F888199810E94D60F6EEC71E087
:10145000888199810E94F90E62E370E080E090E05B
:10146000DF91CF911F910C948B0B1F93CF93DF9340
:10147000EC01162F8E89882311F1CE010E94FF09FD
:10148000811102C085E61CC0CE010E94FF0988239D
:10149000C9F3CE010E94F209883689F048F48835F4
:1014A00069F0833689F7612FCE010E940C0A07C0CC
:1014B000813729F0863741F786E702C01E8A83E626
:1014C000DF91CF911F9108950F931F93CF93DF93D7
:1014D0001F92CDB7DEB78C01611108C0F801468BB1
:1014E0000F90DF91CF911F910F91089581E0F80146
:1014F000868B60E0C80149830E94350A49818336A2
:10150000C1F7ECCF109245031092460310924703A7
:10151000109248031092490310924A0310924B0311
:1015200010924C0310924D0310924E0310924F03F1
:1015300010925003109251031092520310925303D1
:1015400010925403089508958230E8F4E82FF0E0F3
:10155000EE0FFF1FEF5EFE4F71836083813041F01D
:10156000809169008C7F842B80936900E89A0895AC
:1015700080916900440F551F440F551F837F842BB2
:1015800080936900E99A08951F920F920FB60F9207
:1015900011242F933F934F935F936F937F938F9378
:1015A0009F93AF93BF93EF93FF93E0911101F0915D
:1015B00012010995FF91EF91BF91AF919F918F918A
:1015C0007F916F915F914F913F912F910F900FBE3F
:1015D0000F901F9018951F920F920FB60F92112423
:1015E0002F933F934F935F936F937F938F939F932B
:1015F000AF93BF93EF93FF93E0911301F091140128
:101600000995FF91EF91BF91AF919F918F917F913C
:101610006F915F914F913F912F910F900FBE0F905F
:101620001F9018951F920F920FB60F9211242F93AF
:101630003F938F939F93AF93BF9380918803909133
:101640008903A0918A03B0918B033091870323E033
:10165000230F2D3720F40196A11DB11D05C026E8EA
:10166000230F0296A11DB11D209387038093880349
:1016700090938903A0938A03B0938B0380918C038A
:1016800090918D03A0918E03B0918F030196A11DBF
:10169000B11D80938C0390938D03A0938E03B09320
:1016A0008F03BF91AF919F918F913F912F910F9099
:1016B0000FBE0F901F9018952FB7F8946091880374
:1016C0007091890380918A0390918B032FBF0895B5
:1016D0003FB7F89480918C0390918D03A0918E0375
:1016E000B0918F0326B5A89B05C02F3F19F0019636
:1016F000A11DB11D3FBF6627782F892F9A2F620F3A
:10170000711D811D911D42E0660F771F881F991F73
:101710004A95D1F708958F929F92AF92BF92CF9240
:10172000DF92EF92FF926B017C010E94680B4B01EC
:101730005C01C114D104E104F104F1F00E94DA105B
:101740000E94680B681979098A099B09683E7340F1
:101750008105910570F321E0C21AD108E108F10872
:1017600088EE880E83E0981EA11CB11CC114D10420
:10177000E104F10429F7DDCFFF90EF90DF90CF90E7
:10178000BF90AF909F908F900895789484B58260B9
:1017900084BD84B5816084BD85B5826085BD85B515
:1017A000816085BDEEE6F0E0808181608083E1E8C4
:1017B000F0E01082808182608083808181608083FC
:1017C000E0E8F0E0808181608083E1EBF0E08081FF
:1017D00084608083E0EBF0E0808181608083EAE7D1
:1017E000F0E080818460808380818260808380815A
:1017F000816080838081806880831092C100089519
:10180000833081F028F4813099F08230A1F008957E
:101810008730A9F08830B9F08430D1F4809180000D
:101820008F7D03C0809180008F7780938000089522
:1018300084B58F7702C084B58F7D84BD0895809173
:10184000B0008F7703C08091B0008F7D8093B0008F
:101850000895CF93DF9390E0FC01E458FF4F24916B
:10186000FC01E057FF4F8491882349F190E0880FF5
:10187000991FFC01E854FF4FA591B49182559F4FE9
:10188000FC01C591D4919FB7611108C0F8948C9167
:10189000209582238C93888182230AC0623051F480
:1018A000F8948C91322F309583238C938881822BEE
:1018B000888304C0F8948C91822B8C939FBFDF9116
:1018C000CF9108950F931F93CF93DF931F92CDB7BE
:1018D000DEB7282F30E0F901E859FF4F8491F90174
:1018E000E458FF4F1491F901E057FF4F0491002392
:1018F000C9F0882321F069830E94000C6981E02FE0
:10190000F0E0EE0FFF1FE255FF4FA591B4919FB796
:10191000F8948C91611103C01095812301C0812B33
:101920008C939FBF0F90DF91CF911F910F910895DE
:10193000CF93DF93282F30E0F901E859FF4F8491CE
:10194000F901E458FF4FD491F901E057FF4FC491DA
:10195000CC2391F081110E94000CEC2FF0E0EE0FEF
:10196000FF1FEC55FF4FA591B4912C912D2381E0E1
:1019700090E021F480E002C080E090E0DF91CF9120
:101980000895FC01818D228D90E0805C9F4F821B29
:1019900091098F7399270895FC01918D828D981775
:1019A00031F0828DE80FF11D858D90E008958FEF65
:1019B0009FEF0895FC01918D828D981761F0828DC3
:1019C000DF01A80FB11D5D968C91928D9F5F9F7373
:1019D000928F90E008958FEF9FEF08958EE59EE03F
:1019E000892B49F080E090E0892B29F00E945E0E5F
:1019F00081110C9400000895FC01848DDF01A80F73
:101A0000B11DA35ABF4F2C91848D90E001968F7326
:101A10009927848FA689B7892C93A089B1898C9145
:101A200080648C93938D848D981306C00288F3890B
:101A3000E02D80818F7D80830895CF93DF93EC012B
:101A4000888D8823C9F0EA89FB89808185FD05C0DE
:101A5000A889B9898C9186FD0FC00FB607FCF5CF18
:101A6000808185FFF2CFA889B9898C9185FFEDCF60
:101A7000CE010E94FC0CE7CFDF91CF910895CF9269
:101A8000DF92FF920F931F93CF93DF931F92CDB7F7
:101A9000DEB76C0181E0D60158968C9358975B961F
:101AA0009C915B975C968C915C97981307C05096BD
:101AB000ED91FC915197808185FD2EC0F601038D3B
:101AC00010E00F5F1F4F0F731127F02EF601848D6A
:101AD000F81211C00FB607FCF9CFD6015096ED9160
:101AE000FC915197808185FFF1CFC60169830E94E7
:101AF000FC0C6981EBCF838DE80FF11DE35AFF4F9A
:101B00006083D6015B960C935B975296ED91FC91A6
:101B10005397808180620CC0D6015696ED91FC915E
:101B2000579760835096ED91FC9151978081806426
:101B3000808381E090E00F90DF91CF911F910F9112
:101B4000FF90DF90CF900895BF92CF92DF92EF92F7
:101B5000FF92CF93DF93EC016A017B01B22EE889FB
:101B6000F98982E08083411581EE5807610571058E
:101B7000A1F060E079E08DE390E0A70196010E947A
:101B8000FA12215031094109510956954795379567
:101B90002795211580E1380798F0E889F9891082A6
:101BA00060E874E88EE190E0A70196010E94FA12C5
:101BB0002150310941095109569547953795279587
:101BC000EC85FD853083EE85FF852083188EEC89BA
:101BD000FD89B082EA89FB89808180618083EA89FE
:101BE000FB89808188608083EA89FB8980818068A5
:101BF0008083EA89FB8980818F7D8083DF91CF910B
:101C0000FF90EF90DF90CF90BF9008951F920F92BA
:101C10000FB60F9211242F938F939F93EF93FF93FF
:101C2000E091A003F091A1038081E091A603F091DF
:101C3000A70382FD12C090818091A9038F5F8F73EB
:101C40002091AA03821751F0E091A903F0E0E05738
:101C5000FC4F958F8093A90301C08081FF91EF9184
:101C60009F918F912F910F900FBE0F901F901895FD
:101C70001F920F920FB60F9211242F933F934F9301
:101C80005F936F937F938F939F93AF93BF93EF93E4
:101C9000FF9380E993E00E94FC0CFF91EF91BF91CC
:101CA000AF919F918F917F916F915F914F913F91F4
:101CB0002F910F900FBE0F901F90189580E993E021
:101CC0000E94C10C21E0892B09F420E0822F0895A5
:101CD000109293031092920388EE93E0A0E0B0E09C
:101CE0008093940390939503A0939603B0939703E6
:101CF00083E292E0909391038093900385EC90E0CF
:101D000090939D0380939C0384EC90E090939F03B9
:101D100080939E0380EC90E09093A1038093A003B6
:101D200081EC90E09093A3038093A20382EC90E077
:101D30009093A5038093A40386EC90E09093A7036F
:101D40008093A6031092A9031092AA031092AB03EA
:101D50001092AC03089508950E94C50B0E94AB0E2B
:101D60000E949302CEEEDCE00E94C1042097E1F3D2
:101D70000E94EE0CF9CFCF92DF92EF92FF920F9379
:101D80001F93CF93DF937C016A01EB0100E010E029
:101D90000C151D0571F06991D701ED91FC91019031
:101DA000F081E02DC7010995892B19F00F5F1F4FB6
:101DB000EFCFC801DF91CF911F910F91FF90EF906E
:101DC000DF90CF9008956115710581F0DB010D90D2
:101DD0000020E9F7AD0141505109461B570BDC01CA
:101DE000ED91FC910280F381E02D099480E090E078
:101DF00008950C94E30EDC01ED91FC910190F081CB
:101E0000E02D099464ED71E00C94E30E0F931F93A1
:101E1000CF93DF93EC010E94E30E8C01CE010E9470
:101E2000020F800F911FDF91CF911F910F910895A5
:101E30008F929F92AF92BF92DF92EF92FF920F9399
:101E40001F93CF93DF93CDB7DEB7A1970FB6F8946A
:101E5000DEBF0FBECDBF7C01F42FD52ECB0119A262
:101E6000223008F42AE08E010F5D1F4F822E912C44
:101E7000A12CB12C6F2F7D2DA50194010E94FA1287
:101E8000F22FD32ECA01015011096A3014F4E0E395
:101E900001C0E7E3E60FD801EC93232B242B252B7D
:101EA00049F7B801C7010E94E30EA1960FB6F89456
:101EB000DEBF0FBECDBFDF91CF911F910F91FF907D
:101EC000EF90DF90BF90AF909F908F900895CF924A
:101ED000DF92EF92FF920F931F93CF93DF93EC016A
:101EE0006A017B012115310579F4E881F9810190BE
:101EF000F081E02D642FDF91CF911F910F91FF9022
:101F0000EF90DF90CF9009942A303105E9F477FF04
:101F10001AC06DE20E94FB0E8C0144275527BA01BE
:101F20004C195D096E097F092AE0CE010E94180F45
:101F3000800F911FDF91CF911F910F91FF90EF9034
:101F4000DF90CF9008952AE0B701A601CE01DF917E
:101F5000CF911F910F91FF90EF90DF90CF900C9455
:101F6000180F0F931F93CF93DF93EC019A01AB01EE
:101F7000662757FD6095762F0E94670F8C01CE0172
:101F80000E94020F800F911FDF91CF911F910F913F
:101F900008952115310541F4DC01ED91FC9101908A
:101FA000F081E02D642F09940C94180F9A01462FAC
:101FB00050E060E070E00C94C90F4F925F926F9216
:101FC0007F928F929F92AF92BF92CF92DF92EF92C9
:101FD000FF920F931F93CF93DF93EC016A017B0174
:101FE000B22E9A01AB01C701B6010E94F6128823F6
:101FF00019F06FE272E027C026013701E89477F804
:102000002FEF3FEF4FE75FE7C301B2010E94F612E7
:1020100081110DC02FEF3FEF4FE75FE7C301B20122
:102020000E94401118161CF463E372E00CC02FEFFD
:102030003FEF4FE75FE4C701B6010E948F12181609
:10204000ACF467E372E0CE01DF91CF911F910F9165
:10205000FF90EF90DF90CF90BF90AF909F908F90C8
:102060007F906F905F904F900C94E30E2FEF3FEFB7
:102070004FE75FECC701B6010E94401187FDE1CF39
:1020800020E030E0A901C701B6010E94401187FF9E
:102090000AC06DE2CE010E94FB0E8C01F7FAF094AB
:1020A000F7F8F09402C000E010E0A12C60E070E0CE
:1020B00080E09FE3AB1441F020E030E040E251E4E7
:1020C0000E944411A394F6CF9B01AC01C701B60155
:1020D0000E94DC106B017C010E94B1112B013C01BC
:1020E0000E94DD119B01AC01C701B6010E94DB100B
:1020F0006B017C012AE0B301A201CE010E94180FFE
:10210000080F191FBB2039F067E671E0CE010E946D
:10211000E30E080F191F7B2C772041F120E030E0FF
:1021200040E251E4C701B6010E9493126B017C01A9
:102130000E94AC114B01AA2497FCA094BA2C2AE06F
:1021400030E0B501A401CE010E94670F080F191FEE
:10215000C501B4010E94DF119B01AC01C701B601AA
:102160000E94DB106B017C017A94D6CFC801DF910D
:10217000CF911F910F91FF90EF90DF90CF90BF9084
:10218000AF909F908F907F906F905F904F90089549
:102190000F931F93CF93DF93EC010E94DD0F8C010F
:1021A000CE010E94020F800F911FDF91CF911F91EE
:1021B0000F91089508955058BB27AA270ED075C1D6
:1021C00066D130F06BD120F031F49F3F11F41EF452
:1021D0005BC10EF4E095E7FB51C1E92F77D180F3A5
:1021E000BA17620773078407950718F071F49EF514
:1021F0008FC10EF4E0950B2EBA2FA02D0B01B90163
:1022000090010C01CA01A0011124FF27591B99F06C
:10221000593F50F4503E68F11A16F040A22F232F78
:10222000342F4427585FF3CF469537952795A795C8
:10223000F0405395C9F77EF41F16BA0B620B730B6F
:10224000840BBAF09150A1F0FF0FBB1F661F771FE0
:10225000881FC2F70EC0BA0F621F731F841F48F495
:10226000879577956795B795F7959E3F08F0B3CF1B
:102270009395880F08F09927EE0F97958795089505
:10228000D9D008F481E008950CD00FC107D140F0F7
:10229000FED030F021F45F3F19F0F0C0511139C188
:1022A000F3C014D198F39923C9F35523B1F3951BC7
:1022B000550BBB27AA2762177307840738F09F5F67
:1022C0005F4F220F331F441FAA1FA9F333D00E2ED6
:1022D0003AF0E0E830D091505040E695001CCAF743
:1022E00029D0FE2F27D0660F771F881FBB1F261708
:1022F00037074807AB07B0E809F0BB0B802DBF01DB
:10230000FF2793585F4F2AF09E3F510568F0B6C0F3
:1023100000C15F3FECF3983EDCF3869577956795B7
:10232000B795F7959F5FC9F7880F911D969587958B
:1023300097F90895E1E0660F771F881FBB1F6217AA
:1023400073078407BA0720F0621B730B840BBA0B68
:10235000EE1F88F7E095089504D06894B111D9C0B4
:102360000895BCD088F09F5790F0B92F9927B751A6
:10237000A0F0D1F0660F771F881F991F1AF0BA9549
:10238000C9F712C0B13081F0C3D0B1E00895C0C028
:10239000672F782F8827B85F39F0B93FCCF386953F
:1023A00077956795B395D9F73EF49095809570959C
:1023B00061957F4F8F4F9F4F0895E89409C097FB19
:1023C0003EF490958095709561957F4F8F4F9F4F0C
:1023D0009923A9F0F92F96E9BB279395F695879550
:1023E00077956795B795F111F8CFFAF4BB0F11F413
:1023F00060FF1BC06F5F7F4F8F4F9F4F16C08823BA
:1024000011F096E911C0772321F09EE8872F762FEF
:1024100005C0662371F096E8862F70E060E02AF030
:102420009A95660F771F881FDAF7880F969587951C
:1024300097F90895990F0008550FAA0BE0E8FEEFF1
:1024400016161706E807F907C0F012161306E40778
:10245000F50798F0621B730B840B950B39F40A2671
:1024600061F0232B242B252B21F408950A2609F44F
:10247000A140A6958FEF811D811D089597F99F6753
:1024800080E870E060E008959FEF80EC08950024FC
:102490000A941616170618060906089500240A94C9
:1024A00012161306140605060895092E0394000C4F
:1024B00011F4882352F0BB0F40F4BF2B11F460FFDE
:1024C00004C06F5F7F4F8F4F9F4F089557FD905807
:1024D000440F551F59F05F3F71F04795880F97FBE8
:1024E000991F61F09F3F79F08795089512161306A2
:1024F0001406551FF2CF4695F1DF08C016161706D1
:102500001806991FF1CF8695710561050894089505
:10251000E894BB2766277727CB0197F908958ADFD0
:1025200008F48FEF08950BD0C0CFB1DF28F0B6DFED
:1025300018F0952309F0A2CFA7CF1124EACFC6DF68
:10254000A0F3959FD1F3950F50E0551F629FF001C6
:10255000729FBB27F00DB11D639FAA27F00DB11D1F
:10256000AA1F649F6627B00DA11D661F829F2227A8
:10257000B00DA11D621F739FB00DA11D621F839F2F
:10258000A00D611D221F749F3327A00D611D231F05
:10259000849F600D211D822F762F6A2F11249F5753
:1025A00050408AF0E1F088234AF0EE0FFF1FBB1F76
:1025B000661F771F881F91505040A9F79E3F510515
:1025C00070F05CCFA6CF5F3FECF3983EDCF38695CE
:1025D00077956795B795F795E7959F5FC1F7FE2BC0
:1025E000880F911D9695879597F9089523DF880B9D
:1025F000990B0895A1E21A2EAA1BBB1BFD010DC069
:10260000AA1FBB1FEE1FFF1FA217B307E407F507A2
:1026100020F0A21BB30BE40BF50B661F771F881F7E
:10262000991F1A9469F760957095809590959B0114
:10263000AC01BD01CF010895EE0FFF1F0590F4918D
:10264000E02D0994F999FECF92BD81BDF89A9927A2
:1026500080B50895262FF999FECF1FBA92BD81BD8E
:1026600020BD0FB6F894FA9AF99A0FBE0196089514
:04267000F894FFCF0C
:102674002C8F9440E1C89F3EA2D5F9BE4CD929C104
:1026840001A30AA30A6163745F706F73206C6173A2
:10269400743A20006163745F706F735F7369676E6F
:1026A400206C6173743A20007265665F706F7320EA
:1026B4006C6173743A20007265665F706F735F7348
:1026C40069676E206C6173743A2000526573657497
:1026D40020656570726F6D2E005265616479207299
:1026E4006573657420656570726F6D2E00564D4478
:1026F40050565F317C315F564D4450560D0A00638D
:10270400757272656E745F6D6F746F725F616E6700
:102714006C653A20000000000044071707BD06C599
:1027240006D806E706564D4450455F003A323A0053
:102734005F564D44504500564D4450435F005F562C
:102744004D4450430D0A004572726F723A20417431
:1027540074656D707420746F2073657420612072C9
:102764006561642D6F6E6C79207661726961626C4B
:1027740065206F7220646174612074797065206EC5
:102784006F7420737570706F727465640D0A000045
:102794000000003F0DBB0EC10CDA0CCC0C1D0D6EFD
:0C27A400616E00696E66006F76660000D2
:107E0000112484B714BE81FFF0D085E080938100F7
:107E100082E08093C00088E18093C10086E0809377
:107E2000C20080E18093C4008EE0C9D0259A86E02C
:107E300020E33CEF91E0309385002093840096BBD3
:107E4000B09BFECF1D9AA8958150A9F7CC24DD24C4
:107E500088248394B5E0AB2EA1E19A2EF3E0BF2EE7
:107E6000A2D0813461F49FD0082FAFD0023811F036
:107E7000013811F484E001C083E08DD089C08234E0
:107E800011F484E103C0853419F485E0A6D080C0E4
:107E9000853579F488D0E82EFF2485D0082F10E0AE
:107EA000102F00270E291F29000F111F8ED06801E7
:107EB0006FC0863521F484E090D080E0DECF843638
:107EC00009F040C070D06FD0082F6DD080E0C81688
:107ED00080E7D80618F4F601B7BEE895C0E0D1E017
:107EE00062D089930C17E1F7F0E0CF16F0E7DF06D8
:107EF00018F0F601B7BEE89568D007B600FCFDCFD4
:107F0000A601A0E0B1E02C9130E011968C91119780
:107F100090E0982F8827822B932B1296FA010C0160
:107F200087BEE89511244E5F5F4FF1E0A038BF0790
:107F300051F7F601A7BEE89507B600FCFDCF97BE46
:107F4000E89526C08437B1F42ED02DD0F82E2BD052
:107F50003CD0F601EF2C8F010F5F1F4F84911BD097
:107F6000EA94F801C1F70894C11CD11CFA94CF0C13
:107F7000D11C0EC0853739F428D08EE10CD085E9AC
:107F80000AD08FE07ACF813511F488E018D01DD067
:107F900080E101D065CF982F8091C00085FFFCCF94
:107FA0009093C60008958091C00087FFFCCF809118
:107FB000C00084FD01C0A8958091C6000895E0E648
:107FC000F0E098E1908380830895EDDF803219F02E
:107FD00088E0F5DFFFCF84E1DECF1F93182FE3DFCA
:107FE0001150E9F7F2DF1F91089580E0E8DFEE27F6
:047FF000FF270994CA
:027FFE00040479
:0400000300007E007B
:00000001FF