:100000000C9463000C9419060C9440060C948B001D
:100010000C948B000C948B000C948B000C948B0034
:100020000C948B000C948B000C948B000C948B0024
:100030000C948B000C948B000C948B000C948B0014
:100040000C9467060C948B000C94AE090C94E00998
:100050000C948B000C948B000C948B000C948B00F4
:100060000C94CB040C948B000000000800020100EB
:100070000003040700000000000000000102040863
:100080001020408001020408102001020408102002
:10009000040404040404040402020202020203032E
:1000A00003030303000000002300260029000000D2
:1000B0000000250028002B0000000000240027007D
:1000C0002A007204100A11241FBECFEFD8E0DEBF51
:1000D000CDBF11E0A0E0B1E0E2EDF8E102C0059093
:1000E0000D92A433B107D9F722E0A4E3B1E001C037
:1000F0001D92A53CB207E1F710E0C6ECD0E004C0C9
:100100002297FE010E94630CC23CD107C9F70E94EE
:10011000540A0C94670C0C94000082E00E94400882
:10012000019771F483E00E9440084091340150919E
:1001300035016091360170913701892B99F40DC01A
:1001400083E00E9440084091340150913501609154
:10015000360170913701019729F44F5F5F4F6F4F60
:100160007F4F04C041505109610971094093340126
:10017000509335016093360170933701089583E001
:100180000E944008019771F482E00E94400840916B
:10019000340150913501609136017091370101971A
:1001A00099F40DC082E00E944008409134015091C2
:1001B00035016091360170913701892B29F44F5F29
:1001C0005F4F6F4F7F4F04C0415051096109710962
:1001D0004093340150933501609336017093370199
:1001E000089526E040E855E260E070E088E292E0A1
:1001F0000E944C0981E080935B018093580160E08C
:1002000082E00E94D10760E083E00E94D10761E0B4
:1002100084E00E94D10761E085E00E94D10761E09F
:1002200086E00E94D10761E086E00E940A081092F1
:100230005A011092590141E050E06DE870E080E011
:100240000E94F90541E050E06FEB70E081E00E9410
:10025000F9058CE591E00E944E0468E070E08CE5C1
:1002600091E00E946B0464E773E08CE591E00E94EA
:100270006D0464E670E080E090E00C94D4068F9208
:100280009F92AF92BF92CF92DF92EF92FF920F9325
:100290001F93CF93DF936B017C0149015A0120E04A
:1002A00030E04FE753EC0E94D80B87FD0AC020E0F6
:1002B00030E04FE753E4C701B6010E94F10A181677
:1002C0007CF520E030E04FE753E4C701B6010E941F
:1002D000D80B18164CF420E030E04FE753E4C70188
:1002E000B6010E948C0A12C020E030E04FE753ECC8
:1002F000C701B6010E94F10A87FF12C020E030E07A
:100300004FE753E4C701B6010E948D0A6B017C01DF
:1003100020E030E0A9010E94D80B1816ACF003C011
:10032000C12CD12C7601C1E0D0E020E030E0A90161
:10033000C701B6010E94F10A87FD02C0C0E0D0E00B
:10034000D195C195D10902C0C1E0D0E020E030E0F4
:10035000A901C501B4010E94D80B01E010E01816F4
:1003600074F020E030E0A901C501B4010E94F10A57
:1003700087FD02C000E010E0119501951109C0173A
:10038000D10759F420E030E0A901C701B6010E946D
:10039000F10A882311F081E000C0DF91CF911F9115
:1003A0000F91FF90EF90DF90CF90BF90AF909F9014
:1003B0008F9008954F925F926F927F928F929F924B
:1003C000AF92BF92CF92DF92EF92FF92CF93DF93E3
:1003D00000D000D0CDB7DEB76B017C0120910C01BD
:1003E00030910D0140910E0150910F010E94DC0BE4
:1003F0004B015C01609348017093490180934A016D
:1004000090934B0160913C0170913D0180913E01C0
:1004100090913F01A70196010E943F01882321F09E
:1004200020E030E0A9010AC02DEC3CEC4CE45DE397
:10043000C701B6010E94DC0B9B01AC016091440135
:100440007091450180914601909147010E948D0A6B
:100450006093440170934501809346019093470156
:10046000209108013091090140910A0150910B013E
:10047000609144017091450180914601909147013E
:100480000E94DC0B2B013C016093440170934501F9
:1004900080934601909347018091380190913901F2
:1004A000A0913A01B0913B0189839A83AB83BC83CD
:1004B00020910401309105014091060150910701FE
:1004C000C701B6010E94DC0B29813A814B815C8116
:1004D0000E948C0A2091000130910101409102019B
:1004E000509103010E94DC0B6B017C016093400181
:1004F000709341018093420190934301A3019201C3
:10050000C501B4010E948D0AA70196010E948D0ABF
:100510004B015C0160933C0170933D0180933E016F
:1005200090933F0120E030E04FE753E40E94D80B66
:1005300018168CF020E030E04FE753ECC501B40111
:100540000E94F10A87FF0DC0812C912C9FE7A92EF4
:1005500093ECB92E06C0812C912C8FE7A82E83E452
:10056000B82E2DEC3CEC4CE45DE3C701B6010E94D3
:10057000DC0B9B01AC0169817A818B819C810E949B
:100580008D0A609338017093390180933A019093FA
:100590003B01C501B4010F900F900F900F90DF91B8
:1005A000CF91FF90EF90DF90CF90BF90AF909F9052
:1005B0008F907F906F905F904F900895CF92DF92D1
:1005C000EF92FF9260913401709135018091360174
:1005D000909137010E94280B60934C0170934D015C
:1005E00080934E0190934F01209154013091550119
:1005F00040915601509157010E948C0A6B017C0179
:1006000020E030E0A9010E94D80B18165CF42AE91A
:1006100039E949E15EE3C701B6010E94F10A181603
:100620005CF013C02AE939E949E15EEBC701B60184
:100630000E94D80B87FF09C0C0925001D09251018F
:10064000E0925201F092530108C0109250011092B2
:10065000510110925201109253016091500170911A
:10066000510180915201909153010E94DA016B0176
:100670007C0120E030E0A9016091500170915101AE
:1006800080915201909153010E94F10A8823B1F0A8
:1006900020E030E0A901C701B6010E94F10A87FFFE
:1006A00010C060E084E00E940A0861E085E00E94DA
:1006B0000A08F7FAF094F7F8F0940BC0C12CD12C8B
:1006C000760161E084E00E940A0860E085E00E9413
:1006D0000A08C701B6010E94F50A89E0FF90EF9071
:1006E000DF90CF900C9449078CE591E00E94900335
:1006F000BC01882777FD8095982F0E94280B609376
:1007000054017093550180935601909357010895B9
:1007100080918F0190E020919001821B91090895B2
:100720002091900180918F01281750F4E22FF0E082
:10073000EF56FE4F808190E02F5F20939001089547
:100740008FEF9FEF0895E091900180918F01E8175E
:1007500030F4F0E0EF56FE4F808190E008958FEF87
:100760009FEF08950895E0916801F0916901309735
:10077000E1F03091900120918F013217B0F040E00C
:10078000242F30E02617370754F4DC01A20FB31FE3
:100790005C91D901AF56BE4F5C934F5FF1CF109281
:1007A000900160938F01CB0109940895E0916A0153
:1007B000F0916B01309729F010926E0110926D014B
:1007C00009940895CF92DF92EF92FF920F931F93B7
:1007D000CF93DF937C01CB018A0120916C0122230E
:1007E00089F0EB016B01C40ED51ECC15DD0569F057
:1007F0006991D701ED91FC910190F081E02DC70145
:100800000995F3CF642F0E949804C801DF91CF911E
:100810001F910F91FF90EF90DF90CF900895CF93AD
:10082000DF931F92CDB7DEB7698320916C0122233D
:10083000D1F020916D01203240F021E030E0FC0148
:100840003383228380E090E015C080916E01E82F11
:10085000F0E0E159FE4F998190838F5F80936E01A4
:1008600080936D0105C061E0CE0101960E9498045D
:1008700081E090E00F90DF91CF910895FC01138209
:10088000128248EE53E060E070E044835583668353
:10089000778388E191E0918380830895109290019D
:1008A00010928F0110926E0110926D010C947604DB
:1008B000CF93DF93EC01862F0E94940486ED93E0A2
:1008C0000E94B60483EB93E00E94B104CE01DF9155
:1008D000CF910C944E040C9458047093690160936A
:1008E000680108958CE591E00C943E0410921E027C
:1008F00081E080931C0210921B0261E082E10E9461
:100900000A0861E083E10E940A08E9EBF0E08081D7
:100910008E7F808380818D7F808388E48093B80080
:1009200085E48093BC000895880F8093BA000895F1
:10093000613298F420911E02243089F46093D3012F
:10094000FC0185ED91E0DC012A2F281B261718F405
:1009500021912D93F9CF80E0089581E0089582E000
:1009600008959093180280931702089590931A02A5
:1009700080931902089585ED8093BC008091BC009E
:1009800084FDFCCF10921E02089585EC8093BC007C
:1009900010921E0208951F920F920FB60F9211240B
:1009A0002F933F934F935F936F937F938F939F9377
:1009B000AF93BF93EF93FF938091B900887F803608
:1009C00009F49EC078F5883209F45DC090F4803156
:1009D00009F456C038F4882309F4F5C0883009F4C6
:1009E0004FC0F5C0883109F44EC0803209F45FC0B1
:1009F000EEC0803409F46AC058F4803309F457C05B
:100A0000883309F0E4C08093B1010E94C504DFC0BF
:100A1000803509F44FC0883509F45DC0883409F089
:100A2000D6C0D3C0883909F4C4C0A8F4883709F403
:100A300067C038F4883609F463C0803709F460C0B1
:100A4000C6C0883809F4B5C0803909F45FC0803861
:100A500009F0BDC05BC0803B09F483C038F4803A24
:100A600009F466C0883A09F47CC0B1C0803C09F43E
:100A7000A4C0883C09F4A1C0883B09F487C0A7C082
:100A800080911D0210C09091F6018091F501981798
:100A900070F5E091F60181E08E0F8093F601F0E0B1
:100AA000E950FE4F80818093BB0085EC83C080932A
:100AB000B1018BC0E091F60181E08E0F8093F601C9
:100AC0008091BB00F0E0E950FE4F80839091F601E9
:100AD0008091F5016BC0E091F60181E08E0F80936B
:100AE000F6018091BB00F0E0E950FE4F80838091D9
:100AF0001C0281116AC081E080931B0284EA5EC0FF
:100B000083E080931E021092B201CFCF8091B20198
:100B1000803208F04EC0E091B20181E08E0F8093E8
:100B2000B2018091BB00F0E0ED54FE4F8083BDCF59
:100B30000E94C5048091B201803230F4E091B2018C
:100B4000F0E0ED54FE4F10826091B20170E0E09150
:100B50001702F091180283EB91E009951092B2010F
:100B600036C084E080931E021092D4011092D3010B
:100B7000E0911902F0911A0209958091D301811137
:100B800005C081E08093D3011092D501E091D4019A
:100B900081E08E0F8093D401F0E0EB52FE4F808114
:100BA0008093BB009091D4018091D301981708F4F1
:100BB0007CCF85E88093BC000AC085EC8093BC00A4
:100BC00010921E0204C01092B1010E94BB04FF915A
:100BD000EF91BF91AF919F918F917F916F915F91B5
:100BE0004F913F912F910F900FBE0F901F9018952E
:100BF00008958230E8F4E82FF0E0EE0FFF1FE05F89
:100C0000FE4F71836083813041F0809169008C7F59
:100C1000842B80936900E89A089580916900440FBD
:100C2000551F440F551F837F842B80936900E99AD9
:100C300008951F920F920FB60F9211242F933F9396
:100C40004F935F936F937F938F939F93AF93BF93D4
:100C5000EF93FF93E0911001F09111010995FF913D
:100C6000EF91BF91AF919F918F917F916F915F9124
:100C70004F913F912F910F900FBE0F901F9018959D
:100C80001F920F920FB60F9211242F933F934F9301
:100C90005F936F937F938F939F93AF93BF93EF93E4
:100CA000FF93E0911201F09113010995FF91EF91EB
:100CB000BF91AF919F918F917F916F915F914F9174
:100CC0003F912F910F900FBE0F901F9018951F927C
:100CD0000F920FB60F9211242F933F938F939F93F0
:100CE000AF93BF938091200290912102A0912202A4
:100CF000B091230230911F0223E0230F2D3720F4FF
:100D00000196A11DB11D05C026E8230F0296A11D65
:100D1000B11D20931F028093200290932102A09383
:100D20002202B09323028091240290912502A09187
:100D30002602B09127020196A11DB11D80932402C5
:100D400090932502A0932602B0932702BF91AF9102
:100D50009F918F913F912F910F900FBE0F901F90F9
:100D600018953FB7F8948091240290912502A091A4
:100D70002602B091270226B5A89B05C02F3F19F087
:100D80000196A11DB11D3FBF6627782F892F9A2F8D
:100D9000620F711D811D911D42E0660F771F881F34
:100DA000991F4A95D1F708958F929F92AF92BF9263
:100DB000CF92DF92EF92FF926B017C010E94B1060D
:100DC0004B015C01C114D104E104F104F1F00E9473
:100DD0008B0A0E94B106681979098A099B09683E45
:100DE00073408105910570F321E0C21AD108E10832
:100DF000F10888EE880E83E0981EA11CB11CC11476
:100E0000D104E104F10429F7DDCFFF90EF90DF90EA
:100E1000CF90BF90AF909F908F900895789484B5B5
:100E2000826084BD84B5816084BD85B5826085BDE6
:100E300085B5816085BDEEE6F0E0808181608083CC
:100E4000E1E8F0E0108280818260808380818160AF
:100E50008083E0E8F0E0808181608083E1EBF0E076
:100E6000808184608083E0EBF0E08081816080831A
:100E7000EAE7F0E080818460808380818260808303
:100E80008081816080838081806880831092C1002E
:100E900008951F93CF93DF93182FEB0161E00E9419
:100EA000D107209711F460E004C0CF3FD10539F499
:100EB00061E0812FDF91CF911F910C940A08E12FFF
:100EC000F0E0E859FF4FE491E330F9F048F4E13005
:100ED000B9F0E230A1F584B5806284BDC8BD34C0EC
:100EE000E730E9F0E83019F1E43049F5809180000D
:100EF000806280938000D0938B00C0938A0024C0CE
:100F000084B5806884BDC7BD1FC0809180008068A3
:100F100080938000D0938900C093880015C0809191
:100F2000B00080688093B000C093B3000DC0809182
:100F3000B00080628093B000C093B40005C0C03898
:100F4000D1050CF0B5CFAFCFDF91CF911F910895B0
:100F5000833081F028F4813099F08230A1F0089537
:100F60008730A9F08830B9F08430D1F480918000C6
:100F70008F7D03C0809180008F77809380000895DB
:100F800084B58F7702C084B58F7D84BD089580912C
:100F9000B0008F7703C08091B0008F7D8093B00048
:100FA0000895CF93DF9390E0FC01E458FF4F249124
:100FB000FC01E057FF4F8491882349F190E0880FAE
:100FC000991FFC01E854FF4FA591B49182559F4FA2
:100FD000FC01C591D4919FB7611108C0F8948C9120
:100FE000209582238C93888182230AC0623051F439
:100FF000F8948C91322F309583238C938881822BA7
:10100000888304C0F8948C91822B8C939FBFDF91CE
:10101000CF9108950F931F93CF93DF931F92CDB776
:10102000DEB7282F30E0F901E859FF4F8491F9012C
:10103000E458FF4F1491F901E057FF4F049100234A
:10104000C9F0882321F069830E94A8076981E02FF5
:10105000F0E0EE0FFF1FE255FF4FA591B4919FB74F
:10106000F8948C91611103C01095812301C0812BEC
:101070008C939FBF0F90DF91CF911F910F91089597
:10108000CF93DF93282F30E0F901E859FF4F849187
:10109000F901E458FF4FD491F901E057FF4FC49193
:1010A000CC2391F081110E94A807EC2FF0E0EE0F05
:1010B000FF1FEC55FF4FA591B4912C912D2381E09A
:1010C00090E021F480E002C080E090E0DF91CF91D9
:1010D0000895FC01818D228D90E0805C9F4F821BE2
:1010E00091098F7399270895FC01918D828D98172E
:1010F00031F0828DE80FF11D858D90E008958FEF1E
:101100009FEF0895FC01918D828D981761F0828D7B
:10111000DF01A80FB11D5D968C91928D9F5F9F732B
:10112000928F90E008958FEF9FEF089586E09AE008
:10113000892B49F080E090E0892B29F00E94060A73
:1011400081110C9400000895FC01848DDF01A80F2B
:10115000B11DA35ABF4F2C91848D90E001968F73DF
:101160009927848FA689B7892C93A089B1898C91FE
:1011700080648C93938D848D981306C00288F389C4
:10118000E02D80818F7D80830895CF93DF93EC01E4
:10119000888D8823C9F0EA89FB89808185FD05C097
:1011A000A889B9898C9186FD0FC00FB607FCF5CFD1
:1011B000808185FFF2CFA889B9898C9185FFEDCF19
:1011C000CE010E94A408E7CFDF91CF910895CF927E
:1011D000DF92FF920F931F93CF93DF931F92CDB7B0
:1011E000DEB76C0181E0D60158968C9358975B96D8
:1011F0009C915B975C968C915C97981307C0509676
:10120000ED91FC915197808185FD2EC0F601038DF3
:1012100010E00F5F1F4F0F731127F02EF601848D22
:10122000F81211C00FB607FCF9CFD6015096ED9118
:10123000FC915197808185FFF1CFC60169830E949F
:10124000A4086981EBCF838DE80FF11DE35AFF4FAE
:101250006083D6015B960C935B975296ED91FC915F
:101260005397808180620CC0D6015696ED91FC9117
:10127000579760835096ED91FC91519780818064DF
:10128000808381E090E00F90DF91CF911F910F91CB
:10129000FF90DF90CF900895BF92CF92DF92EF92B0
:1012A000FF92CF93DF93EC016A017B01B22EE889B4
:1012B000F98982E08083411581EE58076105710547
:1012C000A1F060E079E08DE390E0A70196010E9433
:1012D0003F0C2150310941095109569547953795E1
:1012E0002795211580E1380798F0E889F98910825F
:1012F00060E874E88EE190E0A70196010E943F0C3F
:10130000215031094109510956954795379527953F
:10131000EC85FD853083EE85FF852083188EEC8972
:10132000FD89B082EA89FB89808180618083EA89B6
:10133000FB89808188608083EA89FB89808180685D
:101340008083EA89FB8980818F7D8083DF91CF91C3
:10135000FF90EF90DF90CF90BF9008951F920F9273
:101360000FB60F9211242F938F939F93EF93FF93B8
:10137000E0913802F09139028081E0913E02F091D3
:101380003F0282FD12C09081809141028F5F8F7376
:1013900020914202821751F0E0914102F0E0E85DB5
:1013A000FD4F958F8093410201C08081FF91EF91A5
:1013B0009F918F912F910F900FBE0F901F901895B6
:1013C0001F920F920FB60F9211242F933F934F93BA
:1013D0005F936F937F938F939F93AF93BF93EF939D
:1013E000FF9388E292E00E94A408FF91EF91BF91E1
:1013F000AF919F918F917F916F915F914F913F91AD
:101400002F910F900FBE0F901F90189588E292E0D9
:101410000E94690821E0892B09F420E0822F0895B9
:1014200010922B0210922A0288EE93E0A0E0B0E026
:1014300080932C0290932D02A0932E02B0932F0242
:1014400088E291E0909329028093280285EC90E055
:10145000909335028093340284EC90E090933702AD
:101460008093360280EC90E09093390280933802AA
:1014700081EC90E090933B0280933A0282EC90E002
:1014800090933D0280933C0286EC90E090933F0263
:1014900080933E0210924102109242021092430247
:1014A00010924402089508950E940E070E94530A64
:1014B0000E94F100C6E9D8E00E94DE022097E1F325
:1014C0000E949608F9CFCF92DF92EF92FF920F938E
:1014D0001F93CF93DF937C016A01EB0100E010E0E2
:1014E0000C151D0571F06991D701ED91FC910190EA
:1014F000F081E02DC7010995892B19F00F5F1F4F6F
:10150000EFCFC801DF91CF911F910F91FF90EF9026
:10151000DF90CF90089508955058BB27AA270ED08A
:101520000DC1FED030F003D120F031F49F3F11F413
:101530001EF4F3C00EF4E095E7FBE9C0E92F0FD1EC
:1015400080F3BA17620773078407950718F071F4E0
:101550009EF527C10EF4E0950B2EBA2FA02D0B019E
:10156000B90190010C01CA01A0011124FF27591BE8
:1015700099F0593F50F4503E68F11A16F040A22FEE
:10158000232F342F4427585FF3CF4695379527955F
:10159000A795F0405395C9F77EF41F16BA0B620B5E
:1015A000730B840BBAF09150A1F0FF0FBB1F661FA5
:1015B000771F881FC2F70EC0BA0F621F731F841FE8
:1015C00048F4879577956795B795F7959E3F08F00E
:1015D000B3CF9395880F08F09927EE0F97958795CD
:1015E000089571D008F481E0089504D06894B11191
:1015F000D9C00895BCD088F09F5790F0B92F992793
:10160000B751A0F0D1F0660F771F881F991F1AF00D
:10161000BA95C9F712C0B13081F0C3D0B1E00895D6
:10162000C0C0672F782F8827B85F39F0B93FCCF357
:10163000869577956795B395D9F73EF49095809503
:10164000709561957F4F8F4F9F4F0895E89409C023
:1016500097FB3EF490958095709561957F4F8F4FE5
:101660009F4F9923A9F0F92F96E9BB279395F695FB
:10167000879577956795B795F111F8CFFAF4BB0F79
:1016800011F460FF1BC06F5F7F4F8F4F9F4F16C0DD
:10169000882311F096E911C0772321F09EE8872F67
:1016A000762F05C0662371F096E8862F70E060E023
:1016B0002AF09A95660F771F881FDAF7880F96959C
:1016C000879597F90895990F0008550FAA0BE0E840
:1016D000FEEF16161706E807F907C0F012161306F4
:1016E000E407F50798F0621B730B840B950B39F434
:1016F0000A2661F0232B242B252B21F408950A269A
:1017000009F4A140A6958FEF811D811D089597F9D9
:101710009F6780E870E060E008959FEF80EC089597
:1017200000240A94161617061806090608950024C0
:101730000A9412161306140605060895092E03943A
:10174000000C11F4882352F0BB0F40F4BF2B11F4AE
:1017500060FF04C06F5F7F4F8F4F9F4F089557FD0D
:101760009058440F551F59F05F3F71F04795880F0F
:1017700097FB991F61F09F3F79F0879508951216A6
:1017800013061406551FF2CF4695F1DF08C0161652
:1017900017061806991FF1CF869571056105089403
:1017A0000895E894BB2766277727CB0197F908951A
:1017B0008ADF08F48FEF08950BD0C0CFB1DF28F097
:1017C000B6DF18F0952309F0A2CFA7CF1124EACFF6
:1017D000C6DFA0F3959FD1F3950F50E0551F629F90
:1017E000F001729FBB27F00DB11D639FAA27F00D7A
:1017F000B11DAA1F649F6627B00DA11D661F829FA1
:101800002227B00DA11D621F739FB00DA11D621F85
:10181000839FA00D611D221F749F3327A00D611DA2
:10182000231F849F600D211D822F762F6A2F112484
:101830009F5750408AF0E1F088234AF0EE0FFF1FD7
:10184000BB1F661F771F881F91505040A9F79E3F0E
:10185000510570F05CCFA6CF5F3FECF3983EDCF310
:10186000869577956795B795F795E7959F5FC1F74B
:10187000FE2B880F911D9695879597F90895A1E203
:101880001A2EAA1BBB1BFD010DC0AA1FBB1FEE1FFA
:10189000FF1FA217B307E407F50720F0A21BB30B45
:1018A000E40BF50B661F771F881F991F1A9469F7C1
:1018B00060957095809590959B01AC01BD01CF011D
:1018C0000895EE0FFF1F0590F491E02D0994F89410
:0218D000FFCF48
:1018D2002C8F9440E1C89F3EA2D5F9BE4CD929C1B4
:1018E200F805F805000000000F04E20388039003E6
:1018F200A303B20300000000E708630A6908820834
:041902007408C50898
:00000001FF
