:100000000C9462000C9415090C943C090C948A0021
:100010000C948A000C948A000C948A000C948A0038
:100020000C948A000C948A000C948A000C948A0028
:100030000C948A000C948A000C948A000C948A0018
:100040000C9463090C948A000C94B60C0C94E80C84
:100050000C948A000C948A000C948A000C948A00F8
:100060000C948A000C948A00000000080002010031
:100070000003040700000000000000000102040863
:100080001020408001020408102001020408102002
:10009000040404040404040402020202020203032E
:1000A00003030303000000002300260029000000D2
:1000B0000000250028002B0000000000240027007D
:1000C0002A00180D11241FBECFEFD8E0DEBFCDBF30
:1000D00012E0A0E0B1E0E6EFF3E202C005900D927D
:1000E000A836B107D9F723E0A8E6B2E001C01D9217
:1000F000AD35B207E1F710E0C4ECD0E004C02297C0
:10010000FE010E94DF11C23CD107C9F70E945C0DBD
:100110000C94F9110C94000082E00E94480B0197A6
:1001200071F483E00E94480B40917E0250917F025F
:100130006091800270918102892B99F40DC083E057
:100140000E94480B40917E0250917F026091800294
:1001500070918102019729F44F5F5F4F6F4F7F4F7E
:1001600004C0415051096109710940937E025093C6
:100170007F026093800270938102089583E00E9461
:10018000480B019771F482E00E94480B40917E0277
:1001900050917F026091800270918102019799F4E1
:1001A0000DC082E00E94480B40917E0250917F0278
:1001B0006091800270918102892B29F44F5F5F4F1B
:1001C0006F4F7F4F04C0415051096109710940933D
:1001D0007E0250937F0260938002709381020895A3
:1001E0000C94E311EF92FF920F931F93CF93DF9341
:1001F0001F92CDB7DEB77C01FC0100811181C801DF
:1002000069830E94E3116981681719F0C8010E948F
:10021000EB11C7010F90DF91CF911F910F91FF90CC
:10022000EF9008958EBD00000DB407FEFDCF8EB592
:100230000895DF92EF92FF920F931F93CF93DF9376
:100240007C01EA01D22E882777FD8095982F0E94A5
:10025000DC09602F8D2D0E94120BB701882777FDD6
:100260008095982F0E94DC0961E0012B09F060E085
:100270008D2D0E94120BBE01882777FD8095982F47
:10028000DF91CF911F910F91FF90EF90DF900C9431
:10029000DC09EF92FF920F931F93CF93DF937A01C4
:1002A000672B61F000E010E02DE030E040E050E02E
:1002B00060E070E088EE93E00E94190101E010E038
:1002C0002DE030E044EF51E060E070E084EF91E039
:1002D0000E9419012DE030E048EC50E060E070E051
:1002E00088EC90E00E9419012DE030E048EC50E0ED
:1002F00060E070E088EC90E00E9419012DE030E0B1
:1003000044EF51E060E070E084EF91E00E94190159
:10031000C3E0D0E001E010E02DE030E048EC50E038
:1003200060E070E088EC90E00E941901219791F75D
:100330002DE030E044EF51E060E070E084EF91E0C8
:100340000E941901C4E0D0E001E010E02DE030E0AF
:1003500048EC50E060E070E088EC90E00E94190109
:10036000219791F7EF2861F000E010E02DE030E0F8
:1003700040E050E060E070E088EE93E00E941901F8
:10038000DF91CF911F910F91FF90EF900895CF9340
:10039000DF93D82FC62F8AE00E94120B6C2F8D2F6F
:1003A000DF91CF910C94120B1F93CF93DF93EC014D
:1003B00060E00E94C70180EA0E94120180E00E9472
:1003C0001201182F61E0CE010E94C70164E070E0C5
:1003D00080E090E00E94DC09812FDF91CF911F9196
:1003E00008950F931F93CF93DF93082F162FEA01E1
:1003F00060E0CA010E94C70182E00E941201802FC2
:100400000E941201812F0E94120161E0CE010E9420
:10041000C70164E070E080E090E0DF91CF911F9130
:100420000F910C94DC09CF93DF93D62FC42F48E0B3
:1004300050E0682F82E30E94F10148E050E06D2F08
:1004400081E30E94F10148E050E06C2F85E3DF91E9
:10045000CF910C94F101CF93DF93D62FC42F48E0B6
:1004600050E0682F82E40E94F10148E050E06D2FD7
:1004700081E40E94F10148E050E06C2F85E4DF91B7
:10048000CF910C94F101CF93DF93D62FC42F48E086
:1004900050E0682F82E50E94F10148E050E06D2FA6
:1004A00081E50E94F10148E050E06C2F85E5DF9185
:1004B000CF910C94F10148E050E060E08AE20E94A4
:1004C000F10148E050E068EB89E20E94F10148E068
:1004D00050E065E088E20E94F1018091AD0288233E
:1004E00031F065E171E080EC92E00C94B60D089576
:1004F00048E050E063E08BE20E94F1018091AD02A0
:10050000882331F067E371E080EC92E00C94B60D43
:1005100008951F93CF93DF93182FEB0160E0CE0176
:100520000E94C70183E00E941201812F0E941201E4
:1005300080E00E941201182F61E0CE010E94C701E5
:1005400064E070E080E090E00E94DC0948E050E068
:1005500060E08CE20E94F101812FDF91CF911F9129
:100560000895CF92DF92EF92FF920F931F93CF9354
:10057000DF93062FC3E0D0E048E050E0602F8FE02B
:100580000E94F10168E070E08EE00E948902182F5D
:100590000E94AD096B017C0160E070E0CB01101797
:1005A00091F0613177428105910594F468E070E043
:1005B0008EE00E948902182F0E94AD096C197D09F6
:1005C0008E099F09ECCF613177428105910564F076
:1005D0008091AD02882331F068E871E080EC92E010
:1005E0000E94B60D219741F68091AD02882331F02B
:1005F00062EB71E080EC92E00E94A90D8091AD0267
:10060000882339F04AE050E0612F80EC92E00E94AC
:10061000800E8091AD02882371F06BE771E080EC71
:1006200092E0DF91CF911F910F91FF90EF90DF90BB
:10063000CF900C94B60DDF91CF911F910F91FF9049
:10064000EF90DF90CF900895FB01E05CFD4F48E014
:1006500050E0682F80810C94F1011F93CF93DF93BA
:10066000182FEB0160E0CE010E94C701812F0E948C
:10067000120161E0CE010E94C70164E070E080E0F9
:1006800090E0DF91CF911F910C94DC09CF9368E04B
:1006900070E080EC0E942D0368E070E08EE00E9424
:1006A0008902C82F6AEC71E080EC92E00E94A90DEB
:1006B000C7FD0EC068E070E08EE00E948902C82F7E
:1006C0004AE050E0682F80EC92E00E94800EF0CF6C
:1006D0008091AD02882331F06FED71E080EC92E003
:1006E0000E94A90D8091AD02882341F04AE050E0BC
:1006F0006C2F80EC92E0CF910C94870ECF910895EF
:100700000E9446030E945B020E94780260E080E043
:100710000C94B102FF920F931F93CF93DF9300D0FD
:10072000CDB7DEB726E040E855E260E070E080EC4F
:1007300092E00E94540C81E08093AF028093AD025E
:100740001092AE0261E088E00E94D90A61E08AE07E
:100750000E94D90A60E082E00E94D90A60E083E04A
:100760000E94D90A60E087E00E94D90A61E084E033
:100770000E94D90A61E08DE00E94D90A60E085E01C
:100780000E94D90A85E00E94480B9093A5028093AD
:10079000A4028091AE02882371F100E010E01A8378
:1007A000098360E0CE0101960E94F2000F5F1F4FA7
:1007B00005301105A1F700E010E0FF24F394C80113
:1007C0000E94F0008111F12C0F5F1F4F05301105C1
:1007D000B1F7F11009C040E050E061E070E081E065
:1007E00090E00E944901F7CF64EF71E080E090E073
:1007F0000E94DC09F9CF84E090E00E94F000082F0D
:1008000010E00115110541F040E050E061E070E0BA
:10081000C8010E944901F8CF8091B502882399F060
:100820009FB7F8948091B502813059F48DB38093CD
:10083000B3022DB38091B402809582238DBB9FBFFC
:1008400002C09093B3028CE58CBD1DBC0E94BE0813
:100850000E94800348E062E080E40E94130248E0C6
:1008600062E080E40E942B0248E062E080E40E94A3
:10087000430282E090E00E94F00080937A0283E0DD
:1008800090E00E94F00080937B0280917A02909128
:100890007B02AA2797FDA095BA2F80937E029093A2
:1008A0007F02A0938002B09381026DE072E080EC41
:1008B00092E00E94A90D40917E0250917F026091CA
:1008C0008002709181022AE030E080EC92E00E9488
:1008D000610E80E090E00E94F000182F8093780273
:1008E00081E090E00E94F000809379021093A802CA
:1008F00061E272E080EC92E00E94A90D4AE050E0D3
:100900006091A80280EC92E00E94870E10927D0216
:1009100010927C0241E050E06CE870E080E00E94C0
:10092000F50841E050E06EEB70E081E00E94F508D0
:1009300064E670E080E090E00E94DC090E94AD096E
:100940006093A9027093AA028093AB029093AC02C9
:100950000F900F90DF91CF911F910F91FF9008950D
:100960008130910539F08230910531F0892B29F4DD
:1009700021E803C022E801C024E868E070E0822F8B
:100980000C942D03EF92FF920F931F93CF93DF935D
:100990008B01C0E0D0E0E82EF12CCE15DF0548F445
:1009A000A701BE01F80181918F010E9424032196C5
:1009B000F4CF80E090E0DF91CF911F910F91FF90F5
:1009C000EF900C94B0040F931F93CF93DF93C82F35
:1009D0008B0160E0C8010E94C7018C2F0E941201A8
:1009E000C0E7D2E080E00E941201899382E0C8371C
:1009F000D807C1F761E0C8010E94C70181E0DF911B
:100A0000CF911F910F9108956823613021F468E020
:100A100070E082E905C0623029F468E070E086E9A0
:100A20000E94E30481E008958F929F92AF92BF925B
:100A3000CF92DF92EF92FF920F931F93CF93DF93AA
:100A40006B017C0149015A0120E030E04FE753EC93
:100A50000E94501187FD0AC020E030E04FE753E4C8
:100A6000C701B6010E94011018167CF520E030E0A5
:100A70004FE753E4C701B6010E94501118164CF419
:100A800020E030E04FE753E4C701B6010E949C0F1D
:100A900012C020E030E04FE753ECC701B6010E94DE
:100AA000011087FF12C020E030E04FE753E4C70198
:100AB000B6010E949D0F6B017C0120E030E0A9018E
:100AC0000E9450111816ACF003C0C12CD12C760135
:100AD000C1E0D0E020E030E0A901C701B6010E94EA
:100AE000011087FD02C0C0E0D0E0D195C195D109C9
:100AF00002C0C1E0D0E020E030E0A901C501B401AE
:100B00000E94501101E010E0181674F020E030E06F
:100B1000A901C501B4010E94011087FD02C000E0D7
:100B200010E0119501951109C017D10759F420E083
:100B300030E0A901C701B6010E940110882311F01D
:100B400081E000C0DF91CF911F910F91FF90EF9056
:100B5000DF90CF90BF90AF909F908F9008954F926D
:100B60005F926F927F928F929F92AF92BF92CF923D
:100B7000DF92EF92FF92CF93DF9300D000D0CDB7FA
:100B8000DEB76B017C0120910C0130910D01409189
:100B90000E0150910F010E9454114B015C016093B2
:100BA00092027093930280939402909395026091C5
:100BB0008602709187028091880290918902A70134
:100BC00096010E941405882321F020E030E0A9015D
:100BD0000AC02DEC3CEC4CE45DE3C701B6010E9479
:100BE00054119B01AC0160918E0270918F02809133
:100BF0009002909191020E949D0F60938E027093DB
:100C00008F0280939002909391022091080130917D
:100C1000090140910A0150910B0160918E0270917F
:100C20008F0280919002909191020E9454112B01A9
:100C30003C0160938E0270938F0280939002909398
:100C400091028091820290918302A0918402B091DE
:100C5000850289839A83AB83BC8320910401309100
:100C600005014091060150910701C701B6010E949C
:100C7000541129813A814B815C810E949C0F209103
:100C800000013091010140910201509103010E9445
:100C900054116B017C0160938A0270938B028093E4
:100CA0008C0290938D02A3019201C501B4010E94B0
:100CB0009D0FA70196010E949D0F4B015C0160935F
:100CC000860270938702809388029093890220E0C5
:100CD00030E04FE753E40E94501118168CF020E0EA
:100CE00030E04FE753ECC501B4010E94011087FFCB
:100CF0000DC0812C912C9FE7A92E93ECB92E06C034
:100D0000812C912C8FE7A82E83E4B82E2DEC3CEC9F
:100D10004CE45DE3C701B6010E9454119B01AC0194
:100D200069817A818B819C810E949D0F60938202F0
:100D3000709383028093840290938502C501B4016D
:100D40000F900F900F900F90DF91CF91FF90EF9049
:100D5000DF90CF90BF90AF909F908F907F906F90DB
:100D60005F904F9008958F929F92AF92BF92CF92D3
:100D7000DF92EF92FF921F93CF93DF9300D0CDB716
:100D8000DEB71092A2021092B2021092B10281E07C
:100D90008093B00287E00E94480B892B79F488E0A9
:100DA00090E00E94D4018093A20263E00E940405B7
:100DB00069E170E080E090E00E94DC0980917002BF
:100DC000882391F09FEF980F9430C0F49091A60281
:100DD0009130A1F08093680282E080936A02809152
:100DE0007102809369020AC01092A602E8E6F2E05E
:100DF000119292E0E037F907D9F7E4CF68E672E0A4
:100E000088E00E94C20469E170E080E090E00E9406
:100E1000DC0980917002823009F05FC09091A602D7
:100E200081E0981709F459C08093A60260917E0270
:100E30001A821982CE0101960E94F20080917E02F0
:100E400090917F02A0918002B0918102692F7A2F48
:100E50008B2F992787FD9A9521E030E03A832983EB
:100E6000CE0101960E94F20080E090E00E94F00026
:100E7000F0907E02E0907F0211E08F1110E081E09F
:100E800090E00E94F0008E111FC01123E9F0F09253
:100E9000780280937902F092A80263E372E080EC1A
:100EA00092E00E94A90D4AE050E06091A80280EC17
:100EB00092E00E94870E81E080936A0284E090E0D5
:100EC0009A83898360E005C084E090E09A838983F7
:100ED00062E0CE0101960E94F200809170028330A0
:100EE00059F49091A60281E0981709F444C08093C8
:100EF000A602109210010BC0843061F49091A602FA
:100F000081E09817C1F18093A6028093100180932D
:100F10006A0231C0813079F59091A602981759F193
:100F20008093A6028091740280937C028091730268
:100F300080937D0260917C0270917D02882777FD0D
:100F40008095982F0E94A01060939E0270939F023C
:100F50008093A0029093A1022091750221110BC0F1
:100F6000DC01CB01B05880939E0290939F02A09326
:100F7000A002B093A10280911001882309F4D7C088
:100F800060917E0270917F02809180029091810237
:100F90000E94A0106B017C016093960270939702EF
:100FA00080939802909399028091A80260917C02AC
:100FB00070917D02680F711D882777FD8095982FAD
:100FC0000E94A0109B01AC0160939E0270939F024F
:100FD0008093A0029093A102C701B6010E949C0FCA
:100FE0006B017C0120E030E0A9010E94501118162D
:100FF0005CF42AE939E949E15EE3C701B6010E94E0
:10100000011018165CF013C02AE939E949E15EEBDA
:10101000C701B6010E94501187FF09C0C0929A0211
:10102000D0929B02E0929C02F0929D0208C0109226
:101030009A0210929B0210929C0210929D02609163
:101040009A0270919B0280919C0290919D020E9455
:10105000AF056B017C0120E030E0A9010E94011086
:1010600087FF09C061E084E00E94120BF7FAF09458
:10107000F7F8F09404C060E084E00E94120B8090C6
:101080009E0290909F02A090A002B090A10220E04A
:1010900030E044EB52ECC501B4010E94501187FDD1
:1010A00014C020E030E044EB52E4C501B4010E94DA
:1010B0000110181654F0C701B6010E946D1089E0A6
:1010C0000E94510A1092A30208C060E070E089E01B
:1010D0000E94510A81E08093A30211E020E030E0F9
:1010E000A90160919A0270919B0280919C0290915B
:1010F0009D020E940110811110E08091A302812BBA
:1011000041F080917002813021F480936A02109244
:10111000A30240919E0250919F026091A0027091A3
:10112000A10222E030E080EC92E00E94890F85E08D
:101130000E94480B41E050E0009711F040E050E081
:101140002091A4023091A50224233523232B41F4BE
:10115000892B31F081E090E09093A5028093A40266
:101160000F900F90DF91CF911F91FF90EF90DF9044
:10117000CF90BF90AF909F908F900895CF93CFB7AF
:10118000F8948091B602811127C0EAE9F0E08491D9
:10119000E6E8F0E09491E82FF0E0EE0FFF1FE8544E
:1011A000FF4FA591B4918C91892321F461E08AE0ED
:1011B0000E94120B61E08AE00E94D90A8CB580611E
:1011C0008CBD8CB580648CBD61E08DE00E94D90A35
:1011D00061E08BE00E94D90A8091B6028F5F809314
:1011E000B602CFBFCF91089508958230E8F4E82F7A
:1011F000F0E0EE0FFF1FEF5EFE4F718360838130E2
:1012000041F0809169008C7F842B80936900E89A7B
:10121000089580916900440F551F440F551F837F27
:10122000842B80936900E99A08951F920F920FB65C
:101230000F9211242F933F934F935F936F937F935C
:101240008F939F93AF93BF93EF93FF93E09111011F
:10125000F09112010995FF91EF91BF91AF919F918C
:101260008F917F916F915F914F913F912F910F904F
:101270000FBE0F901F9018951F920F920FB60F92EE
:1012800011242F933F934F935F936F937F938F938B
:101290009F93AF93BF93EF93FF93E0911301F0916E
:1012A00014010995FF91EF91BF91AF919F918F919B
:1012B0007F916F915F914F913F912F910F900FBE52
:1012C0000F901F9018951F920F920FB60F92112436
:1012D0002F933F938F939F93AF93BF938091B802C7
:1012E0009091B902A091BA02B091BB023091B702BD
:1012F00023E0230F2D3720F40196A11DB11D05C059
:1013000026E8230F0296A11DB11D2093B7028093FA
:10131000B8029093B902A093BA02B093BB02809135
:10132000BC029091BD02A091BE02B091BF02019695
:10133000A11DB11D8093BC029093BD02A093BE027B
:10134000B093BF02BF91AF919F918F913F912F9129
:101350000F900FBE0F901F9018952FB7F8946091C3
:10136000B8027091B9028091BA029091BB022FBF6E
:1013700008953FB7F8948091BC029091BD02A0916E
:10138000BE02B091BF0226B5A89B05C02F3F19F041
:101390000196A11DB11D3FBF6627782F892F9A2F77
:1013A000620F711D811D911D42E0660F771F881F1E
:1013B000991F4A95D1F708958F929F92AF92BF924D
:1013C000CF92DF92EF92FF926B017C010E94B909EC
:1013D0004B015C01C114D104E104F104F1F00E945D
:1013E0009B0F0E94B909681979098A099B09683E0F
:1013F00073408105910570F321E0C21AD108E1081C
:10140000F10888EE880E83E0981EA11CB11CC1145F
:10141000D104E104F10429F7DDCFFF90EF90DF90D4
:10142000CF90BF90AF909F908F900895789484B59F
:10143000826084BD84B5816084BD85B5826085BDD0
:1014400085B5816085BDEEE6F0E0808181608083B6
:10145000E1E8F0E010828081826080838081816099
:101460008083E0E8F0E0808181608083E1EBF0E060
:10147000808184608083E0EBF0E080818160808304
:10148000EAE7F0E0808184608083808182608083ED
:101490008081816080838081806880831092C10018
:1014A00008951F93CF93DF93182FEB0161E00E9403
:1014B000D90A209711F460E004C0CF3FD10539F478
:1014C00061E0812FDF91CF911F910C94120BE12FDE
:1014D000F0E0E859FF4FE491E330F9F048F4E130EF
:1014E000B9F0E230A1F584B5806284BDC8BD34C0D6
:1014F000E730E9F0E83019F1E43049F580918000F7
:10150000806280938000D0938B00C0938A0024C0B7
:1015100084B5806884BDC7BD1FC08091800080688D
:1015200080938000D0938900C093880015C080917B
:10153000B00080688093B000C093B3000DC080916C
:10154000B00080628093B000C093B40005C0C03882
:10155000D1050CF0B5CFAFCFDF91CF911F9108959A
:10156000833081F028F4813099F08230A1F0089521
:101570008730A9F08830B9F08430D1F480918000B0
:101580008F7D03C0809180008F77809380000895C5
:1015900084B58F7702C084B58F7D84BD0895809116
:1015A000B0008F7703C08091B0008F7D8093B00032
:1015B0000895CF93DF9390E0FC01E458FF4F24910E
:1015C000FC01E057FF4F8491882349F190E0880F98
:1015D000991FFC01E854FF4FA591B49182559F4F8C
:1015E000FC01C591D4919FB7611108C0F8948C910A
:1015F000209582238C93888182230AC0623051F423
:10160000F8948C91322F309583238C938881822B90
:10161000888304C0F8948C91822B8C939FBFDF91B8
:10162000CF9108950F931F93CF93DF931F92CDB760
:10163000DEB7282F30E0F901E859FF4F8491F90116
:10164000E458FF4F1491F901E057FF4F0491002334
:10165000C9F0882321F069830E94B00A6981E02FD4
:10166000F0E0EE0FFF1FE255FF4FA591B4919FB739
:10167000F8948C91611103C01095812301C0812BD6
:101680008C939FBF0F90DF91CF911F910F91089581
:10169000CF93DF93282F30E0F901E859FF4F849171
:1016A000F901E458FF4FD491F901E057FF4FC4917D
:1016B000CC2391F081110E94B00AEC2FF0E0EE0FE4
:1016C000FF1FEC55FF4FA591B4912C912D2381E084
:1016D00090E021F480E002C080E090E0DF91CF91C3
:1016E0000895FC01818D228D90E0805C9F4F821BCC
:1016F00091098F7399270895FC01918D828D981718
:1017000031F0828DE80FF11D858D90E008958FEF07
:101710009FEF0895FC01918D828D981761F0828D65
:10172000DF01A80FB11D5D968C91928D9F5F9F7315
:10173000928F90E008958FEF9FEF08958EE09DE0E7
:10174000892B49F080E090E0892B29F00E940E0D52
:1017500081110C9400000895FC01848DDF01A80F15
:10176000B11DA35ABF4F2C91848D90E001968F73C9
:101770009927848FA689B7892C93A089B1898C91E8
:1017800080648C93938D848D981306C00288F389AE
:10179000E02D80818F7D80830895CF93DF93EC01CE
:1017A000888D8823C9F0EA89FB89808185FD05C081
:1017B000A889B9898C9186FD0FC00FB607FCF5CFBB
:1017C000808185FFF2CFA889B9898C9185FFEDCF03
:1017D000CE010E94AC0BE7CFDF91CF910895CF925D
:1017E000DF92FF920F931F93CF93DF931F92CDB79A
:1017F000DEB76C0181E0D60158968C9358975B96C2
:101800009C915B975C968C915C97981307C050965F
:10181000ED91FC915197808185FD2EC0F601038DDD
:1018200010E00F5F1F4F0F731127F02EF601848D0C
:10183000F81211C00FB607FCF9CFD6015096ED9102
:10184000FC915197808185FFF1CFC60169830E9489
:10185000AC0B6981EBCF838DE80FF11DE35AFF4F8D
:101860006083D6015B960C935B975296ED91FC9149
:101870005397808180620CC0D6015696ED91FC9101
:10188000579760835096ED91FC91519780818064C9
:10189000808381E090E00F90DF91CF911F910F91B5
:1018A000FF90DF90CF900895BF92CF92DF92EF929A
:1018B000FF92CF93DF93EC016A017B01B22EE8899E
:1018C000F98982E08083411581EE58076105710531
:1018D000A1F060E079E08DE390E0A70196010E941D
:1018E000BB1121503109410951095695479537954A
:1018F0002795211580E1380798F0E889F989108249
:1019000060E874E88EE190E0A70196010E94BB11A7
:101910002150310941095109569547953795279529
:10192000EC85FD853083EE85FF852083188EEC895C
:10193000FD89B082EA89FB89808180618083EA89A0
:10194000FB89808188608083EA89FB898081806847
:101950008083EA89FB8980818F7D8083DF91CF91AD
:10196000FF90EF90DF90CF90BF9008951F920F925D
:101970000FB60F9211242F938F939F93EF93FF93A2
:10198000E091D002F091D1028081E091D602F091F5
:10199000D70282FD12C090818091D9028F5F8F7330
:1019A0002091DA02821751F0E091D902F0E0E05480
:1019B000FD4F958F8093D90201C08081FF91EF91F7
:1019C0009F918F912F910F900FBE0F901F901895A0
:1019D0001F920F920FB60F9211242F933F934F93A4
:1019E0005F936F937F938F939F93AF93BF93EF9387
:1019F000FF9380EC92E00E94AC0BFF91EF91BF91BE
:101A0000AF919F918F917F916F915F914F913F9196
:101A10002F910F900FBE0F901F90189580EC92E0C1
:101A20000E94710B21E0892B09F420E0822F089598
:101A30001092C3021092C20288EE93E0A0E0B0E0E0
:101A40008093C4029093C502A093C602B093C702CC
:101A50008CE492E09093C1028093C00285EC90E008
:101A60009093CD028093CC0284EC90E09093CF02CF
:101A70008093CE0280EC90E09093D1028093D002CC
:101A800081EC90E09093D3028093D20282EC90E0BC
:101A90009093D5028093D40286EC90E09093D70285
:101AA0008093D6021092D9021092DA021092DB02D1
:101AB0001092DC02089508950E94160A0E945B0DA0
:101AC0000E948A03CEE9DBE00E94B3062097E1F38F
:101AD0000E949E0BF9CFCF92DF92EF92FF920F936D
:101AE0001F93CF93DF937C016A01EB0100E010E0CC
:101AF0000C151D0571F06991D701ED91FC910190D4
:101B0000F081E02DC7010995892B19F00F5F1F4F58
:101B1000EFCFC801DF91CF911F910F91FF90EF9010
:101B2000DF90CF9008956115710581F0DB010D9074
:101B30000020E9F7AD0141505109461B570BDC016C
:101B4000ED91FC910280F381E02D099480E090E01A
:101B500008950C94930DDC01ED91FC910190F081BE
:101B6000E02D099468E572E00C94930D0F931F9398
:101B7000CF93DF93EC010E94930D8C01CE010E9464
:101B8000B20D800F911FDF91CF911F910F9108959A
:101B90008F929F92AF92BF92DF92EF92FF920F933C
:101BA0001F93CF93DF93CDB7DEB7A1970FB6F8940D
:101BB000DEBF0FBECDBF7C01F42FD52ECB0119A205
:101BC000223008F42AE08E010F5D1F4F822E912CE7
:101BD000A12CB12C6F2F7D2DA50194010E94BB116A
:101BE000F22FD32ECA01015011096A3014F4E0E338
:101BF00001C0E7E3E60FD801EC93232B242B252B20
:101C000049F7B801C7010E94930DA1960FB6F89449
:101C1000DEBF0FBECDBFDF91CF911F910F91FF901F
:101C2000EF90DF90BF90AF909F908F900895CF92EC
:101C3000DF92EF92FF920F931F93CF93DF93EC010C
:101C40006A017B012115310579F4E881F981019060
:101C5000F081E02D642FDF91CF911F910F91FF90C4
:101C6000EF90DF90CF9009942A303105E9F477FFA7
:101C70001AC06DE20E94AB0D8C0144275527BA01B2
:101C80004C195D096E097F092AE0CE010E94C80D3A
:101C9000800F911FDF91CF911F910F91FF90EF90D7
:101CA000DF90CF9008952AE0B701A601CE01DF9121
:101CB000CF911F910F91FF90EF90DF90CF900C94F8
:101CC000C80D0F931F93CF93DF93EC010E94170E63
:101CD0008C01CE010E94B20D800F911FDF91CF9138
:101CE0001F910F9108952115310541F4DC01ED910B
:101CF000FC910190F081E02D642F09940C94C80DA3
:101D00009A01462F50E060E070E00C94730E0F9340
:101D10001F93CF93DF93EC019A01462F50E060E0D0
:101D200070E00E94730E8C01CE010E94B20D800FF4
:101D3000911FDF91CF911F910F9108954F925F9264
:101D40006F927F928F929F92AF92BF92CF92DF92CB
:101D5000EF92FF920F931F93CF93DF93EC016A01F1
:101D60007B01B22E9A01AB01C701B6010E94B711E7
:101D7000882319F06BE572E027C026013701E8944B
:101D800077F82FEF3FEF4FE75FE7C301B2010E9403
:101D9000B71181110DC02FEF3FEF4FE75FE7C30190
:101DA000B2010E94011018161CF46FE572E00CC01D
:101DB0002FEF3FEF4FE75FE4C701B6010E945011DC
:101DC0001816ACF463E672E0CE01DF91CF911F915B
:101DD0000F91FF90EF90DF90CF90BF90AF909F90CA
:101DE0008F907F906F905F904F900C94930D2FEF9A
:101DF0003FEF4FE75FECC701B6010E94011087FD7E
:101E0000E1CF20E030E0A901C701B6010E94011036
:101E100087FF0AC06DE2CE010E94AB0D8C01F7FA7C
:101E2000F094F7F8F09402C000E010E0A12C60E01C
:101E300070E080E09FE3AB1441F020E030E040E24E
:101E400051E40E940510A394F6CF9B01AC01C70199
:101E5000B6010E949D0F6B017C010E9472102B0144
:101E60003C010E949E109B01AC01C701B6010E947B
:101E70009C0F6B017C012AE0B301A201CE010E94FC
:101E8000C80D080F191FBB2039F060EB71E0CE01BF
:101E90000E94930D080F191F7B2C772041F120E041
:101EA00030E040E251E4C701B6010E9454116B01D9
:101EB0007C010E946D104B01AA2497FCA094BA2CBF
:101EC0002AE030E0B501A401CE010E94170E080FF0
:101ED000191FC501B4010E94A0109B01AC01C701EC
:101EE000B6010E949C0F6B017C017A94D6CFC80189
:101EF000DF91CF911F910F91FF90EF90DF90CF90E6
:101F0000BF90AF909F908F907F906F905F904F9019
:101F100008950F931F93CF93DF93EC010E949E0EC1
:101F20008C01CE010E94B20D800F911FDF91CF91E5
:101F30001F910F91089508955058BB27AA270ED0DE
:101F400075C166D130F06BD120F031F49F3F11F4B0
:101F50001EF45BC10EF4E095E7FB51C1E92F77D188
:101F600080F3BA17620773078407950718F071F4B6
:101F70009EF58FC10EF4E0950B2EBA2FA02D0B010C
:101F8000B90190010C01CA01A0011124FF27591BBE
:101F900099F0593F50F4503E68F11A16F040A22FC4
:101FA000232F342F4427585FF3CF46953795279535
:101FB000A795F0405395C9F77EF41F16BA0B620B34
:101FC000730B840BBAF09150A1F0FF0FBB1F661F7B
:101FD000771F881FC2F70EC0BA0F621F731F841FBE
:101FE00048F4879577956795B795F7959E3F08F0E4
:101FF000B3CF9395880F08F09927EE0F97958795A3
:102000000895D9D008F481E008950CD00FC107D10C
:1020100040F0FED030F021F45F3F19F0F0C05111D4
:1020200039C1F3C014D198F39923C9F35523B1F3FF
:10203000951B550BBB27AA2762177307840738F037
:102040009F5F5F4F220F331F441FAA1FA9F333D096
:102050000E2E3AF0E0E830D091505040E695001C4A
:10206000CAF729D0FE2F27D0660F771F881FBB1F06
:10207000261737074807AB07B0E809F0BB0B802DE0
:10208000BF01FF2793585F4F2AF09E3F510568F02C
:10209000B6C000C15F3FECF3983EDCF386957795C0
:1020A0006795B795F7959F5FC9F7880F911D96952E
:1020B000879597F90895E1E0660F771F881FBB1F8A
:1020C000621773078407BA0720F0621B730B840B37
:1020D000BA0BEE1F88F7E095089504D06894B1110B
:1020E000D9C00895BCD088F09F5790F0B92F992798
:1020F000B751A0F0D1F0660F771F881F991F1AF013
:10210000BA95C9F712C0B13081F0C3D0B1E00895DB
:10211000C0C0672F782F8827B85F39F0B93FCCF35C
:10212000869577956795B395D9F73EF49095809508
:10213000709561957F4F8F4F9F4F0895E89409C028
:1021400097FB3EF490958095709561957F4F8F4FEA
:102150009F4F9923A9F0F92F96E9BB279395F69500
:10216000879577956795B795F111F8CFFAF4BB0F7E
:1021700011F460FF1BC06F5F7F4F8F4F9F4F16C0E2
:10218000882311F096E911C0772321F09EE8872F6C
:10219000762F05C0662371F096E8862F70E060E028
:1021A0002AF09A95660F771F881FDAF7880F9695A1
:1021B000879597F90895990F0008550FAA0BE0E845
:1021C000FEEF16161706E807F907C0F012161306F9
:1021D000E407F50798F0621B730B840B950B39F439
:1021E0000A2661F0232B242B252B21F408950A269F
:1021F00009F4A140A6958FEF811D811D089597F9DF
:102200009F6780E870E060E008959FEF80EC08959C
:1022100000240A94161617061806090608950024C5
:102220000A9412161306140605060895092E03943F
:10223000000C11F4882352F0BB0F40F4BF2B11F4B3
:1022400060FF04C06F5F7F4F8F4F9F4F089557FD12
:102250009058440F551F59F05F3F71F04795880F14
:1022600097FB991F61F09F3F79F0879508951216AB
:1022700013061406551FF2CF4695F1DF08C0161657
:1022800017061806991FF1CF869571056105089408
:102290000895E894BB2766277727CB0197F908951F
:1022A0008ADF08F48FEF08950BD0C0CFB1DF28F09C
:1022B000B6DF18F0952309F0A2CFA7CF1124EACFFB
:1022C000C6DFA0F3959FD1F3950F50E0551F629F95
:1022D000F001729FBB27F00DB11D639FAA27F00D7F
:1022E000B11DAA1F649F6627B00DA11D661F829FA6
:1022F0002227B00DA11D621F739FB00DA11D621F8B
:10230000839FA00D611D221F749F3327A00D611DA7
:10231000231F849F600D211D822F762F6A2F112489
:102320009F5750408AF0E1F088234AF0EE0FFF1FDC
:10233000BB1F661F771F881F91505040A9F79E3F13
:10234000510570F05CCFA6CF5F3FECF3983EDCF315
:10235000869577956795B795F795E7959F5FC1F750
:10236000FE2B880F911D9695879597F9089523DF89
:10237000880B990B0895A1E21A2EAA1BBB1BFD0125
:102380000DC0AA1FBB1FEE1FFF1FA217B307E40754
:10239000F50720F0A21BB30BE40BF50B661F771FAC
:1023A000881F991F1A9469F760957095809590958C
:1023B0009B01AC01BD01CF010895EE0FFF1F0590F9
:1023C000F491E02D0994F999FECF92BD81BDF89A60
:1023D000992780B50895262FF999FECF1FBA92BD8F
:1023E00081BD20BD0FB6F894FA9AF99A0FBE0196F6
:0623F0000895F894FFCFF0
:1023F6002C8F9440E1C89F3EA2D5F9BE4CD929C185
:1024060001F408F4084D63703235313520636F6E80
:102416006669677572652062757320737563636597
:102426007366756C6C79004D637032353135206397
:102436006F6E66696775726520696E74657272750E
:102446007074732073756363657366756C6C79005D
:102456004D63703235313520636F6E66696775720C
:10246600652072782062756666657220737563638F
:10247600657366756C6C790041626F727420776162
:102486006974696E672E204D61782E2077616974B4
:10249600696E672074696D6520726561636865643D
:1024A6002E004D6370323531352073776974636859
:1024B60020746F206D6F6465200054727920746FEC
:1024C600207265736574204D637032353135004D69
:1024D60063703235313520726573657420737563A8
:1024E60063657366756C6C7920616E6420737769B9
:1024F60074636820646F206D6F64652000656E6389
:102506006F64657256616C7565206C6173743A20F0
:10251600005245465F504F535B315D206C617374CA
:102526003A20005245465F504F535B315D3A2000DA
:10253600363738393A3B3C3D00000000EF0B6B0D57
:10254600710B8A0B7C0BCD0B0D0A006E616E006958
:082556006E66006F766600005E
:00000001FF
