:100000000C9462000C94AF090C94D6090C948A00ED
:100010000C948A000C948A000C948A000C948A0038
:100020000C948A000C948A000C948A000C948A0028
:100030000C948A000C948A000C948A000C948A0018
:100040000C94FD090C948A000C94500D0C94820DB4
:100050000C948A000C948A000C948A000C948A00F8
:100060000C948A000C948A00000000080002010031
:100070000003040700000000000000000102040863
:100080001020408001020408102001020408102002
:10009000040404040404040402020202020203032E
:1000A00003030303000000002300260029000000D2
:1000B0000000250028002B0000000000240027007D
:1000C0002A00B20D11241FBECFEFD8E0DEBFCDBF96
:1000D00013E0A0E0B1E0EAE5F5E202C005900D9280
:1000E000AA34B107D9F724E0AAE4B3E001C01D9215
:1000F000AD33B207E1F710E0C4ECD0E004C02297C2
:10010000FE010E949112C23CD107C9F70E94F60D70
:100110000C94AB120C94000082E00E94E20B019759
:1001200071F483E00E94E20B4091600350916103FF
:100130006091620370916303892B99F40DC083E091
:100140000E94E20B40916003509161036091620351
:1001500070916303019729F44F5F5F4F6F4F7F4F9B
:1001600004C04150510961097109409360035093E3
:1001700061036093620370936303089583E00E94B8
:10018000E20B019771F482E00E94E20B4091600360
:10019000509161036091620370916303019799F438
:1001A0000DC082E00E94E20B409160035091610318
:1001B0006091620370916303892B29F44F5F5F4F55
:1001C0006F4F7F4F04C0415051096109710940933D
:1001D0006003509361036093620370936303089517
:1001E0000C949512EF92FF920F931F93CF93DF938E
:1001F0001F92CDB7DEB77C01FC0100811181C801DF
:1002000069830E9495126981681719F0C8010E94DC
:100210009D12C7010F90DF91CF911F910F91FF9019
:10022000EF9008958EBD00000DB407FEFDCF8EB592
:100230000895DF92EF92FF920F931F93CF93DF9376
:100240007C01EA01D22E882777FD8095982F0E94A5
:10025000760A602F8D2D0E94AC0BB701882777FDA1
:100260008095982F0E94760A61E0012B09F060E0EA
:100270008D2D0E94AC0BBE01882777FD8095982FAD
:10028000DF91CF911F910F91FF90EF90DF900C9431
:10029000760AEF92FF920F931F93CF93DF937A0129
:1002A000672B61F000E010E02DE030E040E050E02E
:1002B00060E070E088EE93E00E94190101E010E038
:1002C0002DE030E044EF51E060E070E084EF91E039
:1002D0000E9419012DE030E048EC50E060E070E051
:1002E00088EC90E00E9419012DE030E048EC50E0ED
:1002F00060E070E088EC90E00E9419012DE030E0B1
:1003000044EF51E060E070E084EF91E00E94190159
:10031000C3E0D0E001E010E02DE030E048EC50E038
:1003200060E070E088EC90E00E941901219791F75D
:100330002DE030E044EF51E060E070E084EF91E0C8
:100340000E941901C4E0D0E001E010E02DE030E0AF
:1003500048EC50E060E070E088EC90E00E94190109
:10036000219791F7EF2861F000E010E02DE030E0F8
:1003700040E050E060E070E088EE93E00E941901F8
:10038000DF91CF911F910F91FF90EF900895CF9340
:10039000DF93D82FC62F8AE00E94AC0B6C2F8D2FD5
:1003A000DF91CF910C94AC0B1F93CF93DF93EC01B3
:1003B00060E00E94C70180EA0E94120180E00E9472
:1003C0001201182F61E0CE010E94C70164E070E0C5
:1003D00080E090E00E94760A812FDF91CF911F91FB
:1003E00008950F931F93CF93DF93082F162FEA01E1
:1003F00060E0CA010E94C70182E00E941201802FC2
:100400000E941201812F0E94120161E0CE010E9420
:10041000C70164E070E080E090E0DF91CF911F9130
:100420000F910C94760ACF93DF93D62FC42F48E018
:1004300050E0682F82E30E94F10148E050E06D2F08
:1004400081E30E94F10148E050E06C2F85E3DF91E9
:10045000CF910C94F101CF93DF93D62FC42F48E0B6
:1004600050E0682F82E40E94F10148E050E06D2FD7
:1004700081E40E94F10148E050E06C2F85E4DF91B7
:10048000CF910C94F101CF93DF93D62FC42F48E086
:1004900050E0682F82E50E94F10148E050E06D2FA6
:1004A00081E50E94F10148E050E06C2F85E5DF9185
:1004B000CF910C94F10148E050E060E08AE20E94A4
:1004C000F10148E050E068EB89E20E94F10148E068
:1004D00050E065E088E20E94F10180918D0388235D
:1004E00031F06DE171E080EA93E00C94500E0895D4
:1004F00048E050E063E08BE20E94F10180918D03BF
:10050000882331F06FE371E080EA93E00C94500EA1
:1005100008951F93CF93DF93182FEB0160E0CE0176
:100520000E94C70183E00E941201812F0E941201E4
:1005300080E00E941201182F61E0CE010E94C701E5
:1005400064E070E080E090E00E94760A48E050E0CD
:1005500060E08CE20E94F101812FDF91CF911F9129
:100560000895CF92DF92EF92FF920F931F93CF9354
:10057000DF93062FC3E0D0E048E050E0602F8FE02B
:100580000E94F10168E070E08EE00E948902182F5D
:100590000E94470A6B017C0160E070E0CB011017FC
:1005A00091F0613177428105910594F468E070E043
:1005B0008EE00E948902182F0E94470A6C197D095B
:1005C0008E099F09ECCF613177428105910564F076
:1005D00080918D03882331F060E971E080EA93E037
:1005E0000E94500E219741F680918D03882331F0AF
:1005F0006AEB71E080EA93E00E94430E80918D03E4
:10060000882339F04AE050E0612F80EA93E00E94AD
:10061000320F80918D03882371F063E871E080EAE6
:1006200093E0DF91CF911F910F91FF90EF90DF90BA
:10063000CF900C94500EDF91CF911F910F91FF90AE
:10064000EF90DF90CF900895FB01ED5DFC4F48E007
:1006500050E0682F80810C94F1011F93CF93DF93BA
:10066000182FEB0160E0CE010E94C701812F0E948C
:10067000120161E0CE010E94C70164E070E080E0F9
:1006800090E0DF91CF911F910C94760ACF9368E0B0
:1006900070E080EC0E942D0368E070E08EE00E9424
:1006A0008902C82F62ED71E080EA93E00E94430E58
:1006B000C7FD0EC068E070E08EE00E948902C82F7E
:1006C0004AE050E0682F80EA93E00E94320FF0CFBA
:1006D00080918D03882331F067EE71E080EA93E02A
:1006E0000E94430E80918D03882341F04AE050E040
:1006F0006C2F80EA93E0CF910C94390FCF9108953D
:100700000E9446030E945B020E94780260E080E043
:100710000C94B102FF920F931F93CF93DF9300D0FD
:10072000CDB7DEB726E040E855E260E070E080EA51
:1007300093E00E94EE0C81E080938F0380938D0301
:1007400010928E0361E088E00E94730B61E08AE002
:100750000E94730B60E082E00E94730B60E083E014
:100760000E94730B60E087E00E94730B61E084E0FD
:100770000E94730B61E08DE00E94730B60E085E0E6
:100780000E94730B85E00E94E20B90938703809395
:10079000860380918E03882371F100E010E01A83B4
:1007A000098360E0CE0101960E94F2000F5F1F4FA7
:1007B00005301105A1F700E010E0FF24F394C80113
:1007C0000E94F0008111F12C0F5F1F4F05301105C1
:1007D000B1F7F11009C040E050E061E070E081E065
:1007E00090E00E944901F7CF64EF71E080E090E073
:1007F0000E94760AF9CF84E090E00E94F000082F72
:1008000010E00115110541F040E050E061E070E0BA
:10081000C8010E944901F8CF80919503882399F07F
:100820009FB7F89480919503813059F48DB38093EC
:1008300093032DB380919403809582238DBB9FBF3A
:1008400002C0909393038CE58CBD1DBC0E94580997
:100850000E94800348E060911201809115010E947E
:10086000130248E060911301809116010E942B024F
:1008700048E060911401809117010E94430282E0D8
:1008800090E00E94F00080935C0383E090E00E947F
:10089000F00080935D0380915C0390915D03AA2733
:1008A00097FDA095BA2F8093600390936103A09366
:1008B0006203B093630380918D038823A1F065E107
:1008C00072E080EA93E00E94430E409160035091F1
:1008D000610360916203709163032AE030E080EA73
:1008E00093E00E94130F80E090E00E94F00080935C
:1008F0005A0381E090E00E94F00080935B038091B6
:100900008D03882381F069E272E080EA93E00E941F
:10091000430E60915A0370915B034AE050E080EA15
:1009200093E00E94FB0E10925F0310925E0341E081
:1009300050E06CE870E080E00E948F0941E050E0F8
:100940006EEB70E081E00E948F0964E670E080E069
:1009500090E00E94760A0E94470A60938903709390
:100960008A0380938B0390938C030F900F90DF91F9
:10097000CF911F910F91FF9008958130910539F02B
:100980008230910531F0892B29F421E803C022E857
:1009900001C024E868E070E0822F0C942D03EF92F0
:1009A000FF920F931F93CF93DF938B01C0E0D0E0B2
:1009B000E82EF12CCE15DF0548F4A701BE01F801A1
:1009C00081918F010E9424032196F4CF80E090E072
:1009D000DF91CF911F910F91FF90EF900C94BD0488
:1009E0000F931F93CF93DF93C82F8B0160E0C80153
:1009F0000E94C7018C2F0E941201C2E5D3E080E063
:100A00000E941201899383E0CA35D807C1F761E0DB
:100A1000C8010E94C70181E0DF91CF911F910F9122
:100A200008956823613021F468E070E082E905C030
:100A3000623029F468E070E086E90E94F00481E009
:100A400008958F929F92AF92BF92CF92DF92EF92D2
:100A5000FF920F931F93CF93DF936B017C014901AA
:100A60005A0120E030E04FE753EC0E94021287FD6C
:100A70000AC020E030E04FE753E4C701B6010E940E
:100A8000B31018167CF520E030E04FE753E4C701BF
:100A9000B6010E94021218164CF420E030E04FE735
:100AA00053E4C701B6010E944E1012C020E030E0AE
:100AB0004FE753ECC701B6010E94B31087FF12C085
:100AC00020E030E04FE753E4C701B6010E944F1029
:100AD0006B017C0120E030E0A9010E94021218168F
:100AE000ACF003C0C12CD12C7601C1E0D0E020E0F5
:100AF00030E0A901C701B6010E94B31087FD02C012
:100B0000C0E0D0E0D195C195D10902C0C1E0D0E0EC
:100B100020E030E0A901C501B4010E94021201E009
:100B200010E0181674F020E030E0A901C501B4010E
:100B30000E94B31087FD02C000E010E011950195FE
:100B40001109C017D10759F420E030E0A901C7010D
:100B5000B6010E94B310882311F081E000C0DF913C
:100B6000CF911F910F91FF90EF90DF90CF90BF90AA
:100B7000AF909F908F9008954F925F926F927F9267
:100B80008F929F92AF92BF92CF92DF92EF92FF929D
:100B9000CF93DF9300D000D0CDB7DEB76B017C01DF
:100BA00020910E0130910F014091100150911101DF
:100BB0000E9406124B015C016093740370937503ED
:100BC0008093760390937703609168037091690333
:100BD00080916A0390916B03A70196010E94210501
:100BE000882321F020E030E0A9010AC02DEC3CEC84
:100BF0004CE45DE3C701B6010E9406129B01AC0103
:100C000060917003709171038091720390917303EE
:100C10000E944F106093700370937103809372036E
:100C20009093730320910A0130910B0140910C01C4
:100C300050910D0160917003709171038091720366
:100C4000909173030E9406122B013C016093700384
:100C50007093710380937203909373038091640384
:100C600090916503A0916603B091670389839A838D
:100C7000AB83BC83209106013091070140910801AC
:100C800050910901C701B6010E94061229813A81DB
:100C90004B815C810E944E10209102013091030132
:100CA00040910401509105010E9406126B017C01E4
:100CB00060936C0370936D0380936E0390936F0346
:100CC000A3019201C501B4010E944F10A701960132
:100CD0000E944F104B015C0160936803709369039D
:100CE00080936A0390936B0320E030E04FE753E476
:100CF0000E94021218168CF020E030E04FE753EC0F
:100D0000C501B4010E94B31087FF0DC0812C912C46
:100D10009FE7A92E93ECB92E06C0812C912C8FE76A
:100D2000A82E83E4B82E2DEC3CEC4CE45DE3C70127
:100D3000B6010E9406129B01AC0169817A818B8108
:100D40009C810E944F1060936403709365038093AD
:100D5000660390936703C501B4010F900F900F9045
:100D60000F90DF91CF91FF90EF90DF90CF90BF90E9
:100D7000AF909F908F907F906F905F904F9008956D
:100D8000CF92DF92EF92FF920F931F93CF93DF9357
:100D900000D0CDB7DEB71092840310929203109268
:100DA000910381E08093900387E00E94E20B892BFE
:100DB00079F488E090E00E94D4018093840363E09A
:100DC0000E94110569E170E080E090E00E94760ADF
:100DD0004AE050E06091530380EA93E00E94390FAB
:100DE00040915303242F30E0809100019091010144
:100DF0002817390709F051C2809152038823B1F0B6
:100E00009FEF980F9430E0F4909188039130C1F0F7
:100E100080934A0382E080934C0340934B036DE33D
:100E200072E080EA93E00E94500E0AC0109288039C
:100E3000EAE4F3E0119293E0E235F907D9F7E0CF65
:100E40006AE473E088E00E94CF0469E170E080E02A
:100E500090E00E94760A80915203823009F06DC0C2
:100E60009091880381E0981709F467C08093880304
:100E7000609160031A821982CE0101960E94F200ED
:100E80008091600390916103A0916203B09163032C
:100E9000692F7A2F8B2F992787FD9A9521E030E0D3
:100EA0003A832983CE0101960E94F20080E090E00F
:100EB0000E94F00010916003F090610301E0811343
:100EC00000E081E090E00E94F0008F112DC000232F
:100ED00059F110935A0380935B0380918D0388230B
:100EE00081F065E472E080EA93E00E94430E609135
:100EF0005A0370915B034AE050E080EA93E00E945D
:100F0000FB0E81E080934C0384E090E09A83898318
:100F100060E0CE0101960E94F20068E572E080EA8E
:100F200093E00E94500E09C084E090E09A83898388
:100F300062E0CE0101960E94F2008091520383305C
:100F400089F49091880381E0981761F08093880379
:100F50001092180180934C036FE572E080EA93E0F1
:100F60000E94500E80915203843089F4909188033E
:100F700081E0981761F08093880380931801809333
:100F80004C0364E772E080EA93E00E94500E809187
:100F900052038130A9F590918803981789F18093C5
:100FA00088038091560380935E038091550380935C
:100FB0005F0360915E0370915F03882777FD8095E2
:100FC000982F0E9452116093800370938103809345
:100FD0008203909383032091570321110BC0DC01FE
:100FE000CB01B0588093800390938103A093820338
:100FF000B093830368E872E080EA93E00E94500EA9
:1010000080911801882309F42FC1609160037091C9
:10101000610380916203909163030E9452116B01FE
:101020007C01609378037093790380937A039093A3
:101030007B0360915E0370915F0380915A039091EE
:101040005B03680F791F882777FD8095982F0E9492
:1010500052119B01AC0160938003709381038093D4
:10106000820390938303C701B6010E944E106B0167
:101070007C0120E030E0A9010E94021218165CF405
:101080002AE939E949E15EE3C701B6010E94B310DC
:1010900018165CF013C02AE939E949E15EEBC70193
:1010A000B6010E94021287FF09C0C0927C03D09251
:1010B0007D03E0927E03F0927F0308C010927C03D0
:1010C00010927D0310927E0310927F0360917C0347
:1010D00070917D0380917E0390917F030E94BC05F7
:1010E0006B017C0120E030E0A90160917C037091EC
:1010F0007D0380917E0390917F030E94B31088232B
:1011000091F020E030E0A901C701B6010E94B310C0
:1011100087FF0CC060E084E00E94AC0BF7FAF0940B
:10112000F7F8F09407C0C12CD12C760161E084E07F
:101130000E94AC0B80915E0390915F03865A9F4F93
:10114000853B910550F4C701B6010E941F1186E04E
:101150000E94EB0A1092850308C060E070E086E010
:101160000E94EB0A81E08093850364E972E080EAE3
:1011700093E00E94430E22E030E0B701A60180EA2E
:1011800093E00E943B1068EA72E080EA93E00E94DC
:10119000430E40917C0350917D0360917E037091DA
:1011A0007F0322E030E080EA93E00E943B1064EB92
:1011B00072E080EA93E00E94430E4AE050E06091C2
:1011C0004C0380EA93E00E94390F65ED72E080EAFB
:1011D00093E00E94430E4AE050E06091520380EA9F
:1011E00093E00E94390F60EF72E080EA93E00E9482
:1011F000430E6091850370E04AE050E080EA93E09E
:101200000E94FB0E11E020E030E0A901C701B60109
:101210000E94B310811110E080918503812BB1F001
:1012200080915203813091F480934C031092850396
:1012300064EB72E080EA93E00E94430E4AE050E0E3
:1012400060914C0380EA93E00E94390F60E073E004
:1012500080EA93E00E94430E4AE050E060914C0324
:1012600080EA93E00E94390F85E00E94E20B41E0A2
:1012700050E0009711F040E050E02091860330915B
:10128000870324233523232B41F4892B31F081E07C
:1012900090E090938703809386030F900F90DF91E7
:1012A000CF911F910F91FF90EF90DF90CF90089515
:1012B000CF93CFB7F89480919603811127C0EAE9C4
:1012C000F0E08491E6E8F0E09491E82FF0E0EE0F92
:1012D000FF1FE854FF4FA591B4918C91892321F40D
:1012E00061E08AE00E94AC0B61E08AE00E94730B2F
:1012F0008CB580618CBD8CB580648CBD61E08DE067
:101300000E94730B61E08BE00E94730B8091960347
:101310008F5F80939603CFBFCF9108950895823059
:10132000E8F4E82FF0E0EE0FFF1FE75EFE4F718359
:101330006083813041F0809169008C7F842B8093A1
:101340006900E89A089580916900440F551F440F81
:10135000551F837F842B80936900E99A08951F921B
:101360000F920FB60F9211242F933F934F935F93D9
:101370006F937F938F939F93AF93BF93EF93FF935D
:10138000E0911901F0911A010995FF91EF91BF9138
:10139000AF919F918F917F916F915F914F913F910D
:1013A0002F910F900FBE0F901F9018951F920F92C4
:1013B0000FB60F9211242F933F934F935F936F9328
:1013C0007F938F939F93AF93BF93EF93FF93E0919E
:1013D0001B01F0911C010995FF91EF91BF91AF9115
:1013E0009F918F917F916F915F914F913F912F913D
:1013F0000F900FBE0F901F9018951F920F920FB66F
:101400000F9211242F933F938F939F93AF93BF938A
:101410008091980390919903A0919A03B0919B03B6
:101420003091970323E0230F2D3720F40196A11D5F
:10143000B11D05C026E8230F0296A11DB11D209302
:1014400097038093980390939903A0939A03B09382
:101450009B0380919C0390919D03A0919E03B0916A
:101460009F030196A11DB11D80939C0390939D0342
:10147000A0939E03B0939F03BF91AF919F918F91D3
:101480003F912F910F900FBE0F901F9018952FB77F
:10149000F894609198037091990380919A039091C8
:1014A0009B032FBF08953FB7F89480919C039091C0
:1014B0009D03A0919E03B0919F0326B5A89B05C0F4
:1014C0002F3F19F00196A11DB11D3FBF6627782F50
:1014D000892F9A2F620F711D811D911D42E0660FA9
:1014E000771F881F991F4A95D1F708958F929F9271
:1014F000AF92BF92CF92DF92EF92FF926B017C018D
:101500000E94530A4B015C01C114D104E104F104AF
:10151000F1F00E944D100E94530A681979098A0956
:101520009B09683E73408105910570F321E0C21A62
:10153000D108E108F10888EE880E83E0981EA11C0E
:10154000B11CC114D104E104F10429F7DDCFFF90EF
:10155000EF90DF90CF90BF90AF909F908F900895C5
:10156000789484B5826084BD84B5816084BD85B57E
:10157000826085BD85B5816085BDEEE6F0E0808145
:1015800081608083E1E8F0E0108280818260808366
:10159000808181608083E0E8F0E0808181608083E9
:1015A000E1EBF0E0808184608083E0EBF0E080811B
:1015B00081608083EAE7F0E08081846080838081BD
:1015C0008260808380818160808380818068808365
:1015D0001092C10008951F93CF93DF93182FEB0152
:1015E00061E00E94730B209711F460E004C0CF3FCC
:1015F000D10539F461E0812FDF91CF911F910C94D7
:10160000AC0BE12FF0E0E859FF4FE491E330F9F043
:1016100048F4E130B9F0E230A1F584B5806284BDD0
:10162000C8BD34C0E730E9F0E83019F1E43049F5DD
:1016300080918000806280938000D0938B00C09363
:101640008A0024C084B5806884BDC7BD1FC0809156
:101650008000806880938000D0938900C0938800C8
:1016600015C08091B00080688093B000C093B30033
:101670000DC08091B00080628093B000C093B40030
:1016800005C0C038D1050CF0B5CFAFCFDF91CF91F9
:101690001F910895833081F028F4813099F08230D1
:1016A000A1F008958730A9F08830B9F08430D1F4E2
:1016B000809180008F7D03C0809180008F77809320
:1016C0008000089584B58F7702C084B58F7D84BD76
:1016D00008958091B0008F7703C08091B0008F7D16
:1016E0008093B0000895CF93DF9390E0FC01E4581D
:1016F000FF4F2491FC01E057FF4F8491882349F16B
:1017000090E0880F991FFC01E854FF4FA591B49118
:1017100082559F4FFC01C591D4919FB7611108C0BC
:10172000F8948C91209582238C93888182230AC01F
:10173000623051F4F8948C91322F309583238C933E
:101740008881822B888304C0F8948C91822B8C939F
:101750009FBFDF91CF9108950F931F93CF93DF9396
:101760001F92CDB7DEB7282F30E0F901E859FF4FBF
:101770008491F901E458FF4F1491F901E057FF4FAC
:1017800004910023C9F0882321F069830E944A0B49
:101790006981E02FF0E0EE0FFF1FE255FF4FA591AA
:1017A000B4919FB7F8948C91611103C01095812377
:1017B00001C0812B8C939FBF0F90DF91CF911F9120
:1017C0000F910895CF93DF93282F30E0F901E85966
:1017D000FF4F8491F901E458FF4FD491F901E0578C
:1017E000FF4FC491CC2391F081110E944A0BEC2F42
:1017F000F0E0EE0FFF1FEC55FF4FA591B4912C9137
:101800002D2381E090E021F480E002C080E090E0B0
:10181000DF91CF910895FC01818D228D90E0805C55
:101820009F4F821B91098F7399270895FC01918D19
:10183000828D981731F0828DE80FF11D858D90E033
:1018400008958FEF9FEF0895FC01918D828D981779
:1018500061F0828DDF01A80FB11D5D968C91928D94
:101860009F5F9F73928F90E008958FEF9FEF089591
:1018700088EA9DE0892B49F080E090E0892B29F0EF
:101880000E94A80D81110C9400000895FC01848D24
:10189000DF01A80FB11DA35ABF4F2C91848D90E09A
:1018A00001968F739927848FA689B7892C93A08975
:1018B000B1898C9180648C93938D848D981306C02C
:1018C0000288F389E02D80818F7D80830895CF93F6
:1018D000DF93EC01888D8823C9F0EA89FB89808138
:1018E00085FD05C0A889B9898C9186FD0FC00FB60A
:1018F00007FCF5CF808185FFF2CFA889B9898C914B
:1019000085FFEDCFCE010E94460CE7CFDF91CF914E
:101910000895CF92DF92FF920F931F93CF93DF939F
:101920001F92CDB7DEB76C0181E0D60158968C933B
:1019300058975B969C915B975C968C915C979813FB
:1019400007C05096ED91FC915197808185FD2EC086
:10195000F601038D10E00F5F1F4F0F731127F02E5C
:10196000F601848DF81211C00FB607FCF9CFD6012D
:101970005096ED91FC915197808185FFF1CFC60182
:1019800069830E94460C6981EBCF838DE80FF11DBE
:10199000E35AFF4F6083D6015B960C935B97529698
:1019A000ED91FC915397808180620CC0D6015696D0
:1019B000ED91FC91579760835096ED91FC91519772
:1019C00080818064808381E090E00F90DF91CF91EF
:1019D0001F910F91FF90DF90CF900895BF92CF920B
:1019E000DF92EF92FF92CF93DF93EC016A017B01CC
:1019F000B22EE889F98982E08083411581EE58078B
:101A000061057105A1F060E079E08DE390E0A70148
:101A100096010E946D1221503109410951095695D4
:101A2000479537952795211580E1380798F0E88983
:101A3000F989108260E874E88EE190E0A7019601D0
:101A40000E946D122150310941095109569547955F
:101A500037952795EC85FD853083EE85FF852083BE
:101A6000188EEC89FD89B082EA89FB8980818061CA
:101A70008083EA89FB89808188608083EA89FB8989
:101A8000808180688083EA89FB8980818F7D808363
:101A9000DF91CF91FF90EF90DF90CF90BF900895AE
:101AA0001F920F920FB60F9211242F938F939F9333
:101AB000EF93FF93E091B003F091B1038081E09147
:101AC000B603F091B70382FD12C090818091B903F3
:101AD0008F5F8F732091BA03821751F0E091B903A1
:101AE000F0E0E056FC4F958F8093B90301C08081F0
:101AF000FF91EF919F918F912F910F900FBE0F90BB
:101B00001F9018951F920F920FB60F9211242F93CA
:101B10003F934F935F936F937F938F939F93AF9375
:101B2000BF93EF93FF9380EA93E00E94460CFF91EE
:101B3000EF91BF91AF919F918F917F916F915F9145
:101B40004F913F912F910F900FBE0F901F901895BE
:101B500080EA93E00E940B0C21E0892B09F420E03D
:101B6000822F08951092A3031092A20388EE93E0AF
:101B7000A0E0B0E08093A4039093A503A093A603F4
:101B8000B093A7038FE293E09093A1038093A00307
:101B900085EC90E09093AD038093AC0384EC90E0EF
:101BA0009093AF038093AE0380EC90E09093B103E9
:101BB0008093B00381EC90E09093B3038093B203E1
:101BC00082EC90E09093B5038093B40386EC90E0B0
:101BD0009093B7038093B6031092B9031092BA039F
:101BE0001092BB031092BC03089508950E94B00A9E
:101BF0000E94F50D0E948A03C8E3DCE00E94C00643
:101C00002097E1F30E94380CF9CFCF92DF92EF9248
:101C1000FF920F931F93CF93DF937C016A01EB0137
:101C200000E010E00C151D0571F06991D701ED91F0
:101C3000FC910190F081E02DC7010995892B19F0E5
:101C40000F5F1F4FEFCFC801DF91CF911F910F9111
:101C5000FF90EF90DF90CF9008956115710581F0AE
:101C6000DB010D900020E9F7AD0141505109461B01
:101C7000570BDC01ED91FC910280F381E02D09947A
:101C800080E090E008950C942D0EDC01ED91FC9124
:101C90000190F081E02D09946BE373E00C942D0E1C
:101CA0000F931F93CF93DF93EC010E942D0E8C01B5
:101CB000CE010E944C0E800F911FDF91CF911F919A
:101CC0000F9108958F929F92AF92BF92DF92EF9201
:101CD000FF920F931F93CF93DF93CDB7DEB7A197FA
:101CE0000FB6F894DEBF0FBECDBF7C01F42FD52E0A
:101CF000CB0119A2223008F42AE08E010F5D1F4F9C
:101D0000822E912CA12CB12C6F2F7D2DA501940139
:101D10000E946D12F22FD32ECA01015011096A30B0
:101D200014F4E0E301C0E7E3E60FD801EC93232BC2
:101D3000242B252B49F7B801C7010E942D0EA1962F
:101D40000FB6F894DEBF0FBECDBFDF91CF911F91CC
:101D50000F91FF90EF90DF90BF90AF909F908F908A
:101D60000895CF92DF92EF92FF920F931F93CF933C
:101D7000DF93EC016A017B012115310579F4E881DB
:101D8000F9810190F081E02D642FDF91CF911F91B7
:101D90000F91FF90EF90DF90CF9009942A3031059A
:101DA000E9F477FF1AC06DE20E94450E8C014427CA
:101DB0005527BA014C195D096E097F092AE0CE0149
:101DC0000E94620E800F911FDF91CF911F910F91A2
:101DD000FF90EF90DF90CF9008952AE0B701A60121
:101DE000CE01DF91CF911F910F91FF90EF90DF9087
:101DF000CF900C94620E0F931F93CF93DF93EC015F
:101E00009A01AB01662757FD6095762F0E94B10EAF
:101E10008C01CE010E944C0E800F911FDF91CF915B
:101E20001F910F9108950F931F93CF93DF93EC01B0
:101E30000E94B10E8C01CE010E944C0E800F911FAA
:101E4000DF91CF911F910F9108952115310541F434
:101E5000DC01ED91FC910190F081E02D642F09945B
:101E60000C94620E9A01462F50E060E070E00C94F2
:101E7000250F0F931F93CF93DF93EC019A01462F09
:101E800050E060E070E00E94250F8C01CE010E94BE
:101E90004C0E800F911FDF91CF911F910F910895EC
:101EA0004F925F926F927F928F929F92AF92BF926A
:101EB000CF92DF92EF92FF920F931F93CF93DF9316
:101EC000EC016A017B01B22E9A01AB01C701B60198
:101ED0000E946912882319F06EE373E027C026017F
:101EE0003701E89477F82FEF3FEF4FE75FE7C30143
:101EF000B2010E94691281110DC02FEF3FEF4FE731
:101F00005FE7C301B2010E94B31018161CF462E42B
:101F100073E00CC02FEF3FEF4FE75FE4C701B6015E
:101F20000E9402121816ACF466E473E0CE01DF9151
:101F3000CF911F910F91FF90EF90DF90CF90BF90C6
:101F4000AF909F908F907F906F905F904F900C9488
:101F50002D0E2FEF3FEF4FE75FECC701B6010E9458
:101F6000B31087FDE1CF20E030E0A901C701B60141
:101F70000E94B31087FF0AC06DE2CE010E94450E99
:101F80008C01F7FAF094F7F8F09402C000E010E04A
:101F9000A12C60E070E080E09FE3AB1441F020E012
:101FA00030E040E251E40E94B710A394F6CF9B01C9
:101FB000AC01C701B6010E944F106B017C010E9469
:101FC00024112B013C010E9450119B01AC01C7015F
:101FD000B6010E944E106B017C012AE0B301A20100
:101FE000CE010E94620E080F191FBB2039F068EB6A
:101FF00071E0CE010E942D0E080F191F7B2C772057
:1020000041F120E030E040E251E4C701B6010E9416
:1020100006126B017C010E941F114B01AA2497FC40
:10202000A094BA2C2AE030E0B501A401CE010E94B0
:10203000B10E080F191FC501B4010E9452119B0176
:10204000AC01C701B6010E944E106B017C017A946D
:10205000D6CFC801DF91CF911F910F91FF90EF90E4
:10206000DF90CF90BF90AF909F908F907F906F90B8
:102070005F904F9008950F931F93CF93DF93EC01E0
:102080000E94500F8C01CE010E944C0E800F911FB8
:10209000DF91CF911F910F91089508955058BB275C
:1020A000AA270ED075C166D130F06BD120F031F483
:1020B0009F3F11F41EF45BC10EF4E095E7FB51C1A4
:1020C000E92F77D180F3BA17620773078407950762
:1020D00018F071F49EF58FC10EF4E0950B2EBA2F17
:1020E000A02D0B01B90190010C01CA01A00111241E
:1020F000FF27591B99F0593F50F4503E68F11A16CA
:10210000F040A22F232F342F4427585FF3CF46955A
:1021100037952795A795F0405395C9F77EF41F167C
:10212000BA0B620B730B840BBAF09150A1F0FF0F46
:10213000BB1F661F771F881FC2F70EC0BA0F621F32
:10214000731F841F48F4879577956795B795F79522
:102150009E3F08F0B3CF9395880F08F09927EE0FB4
:10216000979587950895D9D008F481E008950CD00B
:102170000FC107D140F0FED030F021F45F3F19F0DD
:10218000F0C0511139C1F3C014D198F39923C9F3A8
:102190005523B1F3951B550BBB27AA27621773076D
:1021A000840738F09F5F5F4F220F331F441FAA1F21
:1021B000A9F333D00E2E3AF0E0E830D091505040E1
:1021C000E695001CCAF729D0FE2F27D0660F771F8F
:1021D000881FBB1F261737074807AB07B0E809F071
:1021E000BB0B802DBF01FF2793585F4F2AF09E3F06
:1021F000510568F0B6C000C15F3FECF3983EDCF3D8
:10220000869577956795B795F7959F5FC9F7880F7E
:10221000911D9695879597F90895E1E0660F771FD0
:10222000881FBB1F621773078407BA0720F0621B61
:10223000730B840BBA0BEE1F88F7E095089504D05A
:102240006894B111D9C00895BCD088F09F5790F020
:10225000B92F9927B751A0F0D1F0660F771F881FCB
:10226000991F1AF0BA95C9F712C0B13081F0C3D0E6
:10227000B1E00895C0C0672F782F8827B85F39F084
:10228000B93FCCF3869577956795B395D9F73EF42A
:1022900090958095709561957F4F8F4F9F4F0895D2
:1022A000E89409C097FB3EF49095809570956195F0
:1022B0007F4F8F4F9F4F9923A9F0F92F96E9BB27A6
:1022C0009395F695879577956795B795F111F8CF22
:1022D000FAF4BB0F11F460FF1BC06F5F7F4F8F4F8D
:1022E0009F4F16C0882311F096E911C0772321F083
:1022F0009EE8872F762F05C0662371F096E8862F1B
:1023000070E060E02AF09A95660F771F881FDAF771
:10231000880F9695879597F90895990F0008550F9E
:10232000AA0BE0E8FEEF16161706E807F907C0F05B
:1023300012161306E407F50798F0621B730B840B63
:10234000950B39F40A2661F0232B242B252B21F43D
:1023500008950A2609F4A140A6958FEF811D811DDD
:10236000089597F99F6780E870E060E008959FEF17
:1023700080EC089500240A9416161706180609061C
:10238000089500240A9412161306140605060895EB
:10239000092E0394000C11F4882352F0BB0F40F473
:1023A000BF2B11F460FF04C06F5F7F4F8F4F9F4FB3
:1023B000089557FD9058440F551F59F05F3F71F035
:1023C0004795880F97FB991F61F09F3F79F087959C
:1023D0000895121613061406551FF2CF4695F1DF25
:1023E00008C0161617061806991FF1CF86957105B5
:1023F000610508940895E894BB2766277727CB01E9
:1024000097F908958ADF08F48FEF08950BD0C0CFB5
:10241000B1DF28F0B6DF18F0952309F0A2CFA7CFDF
:102420001124EACFC6DFA0F3959FD1F3950F50E0BA
:10243000551F629FF001729FBB27F00DB11D639F76
:10244000AA27F00DB11DAA1F649F6627B00DA11D1C
:10245000661F829F2227B00DA11D621F739FB00DC2
:10246000A11D621F839FA00D611D221F749F332732
:10247000A00D611D231F849F600D211D822F762FCB
:102480006A2F11249F5750408AF0E1F088234AF0C8
:10249000EE0FFF1FBB1F661F771F881F9150504014
:1024A000A9F79E3F510570F05CCFA6CF5F3FECF3DC
:1024B000983EDCF3869577956795B795F795E79500
:1024C0009F5FC1F7FE2B880F911D9695879597F911
:1024D000089523DF880B990B0895A1E21A2EAA1BF9
:1024E000BB1BFD010DC0AA1FBB1FEE1FFF1FA217C4
:1024F000B307E407F50720F0A21BB30BE40BF50BC1
:10250000661F771F881F991F1A9469F76095709549
:10251000809590959B01AC01BD01CF010895EE0F10
:10252000FF1F0590F491E02D0994F999FECF92BD1B
:1025300081BDF89A992780B50895262FF999FECF85
:102540001FBA92BD81BD20BD0FB6F894FA9AF99AD0
:0A2550000FBE01960895F894FFCF26
:10255A0002002C8F9440E1C89F3EA2D5F9BE4CD907
:10256A0029C1030303606060018E098E094D6370FF
:10257A003235313520636F6E666967757265206220
:10258A0075732073756363657366756C6C79004D3A
:10259A0063703235313520636F6E666967757265AF
:1025AA0020696E74657272757074732073756363D3
:1025BA00657366756C6C79004D6370323531352000
:1025CA00636F6E66696775726520727820627566D8
:1025DA006665722073756363657366756C6C7900E2
:1025EA0041626F72742077616974696E672E204D3B
:1025FA0061782E2077616974696E672074696D65E8
:10260A0020726561636865642E004D6370323531EE
:10261A00352073776974636820746F206D6F646501
:10262A00200054727920746F207265736574204D8E
:10263A00637032353135004D637032353135207271
:10264A00657365742073756363657366756C6C79FD
:10265A0020616E642073776974636820646F206DEB
:10266A006F64652000656E636F64657256616C7590
:10267A0065206C6173743A20007265665F706F73CF
:10268A002E64617461206C6173743A200070616316
:10269A006B616765007265665F706F732E64617443
:1026AA0061206E65773A2000656570726F6D00640F
:1026BA00697361626C65506964436F6E74726F6CA2
:1026CA006C657200656E61626C65506964436F6E19
:1026DA0074726F6C6C6572006E6577506F73697493
:1026EA00696F6E007069645F636F6E74726F6C5F9E
:1026FA0076616C75653A20007069645F6572726F05
:10270A00723A20006F7574676F696E675F646174EF
:10271A00615B6F75745F616374696F6E5374617422
:10272A00655D3A2000696E636F6D696E675F64610B
:10273A0074615B696E5F616374696F6E5D3A2000F4
:10274A00706F734F7574526561636865643A2000EF
:10275A006F7574676F696E675F646174615B6F75CB
:10276A00745F616374696F6E53746174655D5F321F
:10277A003A2000363738393A3B3C3D0000000089A0
:10278A000C050E0B0C240C160C670C0D0A006E615E
:0A279A006E00696E66006F7666003F
:00000001FF
