:100000000C9463000C944B060C9472060C948B00B9
:100010000C948B000C948B000C948B000C948B0034
:100020000C948B000C948B000C948B000C948B0024
:100030000C948B000C948B000C948B000C948B0014
:100040000C9499060C948B000C94E0090C94120A01
:100050000C948B000C948B000C948B000C948B00F4
:100060000C94FD040C948B000000000800020100B9
:100070000003040700000000000000000102040863
:100080001020408001020408102001020408102002
:10009000040404040404040402020202020203032E
:1000A00003030303000000002300260029000000D2
:1000B0000000250028002B0000000000240027007D
:1000C0002A00A404420A11241FBECFEFD8E0DEBFED
:1000D000CDBF11E0A0E0B1E0ECE7FDE102C005908A
:1000E0000D92A634B107D9F722E0A6E4B1E001C031
:1000F0001D92A73DB207E1F710E0C6ECD0E004C0C6
:100100002297FE010E94B80EC23CD107C9F70E9497
:10011000860A0C94BC0E0C94000082E00E947208C7
:10012000019771F483E00E9472084091460150915A
:1001300047016091480170914901892B99F40DC0E4
:1001400083E00E94720840914601509147016091FE
:10015000480170914901019729F44F5F5F4F6F4F3C
:100160007F4F04C041505109610971094093460114
:10017000509347016093480170934901089583E0CB
:100180000E947208019771F482E00E947208409107
:1001900046015091470160914801709149010197D2
:1001A00099F40DC082E00E9472084091460150917E
:1001B00047016091480170914901892B29F44F5FF3
:1001C0005F4F6F4F7F4F04C0415051096109710962
:1001D0004093460150934701609348017093490151
:1001E000089526E040E855E260E070E08AE392E09E
:1001F0000E947E0981E080936D0180936A0160E036
:1002000082E00E94030860E083E00E94030860E04F
:100210008AE00E94030860E08BE00E94030860E02F
:1002200087E00E94030861E084E00E94030861E027
:1002300085E00E94030861E086E00E94030861E017
:1002400086E00E943C0810926C0110926B0141E024
:1002500050E06DE870E080E00E942B0641E050E045
:100260006FEB70E081E00E942B0668E070E08EE6A4
:1002700091E00E949D0463E873E08EE691E00E94A5
:100280009F0464E670E080E090E00C9406078F9293
:100290009F92AF92BF92CF92DF92EF92FF920F9315
:1002A0001F93CF93DF936B017C0149015A0120E03A
:1002B00030E04FE753EC0E94290E87FD0AC020E092
:1002C00030E04FE753E4C701B6010E94DA0C18167C
:1002D0007CF520E030E04FE753E4C701B6010E940F
:1002E000290E18164CF420E030E04FE753E4C70124
:1002F000B6010E94750C12C020E030E04FE753ECCD
:10030000C701B6010E94DA0C87FF12C020E030E07E
:100310004FE753E4C701B6010E94760C6B017C01E4
:1003200020E030E0A9010E94290E1816ACF003C0AD
:10033000C12CD12C7601C1E0D0E020E030E0A90151
:10034000C701B6010E94DA0C87FD02C0C0E0D0E010
:10035000D195C195D10902C0C1E0D0E020E030E0E4
:10036000A901C501B4010E94290E01E010E0181690
:1003700074F020E030E0A901C501B4010E94DA0C5C
:1003800087FD02C000E010E0119501951109C0172A
:10039000D10759F420E030E0A901C701B6010E945D
:1003A000DA0C882311F081E000C0DF91CF911F911A
:1003B0000F91FF90EF90DF90CF90BF90AF909F9004
:1003C0008F9008954F925F926F927F928F929F923B
:1003D000AF92BF92CF92DF92EF92FF92CF93DF93D3
:1003E00000D000D0CDB7DEB76B017C0120910C01AD
:1003F00030910D0140910E0150910F010E942D0E80
:100400004B015C0160935A0170935B0180935C0126
:1004100090935D0160914E0170914F018091500168
:1004200090915101A70196010E944701882321F074
:1004300020E030E0A9010AC02DEC3CEC4CE45DE387
:10044000C701B6010E942D0E9B01AC0160915601BF
:100450007091570180915801909159010E94760C3A
:1004600060935601709357018093580190935901FE
:10047000209108013091090140910A0150910B012E
:1004800060915601709157018091580190915901E6
:100490000E942D0E2B013C01609356017093570171
:1004A000809358019093590180914A0190914B019A
:1004B000A0914C01B0914D0189839A83AB83BC8399
:1004C00020910401309105014091060150910701EE
:1004D000C701B6010E942D0E29813A814B815C81B2
:1004E0000E94750C209100013091010140910201A0
:1004F000509103010E942D0E6B017C01609352010B
:10050000709353018093540190935501A30192017C
:10051000C501B4010E94760CA70196010E94760CD9
:100520004B015C0160934E0170934F018093500129
:100530009093510120E030E04FE753E40E94290EF0
:1005400018168CF020E030E04FE753ECC501B40101
:100550000E94DA0C87FF0DC0812C912C9FE7A92EF9
:1005600093ECB92E06C0812C912C8FE7A82E83E442
:10057000B82E2DEC3CEC4CE45DE3C701B6010E94C3
:100580002D0E9B01AC0169817A818B819C810E9437
:10059000760C60934A0170934B0180934C019093C9
:1005A0004D01C501B4010F900F900F900F90DF9196
:1005B000CF91FF90EF90DF90CF90BF90AF909F9042
:1005C0008F907F906F905F904F900895CF92DF92C1
:1005D000EF92FF926091460170914701809148012E
:1005E000909149010E94790D60935E0170935F01C3
:1005F00080936001909361012091660130916701C1
:1006000040916801509169010E94750C6B017C0159
:1006100020E030E0A9010E94290E18165CF42AE9B6
:1006200039E949E15EE3C701B6010E94DA0C181608
:100630005CF013C02AE939E949E15EEBC701B60174
:100640000E94290E87FF09C0C0926201D092630107
:10065000E0926401F092650108C01092620110926C
:1006600063011092640110926501609162017091C2
:10067000630180916401909165010E94E2016B0128
:100680007C0120E030E0A90160916201709163017A
:1006900080916401909165010E94DA0C882399F0A1
:1006A00020E030E0A901C701B6010E94DA0C87FF03
:1006B0000DC0F7FAF094F7F8F09460E084E00E943F
:1006C0003C0861E008C0C12CD12C760161E084E0D7
:1006D0000E943C0860E085E00E943C0887E00E94A0
:1006E0007208892B59F0C701B6010E94460D89E0B6
:1006F000FF90EF90DF90CF900C947B07FF90EF90EE
:10070000DF90CF9008958EE691E00E94C203BC0175
:10071000882777FD8095982F0E94790D6093660158
:100720007093670180936801909369018AE00E9449
:100730007208892B89F48091660190916701A091DC
:100740006801B0916901B058809366019093670188
:10075000A0936801B09369014091660150916701CF
:10076000609168017091690122E030E08AE392E0D3
:100770000C94620C8091A10190E02091A201821B57
:10078000910908952091A2018091A101281750F4A8
:10079000E22FF0E0ED55FE4F808190E02F5F209337
:1007A000A20108958FEF9FEF0895E091A20180913B
:1007B000A101E81730F4F0E0ED55FE4F808190E0A4
:1007C00008958FEF9FEF08950895E0917A01F091D9
:1007D0007B013097E1F03091A2012091A101321705
:1007E000B0F040E0242F30E02617370754F4DC0146
:1007F000A20FB31F5C91D901AD55BE4F5C934F5F03
:10080000F1CF1092A2016093A101CB010994089548
:10081000E0917C01F0917D01309729F010928001E8
:1008200010927F0109940895CF92DF92EF92FF9288
:100830000F931F93CF93DF937C01CB018A0120910B
:100840007E01222389F0EB016B01C40ED51ECC156D
:10085000DD0569F06991D701ED91FC910190F0817E
:10086000E02DC7010995F3CF642F0E94CA04C80187
:10087000DF91CF911F910F91FF90EF90DF90CF907C
:100880000895CF93DF931F92CDB7DEB76983209190
:100890007E012223D1F020917F01203240F021E01F
:1008A00030E0FC013383228380E090E015C080912A
:1008B0008001E82FF0E0EF57FE4F998190838F5F22
:1008C0008093800180937F0105C061E0CE01019695
:1008D0000E94CA0481E090E00F90DF91CF910895CB
:1008E000FC011382128248EE53E060E070E0448322
:1008F00055836683778388E191E0918380830895AF
:100900001092A2011092A1011092800110927F0119
:100910000C94A804CF93DF93EC01862F0E94C604A9
:1009200088E094E00E94E80485EE93E00E94E304EE
:10093000CE01DF91CF910C9480040C948A047093C3
:100940007B0160937A0108958EE691E00C94700427
:100950001092300281E080932E0210922D0261E00D
:1009600082E10E943C0861E083E10E943C08E9EBDF
:10097000F0E080818E7F808380818D7F808388E41A
:100980008093B80085E48093BC000895880F80931D
:10099000BA000895613298F420913002243089F42D
:1009A0006093E501FC0187EE91E0DC012A2F281B12
:1009B000261718F421912D93F9CF80E0089581E056
:1009C000089582E0089590932A0280932902089561
:1009D00090932C0280932B02089585ED8093BC00A8
:1009E0008091BC0084FDFCCF10923002089585EC0C
:1009F0008093BC001092300208951F920F920FB6A0
:100A00000F9211242F933F934F935F936F937F9394
:100A10008F939F93AF93BF93EF93FF938091B90010
:100A2000887F803609F49EC078F5883209F45DC06D
:100A300090F4803109F456C038F4882309F4F5C0E5
:100A4000883009F44FC0F5C0883109F44EC08032B7
:100A500009F45FC0EEC0803409F46AC058F48033F2
:100A600009F457C0883309F0E4C08093C3010E94A1
:100A7000F704DFC0803509F44FC0883509F45DC044
:100A8000883409F0D6C0D3C0883909F4C4C0A8F4AA
:100A9000883709F467C038F4883609F463C08037B2
:100AA00009F460C0C6C0883809F4B5C0803909F4BB
:100AB0005FC0803809F0BDC05BC0803B09F483C0D3
:100AC00038F4803A09F466C0883A09F47CC0B1C0B1
:100AD000803C09F4A4C0883C09F4A1C0883B09F417
:100AE00087C0A7C080912F0210C09091080280910A
:100AF0000702981770F5E091080281E08E0F80934D
:100B00000802F0E0E75FFD4F80818093BB0085EC39
:100B100083C08093C3018BC0E091080281E08E0FF7
:100B2000809308028091BB00F0E0E75FFD4F808377
:100B300090910802809107026BC0E091080281E069
:100B40008E0F809308028091BB00F0E0E75FFD4FBD
:100B5000808380912E0281116AC081E080932D02F2
:100B600084EA5EC083E0809330021092C401CFCF4C
:100B70008091C401803208F04EC0E091C40181E050
:100B80008E0F8093C4018091BB00F0E0EB53FE4FC9
:100B90008083BDCF0E94F7048091C401803230F47D
:100BA000E091C401F0E0EB53FE4F10826091C4016C
:100BB00070E0E0912902F0912A0285EC91E009951C
:100BC0001092C40136C084E0809330021092E60196
:100BD0001092E501E0912B02F0912C020995809191
:100BE000E501811105C081E08093E5011092E701E4
:100BF000E091E60181E08E0F8093E601F0E0E9519B
:100C0000FE4F80818093BB009091E6018091E501C9
:100C1000981708F47CCF85E88093BC000AC085EC67
:100C20008093BC001092300204C01092C3010E9455
:100C3000ED04FF91EF91BF91AF919F918F917F91C3
:100C40006F915F914F913F912F910F900FBE0F9039
:100C50001F90189508958230E8F4E82FF0E0EE0F29
:100C6000FF1FE05FFE4F71836083813041F0809110
:100C700069008C7F842B80936900E89A08958091A5
:100C80006900440F551F440F551F837F842B8093A9
:100C90006900E99A08951F920F920FB60F921124DE
:100CA0002F933F934F935F936F937F938F939F9374
:100CB000AF93BF93EF93FF93E0911001F091110177
:100CC0000995FF91EF91BF91AF919F918F917F9186
:100CD0006F915F914F913F912F910F900FBE0F90A9
:100CE0001F9018951F920F920FB60F9211242F93F9
:100CF0003F934F935F936F937F938F939F93AF93A4
:100D0000BF93EF93FF93E0911201F09113010995C6
:100D1000FF91EF91BF91AF919F918F917F916F91D3
:100D20005F914F913F912F910F900FBE0F901F90A9
:100D300018951F920F920FB60F9211242F933F9385
:100D40008F939F93AF93BF93809132029091330220
:100D5000A0913402B09135023091310223E0230F8B
:100D60002D3720F40196A11DB11D05C026E8230FE3
:100D70000296A11DB11D20933102809332029093FF
:100D80003302A0933402B0933502809136029091E1
:100D90003702A0913802B09139020196A11DB11D10
:100DA0008093360290933702A0933802B0933902B1
:100DB000BF91AF919F918F913F912F910F900FBE57
:100DC0000F901F9018953FB7F8948091360290913C
:100DD0003702A0913802B091390226B5A89B05C010
:100DE0002F3F19F00196A11DB11D3FBF6627782F37
:100DF000892F9A2F620F711D811D911D42E0660F90
:100E0000771F881F991F4A95D1F708958F929F9257
:100E1000AF92BF92CF92DF92EF92FF926B017C0173
:100E20000E94E3064B015C01C114D104E104F1040A
:100E3000F1F00E94740C0E94E306681979098A098E
:100E40009B09683E73408105910570F321E0C21A49
:100E5000D108E108F10888EE880E83E0981EA11CF5
:100E6000B11CC114D104E104F10429F7DDCFFF90D6
:100E7000EF90DF90CF90BF90AF909F908F900895AC
:100E8000789484B5826084BD84B5816084BD85B565
:100E9000826085BD85B5816085BDEEE6F0E080812C
:100EA00081608083E1E8F0E010828081826080834D
:100EB000808181608083E0E8F0E0808181608083D0
:100EC000E1EBF0E0808184608083E0EBF0E0808102
:100ED00081608083EAE7F0E08081846080838081A4
:100EE000826080838081816080838081806880834C
:100EF0001092C10008951F93CF93DF93182FEB0139
:100F000061E00E940308209711F460E004C0CF3F25
:100F1000D10539F461E0812FDF91CF911F910C94BD
:100F20003C08E12FF0E0E859FF4FE491E330F9F09D
:100F300048F4E130B9F0E230A1F584B5806284BDB7
:100F4000C8BD34C0E730E9F0E83019F1E43049F5C4
:100F500080918000806280938000D0938B00C0934A
:100F60008A0024C084B5806884BDC7BD1FC080913D
:100F70008000806880938000D0938900C0938800AF
:100F800015C08091B00080688093B000C093B3001A
:100F90000DC08091B00080628093B000C093B40017
:100FA00005C0C038D1050CF0B5CFAFCFDF91CF91E0
:100FB0001F910895833081F028F4813099F08230B8
:100FC000A1F008958730A9F08830B9F08430D1F4C9
:100FD000809180008F7D03C0809180008F77809307
:100FE0008000089584B58F7702C084B58F7D84BD5D
:100FF00008958091B0008F7703C08091B0008F7DFD
:101000008093B0000895CF93DF9390E0FC01E45803
:10101000FF4F2491FC01E057FF4F8491882349F151
:1010200090E0880F991FFC01E854FF4FA591B491FF
:1010300082559F4FFC01C591D4919FB7611108C0A3
:10104000F8948C91209582238C93888182230AC006
:10105000623051F4F8948C91322F309583238C9325
:101060008881822B888304C0F8948C91822B8C9386
:101070009FBFDF91CF9108950F931F93CF93DF937D
:101080001F92CDB7DEB7282F30E0F901E859FF4FA6
:101090008491F901E458FF4F1491F901E057FF4F93
:1010A00004910023C9F0882321F069830E94DA07A4
:1010B0006981E02FF0E0EE0FFF1FE255FF4FA59191
:1010C000B4919FB7F8948C91611103C0109581235E
:1010D00001C0812B8C939FBF0F90DF91CF911F9107
:1010E0000F910895CF93DF93282F30E0F901E8594D
:1010F000FF4F8491F901E458FF4FD491F901E05773
:10110000FF4FC491CC2391F081110E94DA07EC2F9C
:10111000F0E0EE0FFF1FEC55FF4FA591B4912C911D
:101120002D2381E090E021F480E002C080E090E097
:10113000DF91CF910895FC01818D228D90E0805C3C
:101140009F4F821B91098F7399270895FC01918D00
:10115000828D981731F0828DE80FF11D858D90E01A
:1011600008958FEF9FEF0895FC01918D828D981760
:1011700061F0828DDF01A80FB11D5D968C91928D7B
:101180009F5F9F73928F90E008958FEF9FEF089578
:1011900088E39AE0892B49F080E090E0892B29F0E0
:1011A0000E94380A81110C9400000895FC01848D7E
:1011B000DF01A80FB11DA35ABF4F2C91848D90E081
:1011C00001968F739927848FA689B7892C93A0895C
:1011D000B1898C9180648C93938D848D981306C013
:1011E0000288F389E02D80818F7D80830895CF93DD
:1011F000DF93EC01888D8823C9F0EA89FB8980811F
:1012000085FD05C0A889B9898C9186FD0FC00FB6F0
:1012100007FCF5CF808185FFF2CFA889B9898C9131
:1012200085FFEDCFCE010E94D608E7CFDF91CF91A9
:101230000895CF92DF92FF920F931F93CF93DF9386
:101240001F92CDB7DEB76C0181E0D60158968C9322
:1012500058975B969C915B975C968C915C979813E2
:1012600007C05096ED91FC915197808185FD2EC06D
:10127000F601038D10E00F5F1F4F0F731127F02E43
:10128000F601848DF81211C00FB607FCF9CFD60114
:101290005096ED91FC915197808185FFF1CFC60169
:1012A00069830E94D6086981EBCF838DE80FF11D19
:1012B000E35AFF4F6083D6015B960C935B9752967F
:1012C000ED91FC915397808180620CC0D6015696B7
:1012D000ED91FC91579760835096ED91FC91519759
:1012E00080818064808381E090E00F90DF91CF91D6
:1012F0001F910F91FF90DF90CF900895BF92CF92F2
:10130000DF92EF92FF92CF93DF93EC016A017B01B2
:10131000B22EE889F98982E08083411581EE580771
:1013200061057105A1F060E079E08DE390E0A7012F
:1013300096010E94940E2150310941095109569598
:10134000479537952795211580E1380798F0E8896A
:10135000F989108260E874E88EE190E0A7019601B7
:101360000E94940E21503109410951095695479523
:1013700037952795EC85FD853083EE85FF852083A5
:10138000188EEC89FD89B082EA89FB8980818061B1
:101390008083EA89FB89808188608083EA89FB8970
:1013A000808180688083EA89FB8980818F7D80834A
:1013B000DF91CF91FF90EF90DF90CF90BF90089595
:1013C0001F920F920FB60F9211242F938F939F931A
:1013D000EF93FF93E0914A02F0914B028081E091FC
:1013E0005002F091510282FD12C09081809153020F
:1013F0008F5F8F7320915402821751F0E091530256
:10140000F0E0E65CFD4F958F8093530201C0808130
:10141000FF91EF919F918F912F910F900FBE0F90A1
:101420001F9018951F920F920FB60F9211242F93B1
:101430003F934F935F936F937F938F939F93AF935C
:10144000BF93EF93FF938AE392E00E94D608FF9147
:10145000EF91BF91AF919F918F917F916F915F912C
:101460004F913F912F910F900FBE0F901F901895A5
:101470008AE392E00E949B0821E0892B09F420E096
:10148000822F089510923D0210923C0288EE93E064
:10149000A0E0B0E080933E0290933F02A093400210
:1014A000B093410288E291E090933B0280933A022C
:1014B00085EC90E0909347028093460284EC90E0A4
:1014C000909349028093480280EC90E090934B0205
:1014D00080934A0281EC90E090934D0280934C02FD
:1014E00082EC90E090934F0280934E0286EC90E065
:1014F0009093510280935002109253021092540222
:101500001092550210925602089508950E944007C5
:101510000E94850A0E94F100C8ECD8E00E94E60211
:101520002097E1F30E94C808F9CFCF92DF92EF92A3
:10153000FF920F931F93CF93DF937C016A01EB011E
:1015400000E010E00C151D0571F06991D701ED91D7
:10155000FC910190F081E02DC7010995892B19F0CC
:101560000F5F1F4FEFCFC801DF91CF911F910F91F8
:10157000FF90EF90DF90CF9008956115710581F095
:10158000DB010D900020E9F7AD0141505109461BE8
:10159000570BDC01ED91FC910280F381E02D099461
:1015A00080E090E00895DC01ED91FC910190F081E4
:1015B000E02D099464E371E00C94BD0A8F929F9230
:1015C000AF92BF92DF92EF92FF920F931F93CF9350
:1015D000DF93CDB7DEB7A1970FB6F894DEBF0FBE8D
:1015E000CDBF7C01F42FD52ECB0119A2223008F4F7
:1015F0002AE08E010F5D1F4F822E912CA12CB12C61
:101600006F2F7D2DA50194010E94940EF22FD32EF1
:10161000CA01015011096A3014F4E0E301C0E7E3A4
:10162000E60FD801EC93232B242B252B49F7B80187
:10163000C7010E94BD0AA1960FB6F894DEBF0FBE87
:10164000CDBFDF91CF911F910F91FF90EF90DF9071
:10165000BF90AF909F908F900895CF92DF92EF92BE
:10166000FF920F931F93CF93DF93EC016A017B01ED
:101670002115310579F4E881F9810190F081E02D9F
:10168000642FDF91CF911F910F91FF90EF90DF902A
:10169000CF9009942A303105E9F477FF1AC06DE242
:1016A0000E94D30A8C0144275527BA014C195D09C1
:1016B0006E097F092AE0CE010E94DE0A800F911F89
:1016C000DF91CF911F910F91FF90EF90DF90CF901E
:1016D00008952AE0B701A601CE01DF91CF911F91B5
:1016E0000F91FF90EF90DF90CF900C94DE0A4F9215
:1016F0005F926F927F928F929F92AF92BF92CF92A2
:10170000DF92EF92FF920F931F93CF93DF93EC0141
:101710006A017B01B22E9A01AB01C701B6010E949A
:10172000900E882319F067E371E027C02601370186
:10173000E89477F82FEF3FEF4FE75FE7C301B2017F
:101740000E94900E81110DC02FEF3FEF4FE75FE732
:10175000C301B2010E94DA0C18161CF46BE371E0AD
:101760000CC02FEF3FEF4FE75FE4C701B6010E94C7
:10177000290E1816ACF46FE371E0CE01DF91CF9122
:101780001F910F91FF90EF90DF90CF90BF90AF909F
:101790009F908F907F906F905F904F900C94BD0AB8
:1017A0002FEF3FEF4FE75FECC701B6010E94DA0C65
:1017B00087FDE1CF20E030E0A901C701B6010E941A
:1017C000DA0C87FF0AC06DE2CE010E94D30A8C01B9
:1017D000F7FAF094F7F8F09402C000E010E0A12CC2
:1017E00060E070E080E09FE3AB1441F020E030E087
:1017F00040E251E40E94DE0CA394F6CF9B01AC01C1
:10180000C701B6010E94760C6B017C010E944B0D52
:101810002B013C010E94770D9B01AC01C701B60171
:101820000E94750C6B017C012AE0B301A201CE017C
:101830000E94DE0A080F191FBB2039F063E471E033
:10184000CE010E94BD0A080F191F7B2C772041F1A1
:1018500020E030E040E251E4C701B6010E942D0EC5
:101860006B017C010E94460D4B01AA2497FCA094B9
:10187000BA2C2AE030E0B501A401CE010E942D0B64
:10188000080F191FC501B4010E94790D9B01AC011D
:10189000C701B6010E94750C6B017C017A94D6CF0A
:1018A000C801DF91CF911F910F91FF90EF90DF90D2
:1018B000CF90BF90AF909F908F907F906F905F90F0
:1018C0004F9008950F931F93CF93DF93EC010E94E5
:1018D000770B8C01CE010E94DA0A800F911FDF91F5
:1018E000CF911F910F91089508955058BB27AA27B3
:1018F0000ED075C166D130F06BD120F031F49F3F2E
:1019000011F41EF45BC10EF4E095E7FB51C1E92F21
:1019100077D180F3BA17620773078407950718F029
:1019200071F49EF58FC10EF4E0950B2EBA2FA02D09
:101930000B01B90190010C01CA01A0011124FF277C
:10194000591B99F0593F50F4503E68F11A16F04077
:10195000A22F232F342F4427585FF3CF4695379576
:101960002795A795F0405395C9F77EF41F16BA0B3B
:10197000620B730B840BBAF09150A1F0FF0FBB1FE9
:10198000661F771F881FC2F70EC0BA0F621F731F32
:10199000841F48F4879577956795B795F7959E3F8F
:1019A00008F0B3CF9395880F08F09927EE0F97951D
:1019B00087950895D9D008F481E008950CD00FC11F
:1019C00007D140F0FED030F021F45F3F19F0F0C0B5
:1019D000511139C1F3C014D198F39923C9F3552398
:1019E000B1F3951B550BBB27AA2762177307840712
:1019F00038F09F5F5F4F220F331F441FAA1FA9F3C8
:101A000033D00E2E3AF0E0E830D091505040E695B9
:101A1000001CCAF729D0FE2F27D0660F771F881F1A
:101A2000BB1F261737074807AB07B0E809F0BB0B09
:101A3000802DBF01FF2793585F4F2AF09E3F51052D
:101A400068F0B6C000C15F3FECF3983EDCF38695CA
:101A500077956795B795F7959F5FC9F7880F911DA3
:101A60009695879597F90895E1E0660F771F881F8F
:101A7000BB1F621773078407BA0720F0621B730B42
:101A8000840BBA0BEE1F88F7E095089504D0689494
:101A9000B111D9C00895BCD088F09F5790F0B92FEC
:101AA0009927B751A0F0D1F0660F771F881F991FB3
:101AB0001AF0BA95C9F712C0B13081F0C3D0B1E0C5
:101AC0000895C0C0672F782F8827B85F39F0B93FD5
:101AD000CCF3869577956795B395D9F73EF49095B5
:101AE0008095709561957F4F8F4F9F4F0895E89433
:101AF00009C097FB3EF490958095709561957F4F56
:101B00008F4F9F4F9923A9F0F92F96E9BB27939503
:101B1000F695879577956795B795F111F8CFFAF413
:101B2000BB0F11F460FF1BC06F5F7F4F8F4F9F4F44
:101B300016C0882311F096E911C0772321F09EE8A2
:101B4000872F762F05C0662371F096E8862F70E008
:101B500060E02AF09A95660F771F881FDAF7880FE2
:101B60009695879597F90895990F0008550FAA0B38
:101B7000E0E8FEEF16161706E807F907C0F01216A0
:101B80001306E407F50798F0621B730B840B950BA3
:101B900039F40A2661F0232B242B252B21F40895F8
:101BA0000A2609F4A140A6958FEF811D811D089595
:101BB00097F99F6780E870E060E008959FEF80EC00
:101BC000089500240A9416161706180609060895A3
:101BD00000240A9412161306140605060895092E09
:101BE0000394000C11F4882352F0BB0F40F4BF2B78
:101BF00011F460FF04C06F5F7F4F8F4F9F4F0895B8
:101C000057FD9058440F551F59F05F3F71F04795AD
:101C1000880F97FB991F61F09F3F79F08795089592
:101C2000121613061406551FF2CF4695F1DF08C0B1
:101C3000161617061806991FF1CF869571056105CE
:101C400008940895E894BB2766277727CB0197F976
:101C500008958ADF08F48FEF08950BD0C0CFB1DF6D
:101C600028F0B6DF18F0952309F0A2CFA7CF1124F2
:101C7000EACFC6DFA0F3959FD1F3950F50E0551F33
:101C8000629FF001729FBB27F00DB11D639FAA27D1
:101C9000F00DB11DAA1F649F6627B00DA11D661F20
:101CA000829F2227B00DA11D621F739FB00DA11D41
:101CB000621F839FA00D611D221F749F3327A00DFB
:101CC000611D231F849F600D211D822F762F6A2F97
:101CD00011249F5750408AF0E1F088234AF0EE0F1C
:101CE000FF1FBB1F661F771F881F91505040A9F729
:101CF0009E3F510570F05CCFA6CF5F3FECF3983E5E
:101D0000DCF3869577956795B795F795E7959F5F8F
:101D1000C1F7FE2B880F911D9695879597F9089529
:101D200023DF880B990B0895A1E21A2EAA1BBB1B77
:101D3000FD010DC0AA1FBB1FEE1FFF1FA217B30797
:101D4000E407F50720F0A21BB30BE40BF50B661FAD
:101D5000771F881F991F1A9469F760957095809571
:101D600090959B01AC01BD01CF010895EE0FFF1FBF
:0C1D70000590F491E02D0994F894FFCF49
:101D7C002C8F9440E1C89F3EA2D5F9BE4CD929C105
:101D8C002A062A060000000041041404BA03C20308
:101D9C00D503E403000000001909950A9B08B40858
:101DAC00A608F7080D0A006E616E00696E66006F7A
:061DBC007666002E000017
:00000001FF
