:100000000C9463000C948D090C94B4090C948B002F
:100010000C948B000C948B000C948B000C948B0034
:100020000C948B000C948B000C948B000C948B0024
:100030000C948B000C948B000C948B000C948B0014
:100040000C94DB090C948B000C94C30C0C94F50CF1
:100050000C948B000C948B000C948B000C948B00F4
:100060000C943F080C948B00000000080002010073
:100070000003040700000000000000000102040863
:100080001020408001020408102001020408102002
:10009000040404040404040402020202020203032E
:1000A00003030303000000002300260029000000D2
:1000B0000000250028002B0000000000240027007D
:1000C0002A008F07250D11241FBECFEFD8E0DEBF19
:1000D000CDBF11E0A0E0B1E0E6ECF3E202C0059094
:1000E0000D92A23CB107D9F723E0A2ECB1E001C028
:1000F0001D92AA36B207E1F710E0C6ECD0E004C0CA
:100100002297FE010E94C711C23CD107C9F70E9485
:10011000690D0C94E1110C94000082E00E94550BD3
:10012000019771F483E00E94550B4091C6015091F4
:10013000C7016091C8017091C901892B99F40DC064
:1001400083E00E94550B4091C6015091C701609118
:10015000C8017091C901019729F44F5F5F4F6F4F3C
:100160007F4F04C041505109610971094093C60194
:100170005093C7016093C8017093C901089583E04B
:100180000E94550B019771F482E00E94550B40913B
:10019000C6015091C7016091C8017091C9010197D2
:1001A00099F40DC082E00E94550B4091C601509118
:1001B000C7016091C8017091C901892B29F44F5F73
:1001C0005F4F6F4F7F4F04C0415051096109710962
:1001D0004093C6015093C7016093C8017093C90151
:1001E00008950F931F93CF93DF931F92CDB7DEB780
:1001F0008C0169830E94CB116981681741F0C801A5
:100200000F90DF91CF911F910F910C94D3110F900C
:10021000DF91CF911F910F9108950C94CB11CF9343
:10022000DF9382E090E00E940D01C82FD0E0D093D0
:10023000F501C093F40183E090E00E940D0190E08D
:100240009093F3018093F201892B39F4D195C195F4
:10025000D109D093F501C093F4018091EF01882377
:1002600001F165E171E08DEC92E00E94B60D6091C4
:10027000F4017091F5014AE050E08DEC92E00E94AB
:100280006E0E64E271E08DEC92E00E94B60D60911A
:10029000F2017091F3014AE050E08DEC92E00E948F
:1002A0006E0E80E090E00E940D01C82FD0E0D09348
:1002B000F901C093F80181E090E00E940D0190E007
:1002C0009093F7018093F601892B39F4D195C1956C
:1002D000D109D093F901C093F8018091EF018823EF
:1002E00011F168E371E08DEC92E00E94B60D60912F
:1002F000F8017091F9014AE050E08DEC92E00E9423
:100300006E0E67E471E08DEC92E00E94B60D609194
:10031000F6017091F7014AE050E08DEC92E0DF9138
:10032000CF910C946E0EDF91CF910895DF92EF92F2
:10033000FF920F931F93CF93DF937C01EA01D22E9C
:10034000882777FD8095982F0E94480A602F8D2D71
:100350000E941F0BB701882777FD8095982F0E9478
:10036000480A61E0012B09F060E08D2D0E941F0B0F
:10037000BE01882777FD8095982FDF91CF911F913F
:100380000F91FF90EF90DF900C94480AEF92FF924C
:100390000F931F93CF93DF937A01672B61F000E0F7
:1003A00010E02DE030E040E050E060E070E088EEEA
:1003B00093E00E94960101E010E02DE030E044EF70
:1003C00051E060E070E084EF91E00E9496012DE042
:1003D00030E048EC50E060E070E088EC90E00E9493
:1003E00096012DE030E048EC50E060E070E088ECF1
:1003F00090E00E9496012DE030E044EF51E060E093
:1004000070E084EF91E00E949601C3E0D0E001E04B
:1004100010E02DE030E048EC50E060E070E088EC67
:1004200090E00E949601219791F72DE030E044EF93
:1004300051E060E070E084EF91E00E949601C4E03A
:10044000D0E001E010E02DE030E048EC50E060E06A
:1004500070E088EC90E00E949601219791F7EF28D8
:1004600061F000E010E02DE030E040E050E060E0BE
:1004700070E088EE93E00E949601DF91CF911F918A
:100480000F91FF90EF900895CF93DF9385E090E078
:100490000E940D01882379F16BE571E08DEC92E00B
:1004A0000E94C30DC0E0D0E060E0CE010E94D311F5
:1004B0002196C630D105C1F7C0E0D0E0CE010E9440
:1004C0000D018111109210012196C630D105B1F7AE
:1004D00080911001811109C040E050E061E070E0BE
:1004E00081E090E00E94C601F3CF69E671E08DECF7
:1004F00092E00E94C30D84E090E00E940D01C82F9D
:10050000D0E0209741F040E050E061E070E0CE01A3
:100510000E94C601F8CFDF91CF91089526E040E810
:1005200055E260E070E08DEC92E00E94610C81E0A9
:100530008093FF018093EF0160E082E00E94E60A71
:1005400060E083E00E94E60A60E08AE00E94E60A3A
:1005500060E087E00E94E60A61E088E00E94E60A27
:1005600061E084E00E94E60A61E086E00E94E60A1B
:1005700061E086E00E941F0B1092FE011092FD01C7
:100580001092F1011092F0010E9444020E940F01AA
:1005900041E050E06DE870E080E00E946D0941E0CC
:1005A00050E06FEB70E081E00E946D0968E070E060
:1005B00080E092E00E94660764EA75E080E092E0E5
:1005C0000E948A0764E670E080E090E00C94480A9C
:1005D0008F929F92AF92BF92CF92DF92EF92FF9253
:1005E0000F931F93CF93DF936B017C0149015A0155
:1005F00020E030E04FE753EC0E94381187FD0AC03D
:1006000020E030E04FE753E4C701B6010E94E90F54
:1006100018167CF520E030E04FE753E4C701B6013F
:100620000E94381118164CF420E030E04FE753E4F4
:10063000C701B6010E94840F12C020E030E04FE7EE
:1006400053ECC701B6010E94E90F87FF12C020E0FA
:1006500030E04FE753E4C701B6010E94850F6B01FC
:100660007C0120E030E0A9010E9438111816ACF09E
:1006700003C0C12CD12C7601C1E0D0E020E030E0F5
:10068000A901C701B6010E94E90F87FD02C0C0E0C1
:10069000D0E0D195C195D10902C0C1E0D0E020E001
:1006A00030E0A901C501B4010E94381101E010E059
:1006B000181674F020E030E0A901C501B4010E94D1
:1006C000E90F87FD02C000E010E0119501951109C6
:1006D000C017D10759F420E030E0A901C701B601E5
:1006E0000E94E90F882311F081E000C0DF91CF91D3
:1006F0001F910F91FF90EF90DF90CF90BF90AF9040
:100700009F908F9008954F925F926F927F928F92F9
:100710009F92AF92BF92CF92DF92EF92FF92CF93D0
:10072000DF9300D000D0CDB7DEB76B017C01209104
:100730000C0130910D0140910E0150910F010E946A
:100740003C114B015C016093DA017093DB018093F3
:10075000DC019093DD016091CE017091CF01809119
:10076000D0019091D101A70196010E94E80288234F
:1007700021F020E030E0A9010AC02DEC3CEC4CE473
:100780005DE3C701B6010E943C119B01AC01609181
:10079000D6017091D7018091D8019091D9010E9422
:1007A000850F6093D6017093D7018093D801909301
:1007B000D901209108013091090140910A0150911D
:1007C0000B016091D6017091D7018091D801909171
:1007D000D9010E943C112B013C016093D60170931A
:1007E000D7018093D8019093D9018091CA0190914B
:1007F000CB01A091CC01B091CD0189839A83AB83C9
:10080000BC83209104013091050140910601509173
:100810000701C701B6010E943C1129813A814B8131
:100820005C810E94840F2091000130910101409170
:100830000201509103010E943C116B017C01609305
:10084000D2017093D3018093D4019093D501A30179
:100850009201C501B4010E94850FA70196010E9473
:10086000850F4B015C016093CE017093CF018093A3
:10087000D0019093D10120E030E04FE753E40E9493
:10088000381118168CF020E030E04FE753ECC5012A
:10089000B4010E94E90F87FF0DC0812C912C9FE7C6
:1008A000A92E93ECB92E06C0812C912C8FE7A82E8F
:1008B00083E4B82E2DEC3CEC4CE45DE3C701B601BB
:1008C0000E943C119B01AC0169817A818B819C81E2
:1008D0000E94850F6093CA017093CB018093CC0175
:1008E0009093CD01C501B4010F900F900F900F9020
:1008F000DF91CF91FF90EF90DF90CF90BF90AF90BE
:100900009F908F907F906F905F904F900895CF92BF
:10091000DF92EF92FF92CF93DF936091C6017091C7
:10092000C7018091C8019091C9010E9488106B0194
:100930007C016091F4017091F501882777FD809525
:10094000982F0E9488109B01AC01C701B6010E943C
:10095000850F6B017C016093DE017093DF01809352
:10096000E0019093E1016091F8017091F90188270D
:1009700077FD8095982F0E9488102091EA01309190
:10098000EB014091EC015091ED010E94850F9B011C
:10099000AC01C701B6010E94840F6B017C0120E00D
:1009A00030E0A9010E94381118165CF42AE939E9EF
:1009B00049E15EE3C701B6010E94E90F18165CF039
:1009C00013C02AE939E949E15EEBC701B6010E948B
:1009D000381187FF09C0C092E201D092E301E09292
:1009E000E401F092E50108C01092E2011092E301E7
:1009F0001092E4011092E5016091E2017091E3012F
:100A00008091E4019091E5010E9483036093C2010B
:100A10007093C3018093C4019093C50120E030E03E
:100A2000A9016091E2017091E3018091E40190914C
:100A3000E5010E94E90F811108C01092C2011092D5
:100A4000C3011092C4011092C501C090C201D090A0
:100A5000C301E090C401F090C50120E030E0A9019D
:100A6000C701B6010E94E90F87FF1BC022E030E0FA
:100A7000B701A6018DEC92E00E94710F8091C20136
:100A80009091C301A091C401B091C501B058809369
:100A9000C2019093C301A093C401B093C50160E06B
:100AA00001C061E088E00E941F0B20E030E048ECCC
:100AB00052E46091C2017091C3018091C401909190
:100AC000C5010E94ED0F2091E6013091E7014091B0
:100AD000E8015091E9010E943C116093C2017093BA
:100AE000C3018093C4019093C50187E00E94550B18
:100AF000892B19F169E070E080E092E00E947207B2
:100B0000C0910002D09101026091C2017091C301B5
:100B10008091C4019091C5010E945510E881F9812E
:100B200080E092E0099580E092E0DF91CF91FF9024
:100B3000EF90DF90CF900C948707DF91CF91FF90DB
:100B4000EF90DF90CF900895CF92DF92EF92FF92D7
:100B50000F931F93CF93DF93CAEFD1E08C01065020
:100B60001E4FC017D10731F080E092E00E948B0643
:100B70008993F7CF2091FB01822F90E09093F101B0
:100B80008093F0012130E1F120F0223009F466C0B9
:100B9000B1C06091FA0170E080E090E00E948610A0
:100BA0006093EA017093EB018093EC019093ED0167
:100BB0006091FC0170E080E090E00E9486106093FC
:100BC000E6017093E7018093E8019093E9018AE0E0
:100BD0000E94550B892B89F48091EA019091EB01D9
:100BE000A091EC01B091ED01B0588093EA0190938F
:100BF000EB01A093EC01B093ED011092EE017AC0ED
:100C00008091EE01811176C02093EE01C090DE014B
:100C1000D090DF01E090E001F090E10120E030E0D1
:100C2000A901C701B6010E94E90F87FF0BC0C701E8
:100C3000B60190580E945A1080E090E00E94F100A6
:100C400060E009C0C701B6010E945A1080E090E040
:100C50000E94F10061E081E090E042C08091EE01ED
:100C6000811148C081E08093EE016DE771E08DEC69
:100C700092E00E94B60D4091DE015091DF0160913B
:100C8000E0017091E10122E030E08DEC92E00E9401
:100C9000710FC090DE01D090DF01E090E001F09094
:100CA000E10120E030E0A901C701B6010E94E90F8F
:100CB00087FF0BC0C701B60190580E945A1082E00E
:100CC00090E00E94F10060E009C0C701B6010E94F7
:100CD0005A1082E090E00E94F10061E083E090E031
:100CE000DF91CF911F910F91FF90EF90DF90CF9008
:100CF0000C94F100DF91CF911F910F91FF90EF9035
:100D0000DF90CF9008958091340290E020913502D9
:100D1000821B910908952091350280913402281791
:100D200050F4E22FF0E0EA5CFD4F808190E02F5F0D
:100D30002093350208958FEF9FEF0895E0913502DB
:100D400080913402E81730F4F0E0EA5CFD4F8081D6
:100D500090E008958FEF9FEF08950895E0910C02C1
:100D6000F0910D023097E1F030913502209134027C
:100D70003217B0F040E0242F30E02617370754F444
:100D8000DC01A20FB31F5C91D901AA5CBD4F5C933B
:100D90004F5FF1CF1092350260933402CB0109947A
:100DA0000895E0910E02F0910F02309729F0109211
:100DB00012021092110209940895CF92DF92EF92DD
:100DC000FF920F931F93CF93DF937C01CB018A0196
:100DD00020911002222389F0EB016B01C40ED51E75
:100DE000CC15DD0569F06991D701ED91FC91019079
:100DF000F081E02DC7010995F3CF642F0E940C0804
:100E0000C801DF91CF911F910F91FF90EF90DF907C
:100E1000CF900895CF93DF931F92CDB7DEB769834C
:100E2000209110022223D1F020911102203240F0B3
:100E300021E030E0FC013383228380E090E015C0A4
:100E400080911202E82FF0E0ED5EFD4F99819083D2
:100E50008F5F809312028093110205C061E0CE0182
:100E600001960E940C0881E090E00F90DF91CF91F5
:100E70000895FC011382128248EE53E060E070E0B6
:100E8000448355836683778387E991E091838083E8
:100E900008951092350210923402109212021092AC
:100EA00011020C949307CF93DF93EC01862F0E94DD
:100EB000B10781ED96E00E942A088EEA96E00E9432
:100EC0002508CE01DF91CF910C9449070C9453076C
:100ED00081E080931002609333021092120210920C
:100EE000110208950C9468070F93062F21E040919A
:100EF000110263E172E0809133020E94B507109203
:100F0000120210921102109210020F91089561E0E6
:100F10000C94740770930D0260930C02089580E0A6
:100F200092E00C9439071092C30281E08093C102D1
:100F30001092C00261E082E10E941F0B61E083E138
:100F40000E941F0BE9EBF0E080818E7F808380811F
:100F50008D7F808388E48093B80085E48093BC0013
:100F60000895880F8093BA0008950F93413208F0D6
:100F70004AC09091C3029111FCCF92E09093C302BA
:100F80000093C1029FEF9093560210929B024093F0
:100F90009A02FB016CE972E0DB019A2F961B941711
:100FA00018F491919D93F9CF1092C2029091C202D0
:100FB000880F892B8093C2028091C002813061F436
:100FC0001092C0028091C2028093BB008091BC004D
:100FD00083FDF8CF85EC01C085EE8093BC00222311
:100FE00021F08091C3028230E1F3809156028F3F5D
:100FF00061F080915602803251F080915602803328
:1010000041F483E007C081E005C080E003C082E0D6
:1010100001C084E00F910895613298F42091C302D9
:10102000243089F460937802FC018AE792E0DC01C5
:101030002A2F281B261718F421912D93F9CF80E031
:10104000089581E0089582E008959093BD02809311
:10105000BC0208959093BF028093BE02089585ED6F
:101060008093BC008091BC0084FDFCCF1092C30231
:10107000089585EC8093BC001092C30208951F92DE
:101080000F920FB60F9211242F933F934F935F93BC
:101090006F937F938F939F93AF93BF93EF93FF9340
:1010A0008091B900887F803609F49EC078F5883237
:1010B00009F45DC090F4803109F456C038F48823F7
:1010C00009F4F5C0883009F44FC0F5C0883109F43F
:1010D0004EC0803209F45FC0EEC0803409F46AC0AB
:1010E00058F4803309F457C0883309F0E4C0809382
:1010F00056020E943908DFC0803509F44FC0883598
:1011000009F45DC0883409F0D6C0D3C0883909F429
:10111000C4C0A8F4883709F467C038F4883609F4E5
:1011200063C0803709F460C0C6C0883809F4B5C010
:10113000803909F45FC0803809F0BDC05BC0803BD6
:1011400009F483C038F4803A09F466C0883A09F497
:101150007CC0B1C0803C09F4A4C0883C09F4A1C0A3
:10116000883B09F487C0A7C08091C20210C090914B
:101170009B0280919A02981770F5E0919B0281E0A2
:101180008E0F80939B02F0E0E456FD4F80818093A8
:10119000BB0085EC83C0809356028BC0E0919B021C
:1011A00081E08E0F80939B028091BB00F0E0E456BB
:1011B000FD4F808390919B0280919A026BC0E091D9
:1011C0009B0281E08E0F80939B028091BB00F0E038
:1011D000E456FD4F80838091C10281116AC081E095
:1011E0008093C00284EA5EC083E08093C3021092C1
:1011F0005702CFCF80915702803208F04EC0E09165
:10120000570281E08E0F809357028091BB00F0E07F
:10121000E85AFD4F8083BDCF0E9439088091570264
:10122000803230F4E0915702F0E0E85AFD4F10822E
:101230006091570270E0E091BC02F091BD0288E538
:1012400092E009951092570236C084E08093C30261
:101250001092790210927802E091BE02F091BF02E2
:10126000099580917802811105C081E08093780210
:1012700010927A02E091790281E08E0F80937902D8
:10128000F0E0E658FD4F80818093BB009091790299
:1012900080917802981708F47CCF85E88093BC0091
:1012A0000AC085EC8093BC001092C30204C0109267
:1012B00056020E942F08FF91EF91BF91AF919F912D
:1012C0008F917F916F915F914F913F912F910F90EF
:1012D0000FBE0F901F90189508958230E8F4E82F04
:1012E000F0E0EE0FFF1FEF5EFE4F718360838130F1
:1012F00041F0809169008C7F842B80936900E89A8B
:10130000089580916900440F551F440F551F837F36
:10131000842B80936900E99A08951F920F920FB66B
:101320000F9211242F933F934F935F936F937F936B
:101330008F939F93AF93BF93EF93FF93E09111012E
:10134000F09112010995FF91EF91BF91AF919F919B
:101350008F917F916F915F914F913F912F910F905E
:101360000FBE0F901F9018951F920F920FB60F92FD
:1013700011242F933F934F935F936F937F938F939A
:101380009F93AF93BF93EF93FF93E0911301F0917D
:1013900014010995FF91EF91BF91AF919F918F91AA
:1013A0007F916F915F914F913F912F910F900FBE61
:1013B0000F901F9018951F920F920FB60F92112445
:1013C0002F933F938F939F93AF93BF938091C502C9
:1013D0009091C602A091C702B091C8023091C40298
:1013E00023E0230F2D3720F40196A11DB11D05C068
:1013F00026E8230F0296A11DB11D2093C4028093FD
:10140000C5029093C602A093C702B093C802809110
:10141000C9029091CA02A091CB02B091CC02019670
:10142000A11DB11D8093C9029093CA02A093CB0263
:10143000B093CC02BF91AF919F918F913F912F912B
:101440000F900FBE0F901F9018953FB7F8948091A2
:10145000C9029091CA02A091CB02B091CC0226B5EC
:10146000A89B05C02F3F19F00196A11DB11D3FBFDC
:101470006627782F892F9A2F620F711D811D911D6C
:1014800042E0660F771F881F991F4A95D1F708958C
:101490008F929F92AF92BF92CF92DF92EF92FF9284
:1014A0006B017C010E94250A4B015C01C114D1042F
:1014B000E104F104F1F00E94830F0E94250A6819EB
:1014C00079098A099B09683E73408105910570F38B
:1014D00021E0C21AD108E108F10888EE880E83E005
:1014E000981EA11CB11CC114D104E104F10429F718
:1014F000DDCFFF90EF90DF90CF90BF90AF909F90A7
:101500008F900895789484B5826084BD84B581609D
:1015100084BD85B5826085BD85B5816085BDEEE6FB
:10152000F0E0808181608083E1E8F0E010828081DA
:1015300082608083808181608083E0E8F0E0808148
:1015400081608083E1EBF0E0808184608083E0EB68
:10155000F0E0808181608083EAE7F0E08081846050
:1015600080838081826080838081816080838081AC
:10157000806880831092C1000895833081F028F440
:10158000813099F08230A1F008958730A9F0883039
:10159000B9F08430D1F4809180008F7D03C08091B8
:1015A00080008F7780938000089584B58F7702C084
:1015B00084B58F7D84BD08958091B0008F7703C07E
:1015C0008091B0008F7D8093B0000895CF93DF931A
:1015D00090E0FC01E458FF4F2491FC01E057FF4FDD
:1015E0008491882349F190E0880F991FFC01E85409
:1015F000FF4FA591B49182559F4FFC01C591D491A5
:101600009FB7611108C0F8948C91209582238C9328
:10161000888182230AC0623051F4F8948C91322F71
:10162000309583238C938881822B888304C0F8941F
:101630008C91822B8C939FBFDF91CF9108950F9354
:101640001F93CF93DF931F92CDB7DEB7282F30E0E3
:10165000F901E859FF4F8491F901E458FF4F1491C3
:10166000F901E057FF4F04910023C9F0882321F0CE
:1016700069830E94BD0A6981E02FF0E0EE0FFF1F31
:10168000E255FF4FA591B4919FB7F8948C916111E9
:1016900003C01095812301C0812B8C939FBF0F90B5
:1016A000DF91CF911F910F910895CF93DF93282F52
:1016B00030E0F901E859FF4F8491F901E458FF4FF8
:1016C000D491F901E057FF4FC491CC2391F08111DF
:1016D0000E94BD0AEC2FF0E0EE0FFF1FEC55FF4F0C
:1016E000A591B4912C912D2381E090E021F480E02C
:1016F00002C080E090E0DF91CF910895FC01818DE0
:10170000228D90E0805C9F4F821B91098F739927F7
:101710000895FC01918D828D981731F0828DE80F2C
:10172000F11D858D90E008958FEF9FEF0895FC01E6
:10173000918D828D981761F0828DDF01A80FB11D08
:101740005D968C91928D9F5F9F73928F90E008952C
:101750008FEF9FEF08958BE19DE0892B49F080E0AA
:1017600090E0892B29F00E941B0D81110C94000040
:101770000895FC01848DDF01A80FB11DA35ABF4F4E
:101780002C91848D90E001968F739927848FA68980
:10179000B7892C93A089B1898C9180648C93938DA7
:1017A000848D981306C00288F389E02D80818F7D97
:1017B00080830895CF93DF93EC01888D8823C9F04F
:1017C000EA89FB89808185FD05C0A889B9898C914A
:1017D00086FD0FC00FB607FCF5CF808185FFF2CFE5
:1017E000A889B9898C9185FFEDCFCE010E94B90BF4
:1017F000E7CFDF91CF910895CF92DF92FF920F93C1
:101800001F93CF93DF931F92CDB7DEB76C0181E0BA
:10181000D60158968C9358975B969C915B975C96F3
:101820008C915C97981307C05096ED91FC9151975D
:10183000808185FD2EC0F601038D10E00F5F1F4FE4
:101840000F731127F02EF601848DF81211C00FB618
:1018500007FCF9CFD6015096ED91FC91519780810C
:1018600085FFF1CFC60169830E94B90B6981EBCF77
:10187000838DE80FF11DE35AFF4F6083D6015B961D
:101880000C935B975296ED91FC9153978081806207
:101890000CC0D6015696ED91FC91579760835096F7
:1018A000ED91FC91519780818064808381E090E08C
:1018B0000F90DF91CF911F910F91FF90DF90CF900C
:1018C0000895BF92CF92DF92EF92FF92CF93DF9372
:1018D000EC016A017B01B22EE889F98982E08083FC
:1018E000411581EE580761057105A1F060E079E0CE
:1018F0008DE390E0A70196010E94A31121503109C8
:10190000410951095695479537952795211580E14D
:10191000380798F0E889F989108260E874E88EE168
:1019200090E0A70196010E94A311215031094109BD
:1019300051095695479537952795EC85FD85308358
:10194000EE85FF852083188EEC89FD89B082EA89B7
:10195000FB89808180618083EA89FB89808188603E
:101960008083EA89FB89808180688083EA89FB899A
:1019700080818F7D8083DF91CF91FF90EF90DF900A
:10198000CF90BF9008951F920F920FB60F9211241F
:101990002F938F939F93EF93FF93E091DD02F0914C
:1019A000DE028081E091E302F091E40282FD12C048
:1019B00090818091E6028F5F8F732091E7028217FA
:1019C00051F0E091E602F0E0E353FD4F958F8093F4
:1019D000E60201C08081FF91EF919F918F912F913D
:1019E0000F900FBE0F901F9018951F920F920FB679
:1019F0000F9211242F933F934F935F936F937F9395
:101A00008F939F93AF93BF93EF93FF938DEC92E0EF
:101A10000E94B90BFF91EF91BF91AF919F918F9170
:101A20007F916F915F914F913F912F910F900FBEDA
:101A30000F901F9018958DEC92E00E947E0B21E094
:101A4000892B09F420E0822F08951092D002109281
:101A5000CF0288EE93E0A0E0B0E08093D1029093B3
:101A6000D202A093D302B093D40287EA91E090937C
:101A7000CE028093CD0285EC90E09093DA028093C1
:101A8000D90284EC90E09093DC028093DB0280EC3E
:101A900090E09093DE028093DD0281EC90E09093E1
:101AA000E0028093DF0282EC90E09093E202809368
:101AB000E10286EC90E09093E4028093E3021092BE
:101AC000E6021092E7021092E8021092E9020895ED
:101AD00008950E94820A0E94680D0E948E02CBEA3D
:101AE000DBE00E9487042097E1F30E94AB0BF9CF63
:101AF000CF92DF92EF92FF920F931F93CF93DF93DA
:101B00007C016A01EB0100E010E00C151D0571F08D
:101B10006991D701ED91FC910190F081E02DC70111
:101B20000995892B19F00F5F1F4FEFCFC801DF9187
:101B3000CF911F910F91FF90EF90DF90CF9008957C
:101B40006115710581F0DB010D900020E9F7AD0111
:101B500041505109461B570BDC01ED91FC9102806D
:101B6000F381E02D099480E090E008950C94A00D9D
:101B7000DC01ED91FC910190F081E02D099463EB83
:101B800071E00C94A00D0F931F93CF93DF93EC01A2
:101B90000E94A00D8C01CE010E94BF0D800F911FED
:101BA000DF91CF911F910F9108958F929F92AF92E5
:101BB000BF92DF92EF92FF920F931F93CF93DF9329
:101BC000CDB7DEB7A1970FB6F894DEBF0FBECDBF7D
:101BD0007C01F42FD52ECB0119A2223008F42AE083
:101BE0008E010F5D1F4F822E912CA12CB12C6F2FD7
:101BF0007D2DA50194010E94A311F22FD32ECA01BD
:101C0000015011096A3014F4E0E301C0E7E3E60F84
:101C1000D801EC93232B242B252B49F7B801C701BE
:101C20000E94A00DA1960FB6F894DEBF0FBECDBFE7
:101C3000DF91CF911F910F91FF90EF90DF90BF90B8
:101C4000AF909F908F900895CF92DF92EF92FF9286
:101C50000F931F93CF93DF93EC016A017B01211552
:101C6000310579F4E881F9810190F081E02D642F4C
:101C7000DF91CF911F910F91FF90EF90DF90CF9068
:101C800009942A303105E9F477FF1AC06DE20E9409
:101C9000B80D8C0144275527BA014C195D096E090E
:101CA0007F092AE0CE010E94D50D800F911FDF91A0
:101CB000CF911F910F91FF90EF90DF90CF900895FB
:101CC0002AE0B701A601CE01DF91CF911F910F91BC
:101CD000FF90EF90DF90CF900C94D50D0F931F9352
:101CE000CF93DF93EC019A01AB01662757FD609516
:101CF000762F0E94240E8C01CE010E94BF0D800F12
:101D0000911FDF91CF911F910F9108954F925F9294
:101D10006F927F928F929F92AF92BF92CF92DF92FB
:101D2000EF92FF920F931F93CF93DF93EC016A0121
:101D30007B01B22E9A01AB01C701B6010E949F112F
:101D4000882319F066EB71E027C026013701E8947B
:101D500077F82FEF3FEF4FE75FE7C301B2010E9433
:101D60009F1181110DC02FEF3FEF4FE75FE7C301D8
:101D7000B2010E94E90F18161CF46AEB71E00CC066
:101D80002FEF3FEF4FE75FE4C701B6010E94381124
:101D90001816ACF46EEB71E0CE01DF91CF911F917C
:101DA0000F91FF90EF90DF90CF90BF90AF909F90FA
:101DB0008F907F906F905F904F900C94A00D2FEFBD
:101DC0003FEF4FE75FECC701B6010E94E90F87FDC7
:101DD000E1CF20E030E0A901C701B6010E94E90F80
:101DE00087FF0AC06DE2CE010E94B80D8C01F7FAA0
:101DF000F094F7F8F09402C000E010E0A12C60E04D
:101E000070E080E09FE3AB1441F020E030E040E27E
:101E100051E40E94ED0FA394F6CF9B01AC01C701E2
:101E2000B6010E94850F6B017C010E945A102B01A4
:101E30003C010E9486109B01AC01C701B6010E94C3
:101E4000840F6B017C012AE0B301A201CE010E9444
:101E5000D50D080F191FBB2039F067E671E0CE01E0
:101E60000E94A00D080F191F7B2C772041F120E064
:101E700030E040E251E4C701B6010E943C116B0121
:101E80007C010E9455104B01AA2497FCA094BA2C07
:101E90002AE030E0B501A401CE010E94240E080F13
:101EA000191FC501B4010E9488109B01AC01C70134
:101EB000B6010E94840F6B017C017A94D6CFC801D1
:101EC000DF91CF911F910F91FF90EF90DF90CF9016
:101ED000BF90AF909F908F907F906F905F904F904A
:101EE00008950F931F93CF93DF93EC010E94860E0A
:101EF0008C01CE010E94BF0D800F911FDF91CF9109
:101F00001F910F91089508955058BB27AA270ED00E
:101F100075C166D130F06BD120F031F49F3F11F4E0
:101F20001EF45BC10EF4E095E7FB51C1E92F77D1B8
:101F300080F3BA17620773078407950718F071F4E6
:101F40009EF58FC10EF4E0950B2EBA2FA02D0B013C
:101F5000B90190010C01CA01A0011124FF27591BEE
:101F600099F0593F50F4503E68F11A16F040A22FF4
:101F7000232F342F4427585FF3CF46953795279565
:101F8000A795F0405395C9F77EF41F16BA0B620B64
:101F9000730B840BBAF09150A1F0FF0FBB1F661FAB
:101FA000771F881FC2F70EC0BA0F621F731F841FEE
:101FB00048F4879577956795B795F7959E3F08F014
:101FC000B3CF9395880F08F09927EE0F97958795D3
:101FD0000895D9D008F481E008950CD00FC107D13D
:101FE00040F0FED030F021F45F3F19F0F0C0511105
:101FF00039C1F3C014D198F39923C9F35523B1F330
:10200000951B550BBB27AA2762177307840738F067
:102010009F5F5F4F220F331F441FAA1FA9F333D0C6
:102020000E2E3AF0E0E830D091505040E695001C7A
:10203000CAF729D0FE2F27D0660F771F881FBB1F36
:10204000261737074807AB07B0E809F0BB0B802D10
:10205000BF01FF2793585F4F2AF09E3F510568F05C
:10206000B6C000C15F3FECF3983EDCF386957795F0
:102070006795B795F7959F5FC9F7880F911D96955E
:10208000879597F90895E1E0660F771F881FBB1FBA
:10209000621773078407BA0720F0621B730B840B67
:1020A000BA0BEE1F88F7E095089504D06894B1113B
:1020B000D9C00895BCD088F09F5790F0B92F9927C8
:1020C000B751A0F0D1F0660F771F881F991F1AF043
:1020D000BA95C9F712C0B13081F0C3D0B1E008950C
:1020E000C0C0672F782F8827B85F39F0B93FCCF38D
:1020F000869577956795B395D9F73EF49095809539
:10210000709561957F4F8F4F9F4F0895E89409C058
:1021100097FB3EF490958095709561957F4F8F4F1A
:102120009F4F9923A9F0F92F96E9BB279395F69530
:10213000879577956795B795F111F8CFFAF4BB0FAE
:1021400011F460FF1BC06F5F7F4F8F4F9F4F16C012
:10215000882311F096E911C0772321F09EE8872F9C
:10216000762F05C0662371F096E8862F70E060E058
:102170002AF09A95660F771F881FDAF7880F9695D1
:10218000879597F90895990F0008550FAA0BE0E875
:10219000FEEF16161706E807F907C0F01216130629
:1021A000E407F50798F0621B730B840B950B39F469
:1021B0000A2661F0232B242B252B21F408950A26CF
:1021C00009F4A140A6958FEF811D811D089597F90F
:1021D0009F6780E870E060E008959FEF80EC0895CD
:1021E00000240A94161617061806090608950024F6
:1021F0000A9412161306140605060895092E039470
:10220000000C11F4882352F0BB0F40F4BF2B11F4E3
:1022100060FF04C06F5F7F4F8F4F9F4F089557FD42
:102220009058440F551F59F05F3F71F04795880F44
:1022300097FB991F61F09F3F79F0879508951216DB
:1022400013061406551FF2CF4695F1DF08C0161687
:1022500017061806991FF1CF869571056105089438
:102260000895E894BB2766277727CB0197F908954F
:102270008ADF08F48FEF08950BD0C0CFB1DF28F0CC
:10228000B6DF18F0952309F0A2CFA7CF1124EACF2B
:10229000C6DFA0F3959FD1F3950F50E0551F629FC5
:1022A000F001729FBB27F00DB11D639FAA27F00DAF
:1022B000B11DAA1F649F6627B00DA11D661F829FD6
:1022C0002227B00DA11D621F739FB00DA11D621FBB
:1022D000839FA00D611D221F749F3327A00D611DD8
:1022E000231F849F600D211D822F762F6A2F1124BA
:1022F0009F5750408AF0E1F088234AF0EE0FFF1F0D
:10230000BB1F661F771F881F91505040A9F79E3F43
:10231000510570F05CCFA6CF5F3FECF3983EDCF345
:10232000869577956795B795F795E7959F5FC1F780
:10233000FE2B880F911D9695879597F9089523DFB9
:10234000880B990B0895A1E21A2EAA1BBB1BFD0155
:102350000DC0AA1FBB1FEE1FFF1FA217B307E40784
:10236000F50720F0A21BB30BE40BF50B661F771FDC
:10237000881F991F1A9469F76095709580959095BC
:102380009B01AC01BD01CF010895EE0FFF1F059029
:10239000F491E02D0994F999FECF92BD81BDF89A90
:1023A000992780B50895262FF999FECF1FBA92BDBF
:1023B00081BD20BD0FB6F894FA9AF99A0FBE019626
:0623C0000895F894FFCF20
:1023C6002C8F9440E1C89F3EA2D5F9BE4CD929C1B5
:1023D600016C096C096163745F706F73206C6173C3
:1023E600743A20006163745F706F735F7369676E20
:1023F600206C6173743A20007265665F706F73209B
:102406006C6173743A20007265665F706F735F73F8
:1024160069676E206C6173743A2000526573657447
:1024260020656570726F6D2E005265616479207249
:102436006573657420656570726F6D2E00637572C5
:1024460072656E745F6D6F746F725F616E676C65D7
:102456003A2000000000000A07DD0683068B069E70
:1024660006AD0600000000FC0B780D7E0B970B896D
:102476000BDA0B0D0A006E616E00696E66006F76F0
:022486006600EE
:00000001FF
