:100000000C9463000C9451090C9478090C948B00A7
:100010000C948B000C948B000C948B000C948B0034
:100020000C948B000C948B000C948B000C948B0024
:100030000C948B000C948B000C948B000C948B0014
:100040000C949F090C948B000C94870C0C94B90CA5
:100050000C948B000C948B000C948B000C948B00F4
:100060000C9403080C948B000000000800020100AF
:100070000003040700000000000000000102040863
:100080001020408001020408102001020408102002
:10009000040404040404040402020202020203032E
:1000A00003030303000000002300260029000000D2
:1000B0000000250028002B0000000000240027007D
:1000C0002A005307E90C11241FBECFEFD8E0DEBF92
:1000D000CDBF11E0A0E0B1E0EEE4F3E202C0059094
:1000E0000D92A23CB107D9F723E0A2ECB1E001C028
:1000F0001D92A536B207E1F710E0C6ECD0E004C0CF
:100100002297FE010E948B11C23CD107C9F70E94C1
:100110002D0D0C94A5110C94000082E00E94190B87
:10012000019771F483E00E94190B4091C601509130
:10013000C7016091C8017091C901892B99F40DC064
:1001400083E00E94190B4091C6015091C701609154
:10015000C8017091C901019729F44F5F5F4F6F4F3C
:100160007F4F04C041505109610971094093C60194
:100170005093C7016093C8017093C901089583E04B
:100180000E94190B019771F482E00E94190B4091B3
:10019000C6015091C7016091C8017091C9010197D2
:1001A00099F40DC082E00E94190B4091C601509154
:1001B000C7016091C8017091C901892B29F44F5F73
:1001C0005F4F6F4F7F4F04C0415051096109710962
:1001D0004093C6015093C7016093C8017093C90151
:1001E00008950F931F93CF93DF931F92CDB7DEB780
:1001F0008C0169830E948F116981681741F0C801E1
:100200000F90DF91CF911F910F910C9497110F9048
:10021000DF91CF911F910F9108950C948F11CF937F
:10022000DF9382E090E00E940D01C82FD0E0D093D0
:10023000F101C093F00183E090E00E940D0190E095
:100240009093EF018093EE01892B39F4D195C195FC
:10025000D109D093F101C093F0018091EB01882383
:1002600001F165E171E088EC92E00E947A0D609105
:10027000F0017091F1014AE050E088EC92E00E94B8
:10028000320E64E271E088EC92E00E947A0D609197
:10029000EE017091EF014AE050E088EC92E00E949C
:1002A000320E80E090E00E940D01C82FD0E0D09384
:1002B000F501C093F40181E090E00E940D0190E00F
:1002C0009093F3018093F201892B39F4D195C19574
:1002D000D109D093F501C093F4018091EB018823FB
:1002E00011F168E371E088EC92E00E947A0D609170
:1002F000F4017091F5014AE050E088EC92E00E9430
:10030000320E67E471E088EC92E00E947A0D609111
:10031000F2017091F3014AE050E088EC92E0DF9145
:10032000CF910C94320EDF91CF910895DF92EF922E
:10033000FF920F931F93CF93DF937C01EA01D22E9C
:10034000882777FD8095982F0E940C0A602F8D2DAD
:100350000E94E30AB701882777FD8095982F0E94B5
:100360000C0A61E0012B09F060E08D2D0E94E30A88
:10037000BE01882777FD8095982FDF91CF911F913F
:100380000F91FF90EF90DF900C940C0AEF92FF9288
:100390000F931F93CF93DF937A01672B61F000E0F7
:1003A00010E02DE030E040E050E060E070E088EEEA
:1003B00093E00E94960101E010E02DE030E044EF70
:1003C00051E060E070E084EF91E00E9496012DE042
:1003D00030E048EC50E060E070E088EC90E00E9493
:1003E00096012DE030E048EC50E060E070E088ECF1
:1003F00090E00E9496012DE030E044EF51E060E093
:1004000070E084EF91E00E949601C3E0D0E001E04B
:1004100010E02DE030E048EC50E060E070E088EC67
:1004200090E00E949601219791F72DE030E044EF93
:1004300051E060E070E084EF91E00E949601C4E03A
:10044000D0E001E010E02DE030E048EC50E060E06A
:1004500070E088EC90E00E949601219791F7EF28D8
:1004600061F000E010E02DE030E040E050E060E0BE
:1004700070E088EE93E00E949601DF91CF911F918A
:100480000F91FF90EF900895CF93DF9385E090E078
:100490000E940D01882379F16BE571E088EC92E010
:1004A0000E94870DC0E0D0E060E0CE010E9497116D
:1004B0002196C630D105C1F7C0E0D0E0CE010E9440
:1004C0000D018111109210012196C630D105B1F7AE
:1004D00080911001811109C040E050E061E070E0BE
:1004E00081E090E00E94C601F3CF69E671E088ECFC
:1004F00092E00E94870D84E090E00E940D01C82FD9
:10050000D0E0209741F040E050E061E070E0CE01A3
:100510000E94C601F8CFDF91CF91089526E040E810
:1005200055E260E070E088EC92E00E94250C81E0EA
:100530008093FA018093EB0160E082E00E94AA0AB6
:1005400060E083E00E94AA0A60E08AE00E94AA0AB2
:1005500060E087E00E94AA0A61E084E00E94AA0AA3
:1005600061E084E00E94AA0A61E086E00E94AA0A93
:1005700061E086E00E94E30A1092F9011092F8010E
:100580001092ED011092EC010E9444020E940F01B2
:1005900041E050E06DE870E080E00E94310941E008
:1005A00050E06FEB70E081E00E94310968E070E09C
:1005B0008BEF91E00E942A0767E775E08BEF91E0EF
:1005C0000E944E0764E670E080E090E00C940C0A14
:1005D0008F929F92AF92BF92CF92DF92EF92FF9253
:1005E0000F931F93CF93DF936B017C0149015A0155
:1005F00020E030E04FE753EC0E94FC1087FD0AC07A
:1006000020E030E04FE753E4C701B6010E94AD0F90
:1006100018167CF520E030E04FE753E4C701B6013F
:100620000E94FC1018164CF420E030E04FE753E431
:10063000C701B6010E94480F12C020E030E04FE72A
:1006400053ECC701B6010E94AD0F87FF12C020E036
:1006500030E04FE753E4C701B6010E94490F6B0138
:100660007C0120E030E0A9010E94FC101816ACF0DB
:1006700003C0C12CD12C7601C1E0D0E020E030E0F5
:10068000A901C701B6010E94AD0F87FD02C0C0E0FD
:10069000D0E0D195C195D10902C0C1E0D0E020E001
:1006A00030E0A901C501B4010E94FC1001E010E096
:1006B000181674F020E030E0A901C501B4010E94D1
:1006C000AD0F87FD02C000E010E011950195110902
:1006D000C017D10759F420E030E0A901C701B601E5
:1006E0000E94AD0F882311F081E000C0DF91CF910F
:1006F0001F910F91FF90EF90DF90CF90BF90AF9040
:100700009F908F9008954F925F926F927F928F92F9
:100710009F92AF92BF92CF92DF92EF92FF92CF93D0
:10072000DF9300D000D0CDB7DEB76B017C01209104
:100730000C0130910D0140910E0150910F010E946A
:1007400000114B015C016093DA017093DB0180932F
:10075000DC019093DD016091CE017091CF01809119
:10076000D0019091D101A70196010E94E80288234F
:1007700021F020E030E0A9010AC02DEC3CEC4CE473
:100780005DE3C701B6010E9400119B01AC016091BD
:10079000D6017091D7018091D8019091D9010E9422
:1007A000490F6093D6017093D7018093D80190933D
:1007B000D901209108013091090140910A0150911D
:1007C0000B016091D6017091D7018091D801909171
:1007D000D9010E9400112B013C016093D601709356
:1007E000D7018093D8019093D9018091CA0190914B
:1007F000CB01A091CC01B091CD0189839A83AB83C9
:10080000BC83209104013091050140910601509173
:100810000701C701B6010E94001129813A814B816D
:100820005C810E94480F20910001309101014091AC
:100830000201509103010E9400116B017C01609341
:10084000D2017093D3018093D4019093D501A30179
:100850009201C501B4010E94490FA70196010E94AF
:10086000490F4B015C016093CE017093CF018093DF
:10087000D0019093D10120E030E04FE753E40E9493
:10088000FC1018168CF020E030E04FE753ECC50167
:10089000B4010E94AD0F87FF0DC0812C912C9FE702
:1008A000A92E93ECB92E06C0812C912C8FE7A82E8F
:1008B00083E4B82E2DEC3CEC4CE45DE3C701B601BB
:1008C0000E9400119B01AC0169817A818B819C811E
:1008D0000E94490F6093CA017093CB018093CC01B1
:1008E0009093CD01C501B4010F900F900F900F9020
:1008F000DF91CF91FF90EF90DF90CF90BF90AF90BE
:100900009F908F907F906F905F904F900895CF92BF
:10091000DF92EF92FF92CF93DF936091C6017091C7
:10092000C7018091C8019091C9010E944C106B01D0
:100930007C016091F0017091F101882777FD80952D
:10094000982F0E944C109B01AC01C701B6010E9478
:10095000490F6B017C016093DE017093DF0180938E
:10096000E0019093E1016091F4017091F501882715
:1009700077FD8095982F0E944C102091E6013091D0
:10098000E7014091E8015091E9010E94490F9B0164
:10099000AC01C701B6010E94480F6B017C0120E049
:1009A00030E0A9010E94FC1018165CF42AE939E92C
:1009B00049E15EE3C701B6010E94AD0F18165CF075
:1009C00013C02AE939E949E15EEBC701B6010E948B
:1009D000FC1087FF09C0C092E201D092E301E092CF
:1009E000E401F092E50108C01092E2011092E301E7
:1009F0001092E4011092E5016091E2017091E3012F
:100A00008091E4019091E5010E9483036093C2010B
:100A10007093C3018093C4019093C50120E030E03E
:100A2000A9016091E2017091E3018091E40190914C
:100A3000E5010E94AD0F811108C01092C201109211
:100A4000C3011092C4011092C501C090C201D090A0
:100A5000C301E090C401F090C50120E030E0A9019D
:100A6000C701B6010E94AD0F87FF0EC0F7FAF094E0
:100A7000F7F8F094C092C201D092C301E092C40191
:100A8000F092C50160E001C061E084E00E94E30AE9
:100A900087E00E94190B892B19F169E070E08BEF58
:100AA00091E00E943607C091FB01D091FC0160915A
:100AB000C2017091C3018091C4019091C5010E944F
:100AC0001910E881F9818BEF91E009958BEF91E0A6
:100AD000DF91CF91FF90EF90DF90CF900C944B0778
:100AE000DF91CF91FF90EF90DF90CF900895CF925C
:100AF000DF92EF92FF920F931F93CF93DF93C6EF96
:100B0000D1E08C010A501E4FC017D10731F08BEF96
:100B100091E00E944F068993F7CF2091F701822F31
:100B200090E09093ED018093EC01213069F120F089
:100B3000223009F457C0A2C06091F60170E080E055
:100B400090E00E944A106093E6017093E701809361
:100B5000E8019093E9018AE00E94190B892B89F43E
:100B60008091E6019091E701A091E801B091E9013F
:100B7000B0588093E6019093E701A093E801B09309
:100B8000E9011092EA017AC08091EA01811176C0F0
:100B90002093EA01C090DE01D090DF01E090E001F7
:100BA000F090E10120E030E0A901C701B6010E9408
:100BB000AD0F87FF0BC0C701B60190580E941E10F1
:100BC00080E090E00E94F10060E009C0C701B6013A
:100BD0000E941E1080E090E00E94F10061E081E040
:100BE00090E042C08091EA01811148C081E0809389
:100BF000EA016DE771E088EC92E00E947A0D409185
:100C0000DE015091DF016091E0017091E10122E08D
:100C100030E088EC92E00E94350FC090DE01D09069
:100C2000DF01E090E001F090E10120E030E0A90177
:100C3000C701B6010E94AD0F87FF0BC0C701B60107
:100C400090580E941E1082E090E00E94F10060E047
:100C500009C0C701B6010E941E1082E090E00E9408
:100C6000F10061E083E090E0DF91CF911F910F915F
:100C7000FF90EF90DF90CF900C94F100DF91CF9137
:100C80001F910F91FF90EF90DF90CF90089580918A
:100C90002F0290E020913002821B9109089520914B
:100CA000300280912F02281750F4E22FF0E0EF5C21
:100CB000FD4F808190E02F5F2093300208958FEFE9
:100CC0009FEF0895E091300280912F02E81730F4F1
:100CD000F0E0EF5CFD4F808190E008958FEF9FEF93
:100CE00008950895E0910702F09108023097E1F02D
:100CF0003091300220912F023217B0F040E0242FC3
:100D000030E02617370754F4DC01A20FB31F5C91C3
:100D1000D901AF5CBD4F5C934F5FF1CF10923002B1
:100D200060932F02CB0109940895E0910902F0919C
:100D30000A02309729F010920D0210920C020994C9
:100D40000895CF92DF92EF92FF920F931F93CF936C
:100D5000DF937C01CB018A0120910B02222389F0D1
:100D6000EB016B01C40ED51ECC15DD0569F0699150
:100D7000D701ED91FC910190F081E02DC70109951B
:100D8000F3CF642F0E94D007C801DF91CF911F914C
:100D90000F91FF90EF90DF90CF900895CF93DF9366
:100DA0001F92CDB7DEB7698320910B022223D1F0C9
:100DB00020910C02203240F021E030E0FC0133832E
:100DC000228380E090E015C080910D02E82FF0E0D2
:100DD000E25FFD4F998190838F5F80930D02809336
:100DE0000C0205C061E0CE0101960E94D00781E0AF
:100DF00090E00F90DF91CF910895FC011382128251
:100E000048EE53E060E070E0448355836683778367
:100E100087E991E0918380830895109230021092C7
:100E20002F0210920D0210920C020C945707CF93D0
:100E3000DF93EC01862F0E94750785E996E00E94FA
:100E4000EE0782E796E00E94E907CE01DF91CF919D
:100E50000C940D070C94170781E080930B026093AC
:100E60002E0210920D0210920C0208950C942C0781
:100E70000F93062F21E040910C026EE072E080910A
:100E80002E020E94790710920D0210920C0210920D
:100E90000B020F91089561E00C94380770930802DB
:100EA0006093070208958BEF91E00C94FD06109279
:100EB000BE0281E08093BC021092BB0261E082E13D
:100EC0000E94E30A61E083E10E94E30AE9EBF0E0BB
:100ED00080818E7F808380818D7F808388E4809372
:100EE000B80085E48093BC000895880F8093BA0011
:100EF00008950F93413208F04AC09091BE029111BB
:100F0000FCCF92E09093BE020093BC029FEF9093BF
:100F100051021092960240939502FB0167E972E03C
:100F2000DB019A2F961B941718F491919D93F9CF9A
:100F30001092BD029091BD02880F892B8093BD0253
:100F40008091BB02813061F41092BB028091BD029E
:100F50008093BB008091BC0083FDF8CF85EC01C07D
:100F600085EE8093BC00222321F08091BE02823066
:100F7000E1F3809151028F3F61F080915102803204
:100F800051F080915102803341F483E007C081E049
:100F900005C080E003C082E001C084E00F910895A5
:100FA000613298F42091BE02243089F46093730278
:100FB000FC0185E792E0DC012A2F281B261718F494
:100FC00021912D93F9CF80E0089581E0089582E08A
:100FD00008959093B8028093B70208959093BA024F
:100FE0008093B902089585ED8093BC008091BC0088
:100FF00084FDFCCF1092BE02089585EC8093BC0066
:101000001092BE0208951F920F920FB60F921124F4
:101010002F933F934F935F936F937F938F939F9300
:10102000AF93BF93EF93FF938091B900887F803691
:1010300009F49EC078F5883209F45DC090F48031DF
:1010400009F456C038F4882309F4F5C0883009F44F
:101050004FC0F5C0883109F44EC0803209F45FC03A
:10106000EEC0803409F46AC058F4803309F457C0E4
:10107000883309F0E4C0809351020E94FD07DFC06D
:10108000803509F44FC0883509F45DC0883409F013
:10109000D6C0D3C0883909F4C4C0A8F4883709F48D
:1010A00067C038F4883609F463C0803709F460C03B
:1010B000C6C0883809F4B5C0803909F45FC08038EB
:1010C00009F0BDC05BC0803B09F483C038F4803AAE
:1010D00009F466C0883A09F47CC0B1C0803C09F4C8
:1010E000A4C0883C09F4A1C0883B09F487C0A7C00C
:1010F0008091BD0210C09091960280919502981740
:1011000070F5E091960281E08E0F80939602F0E0F8
:10111000E956FD4F80818093BB0085EC83C08093AE
:1011200051028BC0E091960281E08E0F809396026F
:101130008091BB00F0E0E956FD4F808390919602CC
:10114000809195026BC0E091960281E08E0F8093B2
:1011500096028091BB00F0E0E956FD4F80838091BC
:10116000BC0281116AC081E08093BB0284EA5EC048
:1011700083E08093BE0210925202CFCF8091520240
:10118000803208F04EC0E091520281E08E0F8093D1
:1011900052028091BB00F0E0ED5AFD4F8083BDCF3D
:1011A0000E94FD0780915202803230F4E091520299
:1011B000F0E0ED5AFD4F10826091520270E0E09134
:1011C000B702F091B80283E592E0099510925202BD
:1011D00036C084E08093BE021092740210927302B3
:1011E000E091B902F091BA020995809173028111E0
:1011F00005C081E08093730210927502E091740241
:1012000081E08E0F80937402F0E0EB58FD4F8081F7
:101210008093BB009091740280917302981708F438
:101220007CCF85E88093BC000AC085EC8093BC002D
:101230001092BE0204C0109251020E94F307FF9167
:10124000EF91BF91AF919F918F917F916F915F913E
:101250004F913F912F910F900FBE0F901F901895B7
:1012600008958230E8F4E82FF0E0EE0FFF1FEF5E04
:10127000FE4F71836083813041F0809169008C7FE3
:10128000842B80936900E89A089580916900440F47
:10129000551F440F551F837F842B80936900E99A63
:1012A00008951F920F920FB60F9211242F933F9320
:1012B0004F935F936F937F938F939F93AF93BF935E
:1012C000EF93FF93E0911101F09112010995FF91C5
:1012D000EF91BF91AF919F918F917F916F915F91AE
:1012E0004F913F912F910F900FBE0F901F90189527
:1012F0001F920F920FB60F9211242F933F934F938B
:101300005F936F937F938F939F93AF93BF93EF936D
:10131000FF93E0911301F09114010995FF91EF9172
:10132000BF91AF919F918F917F916F915F914F91FD
:101330003F912F910F900FBE0F901F9018951F9205
:101340000F920FB60F9211242F933F938F939F9379
:10135000AF93BF938091C0029091C102A091C2024D
:10136000B091C3023091BF0223E0230F2D3720F448
:101370000196A11DB11D05C026E8230F0296A11DEF
:10138000B11D2093BF028093C0029093C102A0932D
:10139000C202B093C3028091C4029091C502A09191
:1013A000C602B091C7020196A11DB11D8093C4026F
:1013B0009093C502A093C602B093C702BF91AF91AC
:1013C0009F918F913F912F910F900FBE0F901F9083
:1013D00018953FB7F8948091C4029091C502A091EE
:1013E000C602B091C70226B5A89B05C02F3F19F0D1
:1013F0000196A11DB11D3FBF6627782F892F9A2F17
:10140000620F711D811D911D42E0660F771F881FBD
:10141000991F4A95D1F708958F929F92AF92BF92EC
:10142000CF92DF92EF92FF926B017C010E94E9095B
:101430004B015C01C114D104E104F104F1F00E94FC
:10144000470F0E94E909681979098A099B09683ED2
:1014500073408105910570F321E0C21AD108E108BB
:10146000F10888EE880E83E0981EA11CB11CC114FF
:10147000D104E104F10429F7DDCFFF90EF90DF9074
:10148000CF90BF90AF909F908F900895789484B53F
:10149000826084BD84B5816084BD85B5826085BD70
:1014A00085B5816085BDEEE6F0E080818160808356
:1014B000E1E8F0E010828081826080838081816039
:1014C0008083E0E8F0E0808181608083E1EBF0E000
:1014D000808184608083E0EBF0E0808181608083A4
:1014E000EAE7F0E08081846080838081826080838D
:1014F0008081816080838081806880831092C100B8
:101500000895833081F028F4813099F08230A1F081
:1015100008958730A9F08830B9F08430D1F48091F3
:1015200080008F7D03C0809180008F778093800042
:10153000089584B58F7702C084B58F7D84BD0895EA
:101540008091B0008F7703C08091B0008F7D809331
:10155000B0000895CF93DF9390E0FC01E458FF4F73
:101560002491FC01E057FF4F8491882349F190E0DA
:10157000880F991FFC01E854FF4FA591B491825543
:101580009F4FFC01C591D4919FB7611108C0F89499
:101590008C91209582238C93888182230AC06230AB
:1015A00051F4F8948C91322F309583238C93888159
:1015B000822B888304C0F8948C91822B8C939FBFDC
:1015C000DF91CF9108950F931F93CF93DF931F92D5
:1015D000CDB7DEB7282F30E0F901E859FF4F8491ED
:1015E000F901E458FF4F1491F901E057FF4F0491BE
:1015F0000023C9F0882321F069830E94810A698150
:10160000E02FF0E0EE0FFF1FE255FF4FA591B491E0
:101610009FB7F8948C91611103C01095812301C08C
:10162000812B8C939FBF0F90DF91CF911F910F91D2
:101630000895CF93DF93282F30E0F901E859FF4F49
:101640008491F901E458FF4FD491F901E057FF4F1D
:10165000C491CC2391F081110E94810AEC2FF0E01B
:10166000EE0FFF1FEC55FF4FA591B4912C912D2348
:1016700081E090E021F480E002C080E090E0DF9122
:10168000CF910895FC01818D228D90E0805C9F4F69
:10169000821B91098F7399270895FC01918D828D8A
:1016A000981731F0828DE80FF11D858D90E0089537
:1016B0008FEF9FEF0895FC01918D828D981761F057
:1016C000828DDF01A80FB11D5D968C91928D9F5F79
:1016D0009F73928F90E008958FEF9FEF08958FEDA5
:1016E0009CE0892B49F080E090E0892B29F00E9452
:1016F000DF0C81110C9400000895FC01848DDF0142
:10170000A80FB11DA35ABF4F2C91848D90E0019674
:101710008F739927848FA689B7892C93A089B18963
:101720008C9180648C93938D848D981306C002886D
:10173000F389E02D80818F7D80830895CF93DF939F
:10174000EC01888D8823C9F0EA89FB89808185FDB9
:1017500005C0A889B9898C9186FD0FC00FB607FC1A
:10176000F5CF808185FFF2CFA889B9898C9185FF5B
:10177000EDCFCE010E947D0BE7CFDF91CF91089591
:10178000CF92DF92FF920F931F93CF93DF931F921D
:10179000CDB7DEB76C0181E0D60158968C9358978F
:1017A0005B969C915B975C968C915C97981307C0B5
:1017B0005096ED91FC915197808185FD2EC0F601E8
:1017C000038D10E00F5F1F4F0F731127F02EF601EE
:1017D000848DF81211C00FB607FCF9CFD6015096D0
:1017E000ED91FC915197808185FFF1CFC60169830E
:1017F0000E947D0B6981EBCF838DE80FF11DE35AC9
:10180000FF4F6083D6015B960C935B975296ED91E8
:10181000FC915397808180620CC0D6015696ED9161
:10182000FC91579760835096ED91FC915197808180
:101830008064808381E090E00F90DF91CF911F91D1
:101840000F91FF90DF90CF900895BF92CF92DF92DB
:10185000EF92FF92CF93DF93EC016A017B01B22EEE
:10186000E889F98982E08083411581EE5807610596
:101870007105A1F060E079E08DE390E0A7019601A9
:101880000E94671121503109410951095695479528
:1018900037952795211580E1380798F0E889F9896F
:1018A000108260E874E88EE190E0A70196010E9442
:1018B00067112150310941095109569547953795CE
:1018C0002795EC85FD853083EE85FF852083188E76
:1018D000EC89FD89B082EA89FB89808180618083FF
:1018E000EA89FB89808188608083EA89FB8980811D
:1018F00080688083EA89FB8980818F7D8083DF9186
:10190000CF91FF90EF90DF90CF90BF9008951F92FE
:101910000F920FB60F9211242F938F939F93EF93F3
:10192000FF93E091D802F091D9028081E091DE022C
:10193000F091DF0282FD12C090818091E1028F5F01
:101940008F732091E202821751F0E091E102F0E002
:10195000E853FD4F958F8093E10201C08081FF9194
:10196000EF919F918F912F910F900FBE0F901F902D
:1019700018951F920F920FB60F9211242F933F9339
:101980004F935F936F937F938F939F93AF93BF9387
:10199000EF93FF9388EC92E00E947D0BFF91EF9113
:1019A000BF91AF919F918F917F916F915F914F9177
:1019B0003F912F910F900FBE0F901F90189588ECBC
:1019C00092E00E94420B21E0892B09F420E0822F53
:1019D00008951092CB021092CA0288EE93E0A0E024
:1019E000B0E08093CC029093CD02A093CE02B0934E
:1019F000CF0287EA91E09093C9028093C80285ECF8
:101A000090E09093D5028093D40284EC90E0909380
:101A1000D7028093D60280EC90E09093D902809315
:101A2000D80281EC90E09093DB028093DA0282ECA2
:101A300090E09093DD028093DC0286EC90E090933E
:101A4000DF028093DE021092E1021092E202109215
:101A5000E3021092E402089508950E94460A0E944B
:101A60002C0D0E948E02CFE6DBE00E9487042097B7
:101A7000E1F30E946F0BF9CFCF92DF92EF92FF92CA
:101A80000F931F93CF93DF937C016A01EB0100E07A
:101A900010E00C151D0571F06991D701ED91FC91D5
:101AA0000190F081E02DC7010995892B19F00F5F96
:101AB0001F4FEFCFC801DF91CF911F910F91FF9082
:101AC000EF90DF90CF9008956115710581F0DB01F3
:101AD0000D900020E9F7AD0141505109461B570B0D
:101AE000DC01ED91FC910280F381E02D099480E00E
:101AF00090E008950C94640DDC01ED91FC9101904F
:101B0000F081E02D099463EB71E00C94640D0F9368
:101B10001F93CF93DF93EC010E94640D8C01CE01E3
:101B20000E94830D800F911FDF91CF911F910F9124
:101B300008958F929F92AF92BF92DF92EF92FF92A1
:101B40000F931F93CF93DF93CDB7DEB7A1970FB657
:101B5000F894DEBF0FBECDBF7C01F42FD52ECB0194
:101B600019A2223008F42AE08E010F5D1F4F822E49
:101B7000912CA12CB12C6F2F7D2DA50194010E94D9
:101B80006711F22FD32ECA01015011096A3014F4E3
:101B9000E0E301C0E7E3E60FD801EC93232B242B0D
:101BA000252B49F7B801C7010E94640DA1960FB615
:101BB000F894DEBF0FBECDBFDF91CF911F910F9183
:101BC000FF90EF90DF90BF90AF909F908F9008951F
:101BD000CF92DF92EF92FF920F931F93CF93DF93F9
:101BE000EC016A017B012115310579F4E881F98165
:101BF0000190F081E02D642FDF91CF911F910F9123
:101C0000FF90EF90DF90CF9009942A303105E9F4EE
:101C100077FF1AC06DE20E947C0D8C014427552786
:101C2000BA014C195D096E097F092AE0CE010E94B4
:101C3000990D800F911FDF91CF911F910F91FF9010
:101C4000EF90DF90CF9008952AE0B701A601CE0172
:101C5000DF91CF911F910F91FF90EF90DF90CF9088
:101C60000C94990D0F931F93CF93DF93EC019A017E
:101C7000AB01662757FD6095762F0E94E80D8C0119
:101C8000CE010E94830D800F911FDF91CF911F9194
:101C90000F9108954F925F926F927F928F929F92D1
:101CA000AF92BF92CF92DF92EF92FF920F931F936A
:101CB000CF93DF93EC016A017B01B22E9A01AB0155
:101CC000C701B6010E946311882319F066EB71E029
:101CD00027C026013701E89477F82FEF3FEF4FE751
:101CE0005FE7C301B2010E94631181110DC02FEFA4
:101CF0003FEF4FE75FE7C301B2010E94AD0F181637
:101D00001CF46AEB71E00CC02FEF3FEF4FE75FE48C
:101D1000C701B6010E94FC101816ACF46EEB71E01E
:101D2000CE01DF91CF911F910F91FF90EF90DF9047
:101D3000CF90BF90AF909F908F907F906F905F906B
:101D40004F900C94640D2FEF3FEF4FE75FECC7010E
:101D5000B6010E94AD0F87FDE1CF20E030E0A90180
:101D6000C701B6010E94AD0F87FF0AC06DE2CE0128
:101D70000E947C0D8C01F7FAF094F7F8F09402C001
:101D800000E010E0A12C60E070E080E09FE3AB1485
:101D900041F020E030E040E251E40E94B10FA39412
:101DA000F6CF9B01AC01C701B6010E94490F6B0140
:101DB0007C010E941E102B013C010E944A109B01D5
:101DC000AC01C701B6010E94480F6B017C012AE0FB
:101DD000B301A201CE010E94990D080F191FBB206B
:101DE00039F067E671E0CE010E94640D080F191FFB
:101DF0007B2C772041F120E030E040E251E4C70144
:101E0000B6010E9400116B017C010E9419104B0168
:101E1000AA2497FCA094BA2C2AE030E0B501A401D2
:101E2000CE010E94E80D080F191FC501B4010E94E0
:101E30004C109B01AC01C701B6010E94480F6B0119
:101E40007C017A94D6CFC801DF91CF911F910F9179
:101E5000FF90EF90DF90CF90BF90AF909F908F90CA
:101E60007F906F905F904F9008950F931F93CF9343
:101E7000DF93EC010E944A0E8C01CE010E94830D7B
:101E8000800F911FDF91CF911F910F9108950895B9
:101E90005058BB27AA270ED075C166D130F06BD140
:101EA00020F031F49F3F11F41EF45BC10EF4E09575
:101EB000E7FB51C1E92F77D180F3BA1762077307A7
:101EC0008407950718F071F49EF58FC10EF4E09524
:101ED0000B2EBA2FA02D0B01B90190010C01CA01E4
:101EE000A0011124FF27591B99F0593F50F4503E8F
:101EF00068F11A16F040A22F232F342F4427585F81
:101F0000F3CF469537952795A795F0405395C9F798
:101F10007EF41F16BA0B620B730B840BBAF0915050
:101F2000A1F0FF0FBB1F661F771F881FC2F70EC0EF
:101F3000BA0F621F731F841F48F4879577956795C2
:101F4000B795F7959E3F08F0B3CF9395880F08F0AB
:101F50009927EE0F979587950895D9D008F481E0D9
:101F600008950CD00FC107D140F0FED030F021F41D
:101F70005F3F19F0F0C0511139C1F3C014D198F38B
:101F80009923C9F35523B1F3951B550BBB27AA27FA
:101F900062177307840738F09F5F5F4F220F331F6C
:101FA000441FAA1FA9F333D00E2E3AF0E0E830D038
:101FB00091505040E695001CCAF729D0FE2F27D03B
:101FC000660F771F881FBB1F261737074807AB0709
:101FD000B0E809F0BB0B802DBF01FF2793585F4F7E
:101FE0002AF09E3F510568F0B6C000C15F3FECF398
:101FF000983EDCF3869577956795B795F7959F5F43
:10200000C9F7880F911D9695879597F90895E1E096
:10201000660F771F881FBB1F621773078407BA07F5
:1020200020F0621B730B840BBA0BEE1F88F7E09550
:10203000089504D06894B111D9C00895BCD088F037
:102040009F5790F0B92F9927B751A0F0D1F0660FA4
:10205000771F881F991F1AF0BA95C9F712C0B130BF
:1020600081F0C3D0B1E00895C0C0672F782F8827D2
:10207000B85F39F0B93FCCF3869577956795B395FE
:10208000D9F73EF490958095709561957F4F8F4F6D
:102090009F4F0895E89409C097FB3EF49095809572
:1020A000709561957F4F8F4F9F4F9923A9F0F92F1E
:1020B00096E9BB279395F695879577956795B7959C
:1020C000F111F8CFFAF4BB0F11F460FF1BC06F5F82
:1020D0007F4F8F4F9F4F16C0882311F096E911C094
:1020E000772321F09EE8872F762F05C0662371F0B5
:1020F00096E8862F70E060E02AF09A95660F771FC9
:10210000881FDAF7880F9695879597F90895990FA4
:102110000008550FAA0BE0E8FEEF16161706E807B1
:10212000F907C0F012161306E407F50798F0621BD2
:10213000730B840B950B39F40A2661F0232B242BA7
:10214000252B21F408950A2609F4A140A6958FEFC6
:10215000811D811D089597F99F6780E870E060E018
:1021600008959FEF80EC089500240A941616170630
:1021700018060906089500240A9412161306140678
:1021800005060895092E0394000C11F4882352F0DB
:10219000BB0F40F4BF2B11F460FF04C06F5F7F4F93
:1021A0008F4F9F4F089557FD9058440F551F59F07A
:1021B0005F3F71F04795880F97FB991F61F09F3F34
:1021C00079F087950895121613061406551FF2CF5D
:1021D0004695F1DF08C0161617061806991FF1CFAD
:1021E00086957105610508940895E894BB276627D4
:1021F0007727CB0197F908958ADF08F48FEF0895C8
:102200000BD0C0CFB1DF28F0B6DF18F0952309F06E
:10221000A2CFA7CF1124EACFC6DFA0F3959FD1F3B9
:10222000950F50E0551F629FF001729FBB27F00D84
:10223000B11D639FAA27F00DB11DAA1F649F6627D9
:10224000B00DA11D661F829F2227B00DA11D621F28
:10225000739FB00DA11D621F839FA00D611D221FE2
:10226000749F3327A00D611D231F849F600D211DC6
:10227000822F762F6A2F11249F5750408AF0E1F069
:1022800088234AF0EE0FFF1FBB1F661F771F881FB2
:1022900091505040A9F79E3F510570F05CCFA6CFFA
:1022A0005F3FECF3983EDCF3869577956795B7959D
:1022B000F795E7959F5FC1F7FE2B880F911D9695C7
:1022C000879597F9089523DF880B990B0895A1E26C
:1022D0001A2EAA1BBB1BFD010DC0AA1FBB1FEE1FA0
:1022E000FF1FA217B307E407F50720F0A21BB30BEB
:1022F000E40BF50B661F771F881F991F1A9469F767
:1023000060957095809590959B01AC01BD01CF01C2
:102310000895EE0FFF1F0590F491E02D0994F999AF
:10232000FECF92BD81BDF89A992780B50895262FDA
:10233000F999FECF1FBA92BD81BD20BD0FB6F894AA
:0E234000FA9AF99A0FBE01960895F894FFCF0D
:10234E002C8F9440E1C89F3EA2D5F9BE4CD929C12D
:10235E0001300930096163745F706F73206C6173B3
:10236E00743A20006163745F706F735F7369676E98
:10237E00206C6173743A20007265665F706F732013
:10238E006C6173743A20007265665F706F735F7371
:10239E0069676E206C6173743A20005265736574C0
:1023AE0020656570726F6D2E0052656164792072C2
:1023BE006573657420656570726F6D2E006375723E
:1023CE0072656E745F6D6F746F725F616E676C6550
:1023DE003A200000000000CE06A10647064F066216
:1023EE0006710600000000C00B3C0D420B5B0B4D4E
:1023FE000B9E0B0D0A006E616E00696E66006F76A5
:02240E00660066
:00000001FF
