:100000000C9462000C94E7080C940E090C948A007E
:100010000C948A000C948A000C948A000C948A0038
:100020000C948A000C948A000C948A000C948A0028
:100030000C948A000C948A000C948A000C948A0018
:100040000C9435090C948A000C94880C0C94BA0C0E
:100050000C948A000C948A000C948A000C948A00F8
:100060000C948A000C948A00000000080002010031
:100070000003040700000000000000000102040863
:100080001020408001020408102001020408102002
:10009000040404040404040402020202020203032E
:1000A00003030303000000002300260029000000D2
:1000B0000000250028002B0000000000240027007D
:1000C0002A00EA0C11241FBECFEFD8E0DEBFCDBF5F
:1000D00012E0A0E0B1E0E8ECF0E202C005900D9281
:1000E000A836B107D9F723E0A8E6B2E001C01D9217
:1000F000AC35B207E1F710E0C4ECD0E004C02297C1
:10010000FE010E944810C23CD107C9F70E942E0D83
:100110000C9462100C94000082E00E941A0B01976C
:1001200071F483E00E941A0B409180025091810289
:100130006091820270918302892B99F40DC083E053
:100140000E941A0B409180025091810260918202BC
:1001500070918302019729F44F5F5F4F6F4F7F4F7C
:1001600004C04150510961097109409380025093C4
:1001700081026093820270938302089583E00E945B
:100180001A0B019771F482E00E941A0B40918002D1
:10019000509181026091820270918302019799F4DB
:1001A0000DC082E00E941A0B4091800250918102A2
:1001B0006091820270918302892B29F44F5F5F4F17
:1001C0006F4F7F4F04C0415051096109710940933D
:1001D000800250938102609382027093830208959B
:1001E0000F931F93CF93DF931F92CDB7DEB78C0190
:1001F00069830E944C106981681741F0C8010F9013
:10020000DF91CF911F910F910C9454100F90DF91BB
:10021000CF911F910F9108950C944C108EBD00004A
:100220000DB407FEFDCF8EB50895DF92EF92FF92D9
:100230000F931F93CF93DF937C01EA01D22E88277F
:1002400077FD8095982F0E94AE09602F8D2D0E941A
:10025000E40AB701882777FD8095982F0E94AE09A0
:1002600061E0012B09F060E08D2D0E94E40ABE01DF
:10027000882777FD8095982FDF91CF911F910F915F
:10028000FF90EF90DF900C94AE09EF92FF920F93E6
:100290001F93CF93DF937A01672B61F000E010E0AA
:1002A0002DE030E040E050E060E070E088EE93E068
:1002B0000E94150101E010E02DE030E044EF51E034
:1002C00060E070E084EF91E00E9415012DE030E0E5
:1002D00048EC50E060E070E088EC90E00E9415018E
:1002E0002DE030E048EC50E060E070E088EC90E019
:1002F0000E9415012DE030E044EF51E060E070E035
:1003000084EF91E00E941501C3E0D0E001E010E02D
:100310002DE030E048EC50E060E070E088EC90E0E8
:100320000E941501219791F72DE030E044EF51E054
:1003300060E070E084EF91E00E941501C4E0D0E03D
:1003400001E010E02DE030E048EC50E060E070E0CB
:1003500088EC90E00E941501219791F7EF2861F059
:1003600000E010E02DE030E040E050E060E070E0C0
:1003700088EE93E00E941501DF91CF911F910F91BC
:10038000FF90EF900895CF93DF93D82FC62F8AE088
:100390000E94E40A6C2F8D2FDF91CF910C94E40A18
:1003A0001F93CF93DF93EC0160E00E94C30180EACA
:1003B0000E940E0180E00E940E01182F61E0CE0124
:1003C0000E94C30164E070E080E090E00E94AE090A
:1003D000812FDF91CF911F9108950F931F93CF939A
:1003E000DF93082F162FEA0160E0CA010E94C301C3
:1003F00082E00E940E01802F0E940E01812F0E9438
:100400000E0161E0CE010E94C30164E070E080E073
:1004100090E0DF91CF911F910F910C94AE09CF9393
:10042000DF93D62FC42F48E050E0682F82E30E946C
:10043000ED0148E050E06D2F81E30E94ED0148E0BE
:1004400050E06C2F85E3DF91CF910C94ED01CF93B9
:10045000DF93D62FC42F48E050E0682F82E40E943B
:10046000ED0148E050E06D2F81E40E94ED0148E08D
:1004700050E06C2F85E4DF91CF910C94ED01CF9388
:10048000DF93D62FC42F48E050E0682F82E50E940A
:10049000ED0148E050E06D2F81E50E94ED0148E05C
:1004A00050E06C2F85E5DF91CF910C94ED0148E091
:1004B00050E060E08AE20E94ED0148E050E068EB25
:1004C00089E20E94ED0148E050E065E088E20E9488
:1004D000ED018091AC02882331F065E171E08FEB92
:1004E00092E00C94880D089548E050E063E08BE2C0
:1004F0000E94ED018091AC02882331F067E371E046
:100500008FEB92E00C94880D08951F93CF93DF93A7
:10051000182FEB0160E0CE010E94C30183E00E942E
:100520000E01812F0E940E0180E00E940E01182F03
:1005300061E0CE010E94C30164E070E080E090E0E1
:100540000E94AE0948E050E060E08CE20E94ED01BC
:10055000812FDF91CF911F910895CF92DF92EF927B
:10056000FF920F931F93CF93DF93062FC3E0D0E04A
:1005700048E050E0602F8FE00E94ED0168E070E0FD
:100580008EE00E948502182F0E947F096B017C017A
:1005900060E070E0CB01101791F061317742810586
:1005A000910594F468E070E08EE00E948502182FB7
:1005B0000E947F096C197D098E099F09ECCF61317A
:1005C00077428105910564F08091AC02882331F077
:1005D00068E871E08FEB92E00E94880D219741F668
:1005E0008091AC02882331F062EB71E08FEB92E0F6
:1005F0000E947B0D8091AC02882339F04AE050E0E4
:10060000612F8FEB92E00E94520E8091AC02882302
:1006100071F06BE771E08FEB92E0DF91CF911F916A
:100620000F91FF90EF90DF90CF900C94880DDF91A9
:10063000CF911F910F91FF90EF90DF90CF90089591
:10064000FB01E05CFD4F48E050E0682F80810C9496
:10065000ED011F93CF93DF93182FEB0160E0CE01E4
:100660000E94C301812F0E940E0161E0CE010E9411
:10067000C30164E070E080E090E0DF91CF911F91D2
:100680000C94AE09CF9368E070E080EC0E942903DF
:1006900068E070E08EE00E948502C82F6AEC71E08D
:1006A0008FEB92E00E947B0DC7FD0EC068E070E00A
:1006B0008EE00E948502C82F4AE050E0682F8FEB41
:1006C00092E00E94520EF0CF8091AC02882331F06C
:1006D0006FED71E08FEB92E00E947B0D8091AC0298
:1006E000882341F04AE050E06C2F8FEB92E0CF91ED
:1006F0000C94590ECF9108950E9442030E94570214
:100700000E94740260E080E00C94AD021F93CF93CE
:10071000DF9326E040E855E260E070E08FEB92E086
:100720000E94260C81E08093AE0210927F0210920C
:100730007E028093AC021092AD0261E088E00E94DC
:10074000AB0A61E08AE00E94AB0A60E082E00E94AE
:10075000AB0A60E083E00E94AB0A60E087E00E94A1
:10076000AB0A61E084E00E94AB0A61E08DE00E9488
:10077000AB0A8091AD02811109C084E090E00E9433
:100780000C01C82FD0E0209711F529C0C0E0D0E0BF
:1007900060E0CE010E94F0002196C530D105C1F77E
:1007A000C0E0D0E011E0CE010E940C01811110E008
:1007B0002196C530D105B9F71111DFCF40E050E0E7
:1007C00061E070E081E090E00E944501F7CF40E0F9
:1007D00050E061E070E0CE010E944501F8CF8091C9
:1007E000B402882399F09FB7F8948091B4028130C5
:1007F00059F48DB38093B2022DB38091B3028095EA
:1008000082238DBB9FBF02C09093B2028CE58CBD4A
:100810001DBC0E9490080E947C0348E062E080E4D6
:100820000E940F0248E062E080E40E94270248E054
:1008300062E080E40E943F0282E090E00E940C01AE
:1008400080937A0283E090E00E940C0180937B0207
:1008500080917A0290917B02AA2797FDA095BA2FEA
:100860008093800290938102A0938202B0938302CE
:100870006DE072E08FEB92E00E947B0D4091800270
:100880005091810260918202709183022AE030E0EF
:100890008FEB92E00E94330E80E090E00E940C010A
:1008A000C82F8093780281E090E00E940C01809331
:1008B0007902C093A70261E272E08FEB92E00E949E
:1008C0007B0D4AE050E06091A7028FEB92E00E941E
:1008D000590E10927D0210927C0241E050E06CE8CB
:1008E00070E080E00E94C70841E050E06EEB70E0ED
:1008F00081E00E94C70864E670E080E090E00E941A
:10090000AE090E947F096093A8027093A9028093A8
:10091000AA029093AB02DF91CF911F91089581308D
:10092000910539F08230910531F0892B29F421E8C5
:1009300003C022E801C024E868E070E0822F0C9434
:100940002903EF92FF920F931F93CF93DF938B01B5
:10095000C0E0D0E0E82EF12CCE15DF0548F4A70169
:10096000BE01F80181918F010E9420032196F4CFEE
:1009700080E090E0DF91CF911F910F91FF90EF9079
:100980000C948F040F931F93CF93DF93C82F8B0189
:1009900060E0C8010E94C3018C2F0E940E01C0E7D5
:1009A000D2E080E00E940E01899382E0C837D80728
:1009B000C1F761E0C8010E94C30181E0DF91CF91DE
:1009C0001F910F9108956823613021F468E070E071
:1009D00082E905C0623029F468E070E086E90E948F
:1009E000C20481E008958F929F92AF92BF92CF92FE
:1009F000DF92EF92FF920F931F93CF93DF936B01E0
:100A00007C0149015A0120E030E04FE753EC0E949D
:100A1000BD0F87FD0AC020E030E04FE753E4C70177
:100A2000B6010E94D60E18167CF520E030E04FE7A4
:100A300053E4C701B6010E94BD0F18164CF420E024
:100A400030E04FE753E4C701B6010E94710E12C0B7
:100A500020E030E04FE753ECC701B6010E94D60E0C
:100A600087FF12C020E030E04FE753E4C701B60132
:100A70000E94720E6B017C0120E030E0A9010E940F
:100A8000BD0F1816ACF003C0C12CD12C7601C1E00B
:100A9000D0E020E030E0A901C701B6010E94D60EE7
:100AA00087FD02C0C0E0D0E0D195C195D10902C058
:100AB000C1E0D0E020E030E0A901C501B4010E940E
:100AC000BD0F01E010E0181674F020E030E0A9013D
:100AD000C501B4010E94D60E87FD02C000E010E0FF
:100AE000119501951109C017D10759F420E030E0A4
:100AF000A901C701B6010E94D60E882311F081E03A
:100B000000C0DF91CF911F910F91FF90EF90DF9088
:100B1000CF90BF90AF909F908F9008954F925F922B
:100B20006F927F928F929F92AF92BF92CF92DF92FD
:100B3000EF92FF92CF93DF9300D000D0CDB7DEB716
:100B40006B017C0120910C0130910D0140910E014F
:100B500050910F010E94C10F4B015C016093940200
:100B60007093950280939602909397026091880209
:100B70007091890280918A0290918B02A70196015F
:100B80000E94F304882321F020E030E0A9010AC08C
:100B90002DEC3CEC4CE45DE3C701B6010E94C10FB3
:100BA0009B01AC0160919002709191028091920240
:100BB000909193020E94720E609390027093910242
:100BC0008093920290939302209108013091090141
:100BD00040910A0150910B01609190027091910235
:100BE00080919202909193020E94C10F2B013C01CF
:100BF000609390027093910280939202909393027B
:100C00008091840290918502A0918602B091870222
:100C100089839A83AB83BC832091040130910501C1
:100C20004091060150910701C701B6010E94C10F12
:100C300029813A814B815C810E94710E20910001D3
:100C40003091010140910201509103010E94C10FB6
:100C50006B017C0160938C0270938D0280938E02F5
:100C600090938F02A3019201C501B4010E94720EFC
:100C7000A70196010E94720E4B015C0160938802ED
:100C80007093890280938A0290938B0220E030E077
:100C90004FE753E40E94BD0F18168CF020E030E0BF
:100CA0004FE753ECC501B4010E94D60E87FF0DC07B
:100CB000812C912C9FE7A92E93ECB92E06C0812C94
:100CC000912C8FE7A82E83E4B82E2DEC3CEC4CE45D
:100CD0005DE3C701B6010E94C10F9B01AC016981B0
:100CE0007A818B819C810E94720E60938402709342
:100CF00085028093860290938702C501B4010F900C
:100D00000F900F900F90DF91CF91FF90EF90DF90B9
:100D1000CF90BF90AF909F908F907F906F905F909B
:100D20004F9008958F929F92AF92BF92CF92DF9291
:100D3000EF92FF92CF931092A4021092B102109200
:100D4000B00281E08093AF0287E00E941A0B892BEA
:100D500079F488E090E00E94D0018093A40263E0DF
:100D60000E94E30469E170E080E090E00E94AE0937
:100D700080917002882391F09FEF980F9430C0F417
:100D80009091A5029130A1F08093680282E0809357
:100D90006A0280917102809369020AC01092A502D2
:100DA000E8E6F2E0119292E0E037F907D9F7E4CFF4
:100DB00068E672E088E00E94A10469E170E080E0EA
:100DC00090E00E94AE0980917002823009F051C01B
:100DD0009091A50281E0981709F44BC08093A50279
:100DE0006091800280E090E00E94F000809180029B
:100DF00090918102A0918202B0918302692F7A2F93
:100E00008B2F992787FD9A9581E090E00E94F00052
:100E100080E090E00E940C01F0908002E09081025E
:100E2000C1E08F11C0E081E090E00E940C018E11C2
:100E30001BC0CC23C9F0F092780280937902F09223
:100E4000A70263E372E08FEB92E00E947B0D4AE021
:100E500050E06091A7028FEB92E00E94590E81E072
:100E600080936A0260E001C062E084E090E00E944A
:100E7000F00080917002833059F49091A50281E0D6
:100E8000981709F444C08093A502109210010BC07A
:100E9000843061F49091A50281E09817C1F18093AC
:100EA000A5028093100180936A0231C0813079F5E8
:100EB0009091A502981759F18093A5028091740230
:100EC00080937C028091730280937D0260917C020A
:100ED00070917D02882777FD8095982F0E940D0FD5
:100EE0006093A0027093A1028093A2029093A30248
:100EF0002091750221110BC0DC01CB01B058809309
:100F0000A0029093A102A093A202B093A3028091A9
:100F10001001882309F4BAC06091800270918102A7
:100F200080918202909183020E940D0F6B017C01DF
:100F3000609398027093990280939A0290939B0217
:100F40008091A70260917C0270917D02680F711DF3
:100F5000882777FD8095982F0E940D0F9B01AC018B
:100F60006093A0027093A1028093A2029093A302C7
:100F7000C701B6010E94710E6B017C0120E030E0D8
:100F8000A9010E94BD0F18165CF42AE939E949E16C
:100F90005EE3C701B6010E94D60E18165CF013C0BE
:100FA0002AE939E949E15EEBC701B6010E94BD0FAC
:100FB00087FF09C0C0929C02D0929D02E0929E02DF
:100FC000F0929F0208C010929C0210929D02109213
:100FD0009E0210929F0260919C0270919D028091EE
:100FE0009E0290919F020E948E056B017C0120E081
:100FF00030E0A9010E94D60E87FF09C061E084E0BD
:101000000E94E40AF7FAF094F7F8F09404C060E064
:1010100084E00E94E40A8090980290909902A09047
:101020009A02B0909B0220E030E044EB52ECC50104
:10103000B4010E94BD0F87FD0FC020E030E044EBFB
:1010400052E4C501B4010E94D60E18162CF0C70157
:10105000B6010E94DA0E02C060E070E089E00E94F2
:10106000230AC0917002C13089F420E030E0A90168
:1010700060919C0270919D0280919E0290919F02CE
:101080000E94D60E811102C0C0936A0285E00E94C0
:101090001A0B892BD9F56091800282E090E00E94C2
:1010A000F0008091800290918102A0918202B09123
:1010B0008302692F7A2F8B2F992787FD9A9583E0DA
:1010C00090E00E94F00082E090E00E940C0190917C
:1010D0008002F0908102C1E08913C0E083E090E0DB
:1010E0000E940C018F1104C0CC2311F060E001C0FC
:1010F00063E084E090E0CF91FF90EF90DF90CF909D
:10110000BF90AF909F908F900C94F000CF91FF9084
:10111000EF90DF90CF90BF90AF909F908F90089509
:10112000CF93CFB7F8948091B502811127C0EAE937
:10113000F0E08491E6E8F0E09491E82FF0E0EE0F23
:10114000FF1FE854FF4FA591B4918C91892321F49E
:1011500061E08AE00E94E40A61E08AE00E94AB0A52
:101160008CB580618CBD8CB580648CBD61E08DE0F8
:101170000E94AB0A61E08BE00E94AB0A8091B5024D
:101180008F5F8093B502CFBFCF91089508958230CD
:10119000E8F4E82FF0E0EE0FFF1FEF5EFE4F7183E3
:1011A0006083813041F0809169008C7F842B809333
:1011B0006900E89A089580916900440F551F440F13
:1011C000551F837F842B80936900E99A08951F92AD
:1011D0000F920FB60F9211242F933F934F935F936B
:1011E0006F937F938F939F93AF93BF93EF93FF93EF
:1011F000E0911101F09112010995FF91EF91BF91DA
:10120000AF919F918F917F916F915F914F913F919E
:101210002F910F900FBE0F901F9018951F920F9255
:101220000FB60F9211242F933F934F935F936F93B9
:101230007F938F939F93AF93BF93EF93FF93E0912F
:101240001301F09114010995FF91EF91BF91AF91B6
:101250009F918F917F916F915F914F913F912F91CE
:101260000F900FBE0F901F9018951F920F920FB600
:101270000F9211242F933F938F939F93AF93BF931C
:101280008091B7029091B802A091B902B091BA02D0
:101290003091B60223E0230F2D3720F40196A11DD3
:1012A000B11D05C026E8230F0296A11DB11D209394
:1012B000B6028093B7029093B802A093B902B0939C
:1012C000BA028091BB029091BC02A091BD02B09184
:1012D000BE020196A11DB11D8093BB029093BC027A
:1012E000A093BD02B093BE02BF91AF919F918F9129
:1012F0003F912F910F900FBE0F901F9018952FB711
:10130000F8946091B7027091B8028091B9029091FF
:10131000BA022FBF08953FB7F8948091BB02909115
:10132000BC02A091BD02B091BE0226B5A89B05C02B
:101330002F3F19F00196A11DB11D3FBF6627782FE1
:10134000892F9A2F620F711D811D911D42E0660F3A
:10135000771F881F991F4A95D1F708958F929F9202
:10136000AF92BF92CF92DF92EF92FF926B017C011E
:101370000E948B094B015C01C114D104E104F1040A
:10138000F1F00E94700E0E948B09681979098A0990
:101390009B09683E73408105910570F321E0C21AF4
:1013A000D108E108F10888EE880E83E0981EA11CA0
:1013B000B11CC114D104E104F10429F7DDCFFF9081
:1013C000EF90DF90CF90BF90AF909F908F90089557
:1013D000789484B5826084BD84B5816084BD85B510
:1013E000826085BD85B5816085BDEEE6F0E08081D7
:1013F00081608083E1E8F0E01082808182608083F8
:10140000808181608083E0E8F0E08081816080837A
:10141000E1EBF0E0808184608083E0EBF0E08081AC
:1014200081608083EAE7F0E080818460808380814E
:1014300082608083808181608083808180688083F6
:101440001092C10008951F93CF93DF93182FEB01E3
:1014500061E00E94AB0A209711F460E004C0CF3F26
:10146000D10539F461E0812FDF91CF911F910C9468
:10147000E40AE12FF0E0E859FF4FE491E330F9F09E
:1014800048F4E130B9F0E230A1F584B5806284BD62
:10149000C8BD34C0E730E9F0E83019F1E43049F56F
:1014A00080918000806280938000D0938B00C093F5
:1014B0008A0024C084B5806884BDC7BD1FC08091E8
:1014C0008000806880938000D0938900C09388005A
:1014D00015C08091B00080688093B000C093B300C5
:1014E0000DC08091B00080628093B000C093B400C2
:1014F00005C0C038D1050CF0B5CFAFCFDF91CF918B
:101500001F910895833081F028F4813099F0823062
:10151000A1F008958730A9F08830B9F08430D1F473
:10152000809180008F7D03C0809180008F778093B1
:101530008000089584B58F7702C084B58F7D84BD07
:1015400008958091B0008F7703C08091B0008F7DA7
:101550008093B0000895CF93DF9390E0FC01E458AE
:10156000FF4F2491FC01E057FF4F8491882349F1FC
:1015700090E0880F991FFC01E854FF4FA591B491AA
:1015800082559F4FFC01C591D4919FB7611108C04E
:10159000F8948C91209582238C93888182230AC0B1
:1015A000623051F4F8948C91322F309583238C93D0
:1015B0008881822B888304C0F8948C91822B8C9331
:1015C0009FBFDF91CF9108950F931F93CF93DF9328
:1015D0001F92CDB7DEB7282F30E0F901E859FF4F51
:1015E0008491F901E458FF4F1491F901E057FF4F3E
:1015F00004910023C9F0882321F069830E94820AA4
:101600006981E02FF0E0EE0FFF1FE255FF4FA5913B
:10161000B4919FB7F8948C91611103C01095812308
:1016200001C0812B8C939FBF0F90DF91CF911F91B1
:101630000F910895CF93DF93282F30E0F901E859F7
:10164000FF4F8491F901E458FF4FD491F901E0571D
:10165000FF4FC491CC2391F081110E94820AEC2F9C
:10166000F0E0EE0FFF1FEC55FF4FA591B4912C91C8
:101670002D2381E090E021F480E002C080E090E042
:10168000DF91CF910895FC01818D228D90E0805CE7
:101690009F4F821B91098F7399270895FC01918DAB
:1016A000828D981731F0828DE80FF11D858D90E0C5
:1016B00008958FEF9FEF0895FC01918D828D98170B
:1016C00061F0828DDF01A80FB11D5D968C91928D26
:1016D0009F5F9F73928F90E008958FEF9FEF089523
:1016E00080EE9CE0892B49F080E090E0892B29F086
:1016F0000E94E00C81110C9400000895FC01848D7F
:10170000DF01A80FB11DA35ABF4F2C91848D90E02B
:1017100001968F739927848FA689B7892C93A08906
:10172000B1898C9180648C93938D848D981306C0BD
:101730000288F389E02D80818F7D80830895CF9387
:10174000DF93EC01888D8823C9F0EA89FB898081C9
:1017500085FD05C0A889B9898C9186FD0FC00FB69B
:1017600007FCF5CF808185FFF2CFA889B9898C91DC
:1017700085FFEDCFCE010E947E0BE7CFDF91CF91A9
:101780000895CF92DF92FF920F931F93CF93DF9331
:101790001F92CDB7DEB76C0181E0D60158968C93CD
:1017A00058975B969C915B975C968C915C9798138D
:1017B00007C05096ED91FC915197808185FD2EC018
:1017C000F601038D10E00F5F1F4F0F731127F02EEE
:1017D000F601848DF81211C00FB607FCF9CFD601BF
:1017E0005096ED91FC915197808185FFF1CFC60114
:1017F00069830E947E0B6981EBCF838DE80FF11D19
:10180000E35AFF4F6083D6015B960C935B97529629
:10181000ED91FC915397808180620CC0D601569661
:10182000ED91FC91579760835096ED91FC91519703
:1018300080818064808381E090E00F90DF91CF9180
:101840001F910F91FF90DF90CF900895BF92CF929C
:10185000DF92EF92FF92CF93DF93EC016A017B015D
:10186000B22EE889F98982E08083411581EE58071C
:1018700061057105A1F060E079E08DE390E0A701DA
:1018800096010E94241021503109410951095695B1
:10189000479537952795211580E1380798F0E88915
:1018A000F989108260E874E88EE190E0A701960162
:1018B0000E9424102150310941095109569547953C
:1018C00037952795EC85FD853083EE85FF85208350
:1018D000188EEC89FD89B082EA89FB89808180615C
:1018E0008083EA89FB89808188608083EA89FB891B
:1018F000808180688083EA89FB8980818F7D8083F5
:10190000DF91CF91FF90EF90DF90CF90BF9008953F
:101910001F920F920FB60F9211242F938F939F93C4
:10192000EF93FF93E091CF02F091D0028081E0919C
:10193000D502F091D60282FD12C090818091D8022A
:101940008F5F8F732091D902821751F0E091D802F6
:10195000F0E0E154FD4F958F8093D80201C0808163
:10196000FF91EF919F918F912F910F900FBE0F904C
:101970001F9018951F920F920FB60F9211242F935C
:101980003F934F935F936F937F938F939F93AF9307
:10199000BF93EF93FF938FEB92E00E947E0BFF913A
:1019A000EF91BF91AF919F918F917F916F915F91D7
:1019B0004F913F912F910F900FBE0F901F90189550
:1019C0008FEB92E00E94430B21E0892B09F420E089
:1019D000822F08951092C2021092C10288EE93E005
:1019E000A0E0B0E08093C3029093C402A093C5022C
:1019F000B093C6028CE492E09093C0028093BF0241
:101A000085EC90E09093CC028093CB0284EC90E044
:101A10009093CE028093CD0280EC90E09093D00220
:101A20008093CF0281EC90E09093D2028093D10218
:101A300082EC90E09093D4028093D30286EC90E005
:101A40009093D6028093D5021092D8021092D902B8
:101A50001092DA021092DB02089508950E94E809BC
:101A60000E942D0D0E948603C0E7DBE00E949206D3
:101A70002097E1F30E94700BF9CFCF92DF92EF92A3
:101A8000FF920F931F93CF93DF937C016A01EB01C9
:101A900000E010E00C151D0571F06991D701ED9182
:101AA000FC910190F081E02DC7010995892B19F077
:101AB0000F5F1F4FEFCFC801DF91CF911F910F91A3
:101AC000FF90EF90DF90CF9008956115710581F040
:101AD000DB010D900020E9F7AD0141505109461B93
:101AE000570BDC01ED91FC910280F381E02D09940C
:101AF00080E090E008950C94650DDC01ED91FC917F
:101B00000190F081E02D099468E572E00C94650D78
:101B10000F931F93CF93DF93EC010E94650D8C010F
:101B2000CE010E94840D800F911FDF91CF911F91F4
:101B30000F9108958F929F92AF92BF92DF92EF9292
:101B4000FF920F931F93CF93DF93CDB7DEB7A1978B
:101B50000FB6F894DEBF0FBECDBF7C01F42FD52E9B
:101B6000CB0119A2223008F42AE08E010F5D1F4F2D
:101B7000822E912CA12CB12C6F2F7D2DA5019401CB
:101B80000E942410F22FD32ECA01015011096A308D
:101B900014F4E0E301C0E7E3E60FD801EC93232B54
:101BA000242B252B49F7B801C7010E94650DA1968A
:101BB0000FB6F894DEBF0FBECDBFDF91CF911F915E
:101BC0000F91FF90EF90DF90BF90AF909F908F901C
:101BD0000895CF92DF92EF92FF920F931F93CF93CE
:101BE000DF93EC016A017B012115310579F4E8816D
:101BF000F9810190F081E02D642FDF91CF911F9149
:101C00000F91FF90EF90DF90CF9009942A3031052B
:101C1000E9F477FF1AC06DE20E947D0D8C01442724
:101C20005527BA014C195D096E097F092AE0CE01DA
:101C30000E949A0D800F911FDF91CF911F910F91FC
:101C4000FF90EF90DF90CF9008952AE0B701A601B2
:101C5000CE01DF91CF911F910F91FF90EF90DF9018
:101C6000CF900C949A0D0F931F93CF93DF93EC01B9
:101C70000E94E90D8C01CE010E94840D800F911FFE
:101C8000DF91CF911F910F9108952115310541F4F6
:101C9000DC01ED91FC910190F081E02D642F09941D
:101CA0000C949A0D9A01462F50E060E070E00C947D
:101CB000450E0F931F93CF93DF93EC019A01462FAC
:101CC00050E060E070E00E94450E8C01CE010E9461
:101CD000840D800F911FDF91CF911F910F91089577
:101CE00008955058BB27AA270ED00DC1FED030F062
:101CF00003D120F031F49F3F11F41EF4F3C00EF431
:101D0000E095E7FBE9C0E92F0FD180F3BA1762072E
:101D100073078407950718F071F49EF527C10EF438
:101D2000E0950B2EBA2FA02D0B01B90190010C01EB
:101D3000CA01A0011124FF27591B99F0593F50F403
:101D4000503E68F11A16F040A22F232F342F44275B
:101D5000585FF3CF469537952795A795F040539553
:101D6000C9F77EF41F16BA0B620B730B840BBAF023
:101D70009150A1F0FF0FBB1F661F771F881FC2F78E
:101D80000EC0BA0F621F731F841F48F487957795A2
:101D90006795B795F7959E3F08F0B3CF9395880F59
:101DA00008F09927EE0F97958795089571D008F45C
:101DB00081E0089504D06894B111D9C00895BCD0D1
:101DC00088F09F5790F0B92F9927B751A0F0D1F024
:101DD000660F771F881F991F1AF0BA95C9F712C0AE
:101DE000B13081F0C3D0B1E00895C0C0672F782F23
:101DF0008827B85F39F0B93FCCF38695779567951A
:101E0000B395D9F73EF490958095709561957F4F85
:101E10008F4F9F4F0895E89409C097FB3EF490952B
:101E20008095709561957F4F8F4F9F4F9923A9F0B3
:101E3000F92F96E9BB279395F69587957795679542
:101E4000B795F111F8CFFAF4BB0F11F460FF1BC086
:101E50006F5F7F4F8F4F9F4F16C0882311F096E919
:101E600011C0772321F09EE8872F762F05C06623C7
:101E700071F096E8862F70E060E02AF09A95660F80
:101E8000771F881FDAF7880F9695879597F9089539
:101E9000990F0008550FAA0BE0E8FEEF161617067B
:101EA000E807F907C0F012161306E407F50798F0E3
:101EB000621B730B840B950B39F40A2661F0232BFC
:101EC000242B252B21F408950A2609F4A140A69578
:101ED0008FEF811D811D089597F99F6780E870E05D
:101EE00060E008959FEF80EC089500240A94161690
:101EF000170618060906089500240A9412161306F8
:101F0000140605060895092E0394000C11F4882385
:101F100052F0BB0F40F4BF2B11F460FF04C06F5FA1
:101F20007F4F8F4F9F4F089557FD9058440F551F77
:101F300059F05F3F71F04795880F97FB991F61F04B
:101F40009F3F79F087950895121613061406551FC2
:101F5000F2CF4695F1DF08C0161617061806991F2E
:101F6000F1CF86957105610508940895E894BB2723
:101F700066277727CB0197F908958ADF08F48FEF5A
:101F800008950BD0C0CFB1DF28F0B6DF18F095234D
:101F900009F0A2CFA7CF1124EACFC6DFA0F3959F07
:101FA000D1F3950F50E0551F629FF001729FBB2740
:101FB000F00DB11D639FAA27F00DB11DAA1F649FEC
:101FC0006627B00DA11D661F829F2227B00DA11D9F
:101FD000621F739FB00DA11D621F839FA00D611D25
:101FE000221F749F3327A00D611D231F849F600D46
:101FF000211D822F762F6A2F11249F5750408AF07F
:10200000E1F088234AF0EE0FFF1FBB1F661F771F0A
:10201000881F91505040A9F79E3F510570F05CCF4A
:10202000A6CF5F3FECF3983EDCF3869577956795F6
:10203000B795F795E7959F5FC1F7FE2B880F911D28
:102040009695879597F90895A1E21A2EAA1BBB1BB6
:10205000FD010DC0AA1FBB1FEE1FFF1FA217B30774
:10206000E407F50720F0A21BB30BE40BF50B661F8A
:10207000771F881F991F1A9469F76095709580954E
:1020800090959B01AC01BD01CF010895EE0FFF1F9C
:102090000590F491E02D0994F999FECF92BD81BD90
:1020A000F89A992780B50895262FF999FECF1FBA7F
:1020B00092BD81BD20BD0FB6F894FA9AF99A0FBE71
:0820C00001960895F894FFCF8A
:1020C8002C8F9440E1C89F3EA2D5F9BE4CD929C1B6
:1020D80001C608C6084D63703235313520636F6E0E
:1020E80066696775726520627573207375636365C9
:1020F8007366756C6C79004D6370323531352063C9
:102108006F6E66696775726520696E74657272753F
:102118007074732073756363657366756C6C79008E
:102128004D63703235313520636F6E66696775723D
:1021380065207278206275666665722073756363C0
:10214800657366756C6C790041626F727420776193
:102158006974696E672E204D61782E2077616974E5
:10216800696E672074696D6520726561636865646E
:102178002E004D637032353135207377697463688A
:1021880020746F206D6F6465200054727920746F1D
:10219800207265736574204D637032353135004D9A
:1021A80063703235313520726573657420737563D9
:1021B80063657366756C6C7920616E6420737769EA
:1021C80074636820646F206D6F64652000656E63BA
:1021D8006F64657256616C7565206C6173743A2022
:1021E800005245465F504F535B315D206C617374FC
:1021F8003A20005245465F504F535B315D3A20000C
:10220800363738393A3B3C3D00000000C10B3D0DE4
:10221800430B5C0B4E0B9F0B0D0A006E616E006941
:082228006E66006F766600008F
:00000001FF
