:100000000C9462000C94E6060C940D070C948A0084
:100010000C948A000C948A000C948A000C948A0038
:100020000C948A000C948A000C948A000C948A0028
:100030000C948A000C948A000C948A000C948A0018
:100040000C9434070C948A000C94870A0C94B90A17
:100050000C948A000C948A000C948A000C948A00F8
:100060000C948A000C948A00000000080002010031
:100070000003040700000000000000000102040863
:100080001020408001020408102001020408102002
:10009000040404040404040402020202020203032E
:1000A00003030303000000002300260029000000D2
:1000B0000000250028002B0000000000240027007D
:1000C0002A00E90A11241FBECFEFD8E0DEBFCDBF62
:1000D00012E0A0E0B1E0E6EAFCE102C005900D927A
:1000E000AA34B107D9F723E0AAE4B2E001C01D9217
:1000F000A833B207E1F710E0C4ECD0E004C02297C7
:10010000FE010E944D0EC23CD107C9F70E942D0B83
:100110000C94510E0C94000082E00E941909019782
:1001200071F483E00E9419094091720250917302A8
:100130006091740270917502892B99F40DC083E06F
:100140000E941909409172025091730260917402E9
:1001500070917502019729F44F5F5F4F6F4F7F4F8A
:1001600004C04150510961097109409372025093D2
:1001700073026093740270937502089583E00E9485
:100180001909019771F482E00E94190940917202E5
:10019000509173026091740270917502019799F405
:1001A0000DC082E00E9419094091720250917302C1
:1001B0006091740270917502892B29F44F5F5F4F33
:1001C0006F4F7F4F04C0415051096109710940933D
:1001D00072025093730260937402709375020895D3
:1001E0008EBD00000DB407FEFDCF8EB508958F9231
:1001F0009F92AF92BF92CF92DF92EF92FF920F93B6
:100200001F93CF93DF936B017C0149015A0120E0DA
:1002100030E04FE753EC0E94C20D87FD0AC020E09A
:1002200030E04FE753E4C701B6010E94DB0C18161B
:100230007CF520E030E04FE753E4C701B6010E94AF
:10024000C20D18164CF420E030E04FE753E4C7012C
:10025000B6010E94760C12C020E030E04FE753EC6C
:10026000C701B6010E94DB0C87FF12C020E030E01E
:100270004FE753E4C701B6010E94770C6B017C0184
:1002800020E030E0A9010E94C20D1816ACF003C0B6
:10029000C12CD12C7601C1E0D0E020E030E0A901F2
:1002A000C701B6010E94DB0C87FD02C0C0E0D0E0B0
:1002B000D195C195D10902C0C1E0D0E020E030E085
:1002C000A901C501B4010E94C20D01E010E0181699
:1002D00074F020E030E0A901C501B4010E94DB0CFC
:1002E00087FD02C000E010E0119501951109C017CB
:1002F000D10759F420E030E0A901C701B6010E94FE
:10030000DB0C882311F081E000C0DF91CF911F91B9
:100310000F91FF90EF90DF90CF90BF90AF909F90A4
:100320008F9008954F925F926F927F928F929F92DB
:10033000AF92BF92CF92DF92EF92FF92CF93DF9373
:1003400000D000D0CDB7DEB76B017C0120910C014D
:1003500030910D0140910E0150910F010E94C60D88
:100360004B015C0160935A0270935B0280935C02C4
:1003700090935D0260914E0270914F028091500205
:1003800090915102A70196010E94F700882321F065
:1003900020E030E0A9010AC02DEC3CEC4CE45DE328
:1003A000C701B6010E94C60D9B01AC0160915602C7
:1003B0007091570280915802909159020E94770CD7
:1003C000609356027093570280935802909359029B
:1003D000209108013091090140910A0150910B01CF
:1003E0006091560270915702809158029091590283
:1003F0000E94C60D2B013C01609356027093570278
:10040000809358029093590280914A0290914B0236
:10041000A0914C02B0914D0289839A83AB83BC8337
:10042000209104013091050140910601509107018E
:10043000C701B6010E94C60D29813A814B815C81BA
:100440000E94760C2091000130910101409102013F
:10045000509103010E94C60D6B017C016093520212
:10046000709353028093540290935502A30192011A
:10047000C501B4010E94770CA70196010E94770C78
:100480004B015C0160934E0270934F0280935002C7
:100490009093510220E030E04FE753E40E94C20DF8
:1004A00018168CF020E030E04FE753ECC501B401A2
:1004B0000E94DB0C87FF0DC0812C912C9FE7A92E99
:1004C00093ECB92E06C0812C912C8FE7A82E83E4E3
:1004D000B82E2DEC3CEC4CE45DE3C701B6010E9464
:1004E000C60D9B01AC0169817A818B819C810E9440
:1004F000770C60934A0270934B0280934C02909366
:100500004D02C501B4010F900F900F900F90DF9135
:10051000CF91FF90EF90DF90CF90BF90AF909F90E2
:100520008F907F906F905F904F900895CF93DF935F
:10053000D82FC62F8AE00E94E3086C2F8D2FDF9101
:10054000CF910C94E3081F93CF93DF93EC0160E00D
:100550000E94960280EA0E94F00080E00E94F00073
:10056000182F61E0CE010E94960264E070E080E006
:1005700090E00E94AD07812FDF91CF911F910895E8
:100580000F931F93CF93DF93082F162FEA0160E09C
:10059000CA010E94960282E00E94F000802F0E9411
:1005A000F000812F0E94F00061E0CE010E949602CF
:1005B00064E070E080E090E0DF91CF911F910F91B7
:1005C0000C94AD07CF93DF93D62FC42F48E050E0B3
:1005D000682F82E30E94C00248E050E06D2F81E363
:1005E0000E94C00248E050E06C2F85E3DF91CF917C
:1005F0000C94C002CF93DF93D62FC42F48E050E075
:10060000682F82E40E94C00248E050E06D2F81E430
:100610000E94C00248E050E06C2F85E4DF91CF914A
:100620000C94C002CF93DF93D62FC42F48E050E044
:10063000682F82E50E94C00248E050E06D2F81E5FE
:100640000E94C00248E050E06C2F85E5DF91CF9119
:100650000C94C00248E050E060E08AE20E94C002D0
:1006600048E050E068EB89E20E94C00248E050E0B8
:1006700065E088E20E94C00280917A02882331F00E
:1006800064E171E08BE992E00C94870B089548E0F7
:1006900050E063E08BE20E94C00280917A028823DE
:1006A00031F066E371E08BE992E00C94870B0895DA
:1006B0001F93CF93DF93182FEB0160E0CE010E94D0
:1006C000960283E00E94F000812F0E94F00080E0FB
:1006D0000E94F000182F61E0CE010E94960264E0B3
:1006E00070E080E090E00E94AD0748E050E060E0FC
:1006F0008CE20E94C002812FDF91CF911F9108955B
:10070000CF92DF92EF92FF920F931F93CF93DF93DD
:10071000062FC3E0D0E048E050E0602F8FE00E9459
:10072000C00268E070E08EE00E945803182F0E941B
:100730007E076B017C0160E070E0CB01101791F047
:10074000613177428105910594F468E070E08EE0B4
:100750000E945803182F0E947E076C197D098E098C
:100760009F09ECCF613177428105910564F080915A
:100770007A02882331F067E871E08BE992E00E9409
:10078000870B219741F680917A02882331F061EB43
:1007900071E08BE992E00E947A0B80917A028823C3
:1007A00039F04AE050E0612F8BE992E00E94570C4B
:1007B00080917A02882371F06AE771E08BE992E018
:1007C000DF91CF911F910F91FF90EF90DF90CF902D
:1007D0000C94870BDF91CF911F910F91FF90EF90B9
:1007E000DF90CF900895FB01EE5DFD4F48E050E0B3
:1007F000682F80810C94C0021F93CF93DF93182F32
:10080000EB0160E0CE010E949602812F0E94F00071
:1008100061E0CE010E94960264E070E080E090E02A
:10082000DF91CF911F910C94AD07CF9368E070E0FA
:1008300080EC0E94FC0368E070E08EE00E945803A8
:10084000C82F69EC71E08BE992E00E947A0BC7FD3A
:100850000EC068E070E08EE00E945803C82F4AE0A6
:1008600050E0682F8BE992E00E94570CF0CF809106
:100870007A02882331F06EED71E08BE992E00E94FC
:100880007A0B80917A02882341F04AE050E06C2F85
:100890008BE992E0CF910C945E0CCF9108950E9469
:1008A00015040E942A030E94470360E080E00C9434
:1008B000800326E040E855E260E070E08BE992E0DA
:1008C0000E94250A81E08093860210926B021092AA
:1008D0006A0280937A0261E088E00E94AA0861E0DF
:1008E0008AE00E94AA0860E082E00E94AA0860E014
:1008F00083E00E94AA0860E087E00E94AA0861E005
:1009000084E00E94AA0880919002882399F09FB702
:10091000F89480919002813059F48DB380938E02C7
:100920002DB380918F02809582238DBB9FBF02C023
:1009300090938E028CE58CBD1DBC0E948F060E9498
:100940004F0448E062E080E40E94E20248E062E096
:1009500080E40E94FA0248E062E080E40E94120310
:100960000E947E07609376027093770280937802EC
:100970009093790241E050E06CE870E080E00E94E2
:10098000C60641E050E06EEB70E081E00E94C606D2
:1009900064E670E080E090E00C94AD078130910552
:1009A00039F08230910531F0892B29F421E803C018
:1009B00022E801C024E868E070E0822F0C94FC0378
:1009C000CF92DF92EF92FF920F931F93CF93DF931B
:1009D000CDB7DEB728970FB6F894DEBF0FBECDBFF8
:1009E000182F7B0160E0C7010E949602812F0E94B0
:1009F000F0008E010F5F1F4F6E0189E0C80ED11C01
:100A000080E00E94F000F80181938F01EC15FD0554
:100A1000B9F761E0C7010E949602898190E0909346
:100A20006F0280936E028A8190E090936D028093B2
:100A30006C028C8180938A028D8180938C028E81DE
:100A400080938D028F8190E0909371028093700269
:100A5000888590E090936B0280936A026CE072E06C
:100A60008BE992E00E947A0B60916A0270916B02AE
:100A70004AE050E08BE992E00E94320C81E0289637
:100A80000FB6F894DEBF0FBECDBFDF91CF911F919F
:100A90000F91FF90EF90DF90CF9008956823613021
:100AA00021F468E070E082E905C0623029F468E072
:100AB00070E086E90E94E00481E00895CF92DF9221
:100AC000EF92FF920F931F93CF93DF9300D000D04C
:100AD000CDB7DEB71092830210928902109288027D
:100AE00081E08093870287E00E941909019769F4E9
:100AF00061E070E080E090E00E94AD076DE172E09F
:100B00008BE992E00E94870BEECF88E090E00E9494
:100B1000A3028093830263E00E944E0560918C02E1
:100B200070918D02882777FD8095982F0E94120D75
:100B30009B01AC0160936602709367028093680228
:100B400090936902609172027091730280917402B5
:100B50009091750229833A834B835C830E94120D26
:100B600060935E0270935F028093600290936102D3
:100B700029813A814B815C810E94760C6B017C015A
:100B800020E030E0A9010E94C20D18165CF42AE9A9
:100B900039E949E15EE3C701B6010E94DB0C181692
:100BA0005CF013C02AE939E949E15EEBC701B601FF
:100BB0000E94C20D87FF09C0C0926202D0926302F8
:100BC000E0926402F092650208C0109262021092F4
:100BD0006302109264021092650260916202709149
:100BE000630280916402909165020E9492016B0100
:100BF0007C0120E030E0A9010E94DB0C87FF09C0E6
:100C000061E084E00E94E308F7FAF094F7F8F094CA
:100C100004C060E084E00E94E30880916A02909141
:100C20006B02892B39F4C701B6010E94DF0C89E001
:100C30000E94220869E170E080E090E00E94AD0728
:100C400060917202709173028091740290917502AA
:100C50000E94120D20E030E040E251E40E94C60DF7
:100C60000E94DF0C9B017093850260938402409187
:100C70006E0240937B0240916C0240937C02109282
:100C80007D0210927E0240916A0250916B02452BC8
:100C900019F41092820203C041E04093820237FFB0
:100CA0000AC0109281027195619571097093850255
:100CB0006093840203C081E080938102909184025A
:100CC0008091850290937F02809380020BE712E06F
:100CD000E12CF12C48E050E0B701F80181918F013F
:100CE0000E94F303FFEFEF1AFF0A88E0E816F10411
:100CF00089F780E090E00E94CE0469E170E080E036
:100D000090E00F900F900F900F90DF91CF911F9177
:100D10000F91FF90EF90DF90CF900C94AD07CF93A1
:100D2000CFB7F89480919102811127C0EAE9F0E0F1
:100D30008491E6E8F0E09491E82FF0E0EE0FFF1FD9
:100D4000E854FF4FA591B4918C91892321F461E07F
:100D50008AE00E94E30861E08AE00E94AA088CB55C
:100D600080618CBD8CB580648CBD61E08DE00E949B
:100D7000AA0861E08BE00E94AA08809191028F5F2F
:100D800080939102CFBFCF91089508958230E8F407
:100D9000E82FF0E0EE0FFF1FE05FFE4F71836083EE
:100DA000813041F0809169008C7F842B80936900B1
:100DB000E89A089580916900440F551F440F551F0C
:100DC000837F842B80936900E99A08951F920F9284
:100DD0000FB60F9211242F933F934F935F936F930E
:100DE0007F938F939F93AF93BF93EF93FF93E09184
:100DF0001001F09111010995FF91EF91BF91AF9111
:100E00009F918F917F916F915F914F913F912F9122
:100E10000F900FBE0F901F9018951F920F920FB654
:100E20000F9211242F933F934F935F936F937F9370
:100E30008F939F93AF93BF93EF93FF93E091120132
:100E4000F09113010995FF91EF91BF91AF919F919F
:100E50008F917F916F915F914F913F912F910F9063
:100E60000FBE0F901F9018951F920F920FB60F9202
:100E700011242F933F938F939F93AF93BF938091B0
:100E8000930290919402A0919502B09196023091B4
:100E9000920223E0230F2D3720F40196A11DB11DEE
:100EA00005C026E8230F0296A11DB11D20939202D2
:100EB0008093930290939402A0939502B09396022C
:100EC0008091970290919802A0919902B0919A0214
:100ED0000196A11DB11D8093970290939802A09353
:100EE0009902B0939A02BF91AF919F918F913F91D8
:100EF0002F910F900FBE0F901F9018952FB7F89459
:100F00006091930270919402809195029091960263
:100F10002FBF08953FB7F89480919702909198025F
:100F2000A0919902B0919A0226B5A89B05C02F3FC7
:100F300019F00196A11DB11D3FBF6627782F892F9B
:100F40009A2F620F711D811D911D42E0660F771F60
:100F5000881F991F4A95D1F708958F929F92AF925B
:100F6000BF92CF92DF92EF92FF926B017C010E94C1
:100F70008A074B015C01C114D104E104F104F1F0D2
:100F80000E94750C0E948A07681979098A099B09D1
:100F9000683E73408105910570F321E0C21AD108C3
:100FA000E108F10888EE880E83E0981EA11CB11CB0
:100FB000C114D104E104F10429F7DDCFFF90EF90D3
:100FC000DF90CF90BF90AF909F908F9008957894CE
:100FD00084B5826084BD84B5816084BD85B582603E
:100FE00085BD85B5816085BDEEE6F0E080818160DC
:100FF0008083E1E8F0E010828081826080838081DC
:1010000081608083E0E8F0E0808181608083E1EBB3
:10101000F0E0808184608083E0EBF0E0808181609B
:101020008083EAE7F0E08081846080838081826051
:10103000808380818160808380818068808310923A
:10104000C10008951F93CF93DF93182FEB0161E048
:101050000E94AA08209711F460E004C0CF3FD10598
:1010600039F461E0812FDF91CF911F910C94E30857
:10107000E12FF0E0E859FF4FE491E330F9F048F454
:10108000E130B9F0E230A1F584B5806284BDC8BD1D
:1010900034C0E730E9F0E83019F1E43049F58091E7
:1010A0008000806280938000D0938B00C0938A0080
:1010B00024C084B5806884BDC7BD1FC080918000F6
:1010C000806880938000D0938900C093880015C009
:1010D0008091B00080688093B000C093B3000DC0D1
:1010E0008091B00080628093B000C093B40005C0CE
:1010F000C038D1050CF0B5CFAFCFDF91CF911F91A4
:101100000895833081F028F4813099F08230A1F085
:1011100008958730A9F08830B9F08430D1F48091F7
:1011200080008F7D03C0809180008F778093800046
:10113000089584B58F7702C084B58F7D84BD0895EE
:101140008091B0008F7703C08091B0008F7D809335
:10115000B0000895CF93DF9390E0FC01E458FF4F77
:101160002491FC01E057FF4F8491882349F190E0DE
:10117000880F991FFC01E854FF4FA591B491825547
:101180009F4FFC01C591D4919FB7611108C0F8949D
:101190008C91209582238C93888182230AC06230AF
:1011A00051F4F8948C91322F309583238C9388815D
:1011B000822B888304C0F8948C91822B8C939FBFE0
:1011C000DF91CF9108950F931F93CF93DF931F92D9
:1011D000CDB7DEB7282F30E0F901E859FF4F8491F1
:1011E000F901E458FF4F1491F901E057FF4F0491C2
:1011F0000023C9F0882321F069830E948108698156
:10120000E02FF0E0EE0FFF1FE255FF4FA591B491E4
:101210009FB7F8948C91611103C01095812301C090
:10122000812B8C939FBF0F90DF91CF911F910F91D6
:101230000895CF93DF93282F30E0F901E859FF4F4D
:101240008491F901E458FF4FD491F901E057FF4F21
:10125000C491CC2391F081110E948108EC2FF0E021
:10126000EE0FFF1FEC55FF4FA591B4912C912D234C
:1012700081E090E021F480E002C080E090E0DF9126
:10128000CF910895FC01818D228D90E0805C9F4F6D
:10129000821B91098F7399270895FC01918D828D8E
:1012A000981731F0828DE80FF11D858D90E008953B
:1012B0008FEF9FEF0895FC01918D828D981761F05B
:1012C000828DDF01A80FB11D5D968C91928D9F5F7D
:1012D0009F73928F90E008958FEF9FEF08958FEDA9
:1012E0009AE0892B49F080E090E0892B29F00E9458
:1012F000DF0A81110C9400000895FC01848DDF0148
:10130000A80FB11DA35ABF4F2C91848D90E0019678
:101310008F739927848FA689B7892C93A089B18967
:101320008C9180648C93938D848D981306C0028871
:10133000F389E02D80818F7D80830895CF93DF93A3
:10134000EC01888D8823C9F0EA89FB89808185FDBD
:1013500005C0A889B9898C9186FD0FC00FB607FC1E
:10136000F5CF808185FFF2CFA889B9898C9185FF5F
:10137000EDCFCE010E947D09E7CFDF91CF91089597
:10138000CF92DF92FF920F931F93CF93DF931F9221
:10139000CDB7DEB76C0181E0D60158968C93589793
:1013A0005B969C915B975C968C915C97981307C0B9
:1013B0005096ED91FC915197808185FD2EC0F601EC
:1013C000038D10E00F5F1F4F0F731127F02EF601F2
:1013D000848DF81211C00FB607FCF9CFD6015096D4
:1013E000ED91FC915197808185FFF1CFC601698312
:1013F0000E947D096981EBCF838DE80FF11DE35ACF
:10140000FF4F6083D6015B960C935B975296ED91EC
:10141000FC915397808180620CC0D6015696ED9165
:10142000FC91579760835096ED91FC915197808184
:101430008064808381E090E00F90DF91CF911F91D5
:101440000F91FF90DF90CF900895BF92CF92DF92DF
:10145000EF92FF92CF93DF93EC016A017B01B22EF2
:10146000E889F98982E08083411581EE580761059A
:101470007105A1F060E079E08DE390E0A7019601AD
:101480000E94290E2150310941095109569547956D
:1014900037952795211580E1380798F0E889F98973
:1014A000108260E874E88EE190E0A70196010E9446
:1014B000290E215031094109510956954795379513
:1014C0002795EC85FD853083EE85FF852083188E7A
:1014D000EC89FD89B082EA89FB8980818061808303
:1014E000EA89FB89808188608083EA89FB89808121
:1014F00080688083EA89FB8980818F7D8083DF918A
:10150000CF91FF90EF90DF90CF90BF9008951F9202
:101510000F920FB60F9211242F938F939F93EF93F7
:10152000FF93E091AB02F091AC028081E091B102B7
:10153000F091B20282FD12C090818091B4028F5F5F
:101540008F732091B502821751F0E091B402F0E060
:10155000E556FD4F958F8093B40201C08081FF91C5
:10156000EF919F918F912F910F900FBE0F901F9031
:1015700018951F920F920FB60F9211242F933F933D
:101580004F935F936F937F938F939F93AF93BF938B
:10159000EF93FF938BE992E00E947D09FF91EF9119
:1015A000BF91AF919F918F917F916F915F914F917B
:1015B0003F912F910F900FBE0F901F9018958BE9C0
:1015C00092E00E94420921E0892B09F420E0822F59
:1015D000089510929E0210929D0288EE93E0A0E082
:1015E000B0E080939F029093A002A093A102B093D9
:1015F000A2028EE292E090939C0280939B0285EC83
:1016000090E09093A8028093A70284EC90E09093DE
:10161000AA028093A90280EC90E09093AC028093A0
:10162000AB0281EC90E09093AE028093AD0282EC2D
:1016300090E09093B0028093AF0286EC90E090939C
:10164000B2028093B1021092B4021092B5021092CD
:10165000B6021092B702089508950E94E7070E940B
:101660002C0B0E945904CFE6D9E00E945E0520971A
:10167000E1F30E946F09F9CFCF92DF92EF92FF92D0
:101680000F931F93CF93DF937C016A01EB0100E07E
:1016900010E00C151D0571F06991D701ED91FC91D9
:1016A0000190F081E02DC7010995892B19F00F5F9A
:1016B0001F4FEFCFC801DF91CF911F910F91FF9086
:1016C000EF90DF90CF9008956115710581F0DB01F7
:1016D0000D900020E9F7AD0141505109461B570B11
:1016E000DC01ED91FC910280F381E02D099480E012
:1016F00090E008950C94640BDC01ED91FC91019055
:10170000F081E02D09946AE372E00C94640B0F936E
:101710001F93CF93DF93EC010E94640B8C01CE01E9
:101720000E94830B800F911FDF91CF911F910F912A
:1017300008958F929F92AF92BF92DF92EF92FF92A5
:101740000F931F93CF93DF93CDB7DEB7A1970FB65B
:10175000F894DEBF0FBECDBF7C01F42FD52ECB0198
:1017600019A2223008F42AE08E010F5D1F4F822E4D
:10177000912CA12CB12C6F2F7D2DA50194010E94DD
:10178000290EF22FD32ECA01015011096A3014F428
:10179000E0E301C0E7E3E60FD801EC93232B242B11
:1017A000252B49F7B801C7010E94640BA1960FB61B
:1017B000F894DEBF0FBECDBFDF91CF911F910F9187
:1017C000FF90EF90DF90BF90AF909F908F90089523
:1017D000CF92DF92EF92FF920F931F93CF93DF93FD
:1017E000EC016A017B012115310579F4E881F98169
:1017F0000190F081E02D642FDF91CF911F910F9127
:10180000FF90EF90DF90CF9009942A303105E9F4F2
:1018100077FF1AC06DE20E947C0B8C01442755278C
:10182000BA014C195D096E097F092AE0CE010E94B8
:10183000990B800F911FDF91CF911F910F91FF9016
:10184000EF90DF90CF9008952AE0B701A601CE0176
:10185000DF91CF911F910F91FF90EF90DF90CF908C
:101860000C94990B0F931F93CF93DF93EC019A0184
:10187000AB01662757FD6095762F0E94E80B8C011F
:10188000CE010E94830B800F911FDF91CF911F919A
:101890000F9108952115310541F4DC01ED91FC9182
:1018A0000190F081E02D642F09940C94990B9A011A
:1018B000462F50E060E070E00C944A0C0F931F93A9
:1018C000CF93DF93EC019A01462F50E060E070E087
:1018D0000E944A0C8C01CE010E94830B800F911F45
:1018E000DF91CF911F910F91089508955058BB2714
:1018F000AA270ED00DC1FED030F003D120F031F474
:101900009F3F11F41EF4F3C00EF4E095E7FBE9C02D
:10191000E92F0FD180F3BA17620773078407950781
:1019200018F071F49EF527C10EF4E0950B2EBA2F36
:10193000A02D0B01B90190010C01CA01A0011124D5
:10194000FF27591B99F0593F50F4503E68F11A1681
:10195000F040A22F232F342F4427585FF3CF469512
:1019600037952795A795F0405395C9F77EF41F1634
:10197000BA0B620B730B840BBAF09150A1F0FF0FFE
:10198000BB1F661F771F881FC2F70EC0BA0F621FEA
:10199000731F841F48F4879577956795B795F795DA
:1019A0009E3F08F0B3CF9395880F08F09927EE0F6C
:1019B00097958795089571D008F481E0089504D033
:1019C0006894B111D9C00895BCD088F09F5790F0A9
:1019D000B92F9927B751A0F0D1F0660F771F881F54
:1019E000991F1AF0BA95C9F712C0B13081F0C3D06F
:1019F000B1E00895C0C0672F782F8827B85F39F00D
:101A0000B93FCCF3869577956795B395D9F73EF4B2
:101A100090958095709561957F4F8F4F9F4F08955A
:101A2000E89409C097FB3EF4909580957095619578
:101A30007F4F8F4F9F4F9923A9F0F92F96E9BB272E
:101A40009395F695879577956795B795F111F8CFAA
:101A5000FAF4BB0F11F460FF1BC06F5F7F4F8F4F15
:101A60009F4F16C0882311F096E911C0772321F00B
:101A70009EE8872F762F05C0662371F096E8862FA3
:101A800070E060E02AF09A95660F771F881FDAF7FA
:101A9000880F9695879597F90895990F0008550F27
:101AA000AA0BE0E8FEEF16161706E807F907C0F0E4
:101AB00012161306E407F50798F0621B730B840BEC
:101AC000950B39F40A2661F0232B242B252B21F4C6
:101AD00008950A2609F4A140A6958FEF811D811D66
:101AE000089597F99F6780E870E060E008959FEFA0
:101AF00080EC089500240A941616170618060906A5
:101B0000089500240A941216130614060506089573
:101B1000092E0394000C11F4882352F0BB0F40F4FB
:101B2000BF2B11F460FF04C06F5F7F4F8F4F9F4F3B
:101B3000089557FD9058440F551F59F05F3F71F0BD
:101B40004795880F97FB991F61F09F3F79F0879524
:101B50000895121613061406551FF2CF4695F1DFAD
:101B600008C0161617061806991FF1CF869571053D
:101B7000610508940895E894BB2766277727CB0171
:101B800097F908958ADF08F48FEF08950BD0C0CF3E
:101B9000B1DF28F0B6DF18F0952309F0A2CFA7CF68
:101BA0001124EACFC6DFA0F3959FD1F3950F50E043
:101BB000551F629FF001729FBB27F00DB11D639FFF
:101BC000AA27F00DB11DAA1F649F6627B00DA11DA5
:101BD000661F829F2227B00DA11D621F739FB00D4B
:101BE000A11D621F839FA00D611D221F749F3327BB
:101BF000A00D611D231F849F600D211D822F762F54
:101C00006A2F11249F5750408AF0E1F088234AF050
:101C1000EE0FFF1FBB1F661F771F881F915050409C
:101C2000A9F79E3F510570F05CCFA6CF5F3FECF364
:101C3000983EDCF3869577956795B795F795E79588
:101C40009F5FC1F7FE2B880F911D9695879597F999
:101C50000895A1E21A2EAA1BBB1BFD010DC0AA1FED
:101C6000BB1FEE1FFF1FA217B307E407F50720F005
:101C7000A21BB30BE40BF50B661F771F881F991F80
:101C80001A9469F760957095809590959B01AC01C9
:101C9000BD01CF010895EE0FFF1F0590F491E02DD7
:061CA0000994F894FFCF47
:101CA6002C8F9440E1C89F3EA2D5F9BE4CD929C1DC
:101CB600C506C5064D63703235313520636F6E66D5
:101CC60069677572652062757320737563636573E2
:101CD60066756C6C79004D63703235313520636FF3
:101CE6006E66696775726520696E74657272757065
:101CF60074732073756363657366756C6C79004DD8
:101D060063703235313520636F6E6669677572654B
:101D160020727820627566666572207375636365E6
:101D26007366756C6C790041626F727420776169B5
:101D360074696E672E204D61782E2077616974690B
:101D46006E672074696D6520726561636865642ECF
:101D5600004D6370323531352073776974636820BE
:101D6600746F206D6F6465200054727920746F2043
:101D76007265736574204D637032353135004D637D
:101D860070323531352072657365742073756363FF
:101D9600657366756C6C7920616E642073776974FF
:101DA600636820646F206D6F6465200065787472C7
:101DB60061436F6E646974696F6E3A20007761697A
:101DC6007400363738393A3B3C3D00000000C00904
:101DD6003C0B42095B094D099E090D0A006E616EB6
:0A1DE60000696E66006F766600006B
:00000001FF
