:100000000C9462000C9415080C943C080C948A0023
:100010000C948A000C948A000C948A000C948A0038
:100020000C948A000C948A000C948A000C948A0028
:100030000C948A000C948A000C948A000C948A0018
:100040000C9463080C948A000C94B60B0C94E80B87
:100050000C948A000C948A000C948A000C948A00F8
:100060000C948A000C948A00000000080002010031
:100070000003040700000000000000000102040863
:100080001020408001020408102001020408102002
:10009000040404040404040402020202020203032E
:1000A00003030303000000002300260029000000D2
:1000B0000000250028002B0000000000240027007D
:1000C0002A00180C11241FBECFEFD8E0DEBFCDBF31
:1000D00012E0A0E0B1E0E0E4FFE102C005900D9283
:1000E000A635B107D9F723E0A6E5B2E001C01D921D
:1000F000AC34B207E1F710E0C4ECD0E004C02297C2
:10010000FE010E94840FC23CD107C9F70E945C0C1B
:100110000C949E0F0C94000082E00E94480A019704
:1001200071F483E00E94480A40917002509171027C
:100130006091720270917302892B99F40DC083E073
:100140000E94480A409170025091710260917202BF
:1001500070917302019729F44F5F5F4F6F4F7F4F8C
:1001600004C04150510961097109409370025093D4
:1001700071026093720270937302089583E00E948B
:10018000480A019771F482E00E94480A4091700287
:10019000509171026091720270917302019799F40B
:1001A0000DC082E00E94480A409170025091710295
:1001B0006091720270917302892B29F44F5F5F4F37
:1001C0006F4F7F4F04C0415051096109710940933D
:1001D00070025093710260937202709373020895DB
:1001E0000C94880FEF92FF920F931F93CF93DF939E
:1001F0001F92CDB7DEB77C01FC0100811181C801DF
:1002000069830E94880F6981681719F0C8010E94EC
:10021000900FC7010F90DF91CF911F910F91FF9029
:10022000EF9008958EBD00000DB407FEFDCF8EB592
:100230000895CF93DF93D82FC62F8AE00E94120A29
:100240006C2F8D2FDF91CF910C94120A1F93CF93B7
:10025000DF93EC0160E00E94190180EA0E94120124
:1002600080E00E941201182F61E0CE010E94190166
:1002700064E070E080E090E00E94DC08812FDF9174
:10028000CF911F9108950F931F93CF93DF93082F62
:10029000162FEA0160E0CA010E94190182E00E9463
:1002A0001201802F0E941201812F0E94120161E031
:1002B000CE010E94190164E070E080E090E0DF91DF
:1002C000CF911F910F910C94DC08CF93DF93D62F21
:1002D000C42F48E050E0682F82E30E94430148E0C9
:1002E00050E06D2F81E30E94430148E050E06C2F05
:1002F00085E3DF91CF910C944301CF93DF93D62F09
:10030000C42F48E050E0682F82E40E94430148E097
:1003100050E06D2F81E40E94430148E050E06C2FD3
:1003200085E4DF91CF910C944301CF93DF93D62FD7
:10033000C42F48E050E0682F82E50E94430148E066
:1003400050E06D2F81E50E94430148E050E06C2FA2
:1003500085E5DF91CF910C94430148E050E060E0E7
:100360008AE20E94430148E050E068EB89E20E9483
:10037000430148E050E065E088E20E94430180913B
:100380009C02882331F066E171E08FEA92E00C94E0
:10039000B60C089548E050E063E08BE20E94430110
:1003A00080919C02882331F068E371E08FEA92E04B
:1003B0000C94B60C08951F93CF93DF93182FEB0185
:1003C00060E0CE010E94190183E00E941201812F9A
:1003D0000E94120180E00E941201182F61E0CE01FC
:1003E0000E94190164E070E080E090E00E94DC0867
:1003F00048E050E060E08CE20E944301812FDF91F1
:10040000CF911F910895CF92DF92EF92FF920F93B9
:100410001F93CF93DF93062FC3E0D0E048E050E076
:10042000602F8FE00E94430168E070E08EE00E9440
:10043000DB01182F0E94AD086B017C0160E070E0C9
:10044000CB01101791F0613177428105910594F449
:1004500068E070E08EE00E94DB01182F0E94AD087A
:100460006C197D098E099F09ECCF613177428105B6
:10047000910564F080919C02882331F069E871E075
:100480008FEA92E00E94B60C219741F680919C027F
:10049000882331F063EB71E08FEA92E00E94A90CAF
:1004A00080919C02882339F04AE050E0612F8FEA66
:1004B00092E00E948E0D80919C02882371F06CE77F
:1004C00071E08FEA92E0DF91CF911F910F91FF9041
:1004D000EF90DF90CF900C94B60CDF91CF911F91ED
:1004E0000F91FF90EF90DF90CF9008951F93CF93DF
:1004F000DF93182FEB01FB01E15DFD4F48E050E079
:10050000682F80810E9443016BEC71E08FEA92E0DA
:100510000E94A90C4AE050E0BE018FEA92E00E94DE
:10052000610D6AED71E08FEA92E00E94A90C4AE049
:1005300050E0612F8FEA92E0DF91CF911F910C94F0
:10054000950D1F93CF93DF93182FEB0160E0CE0141
:100550000E941901812F0E94120161E0CE010E94C8
:10056000190164E070E080E090E0DF91CF911F918D
:100570000C94DC08CF9368E070E080EC0E94A1024C
:1005800068E070E08EE00E94DB01C82F6DED71E045
:100590008FEA92E00E94A90CC7FD0EC068E070E0EF
:1005A0008EE00E94DB01C82F4AE050E0682F8FEAFE
:1005B00092E00E948E0DF0CF80919C02882331F052
:1005C00062EF71E08FEA92E00E94A90C80919C0298
:1005D000882341F04AE050E06C2F8FEA92E0CF91FF
:1005E0000C94950DCF9108950E94BA020E94AD011E
:1005F0000E94CA0160E080E00C9403020F931F93F5
:10060000CF93DF9300D0CDB7DEB726E040E855E2C8
:1006100060E070E08FEA92E00E94540B81E08093EA
:100620009E0210926D0210926C0280939C021092B6
:100630009D0261E088E00E94D90961E08AE00E94A1
:10064000D90960E082E00E94D90960E083E00E945D
:10065000D90960E087E00E94D90961E084E00E9446
:10066000D90961E08DE00E94D90980919D02811134
:1006700003C000E010E014C000E010E01A8309831A
:1006800060E0CE0101960E94F2000F5F1F4F05301F
:100690001105A1F7EECF0F5F1F4F0530110501F1D6
:1006A000C8010E94F0008823B1F310921101F3CF2A
:1006B0008091110161E08823C1F08DE00E94120A4F
:1006C00068EE73E080E090E00E94DC0860E08DE07E
:1006D0000E94120A64E670E080E090E00E94DC086C
:1006E00080919D028111E4CF12C08DE00E94120A18
:1006F00068EC70E080E090E00E94DC0860E08DE053
:100700000E94120A68EC70E080E090E0E7CF84E09D
:1007100090E00E94F0008130E9F461E08DE00E94F9
:10072000120A6AEF70E080E090E00E94DC0860E06E
:100730008DE00E94120A6AEF70E080E090E00E9473
:10074000DC084AE050E061E070E08FEA92E00E944D
:10075000690DE3CF8091A402882399F09FB7F894A4
:100760008091A402813059F48DB38093A2022DB3FD
:100770008091A302809582238DBB9FBF02C090937E
:10078000A2028CE58CBD1DBC0E94BE070E94F40233
:1007900048E062E080E40E94650148E062E080E4B5
:1007A0000E947D0148E062E080E40E94950182E0C1
:1007B00090E00E94F0008093680283E090E00E9445
:1007C000F000809369028091680290916902AA27E3
:1007D00097FDA095BA2F8093700290937102A09319
:1007E0007202B093730280E090E00E94F000182F34
:1007F0008093660281E090E00E94F000809367029F
:10080000E0916E02F0916F02EA56FD4F108341E0D5
:1008100050E06CE870E080E00E94F50741E050E0B5
:100820006EEB70E081E00E94F50764E670E080E026
:1008300090E00E94DC080E94AD08609398027093DB
:10084000990280939A0290939B020F900F90DF91F0
:10085000CF911F910F9108958130910539F0823029
:10086000910531F0892B29F421E803C022E801C069
:1008700024E868E070E0822F0C94A102EF92FF92CE
:100880000F931F93CF93DF938B01C0E0D0E0E82E4E
:10089000F12CCE15DF0548F4A701BE01F8018191C6
:1008A0008F010E9476022196F4CF80E090E0DF91E4
:1008B000CF911F910F91FF90EF900C942C04CF9249
:1008C000DF92EF92FF920F931F93CF93DF93C82F86
:1008D0007B0160E0C7010E9419018C2F0E94120168
:1008E0000EE512E0C0E0D0E080E00E941201680155
:1008F000F80181938F0160E272E08FEA92E00E943A
:10090000A90C4AE050E0BE018FEA92E00E94610D1E
:100910006AED71E08FEA92E00E94A90C4AE050E093
:10092000F60160818FEA92E00E94950D2196C83011
:10093000D105D1F661E0C7010E94190181E0DF9184
:10094000CF911F910F91FF90EF90DF90CF9008957E
:100950006823613021F468E070E082E905C062300C
:1009600029F468E070E086E90E945F0481E0089560
:100970008F929F92AF92BF92CF92DF92EF92FF92AF
:100980000F931F93CF93DF936B017C0149015A01B1
:1009900020E030E04FE753EC0E94F90E87FD0AC0DB
:1009A00020E030E04FE753E4C701B6010E94120E89
:1009B00018167CF520E030E04FE753E4C701B6019C
:1009C0000E94F90E18164CF420E030E04FE753E493
:1009D000C701B6010E94AD0D12C020E030E04FE724
:1009E00053ECC701B6010E94120E87FF12C020E02F
:1009F00030E04FE753E4C701B6010E94AE0D6B0132
:100A00007C0120E030E0A9010E94F90E1816ACF03C
:100A100003C0C12CD12C7601C1E0D0E020E030E051
:100A2000A901C701B6010E94120E87FD02C0C0E0F5
:100A3000D0E0D195C195D10902C0C1E0D0E020E05D
:100A400030E0A901C501B4010E94F90E01E010E0F7
:100A5000181674F020E030E0A901C501B4010E942D
:100A6000120E87FD02C000E010E0119501951109FA
:100A7000C017D10759F420E030E0A901C701B60141
:100A80000E94120E882311F081E000C0DF91CF9107
:100A90001F910F91FF90EF90DF90CF90BF90AF909C
:100AA0009F908F9008954F925F926F927F928F9256
:100AB0009F92AF92BF92CF92DF92EF92FF92CF932D
:100AC000DF9300D000D0CDB7DEB76B017C01209161
:100AD0000C0130910D0140910E0150910F010E94C7
:100AE000FD0E4B015C01609384027093850280933C
:100AF00086029093870260917802709179028091CA
:100B00007A0290917B02A70196010E94B804882383
:100B100021F020E030E0A9010AC02DEC3CEC4CE4CF
:100B20005DE3C701B6010E94FD0E9B01AC0160911F
:100B300080027091810280918202909183020E94D2
:100B4000AE0D609380027093810280938202909335
:100B50008302209108013091090140910A015091CE
:100B60000B016091800270918102809182029091CC
:100B700083020E94FD0E2B013C0160938002709362
:100B800081028093820290938302809174029091FB
:100B90007502A0917602B091770289839A83AB8324
:100BA000BC832091040130910501409106015091D0
:100BB0000701C701B6010E94FD0E29813A814B81D0
:100BC0005C810E94AD0D20910001309101014091A6
:100BD0000201509103010E94FD0E6B017C016093A4
:100BE0007C0270937D0280937E0290937F02A3012A
:100BF0009201C501B4010E94AE0DA70196010E94A9
:100C0000AE0D4B015C016093780270937902809382
:100C10007A0290937B0220E030E04FE753E40E9499
:100C2000F90E18168CF020E030E04FE753ECC501C8
:100C3000B4010E94120E87FF0DC0812C912C9FE7FA
:100C4000A92E93ECB92E06C0812C912C8FE7A82EEB
:100C500083E4B82E2DEC3CEC4CE45DE3C701B60117
:100C60000E94FD0E9B01AC0169817A818B819C8180
:100C70000E94AE0D609374027093750280937602A9
:100C800090937702C501B4010F900F900F900F90D1
:100C9000DF91CF91FF90EF90DF90CF90BF90AF901A
:100CA0009F908F907F906F905F904F900895CF921C
:100CB000DF92EF92FF921F93CF93DF9300D0CDB7D7
:100CC000DEB7109294021092A1021092A00281E06D
:100CD00080939F02E6E5F2E0119282E0EE35F8079C
:100CE000D9F787E00E94480A892B79F488E090E0E0
:100CF0000E9426018093940263E00E94A80469E1A7
:100D000070E080E090E00E94DC0880915E0281113A
:100D100002C01092950221E0823009F020E090910B
:100D2000950231E09327922321E03DEF380F3230D6
:100D300008F020E0922B11F4813049F480935602A0
:100D400082E08093580280915F028093570266E5AB
:100D500072E088E00E943E0469E170E080E090E08B
:100D60000E94DC0880915E028230C9F59091950264
:100D700081E09817A1F180939502609170021A8228
:100D80001982CE0101960E94F2008091700290912A
:100D90007102A0917202B0917302692F7A2F8B2F8A
:100DA000992787FD9A9521E030E03A832983CE0187
:100DB00001960E94F20080E090E00E94F000909185
:100DC0007002F090710211E0891310E081E090E070
:100DD0000E94F0008F1103C01111109258028091EF
:100DE0005E02833059F49091950281E0981709F4DE
:100DF00044C080939502109210013DC0843051F49C
:100E00009091950281E09817C1F1809395028093AB
:100E1000100131C0813089F590919502981769F1E0
:100E2000809395028091610280936A0280916202B0
:100E300080936B0260916A0270916B02882777FD44
:100E40008095982F0E94490E6093900270939102B2
:100E5000809392029093930220E030E0A901609188
:100E60008C0270918D0280918E0290918F020E946F
:100E7000120E811102C01092580280911001882335
:100E800009F472C0609170027091710280917202D7
:100E9000909173020E94490E6093880270938902B8
:100EA00080938A0290938B0220919002309191025C
:100EB00040919202509193020E94AD0D6B017C0112
:100EC00020E030E0A9010E94F90E18165CF42AE92E
:100ED00039E949E15EE3C701B6010E94120E181616
:100EE0005CF013C02AE939E949E15EEBC701B601BC
:100EF0000E94F90E87FF09C0C0928C02D0928D0229
:100F0000E0928E02F0928F0208C010928C02109232
:100F10008D0210928E0210928F0260918C0270915D
:100F20008D0280918E0290918F020E9453056B0179
:100F30007C0120E030E0A9010E94120E87FF09C069
:100F400061E084E00E94120AF7FAF094F7F8F09456
:100F500004C060E084E00E94120AC701B6010E944A
:100F6000160E89E00E9451090F900F90DF91CF91EA
:100F70001F91FF90EF90DF90CF900895CF93CFB760
:100F8000F8948091A502811127C0EAE9F0E08491EC
:100F9000E6E8F0E09491E82FF0E0EE0FFF1FE85450
:100FA000FF4FA591B4918C91892321F461E08AE0EF
:100FB0000E94120A61E08AE00E94D9098CB5806122
:100FC0008CBD8CB580648CBD61E08DE00E94D90938
:100FD00061E08BE00E94D9098091A5028F5F809328
:100FE000A502CFBFCF91089508958230E8F4E82F8D
:100FF000F0E0EE0FFF1FEE5EFE4F718360838130E5
:1010000041F0809169008C7F842B80936900E89A7D
:10101000089580916900440F551F440F551F837F29
:10102000842B80936900E99A08951F920F920FB65E
:101030000F9211242F933F934F935F936F937F935E
:101040008F939F93AF93BF93EF93FF93E091120120
:10105000F09113010995FF91EF91BF91AF919F918D
:101060008F917F916F915F914F913F912F910F9051
:101070000FBE0F901F9018951F920F920FB60F92F0
:1010800011242F933F934F935F936F937F938F938D
:101090009F93AF93BF93EF93FF93E0911401F0916F
:1010A00015010995FF91EF91BF91AF919F918F919C
:1010B0007F916F915F914F913F912F910F900FBE54
:1010C0000F901F9018951F920F920FB60F92112438
:1010D0002F933F938F939F93AF93BF938091A702DA
:1010E0009091A802A091A902B091AA023091A60203
:1010F00023E0230F2D3720F40196A11DB11D05C05B
:1011000026E8230F0296A11DB11D2093A60280930D
:10111000A7029093A802A093A902B093AA0280917B
:10112000AB029091AC02A091AD02B091AE020196DB
:10113000A11DB11D8093AB029093AC02A093AD02B0
:10114000B093AE02BF91AF919F918F913F912F913C
:101150000F900FBE0F901F9018952FB7F8946091C5
:10116000A7027091A8028091A9029091AA022FBFB4
:1011700008953FB7F8948091AB029091AC02A09192
:10118000AD02B091AE0226B5A89B05C02F3F19F065
:101190000196A11DB11D3FBF6627782F892F9A2F79
:1011A000620F711D811D911D42E0660F771F881F20
:1011B000991F4A95D1F708958F929F92AF92BF924F
:1011C000CF92DF92EF92FF926B017C010E94B908EF
:1011D0004B015C01C114D104E104F104F1F00E945F
:1011E000AC0D0E94B908681979098A099B09683E03
:1011F00073408105910570F321E0C21AD108E1081E
:10120000F10888EE880E83E0981EA11CB11CC11461
:10121000D104E104F10429F7DDCFFF90EF90DF90D6
:10122000CF90BF90AF909F908F900895789484B5A1
:10123000826084BD84B5816084BD85B5826085BDD2
:1012400085B5816085BDEEE6F0E0808181608083B8
:10125000E1E8F0E01082808182608083808181609B
:101260008083E0E8F0E0808181608083E1EBF0E062
:10127000808184608083E0EBF0E080818160808306
:10128000EAE7F0E0808184608083808182608083EF
:101290008081816080838081806880831092C1001A
:1012A00008951F93CF93DF93182FEB0161E00E9405
:1012B000D909209711F460E004C0CF3FD10539F47B
:1012C00061E0812FDF91CF911F910C94120AE12FE1
:1012D000F0E0E859FF4FE491E330F9F048F4E130F1
:1012E000B9F0E230A1F584B5806284BDC8BD34C0D8
:1012F000E730E9F0E83019F1E43049F580918000F9
:10130000806280938000D0938B00C0938A0024C0B9
:1013100084B5806884BDC7BD1FC08091800080688F
:1013200080938000D0938900C093880015C080917D
:10133000B00080688093B000C093B3000DC080916E
:10134000B00080628093B000C093B40005C0C03884
:10135000D1050CF0B5CFAFCFDF91CF911F9108959C
:10136000833081F028F4813099F08230A1F0089523
:101370008730A9F08830B9F08430D1F480918000B2
:101380008F7D03C0809180008F77809380000895C7
:1013900084B58F7702C084B58F7D84BD0895809118
:1013A000B0008F7703C08091B0008F7D8093B00034
:1013B0000895CF93DF9390E0FC01E458FF4F249110
:1013C000FC01E057FF4F8491882349F190E0880F9A
:1013D000991FFC01E854FF4FA591B49182559F4F8E
:1013E000FC01C591D4919FB7611108C0F8948C910C
:1013F000209582238C93888182230AC0623051F425
:10140000F8948C91322F309583238C938881822B92
:10141000888304C0F8948C91822B8C939FBFDF91BA
:10142000CF9108950F931F93CF93DF931F92CDB762
:10143000DEB7282F30E0F901E859FF4F8491F90118
:10144000E458FF4F1491F901E057FF4F0491002336
:10145000C9F0882321F069830E94B0096981E02FD7
:10146000F0E0EE0FFF1FE255FF4FA591B4919FB73B
:10147000F8948C91611103C01095812301C0812BD8
:101480008C939FBF0F90DF91CF911F910F91089583
:10149000CF93DF93282F30E0F901E859FF4F849173
:1014A000F901E458FF4FD491F901E057FF4FC4917F
:1014B000CC2391F081110E94B009EC2FF0E0EE0FE7
:1014C000FF1FEC55FF4FA591B4912C912D2381E086
:1014D00090E021F480E002C080E090E0DF91CF91C5
:1014E0000895FC01818D228D90E0805C9F4F821BCE
:1014F00091098F7399270895FC01918D828D98171A
:1015000031F0828DE80FF11D858D90E008958FEF09
:101510009FEF0895FC01918D828D981761F0828D67
:10152000DF01A80FB11D5D968C91928D9F5F9F7317
:10153000928F90E008958FEF9FEF08958EE09CE0EA
:10154000892B49F080E090E0892B29F00E940E0C55
:1015500081110C9400000895FC01848DDF01A80F17
:10156000B11DA35ABF4F2C91848D90E001968F73CB
:101570009927848FA689B7892C93A089B1898C91EA
:1015800080648C93938D848D981306C00288F389B0
:10159000E02D80818F7D80830895CF93DF93EC01D0
:1015A000888D8823C9F0EA89FB89808185FD05C083
:1015B000A889B9898C9186FD0FC00FB607FCF5CFBD
:1015C000808185FFF2CFA889B9898C9185FFEDCF05
:1015D000CE010E94AC0AE7CFDF91CF910895CF9260
:1015E000DF92FF920F931F93CF93DF931F92CDB79C
:1015F000DEB76C0181E0D60158968C9358975B96C4
:101600009C915B975C968C915C97981307C0509661
:10161000ED91FC915197808185FD2EC0F601038DDF
:1016200010E00F5F1F4F0F731127F02EF601848D0E
:10163000F81211C00FB607FCF9CFD6015096ED9104
:10164000FC915197808185FFF1CFC60169830E948B
:10165000AC0A6981EBCF838DE80FF11DE35AFF4F90
:101660006083D6015B960C935B975296ED91FC914B
:101670005397808180620CC0D6015696ED91FC9103
:10168000579760835096ED91FC91519780818064CB
:10169000808381E090E00F90DF91CF911F910F91B7
:1016A000FF90DF90CF900895BF92CF92DF92EF929C
:1016B000FF92CF93DF93EC016A017B01B22EE889A0
:1016C000F98982E08083411581EE58076105710533
:1016D000A1F060E079E08DE390E0A70196010E941F
:1016E000600F2150310941095109569547953795A9
:1016F0002795211580E1380798F0E889F98910824B
:1017000060E874E88EE190E0A70196010E94600F06
:10171000215031094109510956954795379527952B
:10172000EC85FD853083EE85FF852083188EEC895E
:10173000FD89B082EA89FB89808180618083EA89A2
:10174000FB89808188608083EA89FB898081806849
:101750008083EA89FB8980818F7D8083DF91CF91AF
:10176000FF90EF90DF90CF90BF9008951F920F925F
:101770000FB60F9211242F938F939F93EF93FF93A4
:10178000E091BF02F091C0028081E091C502F0912A
:10179000C60282FD12C090818091C8028F5F8F7354
:1017A0002091C902821751F0E091C802F0E0E155A2
:1017B000FD4F958F8093C80201C08081FF91EF910A
:1017C0009F918F912F910F900FBE0F901F901895A2
:1017D0001F920F920FB60F9211242F933F934F93A6
:1017E0005F936F937F938F939F93AF93BF93EF9389
:1017F000FF938FEA92E00E94AC0AFF91EF91BF91B4
:10180000AF919F918F917F916F915F914F913F9198
:101810002F910F900FBE0F901F9018958FEA92E0B6
:101820000E94710A21E0892B09F420E0822F08959B
:101830001092B2021092B10288EE93E0A0E0B0E004
:101840008093B3029093B402A093B502B093B60212
:101850008BE392E09093B0028093AF0285EC90E02E
:101860009093BC028093BB0284EC90E09093BE0204
:101870008093BD0280EC90E09093C0028093BF0201
:1018800081EC90E09093C2028093C10282EC90E0E0
:101890009093C4028093C30286EC90E09093C602BA
:1018A0008093C5021092C8021092C9021092CA0217
:1018B0001092CB02089508950E9416090E945B0CB5
:1018C0000E94FE02CEE9DAE00E9457062097E1F37B
:1018D0000E949E0AF9CFCF92DF92EF92FF920F9370
:1018E0001F93CF93DF937C016A01EB0100E010E0CE
:1018F0000C151D0571F06991D701ED91FC910190D6
:10190000F081E02DC7010995892B19F00F5F1F4F5A
:10191000EFCFC801DF91CF911F910F91FF90EF9012
:10192000DF90CF9008956115710581F0DB010D9076
:101930000020E9F7AD0141505109461B570BDC016E
:10194000ED91FC910280F381E02D099480E090E01C
:1019500008950C94930CDC01ED91FC910190F081C1
:10196000E02D099467E472E00C94930C0F931F939D
:10197000CF93DF93EC010E94930C8C01CE010E9467
:10198000B20C800F911FDF91CF911F910F9108959D
:101990008F929F92AF92BF92DF92EF92FF920F933E
:1019A0001F93CF93DF93CDB7DEB7A1970FB6F8940F
:1019B000DEBF0FBECDBF7C01F42FD52ECB0119A207
:1019C000223008F42AE08E010F5D1F4F822E912CE9
:1019D000A12CB12C6F2F7D2DA50194010E94600FC9
:1019E000F22FD32ECA01015011096A3014F4E0E33A
:1019F00001C0E7E3E60FD801EC93232B242B252B22
:101A000049F7B801C7010E94930CA1960FB6F8944C
:101A1000DEBF0FBECDBFDF91CF911F910F91FF9021
:101A2000EF90DF90BF90AF909F908F900895CF92EE
:101A3000DF92EF92FF920F931F93CF93DF93EC010E
:101A40006A017B012115310579F4E881F981019062
:101A5000F081E02D642FDF91CF911F910F91FF90C6
:101A6000EF90DF90CF9009942A303105E9F477FFA9
:101A70001AC06DE20E94AB0C8C0144275527BA01B5
:101A80004C195D096E097F092AE0CE010E94C80C3D
:101A9000800F911FDF91CF911F910F91FF90EF90D9
:101AA000DF90CF9008952AE0B701A601CE01DF9123
:101AB000CF911F910F91FF90EF90DF90CF900C94FA
:101AC000C80C9A01AB01662757FD6095762F0C94E0
:101AD000170D0F931F93CF93DF93EC019A01AB0186
:101AE000662757FD6095762F0E94170D8C01CE0159
:101AF0000E94B20C800F911FDF91CF911F910F9127
:101B000008952115310541F4DC01ED91FC9101901E
:101B1000F081E02D642F09940C94C80C9A01462F93
:101B200050E060E070E00C94810D0F931F93CF9311
:101B3000DF93EC019A01462F50E060E070E00E94D4
:101B4000810D8C01CE010E94B20C800F911FDF919C
:101B5000CF911F910F91089508955058BB27AA2740
:101B60000ED00DC1FED030F003D120F031F49F3FF4
:101B700011F41EF4F3C00EF4E095E7FBE9C0E92F81
:101B80000FD180F3BA17620773078407950718F01F
:101B900071F49EF527C10EF4E0950B2EBA2FA02DFF
:101BA0000B01B90190010C01CA01A0011124FF270A
:101BB000591B99F0593F50F4503E68F11A16F04005
:101BC000A22F232F342F4427585FF3CF4695379504
:101BD0002795A795F0405395C9F77EF41F16BA0BC9
:101BE000620B730B840BBAF09150A1F0FF0FBB1F77
:101BF000661F771F881FC2F70EC0BA0F621F731FC0
:101C0000841F48F4879577956795B795F7959E3F1C
:101C100008F0B3CF9395880F08F09927EE0F9795AA
:101C20008795089571D008F481E0089504D06894F0
:101C3000B111D9C00895BCD088F09F5790F0B92F4A
:101C40009927B751A0F0D1F0660F771F881F991F11
:101C50001AF0BA95C9F712C0B13081F0C3D0B1E023
:101C60000895C0C0672F782F8827B85F39F0B93F33
:101C7000CCF3869577956795B395D9F73EF4909513
:101C80008095709561957F4F8F4F9F4F0895E89491
:101C900009C097FB3EF490958095709561957F4FB4
:101CA0008F4F9F4F9923A9F0F92F96E9BB27939562
:101CB000F695879577956795B795F111F8CFFAF472
:101CC000BB0F11F460FF1BC06F5F7F4F8F4F9F4FA3
:101CD00016C0882311F096E911C0772321F09EE801
:101CE000872F762F05C0662371F096E8862F70E067
:101CF00060E02AF09A95660F771F881FDAF7880F41
:101D00009695879597F90895990F0008550FAA0B96
:101D1000E0E8FEEF16161706E807F907C0F01216FE
:101D20001306E407F50798F0621B730B840B950B01
:101D300039F40A2661F0232B242B252B21F4089556
:101D40000A2609F4A140A6958FEF811D811D0895F3
:101D500097F99F6780E870E060E008959FEF80EC5E
:101D6000089500240A941616170618060906089501
:101D700000240A9412161306140605060895092E67
:101D80000394000C11F4882352F0BB0F40F4BF2BD6
:101D900011F460FF04C06F5F7F4F8F4F9F4F089516
:101DA00057FD9058440F551F59F05F3F71F047950C
:101DB000880F97FB991F61F09F3F79F087950895F1
:101DC000121613061406551FF2CF4695F1DF08C010
:101DD000161617061806991FF1CF8695710561052D
:101DE00008940895E894BB2766277727CB0197F9D5
:101DF00008958ADF08F48FEF08950BD0C0CFB1DFCC
:101E000028F0B6DF18F0952309F0A2CFA7CF112450
:101E1000EACFC6DFA0F3959FD1F3950F50E0551F91
:101E2000629FF001729FBB27F00DB11D639FAA272F
:101E3000F00DB11DAA1F649F6627B00DA11D661F7E
:101E4000829F2227B00DA11D621F739FB00DA11D9F
:101E5000621F839FA00D611D221F749F3327A00D59
:101E6000611D231F849F600D211D822F762F6A2FF5
:101E700011249F5750408AF0E1F088234AF0EE0F7A
:101E8000FF1FBB1F661F771F881F91505040A9F787
:101E90009E3F510570F05CCFA6CF5F3FECF3983EBC
:101EA000DCF3869577956795B795F795E7959F5FEE
:101EB000C1F7FE2B880F911D9695879597F9089588
:101EC000A1E21A2EAA1BBB1BFD010DC0AA1FBB1F3E
:101ED000EE1FFF1FA217B307E407F50720F0A21BB0
:101EE000B30BE40BF50B661F771F881F991F1A941D
:101EF00069F760957095809590959B01AC01BD0147
:101F0000CF010895EE0FFF1F0590F491E02D099485
:101F1000F999FECF92BD81BDF89A992780B50895B1
:101F2000262FF999FECF1FBA92BD81BD20BD0FB6F5
:101F3000F894FA9AF99A0FBE01960895F894FFCF93
:101F40002C8F9440E1C89F3EA2D5F9BE4CD929C13F
:101F50000101F407F4074D63703235313520636FAA
:101F60006E66696775726520627573207375636349
:101F7000657366756C6C79004D6370323531352050
:101F8000636F6E66696775726520696E74657272DB
:101F9000757074732073756363657366756C6C79A3
:101FA000004D63703235313520636F6E6669677539
:101FB000726520727820627566666572207375633B
:101FC00063657366756C6C790041626F727420771B
:101FD000616974696E672E204D61782E2077616982
:101FE00074696E672074696D6520726561636865E8
:101FF000642E004D63703235313520737769746318
:102000006820746F206D6F646520006F7574676F52
:10201000696E675F6461746120003A2000547279D0
:1020200020746F207265736574204D637032353192
:1020300035004D637032353135207265736574201B
:1020400073756363657366756C6C7920616E64206B
:1020500073776974636820646F206D6F6465200016
:10206000696E636F6D696E675F64617461200036CD
:102070003738393A3B3C3D00000000EF0A6B0C71E9
:102080000A8A0A7C0ACD0A0D0A006E616E00696E2A
:0620900066006F76660099
:00000001FF
