:100000000C9463000C9492090C94B9090C948B0025
:100010000C948B000C948B000C948B000C948B0034
:100020000C948B000C948B000C948B000C948B0024
:100030000C948B000C948B000C948B000C948B0014
:100040000C94E0090C948B000C94330D0C94650D0A
:100050000C948B000C948B000C948B000C948B00F4
:100060000C948B000C948B0000000008000201002F
:100070000003040700000000000000000102040863
:100080001020408001020408102001020408102002
:10009000040404040404040402020202020203032E
:1000A00003030303000000002300260029000000D2
:1000B0000000250028002B0000000000240027007D
:1000C0002A002209950D11241FBECFEFD8E0DEBF14
:1000D000CDBF12E0A0E0B1E0EEE4F2E202C0059094
:1000E0000D92A63BB107D9F723E0A6EBB2E001C021
:1000F0001D92A53BB207E1F710E0C6ECD0E004C0CA
:100100002297FE010E940B11C23CD107C9F70E9441
:10011000D90D0C9425110C94000082E00E94C50BAF
:10012000019771F483E00E94C50B4091CC0250917D
:10013000CD026091CE027091CF02892B99F40DC04F
:1001400083E00E94C50B4091CC025091CD0260919A
:10015000CE027091CF02019729F44F5F5F4F6F4F2E
:100160007F4F04C041505109610971094093CC028D
:100170005093CD026093CE027093CF02089583E036
:100180000E94C50B019771F482E00E94C50B40915B
:10019000CC025091CD026091CE027091CF020197B6
:1001A00099F40DC082E00E94C50B4091CC025091A1
:1001B000CD026091CE027091CF02892B29F44F5F5E
:1001C0005F4F6F4F7F4F04C0415051096109710962
:1001D0004093CC025093CD026093CE027093CF0235
:1001E00008950F931F93CF93DF931F92CDB7DEB780
:1001F0008C0169830E940F116981681741F0C80161
:100200000F90DF91CF911F910F910C9417110F90C8
:10021000DF91CF911F910F9108950C940F118EBD16
:1002200000000DB407FEFDCF8EB50895DF92EF926A
:10023000FF920F931F93CF93DF937C01EA01D22E9D
:10024000882777FD8095982F0E94590A602F8D2D61
:100250000E948F0BB701882777FD8095982F0E9409
:10026000590A61E0012B09F060E08D2D0E948F0B8F
:10027000BE01882777FD8095982FDF91CF911F9140
:100280000F91FF90EF90DF900C94590AEF92FF923C
:100290000F931F93CF93DF937A01672B61F000E0F8
:1002A00010E02DE030E040E050E060E070E088EEEB
:1002B00093E00E94160101E010E02DE030E044EFF1
:1002C00051E060E070E084EF91E00E9416012DE0C3
:1002D00030E048EC50E060E070E088EC90E00E9494
:1002E00016012DE030E048EC50E060E070E088EC72
:1002F00090E00E9416012DE030E044EF51E060E014
:1003000070E084EF91E00E941601C3E0D0E001E0CC
:1003100010E02DE030E048EC50E060E070E088EC68
:1003200090E00E941601219791F72DE030E044EF14
:1003300051E060E070E084EF91E00E941601C4E0BB
:10034000D0E001E010E02DE030E048EC50E060E06B
:1003500070E088EC90E00E941601219791F7EF2859
:1003600061F000E010E02DE030E040E050E060E0BF
:1003700070E088EE93E00E941601DF91CF911F910B
:100380000F91FF90EF900895CF93DF93D82FC62F52
:100390008AE00E948F0B6C2F8D2FDF91CF910C94F0
:1003A0008F0B1F93CF93DF93EC0160E00E94C40199
:1003B00080EA0E940F0180E00E940F01182F61E087
:1003C000CE010E94C40164E070E080E090E00E94F1
:1003D000590A812FDF91CF911F9108950F931F9399
:1003E000CF93DF93082F162FEA0160E0CA010E9425
:1003F000C40182E00E940F01802F0E940F01812F13
:100400000E940F0161E0CE010E94C40164E070E02F
:1004100080E090E0DF91CF911F910F910C94590AE9
:10042000CF93DF93D62FC42F48E050E0682F82E3AC
:100430000E94EE0148E050E06D2F81E30E94EE0142
:1004400048E050E06C2F85E3DF91CF910C94EE01F2
:10045000CF93DF93D62FC42F48E050E0682F82E47B
:100460000E94EE0148E050E06D2F81E40E94EE0111
:1004700048E050E06C2F85E4DF91CF910C94EE01C1
:10048000CF93DF93D62FC42F48E050E0682F82E54A
:100490000E94EE0148E050E06D2F81E50E94EE01E0
:1004A00048E050E06C2F85E5DF91CF910C94EE0190
:1004B00048E050E060E08AE20E94EE0148E050E04F
:1004C00068EB89E20E94EE0148E050E065E088E2D6
:1004D0000E94EE0180910503882331F067E171E00D
:1004E00088E193E00C94330E089548E050E063E017
:1004F0008BE20E94EE0180910503882331F069E3CD
:1005000071E088E193E00C94330E08951F93CF932C
:10051000DF93182FEB0160E0CE010E94C40183E05D
:100520000E940F01812F0E940F0180E00E940F01A5
:10053000182F61E0CE010E94C40164E070E080E009
:1005400090E00E94590A48E050E060E08CE20E948E
:10055000EE01812FDF91CF911F910895CF92DF920D
:10056000EF92FF920F931F93CF93DF93062FC3E079
:10057000D0E048E050E0602F8FE00E94EE0168E09C
:1005800070E08EE00E948602182F0E942A0A6B01FA
:100590007C0160E070E0CB01101791F0613177428F
:1005A0008105910594F468E070E08EE00E94860277
:1005B000182F0E942A0A6C197D098E099F09ECCF19
:1005C000613177428105910564F0809105038823AC
:1005D00031F06AE871E088E193E00E94330E2197E0
:1005E00041F680910503882331F064EB71E088E1E6
:1005F00093E00E94260E80910503882339F04AE09B
:1006000050E0612F88E193E00E94150F809105036F
:10061000882371F06DE771E088E193E0DF91CF917D
:100620001F910F91FF90EF90DF90CF900C94330EBD
:10063000DF91CF911F910F91FF90EF90DF90CF90BE
:100640000895FB01E257FD4F48E050E0682F80819C
:100650000C94EE011F93CF93DF93182FEB0160E012
:10066000CE010E94C401812F0E940F0161E0CE01E2
:100670000E94C40164E070E080E090E0DF91CF91DF
:100680001F910C94590ACF9368E070E080EC0E94AF
:100690002A0368E070E08EE00E948602C82F6CECAE
:1006A00071E088E193E00E94260EC7FD0EC068E06D
:1006B00070E08EE00E948602C82F4AE050E0682F6A
:1006C00088E193E00E94150FF0CF80910503882305
:1006D00031F061EE71E088E193E00E94260E809196
:1006E0000503882341F04AE050E06C2F88E193E055
:1006F000CF910C941C0FCF9108950E9443030E9448
:1007000058020E94750260E080E00C94AE021F93D4
:10071000CF93DF9380910001909101018230910588
:10072000C1F054F4019771F589E080930A0390E2D7
:100730009093FC0281E01CC08330910591F00497F6
:1007400009F589E080930A0390E89093FC0284E025
:100750000FC089E080930A0390E49093FC0282E04A
:1007600007C089E080930A0390E69093FC0283E03F
:100770008093FB029093FA028093F9029093F8021F
:100780008093F70226E040E855E260E070E088E1FF
:1007900093E00E94D10C81E08093060380930503CF
:1007A00061E088E00E94560B61E08AE00E94560BEF
:1007B00060E082E00E94560B60E083E00E94560BEE
:1007C00060E087E00E94560B61E084E00E94560BD7
:1007D00061E08DE00E94560B60E085E00E94560BC0
:1007E00085E00E94C50B9093FF028093FE0285E096
:1007F00090E00E940D01882339F1C0E0D0E060E074
:10080000CE010E9417112196C630D105C1F7C0E074
:10081000D0E011E0CE010E940D01811110E021967F
:10082000C630D105B9F7111109C040E050E061E0D0
:1008300070E081E090E00E944601F7CF6FE072E047
:1008400088E193E00E94330E84E090E00E940D0165
:10085000C82FD0E0209741F040E050E061E070E028
:10086000CE010E944601F8CF80910D03882399F0B4
:100870009FB7F89480910D03813059F48DB3809324
:100880000B032DB380910C03809582238DBB9FBFFA
:1008900002C090930B038CE58CBD1DBC0E943B09EC
:1008A0000E947D0348E06091FB028091FC020E945F
:1008B000100248E06091F9028091FA020E94280239
:1008C00048E06091F7028091F8020E94400282E0C5
:1008D00090E00E940D018093C80283E090E00E94A6
:1008E0000D018093C9028091C8029091C902AA2784
:1008F00097FDA095BA2F8093CC029093CD02A09340
:10090000CE02B093CF02809105038823A1F063E269
:1009100072E088E193E00E94260E4091CC02509153
:10092000CD026091CE027091CF022AE030E088E1E2
:1009300093E00E94F60E80E090E00E940D0180930B
:10094000C60281E090E00E940D018093C702809171
:100950000503882381F067E372E088E193E00E9459
:10096000260E6091C6027091C7024AE050E088E10D
:1009700093E00E94DE0E1092CB021092CA0241E078
:1009800050E06DE870E080E00E94720941E050E0C4
:100990006FEB70E081E00E94720964E670E080E035
:1009A00090E00E94590A0E942A0A60930103709302
:1009B00002038093030390930403DF91CF911F916F
:1009C00008958130910539F08230910531F0892BFD
:1009D00029F421E803C022E801C024E868E070E0BF
:1009E000822F0C942A03EF92FF920F931F93CF93C1
:1009F000DF938B01C0E0D0E0E82EF12CCE15DF05AF
:100A000048F4A701BE01F80181918F010E942103E2
:100A10002196F4CF80E090E0DF91CF911F910F916C
:100A2000FF90EF900C94E1040F931F93CF93DF930B
:100A3000C82F8B0160E0C8010E94C4018C2F0E9466
:100A40000F01CEEBD2E080E00E940F01899382E09B
:100A5000C63CD807C1F761E0C8010E94C40181E02B
:100A6000DF91CF911F910F9108956823613021F498
:100A700068E070E082E905C0623029F468E070E067
:100A800086E90E94140581E008958F929F92AF92AB
:100A9000BF92CF92DF92EF92FF920F931F93CF936B
:100AA000DF936B017C0149015A0120E030E04FE700
:100AB00053EC0E94801087FD0AC020E030E04FE731
:100AC00053E4C701B6010E94990F18167CF520E087
:100AD00030E04FE753E4C701B6010E9480101816BA
:100AE0004CF420E030E04FE753E4C701B6010E9428
:100AF000340F12C020E030E04FE753ECC701B601DD
:100B00000E94990F87FF12C020E030E04FE753E4C6
:100B1000C701B6010E94350F6B017C0120E030E077
:100B2000A9010E9480101816ACF003C0C12CD12C72
:100B30007601C1E0D0E020E030E0A901C701B601B4
:100B40000E94990F87FD02C0C0E0D0E0D195C19509
:100B5000D10902C0C1E0D0E020E030E0A901C50128
:100B6000B4010E94801001E010E0181674F020E03B
:100B700030E0A901C501B4010E94990F87FD02C0B0
:100B800000E010E0119501951109C017D10759F443
:100B900020E030E0A901C701B6010E94990F882327
:100BA00011F081E000C0DF91CF911F910F91FF9074
:100BB000EF90DF90CF90BF90AF909F908F9008956F
:100BC0004F925F926F927F928F929F92AF92BF925D
:100BD000CF92DF92EF92FF92CF93DF9300D000D0BD
:100BE000CDB7DEB76B017C0120910E0130910F0172
:100BF00040911001509111010E9484104B015C0141
:100C00006093E0027093E1028093E2029093E3022A
:100C10006091D4027091D5028091D6029091D70252
:100C2000A70196010E944505882321F020E030E0CD
:100C3000A9010AC02DEC3CEC4CE45DE3C701B60110
:100C40000E9484109B01AC016091DC027091DD0276
:100C50008091DE029091DF020E94350F6093DC02EA
:100C60007093DD028093DE029093DF0220910A01EF
:100C700030910B0140910C0150910D016091DC020B
:100C80007091DD028091DE029091DF020E9484105B
:100C90002B013C016093DC027093DD028093DE0245
:100CA0009093DF028091D0029091D102A091D20264
:100CB000B091D30289839A83AB83BC8320910601D0
:100CC000309107014091080150910901C701B60117
:100CD0000E94841029813A814B815C810E94340FEB
:100CE00020910201309103014091040150910501CE
:100CF0000E9484106B017C016093D8027093D9022A
:100D00008093DA029093DB02A3019201C501B40142
:100D10000E94350FA70196010E94350F4B015C011F
:100D20006093D4027093D5028093D6029093D70239
:100D300020E030E04FE753E40E94801018168CF05A
:100D400020E030E04FE753ECC501B4010E94990F59
:100D500087FF0DC0812C912C9FE7A92E93ECB92E13
:100D600006C0812C912C8FE7A82E83E4B82E2DECA1
:100D70003CEC4CE45DE3C701B6010E9484109B018A
:100D8000AC0169817A818B819C810E94350F6093CF
:100D9000D0027093D1028093D2029093D302C50106
:100DA000B4010F900F900F900F90DF91CF91FF90B3
:100DB000EF90DF90CF90BF90AF909F908F907F90FB
:100DC0006F905F904F900895CF92DF92EF92FF92D5
:100DD000CF93DF931092F002109209031092080350
:100DE00081E08093070387E00E94C50B892B79F48B
:100DF00088E090E00E94D1018093F00263E00E94BD
:100E0000350569E170E080E090E00E94590A409168
:100E1000BF02242F30E0809100019091010128173A
:100E2000390709F008C28091BE0281110BC01092EF
:100E30000003E6EBF2E0119292E0EE3BF907D9F7FE
:100E40004093B7029FEF980F953058F490910003AC
:100E5000913039F08093B60282E08093B8024093DB
:100E6000B70266EB72E088E00E94F30469E170E08B
:100E700080E090E00E94590A8091BE02823009F021
:100E80005CC080910003813009F457C06091CC02AE
:100E900080E090E00E94F1008091CC029091CD0220
:100EA000A091CE02B091CF02692F7A2F8B2F992774
:100EB00087FD9A9581E090E00E94F10080E090E04B
:100EC0000E940D01C091CC02F090CD02D1E08C13B4
:100ED000D0E081E090E00E940D018F1129C0DD2358
:100EE00039F1C093C6028093C7028091050388231D
:100EF00081F06BE472E088E193E00E94260E60913D
:100F0000C6027091C7024AE050E088E193E00E9477
:100F1000DE0E81E08093B80260E084E090E00E9401
:100F2000F1006EE572E088E193E00E94330E05C0A7
:100F300062E084E090E00E94F1008091BE02833084
:100F400079F49091000381E0981751F0109212010A
:100F50008093B80265E672E088E193E00E94330E68
:100F60008091BE02843079F49091000381E098175B
:100F700051F0809312018093B8026AE772E088E131
:100F800093E00E94330E8091000391E08927209125
:100F9000BE02213081F5882309F480C08091C2020D
:100FA0008093CA028091C1028093CB026091CA02F1
:100FB0007091CB02882777FD8095982F0E94D00FE3
:100FC0006093EC027093ED028093EE029093EF0237
:100FD0002091C30221110BC0DC01CB01B0588093DA
:100FE000EC029093ED02A093EE02B093EF0281E049
:100FF0008093B80253C0253009F050C0882309F40B
:101000004DC0909300036091CC0282E090E00E947A
:10101000F1008091CC029091CD02A091CE02B091CE
:10102000CF02692F7A2F8B2F992787FD9A9583E01E
:1010300090E00E94F10082E090E00E940D01809318
:10104000C80283E090E00E940D018093C902C09124
:10105000C802D091C9026E01EE24D7FCE094FE2CA8
:10106000C092CC02D092CD02E092CE02F092CF029A
:1010700082E090E00E940D01D1E08C13D0E083E08B
:1010800090E00E940D018D1104C0DD2311F060E09D
:1010900001C063E084E090E00E94F10080911201C1
:1010A000882309F4C8C06091CC027091CD02809170
:1010B000CE029091CF020E94D00F6B017C01609311
:1010C000E4027093E5028093E6029093E702609158
:1010D000CA027091CB028091C6029091C702680F3C
:1010E000791F882777FD8095982F0E94D00F9B014C
:1010F000AC016093EC027093ED028093EE0290934A
:10110000EF02C701B6010E94340F6B017C0120E0A1
:1011100030E0A9010E94801018165CF42AE939E930
:1011200049E15EE3C701B6010E94990F18165CF011
:1011300013C02AE939E949E15EEBC701B6010E9413
:10114000801087FF09C0C092E802D092E902E092C5
:10115000EA02F092EB0208C01092E8021092E90253
:101160001092EA021092EB026091E8027091E9029B
:101170008091EA029091EB020E94E0056B017C01F4
:1011800020E030E0A9016091E8027091E9028091CD
:10119000EA029091EB020E94990F882391F020E0DF
:1011A00030E0A901C701B6010E94990F87FF0CC06A
:1011B00060E084E00E948F0BF7FAF094F7F8F09467
:1011C00007C0C12CD12C760161E084E00E948F0B16
:1011D0008091CA029091CB02865A9F4F853B910520
:1011E00058F4C701B6010E949D0F80910A030E9426
:1011F000CE0A1092FD0209C060E070E080910A03FF
:101200000E94CE0A81E08093FD02C1E020E030E040
:10121000A901C701B6010E94990F8111C0E0809118
:10122000FD028C2B41F08091BE02813021F480932D
:10123000B8021092FD02DF91CF91FF90EF90DF9006
:10124000CF9008958091FC028093F4028091FA027D
:101250008093F5028091F8028093F6028091FB0260
:101260008093F1028091F9028093F2028091F7025B
:101270008093F3020895CF93CFB7F89480910E0333
:10128000811127C0EAE9F0E08491E6E8F0E094916A
:10129000E82FF0E0EE0FFF1FE854FF4FA591B49147
:1012A0008C91892321F461E08AE00E948F0B61E038
:1012B0008AE00E94560B8CB580618CBD8CB5806431
:1012C0008CBD61E08DE00E94560B61E08BE00E94D6
:1012D000560B80910E038F5F80930E03CFBFCF918B
:1012E000089508958230E8F4E82FF0E0EE0FFF1F34
:1012F000ED5EFE4F71836083813041F08091690023
:101300008C7F842B80936900E89A0895809169000E
:10131000440F551F440F551F837F842B8093690012
:10132000E99A08951F920F920FB60F9211242F93EE
:101330003F934F935F936F937F938F939F93AF935D
:10134000BF93EF93FF93E0911301F091140109957E
:10135000FF91EF91BF91AF919F918F917F916F918D
:101360005F914F913F912F910F900FBE0F901F9063
:1013700018951F920F920FB60F9211242F933F933F
:101380004F935F936F937F938F939F93AF93BF938D
:10139000EF93FF93E0911501F09116010995FF91EC
:1013A000EF91BF91AF919F918F917F916F915F91DD
:1013B0004F913F912F910F900FBE0F901F90189556
:1013C0001F920F920FB60F9211242F933F938F937A
:1013D0009F93AF93BF938091100390911103A091BD
:1013E0001203B091130330910F0323E0230F2D3725
:1013F00020F40196A11DB11D05C026E8230F029619
:10140000A11DB11D20930F0380931003909311032E
:10141000A0931203B09313038091140390911503CA
:10142000A0911603B09117030196A11DB11D8093E1
:10143000140390931503A0931603B0931703BF9161
:10144000AF919F918F913F912F910F900FBE0F9071
:101450001F9018952FB7F8946091100370911103A5
:1014600080911203909113032FBF08953FB7F89412
:101470008091140390911503A0911603B091170366
:1014800026B5A89B05C02F3F19F00196A11DB11DDF
:101490003FBF6627782F892F9A2F620F711D811DFC
:1014A000911D42E0660F771F881F991F4A95D1F75B
:1014B00008958F929F92AF92BF92CF92DF92EF9258
:1014C000FF926B017C010E94360A4B015C01C11442
:1014D000D104E104F104F1F00E94330F0E94360AB6
:1014E000681979098A099B09683E7340810591054D
:1014F00070F321E0C21AD108E108F10888EE880EE5
:1015000083E0981EA11CB11CC114D104E104F104B4
:1015100029F7DDCFFF90EF90DF90CF90BF90AF9095
:101520009F908F900895789484B5826084BD84B52F
:10153000816084BD85B5826085BD85B5816085BDCE
:10154000EEE6F0E0808181608083E1E8F0E01082E7
:10155000808182608083808181608083E0E8F0E028
:10156000808181608083E1EBF0E080818460808312
:10157000E0EBF0E0808181608083EAE7F0E0808149
:1015800084608083808182608083808181608083A9
:101590008081806880831092C10008951F93CF934B
:1015A000DF93182FEB0161E00E94560B209711F496
:1015B00060E004C0CF3FD10539F461E0812FDF91B5
:1015C000CF911F910C948F0BE12FF0E0E859FF4F62
:1015D000E491E330F9F048F4E130B9F0E230A1F5FC
:1015E00084B5806284BDC8BD34C0E730E9F0E8301E
:1015F00019F1E43049F58091800080628093800089
:10160000D0938B00C0938A0024C084B5806884BDC9
:10161000C7BD1FC080918000806880938000D093F8
:101620008900C093880015C08091B00080688093C5
:10163000B000C093B3000DC08091B0008062809371
:10164000B000C093B40005C0C038D1050CF0B5CFD0
:10165000AFCFDF91CF911F910895833081F028F4AF
:10166000813099F08230A1F008958730A9F0883058
:10167000B9F08430D1F4809180008F7D03C08091D7
:1016800080008F7780938000089584B58F7702C0A3
:1016900084B58F7D84BD08958091B0008F7703C09D
:1016A0008091B0008F7D8093B0000895CF93DF9339
:1016B00090E0FC01E458FF4F2491FC01E057FF4FFC
:1016C0008491882349F190E0880F991FFC01E85428
:1016D000FF4FA591B49182559F4FFC01C591D491C4
:1016E0009FB7611108C0F8948C91209582238C9348
:1016F000888182230AC0623051F4F8948C91322F91
:10170000309583238C938881822B888304C0F8943E
:101710008C91822B8C939FBFDF91CF9108950F9373
:101720001F93CF93DF931F92CDB7DEB7282F30E002
:10173000F901E859FF4F8491F901E458FF4F1491E2
:10174000F901E057FF4F04910023C9F0882321F0ED
:1017500069830E942D0B6981E02FF0E0EE0FFF1FDF
:10176000E255FF4FA591B4919FB7F8948C91611108
:1017700003C01095812301C0812B8C939FBF0F90D4
:10178000DF91CF911F910F910895CF93DF93282F71
:1017900030E0F901E859FF4F8491F901E458FF4F17
:1017A000D491F901E057FF4FC491CC2391F08111FE
:1017B0000E942D0BEC2FF0E0EE0FFF1FEC55FF4FBA
:1017C000A591B4912C912D2381E090E021F480E04B
:1017D00002C080E090E0DF91CF910895FC01818DFF
:1017E000228D90E0805C9F4F821B91098F73992717
:1017F0000895FC01918D828D981731F0828DE80F4C
:10180000F11D858D90E008958FEF9FEF0895FC0105
:10181000918D828D981761F0828DDF01A80FB11D27
:101820005D968C91928D9F5F9F73928F90E008954B
:101830008FEF9FEF08958BE89DE0892B49F080E0C2
:1018400090E0892B29F00E948B0D81110C940000EF
:101850000895FC01848DDF01A80FB11DA35ABF4F6D
:101860002C91848D90E001968F739927848FA6899F
:10187000B7892C93A089B1898C9180648C93938DC6
:10188000848D981306C00288F389E02D80818F7DB6
:1018900080830895CF93DF93EC01888D8823C9F06E
:1018A000EA89FB89808185FD05C0A889B9898C9169
:1018B00086FD0FC00FB607FCF5CF808185FFF2CF04
:1018C000A889B9898C9185FFEDCFCE010E94290CA2
:1018D000E7CFDF91CF910895CF92DF92FF920F93E0
:1018E0001F93CF93DF931F92CDB7DEB76C0181E0DA
:1018F000D60158968C9358975B969C915B975C9613
:101900008C915C97981307C05096ED91FC9151977C
:10191000808185FD2EC0F601038D10E00F5F1F4F03
:101920000F731127F02EF601848DF81211C00FB637
:1019300007FCF9CFD6015096ED91FC91519780812B
:1019400085FFF1CFC60169830E94290C6981EBCF25
:10195000838DE80FF11DE35AFF4F6083D6015B963C
:101960000C935B975296ED91FC9153978081806226
:101970000CC0D6015696ED91FC9157976083509616
:10198000ED91FC91519780818064808381E090E0AB
:101990000F90DF91CF911F910F91FF90DF90CF902B
:1019A0000895BF92CF92DF92EF92FF92CF93DF9391
:1019B000EC016A017B01B22EE889F98982E080831B
:1019C000411581EE580761057105A1F060E079E0ED
:1019D0008DE390E0A70196010E94E71021503109A4
:1019E000410951095695479537952795211580E16D
:1019F000380798F0E889F989108260E874E88EE188
:101A000090E0A70196010E94E71021503109410999
:101A100051095695479537952795EC85FD85308377
:101A2000EE85FF852083188EEC89FD89B082EA89D6
:101A3000FB89808180618083EA89FB89808188605D
:101A40008083EA89FB89808180688083EA89FB89B9
:101A500080818F7D8083DF91CF91FF90EF90DF9029
:101A6000CF90BF9008951F920F920FB60F9211243E
:101A70002F938F939F93EF93FF93E0912803F0911F
:101A800029038081E0912E03F0912F0382FD12C083
:101A90009081809131038F5F8F7320913203821781
:101AA00051F0E0913103F0E0E85EFC4F958F8093B8
:101AB000310301C08081FF91EF919F918F912F9110
:101AC0000F900FBE0F901F9018951F920F920FB698
:101AD0000F9211242F933F934F935F936F937F93B4
:101AE0008F939F93AF93BF93EF93FF9388E193E01E
:101AF0000E94290CFF91EF91BF91AF919F918F911F
:101B00007F916F915F914F913F912F910F900FBEF9
:101B10000F901F90189588E193E00E94EE0B21E052
:101B2000892B09F420E0822F089510921B03109254
:101B30001A0388EE93E0A0E0B0E080931C0390933A
:101B40001D03A0931E03B0931F038AE992E09093B4
:101B500019038093180385EC90E0909325038093FC
:101B6000240384EC90E0909327038093260380EC79
:101B700090E0909329038093280381EC90E0909368
:101B80002B0380932A0382EC90E090932D038093A3
:101B90002C0386EC90E090932F0380932E031092F9
:101BA00031031092320310923303109234030895DC
:101BB00008950E94930A0E94D80D0E948703CBE1EA
:101BC000DCE00E94E4062097E1F30E941B0CF9CFB1
:101BD000CF92DF92EF92FF920F931F93CF93DF93F9
:101BE0007C016A01EB0100E010E00C151D0571F0AD
:101BF0006991D701ED91FC910190F081E02DC70131
:101C00000995892B19F00F5F1F4FEFCFC801DF91A6
:101C1000CF911F910F91FF90EF90DF90CF9008959B
:101C20006115710581F0DB010D900020E9F7AD0130
:101C300041505109461B570BDC01ED91FC9102808C
:101C4000F381E02D099480E090E008950C94100E4B
:101C5000DC01ED91FC910190F081E02D099466EAA0
:101C600072E00C94100E0F931F93CF93DF93EC014F
:101C70000E94100E8C01CE010E942F0E800F911F2A
:101C8000DF91CF911F910F9108958F929F92AF9204
:101C9000BF92DF92EF92FF920F931F93CF93DF9348
:101CA000CDB7DEB7A1970FB6F894DEBF0FBECDBF9C
:101CB0007C01F42FD52ECB0119A2223008F42AE0A2
:101CC0008E010F5D1F4F822E912CA12CB12C6F2FF6
:101CD0007D2DA50194010E94E710F22FD32ECA0199
:101CE000015011096A3014F4E0E301C0E7E3E60FA4
:101CF000D801EC93232B242B252B49F7B801C701DE
:101D00000E94100EA1960FB6F894DEBF0FBECDBF95
:101D1000DF91CF911F910F91FF90EF90DF90BF90D7
:101D2000AF909F908F900895CF92DF92EF92FF92A5
:101D30000F931F93CF93DF93EC016A017B01211571
:101D4000310579F4E881F9810190F081E02D642F6B
:101D5000DF91CF911F910F91FF90EF90DF90CF9087
:101D600009942A303105E9F477FF1AC06DE20E9428
:101D7000280E8C0144275527BA014C195D096E09BC
:101D80007F092AE0CE010E94450E800F911FDF914E
:101D9000CF911F910F91FF90EF90DF90CF9008951A
:101DA0002AE0B701A601CE01DF91CF911F910F91DB
:101DB000FF90EF90DF90CF900C94450E0F931F9300
:101DC000CF93DF93EC019A01AB01662757FD609535
:101DD000762F0E94940E8C01CE010E942F0E800F50
:101DE000911FDF91CF911F910F9108950F931F9332
:101DF000CF93DF93EC010E94940E8C01CE010E94E0
:101E00002F0E800F911FDF91CF911F910F91089599
:101E10002115310541F4DC01ED91FC910190F08137
:101E2000E02D642F09940C94450E9A01462F50E042
:101E300060E070E00C94080F0F931F93CF93DF9333
:101E4000EC019A01462F50E060E070E00E94080F1C
:101E50008C01CE010E942F0E800F911FDF91CF9138
:101E60001F910F91089508955058BB27AA270ED0AF
:101E70000DC1FED030F003D120F031F49F3F11F4BA
:101E80001EF4F3C00EF4E095E7FBE9C0E92F0FD193
:101E900080F3BA17620773078407950718F071F487
:101EA0009EF527C10EF4E0950B2EBA2FA02D0B0145
:101EB000B90190010C01CA01A0011124FF27591B8F
:101EC00099F0593F50F4503E68F11A16F040A22F95
:101ED000232F342F4427585FF3CF46953795279506
:101EE000A795F0405395C9F77EF41F16BA0B620B05
:101EF000730B840BBAF09150A1F0FF0FBB1F661F4C
:101F0000771F881FC2F70EC0BA0F621F731F841F8E
:101F100048F4879577956795B795F7959E3F08F0B4
:101F2000B3CF9395880F08F09927EE0F9795879573
:101F3000089571D008F481E0089504D06894B11137
:101F4000D9C00895BCD088F09F5790F0B92F992739
:101F5000B751A0F0D1F0660F771F881F991F1AF0B4
:101F6000BA95C9F712C0B13081F0C3D0B1E008957D
:101F7000C0C0672F782F8827B85F39F0B93FCCF3FE
:101F8000869577956795B395D9F73EF490958095AA
:101F9000709561957F4F8F4F9F4F0895E89409C0CA
:101FA00097FB3EF490958095709561957F4F8F4F8C
:101FB0009F4F9923A9F0F92F96E9BB279395F695A2
:101FC000879577956795B795F111F8CFFAF4BB0F20
:101FD00011F460FF1BC06F5F7F4F8F4F9F4F16C084
:101FE000882311F096E911C0772321F09EE8872F0E
:101FF000762F05C0662371F096E8862F70E060E0CA
:102000002AF09A95660F771F881FDAF7880F969542
:10201000879597F90895990F0008550FAA0BE0E8E6
:10202000FEEF16161706E807F907C0F0121613069A
:10203000E407F50798F0621B730B840B950B39F4DA
:102040000A2661F0232B242B252B21F408950A2640
:1020500009F4A140A6958FEF811D811D089597F980
:102060009F6780E870E060E008959FEF80EC08953E
:1020700000240A9416161706180609060895002467
:102080000A9412161306140605060895092E0394E1
:10209000000C11F4882352F0BB0F40F4BF2B11F455
:1020A00060FF04C06F5F7F4F8F4F9F4F089557FDB4
:1020B0009058440F551F59F05F3F71F04795880FB6
:1020C00097FB991F61F09F3F79F08795089512164D
:1020D00013061406551FF2CF4695F1DF08C01616F9
:1020E00017061806991FF1CF8695710561050894AA
:1020F0000895E894BB2766277727CB0197F90895C1
:102100008ADF08F48FEF08950BD0C0CFB1DF28F03D
:10211000B6DF18F0952309F0A2CFA7CF1124EACF9C
:10212000C6DFA0F3959FD1F3950F50E0551F629F36
:10213000F001729FBB27F00DB11D639FAA27F00D20
:10214000B11DAA1F649F6627B00DA11D661F829F47
:102150002227B00DA11D621F739FB00DA11D621F2C
:10216000839FA00D611D221F749F3327A00D611D49
:10217000231F849F600D211D822F762F6A2F11242B
:102180009F5750408AF0E1F088234AF0EE0FFF1F7E
:10219000BB1F661F771F881F91505040A9F79E3FB5
:1021A000510570F05CCFA6CF5F3FECF3983EDCF3B7
:1021B000869577956795B795F795E7959F5FC1F7F2
:1021C000FE2B880F911D9695879597F90895A1E2AA
:1021D0001A2EAA1BBB1BFD010DC0AA1FBB1FEE1FA1
:1021E000FF1FA217B307E407F50720F0A21BB30BEC
:1021F000E40BF50B661F771F881F991F1A9469F768
:1022000060957095809590959B01AC01BD01CF01C3
:102210000895EE0FFF1F0590F491E02D0994F999B0
:10222000FECF92BD81BDF89A992780B50895262FDB
:10223000F999FECF1FBA92BD81BD20BD0FB6F894AB
:0E224000FA9AF99A0FBE01960895F894FFCF0E
:10224E0004002C8F9440E1C89F3EA2D5F9BE4CD914
:10225E0029C101710971094D637032353135206321
:10226E006F6E66696775726520627573207375632C
:10227E0063657366756C6C79004D637032353135FC
:10228E0020636F6E66696775726520696E7465721C
:10229E0072757074732073756363657366756C6C99
:1022AE0079004D63703235313520636F6E66696724
:1022BE007572652072782062756666657220737518
:1022CE006363657366756C6C790041626F7274201E
:1022DE0077616974696E672E204D61782E20776163
:1022EE006974696E672074696D65207265616368D3
:1022FE0065642E004D637032353135207377697405
:10230E00636820746F206D6F6465200054727920AD
:10231E00746F207265736574204D6370323531357C
:10232E00004D6370323531352072657365742073DC
:10233E00756363657366756C6C7920616E6420736A
:10234E00776974636820646F206D6F646520005236
:10235E006561647920726573657420656570726F4E
:10236E006D2E00656E636F64657256616C756520C7
:10237E006C6173743A20007265665F706F732E64C1
:10238E00617461206C6173743A20007265665F70CF
:10239E006F732E64617461206E65773A20006565F7
:1023AE0070726F6D0064697361626C65506964432D
:1023BE006F6E74726F6C6C657200656E61626C65C7
:1023CE00506964436F6E74726F6C6C657200363751
:1023DE0038393A3B3C3D000000006C0CE80DEE0B2A
:1023EE00070CF90B4A0C0D0A006E616E00696E66E1
:0623FE00006F766600008E
:00000001FF
