:100000000C9462000C94E4060C940B070C948A0088
:100010000C948A000C948A000C948A000C948A0038
:100020000C948A000C948A000C948A000C948A0028
:100030000C948A000C948A000C948A000C948A0018
:100040000C9432070C948A000C94850A0C94B70A1D
:100050000C948A000C948A000C948A000C948A00F8
:100060000C948A000C948A00000000080002010031
:100070000003040700000000000000000102040863
:100080001020408001020408102001020408102002
:10009000040404040404040402020202020203032E
:1000A00003030303000000002300260029000000D2
:1000B0000000250028002B0000000000240027007D
:1000C0002A00E70A11241FBECFEFD8E0DEBFCDBF64
:1000D00012E0A0E0B1E0E4E7FFE102C005900D927C
:1000E000A036B107D9F723E0A0E6B2E001C01D9227
:1000F000A134B207E1F710E0C4ECD0E004C02297CD
:10010000FE010E94B40FC23CD107C9F70E942B0B1D
:100110000C94B80F0C94000082E00E94170901971C
:1001200071F483E00E94170940918202509183028A
:100130006091840270918502892B99F40DC083E04F
:100140000E941709409182025091830260918402BB
:1001500070918502019729F44F5F5F4F6F4F7F4F7A
:1001600004C04150510961097109409382025093C2
:1001700083026093840270938502089583E00E9455
:100180001709019771F482E00E94170940918202D9
:10019000509183026091840270918502019799F4D5
:1001A0000DC082E00E9417094091820250918302A3
:1001B0006091840270918502892B29F44F5F5F4F13
:1001C0006F4F7F4F04C0415051096109710940933D
:1001D0008202509383026093840270938502089593
:1001E0008EBD00000DB407FEFDCF8EB508958F9231
:1001F0009F92AF92BF92CF92DF92EF92FF920F93B6
:100200001F93CF93DF936B017C0149015A0120E0DA
:1002100030E04FE753EC0E94250F87FD0AC020E035
:1002200030E04FE753E4C701B6010E94D60D18161F
:100230007CF520E030E04FE753E4C701B6010E94AF
:10024000250F18164CF420E030E04FE753E4C701C7
:10025000B6010E94710D12C020E030E04FE753EC70
:10026000C701B6010E94D60D87FF12C020E030E022
:100270004FE753E4C701B6010E94720D6B017C0188
:1002800020E030E0A9010E94250F1816ACF003C051
:10029000C12CD12C7601C1E0D0E020E030E0A901F2
:1002A000C701B6010E94D60D87FD02C0C0E0D0E0B4
:1002B000D195C195D10902C0C1E0D0E020E030E085
:1002C000A901C501B4010E94250F01E010E0181634
:1002D00074F020E030E0A901C501B4010E94D60D00
:1002E00087FD02C000E010E0119501951109C017CB
:1002F000D10759F420E030E0A901C701B6010E94FE
:10030000D60D882311F081E000C0DF91CF911F91BD
:100310000F91FF90EF90DF90CF90BF90AF909F90A4
:100320008F9008954F925F926F927F928F929F92DB
:10033000AF92BF92CF92DF92EF92FF92CF93DF9373
:1003400000D000D0CDB7DEB76B017C0120910C014D
:1003500030910D0140910E0150910F010E94290F23
:100360004B015C0160937002709371028093720282
:1003700090937302609164027091650280916602AD
:1003800090916702A70196010E94F700882321F04F
:1003900020E030E0A9010AC02AE037ED43E25DE346
:1003A000C701B6010E94290F9B01AC0160916C024C
:1003B00070916D0280916E0290916F020E94720D99
:1003C00060936C0270936D0280936E0290936F0243
:1003D000209108013091090140910A0150910B01CF
:1003E00060916C0270916D0280916E0290916F022B
:1003F0000E94290F2B013C0160936C0270936D02E7
:1004000080936E0290936F028091600290916102DE
:10041000A0916202B091630289839A83AB83BC830B
:10042000209104013091050140910601509107018E
:10043000C701B6010E94290F29813A814B815C8155
:100440000E94710D20910001309101014091020143
:10045000509103010E94290F6B017C016093680297
:100460007093690280936A0290936B02A3019201D8
:10047000C501B4010E94720DA70196010E94720D80
:100480004B015C0160936402709365028093660285
:100490009093670220E030E04FE753E40E94250F7D
:1004A00018168CF020E030E04FE753ECC501B401A2
:1004B0000E94D60D87FF0DC0812C912C9FE7A92E9D
:1004C00093ECB92E06C0812C912C8FE7A82E83E4E3
:1004D000B82E2AE037ED43E25DE3C701B6010E9482
:1004E000290F9B01AC0169817A818B819C810E94DB
:1004F000720D609360027093610280936202909328
:100500006302C501B4010F900F900F900F90DF911F
:10051000CF91FF90EF90DF90CF90BF90AF909F90E2
:100520008F907F906F905F904F900895CF93DF935F
:10053000D82FC62F8AE00E94E1086C2F8D2FDF9103
:10054000CF910C94E1081F93CF93DF93EC0160E00F
:100550000E94960280EA0E94F00080E00E94F00073
:10056000182F61E0CE010E94960262E070E080E008
:1005700090E00E94AB07812FDF91CF911F910895EA
:100580000F931F93CF93DF93082F162FEA0160E09C
:10059000CA010E94960282E00E94F000802F0E9411
:1005A000F000812F0E94F00061E0CE010E949602CF
:1005B00062E070E080E090E0DF91CF911F910F91B9
:1005C0000C94AB07CF93DF93D62FC42F48E050E0B5
:1005D000682F82E30E94C00248E050E06D2F81E363
:1005E0000E94C00248E050E06C2F85E3DF91CF917C
:1005F0000C94C002CF93DF93D62FC42F48E050E075
:10060000682F82E40E94C00248E050E06D2F81E430
:100610000E94C00248E050E06C2F85E4DF91CF914A
:100620000C94C002CF93DF93D62FC42F48E050E044
:10063000682F82E50E94C00248E050E06D2F81E5FE
:100640000E94C00248E050E06C2F85E5DF91CF9119
:100650000C94C00248E050E060E08AE20E94C002D0
:1006600048E050E068EB89E20E94C00248E050E0B8
:1006700065E088E20E94C00280918A02882331F0FE
:1006800064E171E084EA92E00C94850B089548E0FF
:1006900050E063E08BE20E94C00280918A028823CE
:1006A00031F066E371E084EA92E00C94850B0895E2
:1006B0001F93CF93DF93182FEB0160E0CE010E94D0
:1006C000960283E00E94F000812F0E94F00080E0FB
:1006D0000E94F000182F61E0CE010E94960262E0B5
:1006E00070E080E090E00E94AB0748E050E060E0FE
:1006F0008CE20E94C002812FDF91CF911F9108955B
:10070000CF92DF92EF92FF920F931F93CF93DF93DD
:10071000062FC3E0D0E048E050E0602F8FE00E9459
:10072000C00268E070E08EE00E945803182F0E941B
:100730007C076B017C0160E070E0CB01101791F049
:10074000613177428105910594F468E070E08EE0B4
:100750000E945803182F0E947C076C197D098E098E
:100760009F09ECCF613177428105910564F080915A
:100770008A02882331F067E871E084EA92E00E94FF
:10078000850B219741F680918A02882331F061EB35
:1007900071E084EA92E00E94780B80918A028823BB
:1007A00039F04AE050E0612F84EA92E00E94550C53
:1007B00080918A02882371F06AE771E084EA92E00E
:1007C000DF91CF911F910F91FF90EF90DF90CF902D
:1007D0000C94850BDF91CF911F910F91FF90EF90BB
:1007E000DF90CF900895FB01E75CFD4F48E050E0BB
:1007F000682F80810C94C0021F93CF93DF93182F32
:10080000EB0160E0CE010E949602812F0E94F00071
:1008100061E0CE010E94960262E070E080E090E02C
:10082000DF91CF911F910C94AB07CF9368E070E0FC
:1008300080EC0E94FC0368E070E08EE00E945803A8
:10084000C82F69EC71E084EA92E00E94780BC7FD42
:1008500007C068E070E08EE00E945803C82FF7CF11
:1008600080918A02882331F06EED71E084EA92E093
:100870000E94780B80918A02882341F04AE050E080
:100880006C2F84EA92E0CF910C945C0CCF91089588
:100890000E9415040E942A030E94470360E080E042
:1008A0000C94800326E040E855E260E070E084EAC2
:1008B00092E00E94230A81E08093910210928A02C2
:1008C00061E088E00E94A80861E08AE00E94A80830
:1008D00060E082E00E94A80860E083E00E94A8082F
:1008E00060E087E00E94A80861E084E00E94A80818
:1008F00080919902882399F09FB7F894809199028A
:10090000813059F48DB3809397022DB38091980272
:10091000809582238DBB9FBF02C0909397028CE588
:100920008CBD1DBC0E948D060E94480443E062E01D
:1009300080E40E94E20243E062E080E40E94FA0266
:1009400043E062E080E40E9412030E947C0760930F
:10095000860270938702809388029093890241E017
:1009600050E06CE870E080E00E94C40641E050E096
:100970006EEB70E081E00E94C40664E670E080E007
:1009800090E00C94AB078130910539F082309105ED
:1009900031F0892B29F421E803C022E801C024E8C2
:1009A00068E070E0822F0C94FC03CF92DF92EF920C
:1009B000FF920F931F93CF93DF9300D01F92CDB779
:1009C000DEB7182F7B0160E0C7010E949602812FDD
:1009D0000E94F0008E010F5F1F4F6E0184E0C80E71
:1009E000D11C80E00E94F000F80181938F01EC158A
:1009F000FD05B9F761E0C7010E949602898190E088
:100A000090938102809380028B81809395028A81EA
:100A10008093960281E00F900F900F90DF91CF911D
:100A20001F910F91FF90EF90DF90CF900895682372
:100A3000613021F468E070E082E905C0623029F499
:100A400068E070E086E90E94D50481E00895CF92C5
:100A5000DF92EF92FF92CF93DF9310928E0210926B
:100A600094021092930281E080939202809191020D
:100A70008823C1F18091820290918302A091840227
:100A8000B0918502CC97A105B10534F462E370E022
:100A900089E00E94200807C060E070E089E00E94C1
:100AA0002008109291026CE072E084EA92E00E94C9
:100AB000780B609182027091830280918402909100
:100AC00085020E94750E22E13EE64AE25CE30E9446
:100AD000290FAB01BC0122E030E084EA92E00E94E1
:100AE0005E0DC4CF87E00E941709019739F461E0D9
:100AF00070E080E090E00E94AB07F4CF88E090E0E7
:100B00000E94A30280938E0263E00E941705609109
:100B1000950270919602882777FD8095982F0E9404
:100B2000750E6B017C0160937C0270937D02809353
:100B30007E0290937F026091820270918302809185
:100B40008402909185020E94750E22E13EE64AE2FF
:100B50005CE30E94290F6093740270937502809386
:100B6000760290937702A70196010E94710D6B01A6
:100B70007C0120E030E0A9010E94250F18165CF4EA
:100B80002AE939E949E15EE3C701B6010E94D60DC1
:100B900018165CF013C02AE939E949E15EEBC70198
:100BA000B6010E94250F87FF09C0C0927802D0923B
:100BB0007902E0927A02F0927B0208C010927802E9
:100BC0001092790210927A0210927B0269E172E02F
:100BD00084EA92E00E94780B409178025091790269
:100BE00060917A0270917B0222E030E084EA92E028
:100BF0000E945E0D609178027091790280917A0274
:100C000090917B020E9492016B017C0165E272E08F
:100C100084EA92E00E94780BC701B6010E94420E5E
:100C20004AE050E084EA92E00E94300C20E030E09C
:100C3000A901C701B6010E94D60D87FF09C061E076
:100C400084E00E94E108F7FAF094F7F8F09404C009
:100C500060E084E00E94E108C701B6010E94420EF4
:100C600089E00E94200864E170E080E090E00E944A
:100C7000AB0760918202709183028091840290910F
:100C800085020E94750E22E13EE64AE25CE30E9484
:100C9000290F20E030E040E251E40E94290F0E9439
:100CA000420E7093900260938F0277FF0AC01092F9
:100CB0008B027195619571097093900260938F0218
:100CC00003C081E080938B0290918F02809190020B
:100CD00090938C0280938D02CBE8D2E0E12CF12C32
:100CE00043E050E0B70189910E94F3038FEFE81AC7
:100CF000F80A83E0E816F10499F780E090E00E949A
:100D0000C30464E170E080E090E0DF91CF91FF9058
:100D1000EF90DF90CF900C94AB07CF93CFB7F894C0
:100D200080919A02811127C0EAE9F0E08491E6E817
:100D3000F0E09491E82FF0E0EE0FFF1FE854FF4F32
:100D4000A591B4918C91892321F461E08AE00E94FD
:100D5000E10861E08AE00E94A8088CB580618CBD42
:100D60008CB580648CBD61E08DE00E94A80861E0D4
:100D70008BE00E94A80880919A028F5F80939A026C
:100D8000CFBFCF91089508958230E8F4E82FF0E0C6
:100D9000EE0FFF1FE05FFE4F71836083813041F0F3
:100DA000809169008C7F842B80936900E89A089574
:100DB00080916900440F551F440F551F837F842B7A
:100DC00080936900E99A08951F920F920FB60F92CF
:100DD00011242F933F934F935F936F937F938F9340
:100DE0009F93AF93BF93EF93FF93E0911001F09126
:100DF00011010995FF91EF91BF91AF919F918F9153
:100E00007F916F915F914F913F912F910F900FBE06
:100E10000F901F9018951F920F920FB60F921124EA
:100E20002F933F934F935F936F937F938F939F93F2
:100E3000AF93BF93EF93FF93E0911201F0911301F1
:100E40000995FF91EF91BF91AF919F918F917F9104
:100E50006F915F914F913F912F910F900FBE0F9027
:100E60001F9018951F920F920FB60F9211242F9377
:100E70003F938F939F93AF93BF9380919C029091E8
:100E80009D02A0919E02B0919F0230919B0223E0AF
:100E9000230F2D3720F40196A11DB11D05C026E8B2
:100EA000230F0296A11DB11D20939B0280939C02EB
:100EB00090939D02A0939E02B0939F028091A00206
:100EC0009091A102A091A202B091A3020196A11D4E
:100ED000B11D8093A0029093A102A093A202B093AF
:100EE000A302BF91AF919F918F913F912F910F904E
:100EF0000FBE0F901F9018952FB7F89460919C0229
:100F000070919D0280919E0290919F022FBF089543
:100F10003FB7F8948091A0029091A102A091A20203
:100F2000B091A30226B5A89B05C02F3F19F00196EA
:100F3000A11DB11D3FBF6627782F892F9A2F620F01
:100F4000711D811D911D42E0660F771F881F991F3B
:100F50004A95D1F708958F929F92AF92BF92CF9208
:100F6000DF92EF92FF926B017C010E9488074B0198
:100F70005C01C114D104E104F104F1F00E94700D90
:100F80000E948807681979098A099B09683E73409D
:100F90008105910570F321E0C21AD108E108F1083A
:100FA00088EE880E83E0981EA11CB11CC114D104E8
:100FB000E104F10429F7DDCFFF90EF90DF90CF90AF
:100FC000BF90AF909F908F900895789484B5826081
:100FD00084BD84B5816084BD85B5826085BD85B5DD
:100FE000816085BDEEE6F0E0808181608083E1E88C
:100FF000F0E01082808182608083808181608083C4
:10100000E0E8F0E0808181608083E1EBF0E08081C6
:1010100084608083E0EBF0E0808181608083EAE798
:10102000F0E0808184608083808182608083808121
:10103000816080838081806880831092C1000895E0
:101040001F93CF93DF93182FEB0161E00E94A80854
:10105000209711F460E004C0CF3FD10539F461E07E
:10106000812FDF91CF911F910C94E108E12FF0E0E7
:10107000E859FF4FE491E330F9F048F4E130B9F07A
:10108000E230A1F584B5806284BDC8BD34C0E730CC
:10109000E9F0E83019F1E43049F580918000806290
:1010A00080938000D0938B00C0938A0024C084B5C5
:1010B000806884BDC7BD1FC0809180008068809318
:1010C0008000D0938900C093880015C08091B00043
:1010D00080688093B000C093B3000DC08091B000D1
:1010E00080628093B000C093B40005C0C038D105C1
:1010F0000CF0B5CFAFCFDF91CF911F910895833022
:1011000081F028F4813099F08230A1F00895873081
:10111000A9F08830B9F08430D1F4809180008F7DBF
:1011200003C0809180008F7780938000089584B5FC
:101130008F7702C084B58F7D84BD08958091B00003
:101140008F7703C08091B0008F7D8093B0000895A9
:10115000CF93DF9390E0FC01E458FF4F2491FC0112
:10116000E057FF4F8491882349F190E0880F991F41
:10117000FC01E854FF4FA591B49182559F4FFC01AB
:10118000C591D4919FB7611108C0F8948C912095B6
:1011900082238C93888182230AC0623051F4F894B0
:1011A0008C91322F309583238C938881822B888376
:1011B00004C0F8948C91822B8C939FBFDF91CF91C8
:1011C00008950F931F93CF93DF931F92CDB7DEB790
:1011D000282F30E0F901E859FF4F8491F901E458D4
:1011E000FF4F1491F901E057FF4F04910023C9F01C
:1011F000882321F069830E947F086981E02FF0E055
:10120000EE0FFF1FE255FF4FA591B4919FB7F894E1
:101210008C91611103C01095812301C0812B8C93A7
:101220009FBF0F90DF91CF911F910F910895CF93A2
:10123000DF93282F30E0F901E859FF4F8491F9013D
:10124000E458FF4FD491F901E057FF4FC491CC23EC
:1012500091F081110E947F08EC2FF0E0EE0FFF1F4C
:10126000EC55FF4FA591B4912C912D2381E090E096
:1012700021F480E002C080E090E0DF91CF910895FA
:10128000FC01818D228D90E0805C9F4F821B910933
:101290008F7399270895FC01918D828D981731F0F5
:1012A000828DE80FF11D858D90E008958FEF9FEFFF
:1012B0000895FC01918D828D981761F0828DDF0178
:1012C000A80FB11D5D968C91928D9F5F9F73928F39
:1012D00090E008958FEF9FEF08958DED9AE0892BB0
:1012E00049F080E090E0892B29F00E94DD0A81110D
:1012F0000C9400000895FC01848DDF01A80FB11D3E
:10130000A35ABF4F2C91848D90E001968F7399273B
:10131000848FA689B7892C93A089B1898C91806428
:101320008C93938D848D981306C00288F389E02DE9
:1013300080818F7D80830895CF93DF93EC01888D2A
:101340008823C9F0EA89FB89808185FD05C0A889C9
:10135000B9898C9186FD0FC00FB607FCF5CF80814F
:1013600085FFF2CFA889B9898C9185FFEDCFCE0199
:101370000E947B09E7CFDF91CF910895CF92DF9252
:10138000FF920F931F93CF93DF931F92CDB7DEB7DA
:101390006C0181E0D60158968C9358975B969C918E
:1013A0005B975C968C915C97981307C05096ED9173
:1013B000FC915197808185FD2EC0F601038D10E0D0
:1013C0000F5F1F4F0F731127F02EF601848DF81257
:1013D00011C00FB607FCF9CFD6015096ED91FC91E4
:1013E0005197808185FFF1CFC60169830E947B09F7
:1013F0006981EBCF838DE80FF11DE35AFF4F6083C6
:10140000D6015B960C935B975296ED91FC915397A6
:10141000808180620CC0D6015696ED91FC91579761
:1014200060835096ED91FC91519780818064808318
:1014300081E090E00F90DF91CF911F910F91FF908D
:10144000DF90CF900895BF92CF92DF92EF92FF92FC
:10145000CF93DF93EC016A017B01B22EE889F98911
:1014600082E08083411581EE580761057105A1F086
:1014700060E079E08DE390E0A70196010E94900F73
:1014800021503109410951095695479537952795BE
:10149000211580E1380798F0E889F989108260E821
:1014A00074E88EE190E0A70196010E94900F215010
:1014B0003109410951095695479537952795EC858E
:1014C000FD853083EE85FF852083188EEC89FD89AC
:1014D000B082EA89FB89808180618083EA89FB8907
:1014E000808188608083EA89FB898081806880832D
:1014F000EA89FB8980818F7D8083DF91CF91FF9086
:10150000EF90DF90CF90BF9008951F920F920FB68B
:101510000F9211242F938F939F93EF93FF93E0915A
:10152000B402F091B5028081E091BA02F091BB0261
:1015300082FD12C090818091BD028F5F8F732091D8
:10154000BE02821751F0E091BD02F0E0EC55FD4F74
:10155000958F8093BD0201C08081FF91EF919F9193
:101560008F912F910F900FBE0F901F9018951F9283
:101570000F920FB60F9211242F933F934F935F93C7
:101580006F937F938F939F93AF93BF93EF93FF934B
:1015900084EA92E00E947B09FF91EF91BF91AF91A5
:1015A0009F918F917F916F915F914F913F912F917B
:1015B0000F900FBE0F901F90189584EA92E00E9442
:1015C000400921E0892B09F420E0822F0895109230
:1015D000A7021092A60288EE93E0A0E0B0E080930C
:1015E000A8029093A902A093AA02B093AB0285E44B
:1015F00092E09093A5028093A40285EC90E09093F2
:10160000B1028093B00284EC90E09093B302809397
:10161000B20280EC90E09093B5028093B40281EC2A
:1016200090E09093B7028093B60282EC90E09093A2
:10163000B9028093B80286EC90E09093BB0280934D
:10164000BA021092BD021092BE021092BF02109216
:10165000C002089508950E94E5070E942A0B0E9487
:101660005204CDE6D9E00E9427052097E1F30E94BD
:101670006D09F9CFCF92DF92EF92FF920F931F93F4
:10168000CF93DF937C016A01EB0100E010E00C15C1
:101690001D0571F06991D701ED91FC910190F081E8
:1016A000E02DC7010995892B19F00F5F1F4FEFCF70
:1016B000C801DF91CF911F910F91FF90EF90DF90C4
:1016C000CF9008956115710581F0DB010D90002028
:1016D000E9F7AD0141505109461B570BDC01ED9173
:1016E000FC910280F381E02D099480E090E0089560
:1016F0000C94620BDC01ED91FC910190F081E02DE6
:10170000099461E572E00C94620B0F931F93CF93E1
:10171000DF93EC010E94620B8C01CE010E94810BD1
:10172000800F911FDF91CF911F910F9108958F929C
:101730009F92AF92BF92DF92EF92FF920F931F930F
:10174000CF93DF93CDB7DEB7A1970FB6F894DEBF86
:101750000FBECDBF7C01F42FD52ECB0119A22230B4
:1017600008F42AE08E010F5D1F4F822E912CA12CD0
:10177000B12C6F2F7D2DA50194010E94900FF22FA7
:10178000D32ECA01015011096A3014F4E0E301C0FC
:10179000E7E3E60FD801EC93232B242B252B49F705
:1017A000B801C7010E94620BA1960FB6F894DEBF84
:1017B0000FBECDBFDF91CF911F910F91FF90EF90A2
:1017C000DF90BF90AF909F908F900895CF92DF925F
:1017D000EF92FF920F931F93CF93DF93EC016A0177
:1017E0007B012115310579F4E881F9810190F081BF
:1017F000E02D642FDF91CF911F910F91FF90EF901B
:10180000DF90CF9009942A303105E9F477FF1AC0B0
:101810006DE20E947A0B8C0144275527BA014C19BE
:101820005D096E097F092AE0CE010E94970B800FA7
:10183000911FDF91CF911F910F91FF90EF90DF905B
:10184000CF9008952AE0B701A601CE01DF91CF9194
:101850001F910F91FF90EF90DF90CF900C94970B1A
:101860000F931F93CF93DF93EC019A01AB0166278F
:1018700057FD6095762F0E94E60B8C01CE010E94E9
:10188000810B800F911FDF91CF911F910F910895D0
:101890002115310541F4DC01ED91FC910190F081BD
:1018A000E02D642F09940C94970B9A01462F50E079
:1018B00060E070E00C94480C0F931F93CF93DF937C
:1018C000EC019A01462F50E060E070E00E94480C65
:1018D0008C01CE010E94810B800F911FDF91CF916F
:1018E0001F910F9108954F925F926F927F928F9206
:1018F0009F92AF92BF92CF92DF92EF92FF920F939F
:101900001F93CF93DF93EC016A017B01B22E9A0102
:10191000AB01C701B6010E948C0F882319F064E562
:1019200072E027C026013701E89477F82FEF3FEFE8
:101930004FE75FE7C301B2010E948C0F81110DC018
:101940002FEF3FEF4FE75FE7C301B2010E94D60DD3
:1019500018161CF468E572E00CC02FEF3FEF4FE75C
:101960005FE4C701B6010E94250F1816ACF46CE5C0
:1019700072E0CE01DF91CF911F910F91FF90EF9018
:10198000DF90CF90BF90AF909F908F907F906F909F
:101990005F904F900C94620B2FEF3FEF4FE75FEC9F
:1019A000C701B6010E94D60D87FDE1CF20E030E0EF
:1019B000A901C701B6010E94D60D87FF0AC06DE2DA
:1019C000CE010E947A0B8C01F7FAF094F7F8F094AC
:1019D00002C000E010E0A12C60E070E080E09FE336
:1019E000AB1441F020E030E040E251E40E94DA0D17
:1019F000A394F6CF9B01AC01C701B6010E94720D02
:101A00006B017C010E94470E2B013C010E94730E6A
:101A10009B01AC01C701B6010E94710D6B017C01F5
:101A20002AE0B301A201CE010E94970B080F191FF3
:101A3000BB2039F06FEA71E0CE010E94620B080F03
:101A4000191F7B2C772041F120E030E040E251E487
:101A5000C701B6010E94290F6B017C010E94420E52
:101A60004B01AA2497FCA094BA2C2AE030E0B501DF
:101A7000A401CE010E94E60B080F191FC501B40195
:101A80000E94750E9B01AC01C701B6010E94710D49
:101A90006B017C017A94D6CFC801DF91CF911F9161
:101AA0000F91FF90EF90DF90CF90BF90AF909F90FD
:101AB0008F907F906F905F904F9008950F931F933A
:101AC000CF93DF93EC010E94730C8C01CE010E9436
:101AD000810B800F911FDF91CF911F910F9108957E
:101AE00008955058BB27AA270ED075C166D130F093
:101AF0006BD120F031F49F3F11F41EF45BC10EF462
:101B0000E095E7FB51C1E92F77D180F3BA1762075F
:101B100073078407950718F071F49EF58FC10EF4D2
:101B2000E0950B2EBA2FA02D0B01B90190010C01ED
:101B3000CA01A0011124FF27591B99F0593F50F405
:101B4000503E68F11A16F040A22F232F342F44275D
:101B5000585FF3CF469537952795A795F040539555
:101B6000C9F77EF41F16BA0B620B730B840BBAF025
:101B70009150A1F0FF0FBB1F661F771F881FC2F790
:101B80000EC0BA0F621F731F841F48F487957795A4
:101B90006795B795F7959E3F08F0B3CF9395880F5B
:101BA00008F09927EE0F979587950895D9D008F4F6
:101BB00081E008950CD00FC107D140F0FED030F085
:101BC00021F45F3F19F0F0C0511139C1F3C014D1B5
:101BD00098F39923C9F35523B1F3951B550BBB27F4
:101BE000AA2762177307840738F09F5F5F4F220FA1
:101BF000331F441FAA1FA9F333D00E2E3AF0E0E89A
:101C000030D091505040E695001CCAF729D0FE2FE5
:101C100027D0660F771F881FBB1F26173707480777
:101C2000AB07B0E809F0BB0B802DBF01FF2793582D
:101C30005F4F2AF09E3F510568F0B6C000C15F3F7C
:101C4000ECF3983EDCF3869577956795B795F79515
:101C50009F5FC9F7880F911D9695879597F908950D
:101C6000E1E0660F771F881FBB1F621773078407A9
:101C7000BA0720F0621B730B840BBA0BEE1F88F7B8
:101C8000E095089504D06894B111D9C00895BCD0EE
:101C900088F09F5790F0B92F9927B751A0F0D1F055
:101CA000660F771F881F991F1AF0BA95C9F712C0DF
:101CB000B13081F0C3D0B1E00895C0C0672F782F54
:101CC0008827B85F39F0B93FCCF38695779567954B
:101CD000B395D9F73EF490958095709561957F4FB7
:101CE0008F4F9F4F0895E89409C097FB3EF490955D
:101CF0008095709561957F4F8F4F9F4F9923A9F0E5
:101D0000F92F96E9BB279395F69587957795679573
:101D1000B795F111F8CFFAF4BB0F11F460FF1BC0B7
:101D20006F5F7F4F8F4F9F4F16C0882311F096E94A
:101D300011C0772321F09EE8872F762F05C06623F8
:101D400071F096E8862F70E060E02AF09A95660FB1
:101D5000771F881FDAF7880F9695879597F908956A
:101D6000990F0008550FAA0BE0E8FEEF16161706AC
:101D7000E807F907C0F012161306E407F50798F014
:101D8000621B730B840B950B39F40A2661F0232B2D
:101D9000242B252B21F408950A2609F4A140A695A9
:101DA0008FEF811D811D089597F99F6780E870E08E
:101DB00060E008959FEF80EC089500240A941616C1
:101DC000170618060906089500240A941216130629
:101DD000140605060895092E0394000C11F48823B7
:101DE00052F0BB0F40F4BF2B11F460FF04C06F5FD3
:101DF0007F4F8F4F9F4F089557FD9058440F551FA9
:101E000059F05F3F71F04795880F97FB991F61F07C
:101E10009F3F79F087950895121613061406551FF3
:101E2000F2CF4695F1DF08C0161617061806991F5F
:101E3000F1CF86957105610508940895E894BB2754
:101E400066277727CB0197F908958ADF08F48FEF8B
:101E500008950BD0C0CFB1DF28F0B6DF18F095237E
:101E600009F0A2CFA7CF1124EACFC6DFA0F3959F38
:101E7000D1F3950F50E0551F629FF001729FBB2771
:101E8000F00DB11D639FAA27F00DB11DAA1F649F1D
:101E90006627B00DA11D661F829F2227B00DA11DD0
:101EA000621F739FB00DA11D621F839FA00D611D56
:101EB000221F749F3327A00D611D231F849F600D77
:101EC000211D822F762F6A2F11249F5750408AF0B0
:101ED000E1F088234AF0EE0FFF1FBB1F661F771F3C
:101EE000881F91505040A9F79E3F510570F05CCF7C
:101EF000A6CF5F3FECF3983EDCF386957795679528
:101F0000B795F795E7959F5FC1F7FE2B880F911D59
:101F10009695879597F9089523DF880B990B089577
:101F2000A1E21A2EAA1BBB1BFD010DC0AA1FBB1FDD
:101F3000EE1FFF1FA217B307E407F50720F0A21B4F
:101F4000B30BE40BF50B661F771F881F991F1A94BC
:101F500069F760957095809590959B01AC01BD01E6
:101F6000CF010895EE0FFF1F0590F491E02D099425
:041F7000F894FFCF13
:101F7400FFD0494055EFE8BE93629EC0C34370C290
:101F8400C306C3064D63703235313520636F6E6608
:101F94006967757265206275732073756363657311
:101FA40066756C6C79004D63703235313520636F22
:101FB4006E66696775726520696E74657272757094
:101FC40074732073756363657366756C6C79004D07
:101FD40063703235313520636F6E6669677572657B
:101FE4002072782062756666657220737563636516
:101FF4007366756C6C790041626F727420776169E5
:1020040074696E672E204D61782E2077616974693A
:102014006E672074696D6520726561636865642EFE
:10202400004D6370323531352073776974636820ED
:10203400746F206D6F6465200054727920746F2072
:102044007265736574204D637032353135004D63AC
:10205400703235313520726573657420737563632E
:10206400657366756C6C7920616E6420737769742E
:10207400636820646F206D6F646520006669727305
:102084007456616C75653A20007069645F6572729C
:102094006F723A20007069645F636F6E74726F6C64
:1020A4005F76616C75653A2000363738393A3B3CC7
:1020B4003D00000000BE093A0B400959094B099C38
:1020C400090D0A006E616E00696E66006F76660027
:00000001FF
