:100000000C9462000C94F1070C9418080C948A006C
:100010000C948A000C948A000C948A000C948A0038
:100020000C948A000C948A000C948A000C948A0028
:100030000C948A000C948A000C948A000C948A0018
:100040000C943F080C948A000C94920B0C94C40BF3
:100050000C948A000C948A000C948A000C948A00F8
:100060000C948A000C948A00000000080002010031
:100070000003040700000000000000000102040863
:100080001020408001020408102001020408102002
:10009000040404040404040402020202020203032E
:1000A00003030303000000002300260029000000D2
:1000B0000000250028002B0000000000240027007D
:1000C0002A00F40B11241FBECFEFD8E0DEBFCDBF56
:1000D00012E0A0E0B1E0E8EEFEE102C005900D9272
:1000E000A633B107D9F723E0A6E3B2E001C01D9221
:1000F000AC32B207E1F710E0C4ECD0E004C02297C4
:10010000FE010E94580FC23CD107C9F70E94380C6B
:100110000C94720F0C94000082E00E94240A019754
:1001200071F483E00E94240A4091500250915102E0
:100130006091520270915302892B99F40DC083E0B3
:100140000E94240A40915002509151026091520243
:1001500070915302019729F44F5F5F4F6F4F7F4FAC
:1001600004C04150510961097109409350025093F4
:1001700051026093520270935302089583E00E94EB
:10018000240A019771F482E00E94240A40915002EF
:10019000509151026091520270915302019799F46B
:1001A0000DC082E00E94240A4091500250915102F9
:1001B0006091520270915302892B29F44F5F5F4F77
:1001C0006F4F7F4F04C0415051096109710940933D
:1001D000500250935102609352027093530208955B
:1001E0000C945C0FEF92FF920F931F93CF93DF93CA
:1001F0001F92CDB7DEB77C01FC0100811181C801DF
:1002000069830E945C0F6981681719F0C8010E9418
:10021000640FC7010F90DF91CF911F910F91FF9055
:10022000EF9008958EBD00000DB407FEFDCF8EB592
:100230000895CF93DF93D82FC62F8AE00E94EE094E
:100240006C2F8D2FDF91CF910C94EE091F93CF93DC
:10025000DF93EC0160E00E94190180EA0E94120124
:1002600080E00E941201182F61E0CE010E94190166
:1002700064E070E080E090E00E94B808812FDF9198
:10028000CF911F9108950F931F93CF93DF93082F62
:10029000162FEA0160E0CA010E94190182E00E9463
:1002A0001201802F0E941201812F0E94120161E031
:1002B000CE010E94190164E070E080E090E0DF91DF
:1002C000CF911F910F910C94B808CF93DF93D62F45
:1002D000C42F48E050E0682F82E30E94430148E0C9
:1002E00050E06D2F81E30E94430148E050E06C2F05
:1002F00085E3DF91CF910C944301CF93DF93D62F09
:10030000C42F48E050E0682F82E40E94430148E097
:1003100050E06D2F81E40E94430148E050E06C2FD3
:1003200085E4DF91CF910C944301CF93DF93D62FD7
:10033000C42F48E050E0682F82E50E94430148E066
:1003400050E06D2F81E50E94430148E050E06C2FA2
:1003500085E5DF91CF910C94430148E050E060E0E7
:100360008AE20E94430148E050E068EB89E20E9483
:10037000430148E050E065E088E20E94430180913B
:100380007C02882331F066E171E08FE892E00C9402
:10039000920C089548E050E063E08BE20E94430134
:1003A00080917C02882331F068E371E08FE892E06D
:1003B0000C94920C08951F93CF93DF93182FEB01A9
:1003C00060E0CE010E94190183E00E941201812F9A
:1003D0000E94120180E00E941201182F61E0CE01FC
:1003E0000E94190164E070E080E090E00E94B8088B
:1003F00048E050E060E08CE20E944301812FDF91F1
:10040000CF911F910895CF92DF92EF92FF920F93B9
:100410001F93CF93DF93062FC3E0D0E048E050E076
:10042000602F8FE00E94430168E070E08EE00E9440
:10043000DB01182F0E9489086B017C0160E070E0ED
:10044000CB01101791F0613177428105910594F449
:1004500068E070E08EE00E94DB01182F0E9489089E
:100460006C197D098E099F09ECCF613177428105B6
:10047000910564F080917C02882331F069E871E095
:100480008FE892E00E94920C219741F680917C02C5
:10049000882331F063EB71E08FE892E00E94850CD5
:1004A00080917C02882339F04AE050E0612F8FE888
:1004B00092E00E94620D80917C02882371F06CE7CB
:1004C00071E08FE892E0DF91CF911F910F91FF9043
:1004D000EF90DF90CF900C94920CDF91CF911F9111
:1004E0000F91FF90EF90DF90CF900895FB01E25FB6
:1004F000FD4F48E050E0682F80810C9443011F932A
:10050000CF93DF93182FEB0160E0CE010E94190119
:10051000812F0E94120161E0CE010E94190164E066
:1005200070E080E090E0DF91CF911F910C94B808CB
:10053000CF9368E070E080EC0E947F0268E070E09A
:100540008EE00E94DB01C82F6BEC71E08FE892E037
:100550000E94850CC7FD0EC068E070E08EE00E942E
:10056000DB01C82F4AE050E0682F8FE892E00E943C
:10057000620DF0CF80917C02882331F060EE71E053
:100580008FE892E00E94850C80917C02882341F0E4
:100590004AE050E06C2F8FE892E0CF910C94690D07
:1005A000CF9108950E9498020E94AD010E94CA0155
:1005B00060E080E00C9403020F931F93CF93DF93CE
:1005C00000D0CDB7DEB726E040E855E260E070E04D
:1005D0008FE892E00E94300B81E080937E021092BF
:1005E0004D0210924C0280937C0210927D0261E0D9
:1005F00088E00E94B50961E08AE00E94B50960E0E8
:1006000082E00E94B50960E083E00E94B50960E0E5
:1006100087E00E94B50961E084E00E94B50961E0CD
:100620008DE00E94B50980917D02811103C000E038
:1006300010E014C000E010E01A83098360E0CE01EE
:1006400001960E94F2000F5F1F4F05301105A1F7C0
:10065000EECF0F5F1F4F0530110501F1C8010E9459
:10066000F0008823B1F310921101F3CF80911101B2
:1006700061E08823C1F08DE00E94EE0968EE73E02E
:1006800080E090E00E94B80860E08DE00E94EE09F2
:1006900064E670E080E090E00E94B80880917D02FE
:1006A0008111E4CF12C08DE00E94EE0968EC70E089
:1006B00080E090E00E94B80860E08DE00E94EE09C2
:1006C00068EC70E080E090E0E7CF84E090E00E948A
:1006D000F0008130E9F461E08DE00E94EE096AEFFC
:1006E00070E080E090E00E94B80860E08DE00E9439
:1006F000EE096AEF70E080E090E00E94B8084AE0FE
:1007000050E061E070E08FE892E00E943D0DE3CFA1
:1007100080918402882399F09FB7F8948091840295
:10072000813059F48DB3809382022DB3809183027E
:10073000809582238DBB9FBF02C0909382028CE57F
:100740008CBD1DBC0E949A070E94D20248E062E064
:1007500080E40E94650148E062E080E40E947D013F
:1007600048E062E080E40E94950182E090E00E940F
:10077000F0008093480283E090E00E94F0008093B4
:1007800049028091480290914902AA2797FDA095BD
:10079000BA2F8093500290935102A0935202B093CB
:1007A000530280E090E00E94F000182F80934602F0
:1007B00081E090E00E94F00080934702E0914E02B9
:1007C000F0914F02EA58FD4F108341E050E06CE891
:1007D00070E080E00E94D10741E050E06EEB70E0F5
:1007E00081E00E94D10764E670E080E090E00E9422
:1007F000B8080E9489086093780270937902809308
:100800007A0290937B020F900F90DF91CF911F910E
:100810000F9108958130910539F08230910531F0C2
:10082000892B29F421E803C022E801C024E868E00C
:1008300070E0822F0C947F02EF92FF920F931F9330
:10084000CF93DF938B01C0E0D0E0E82EF12CCE15E2
:10085000DF0548F4A701BE01F80181918F010E94D4
:1008600076022196F4CF80E090E0DF91CF911F9146
:100870000F91FF90EF900C940A040F931F93CF9366
:10088000DF93C82F8B0160E0C8010E9419018C2FF3
:100890000E941201CEE3D2E080E00E94120189930F
:1008A00082E0C634D807C1F761E0C8010E9419018F
:1008B00081E0DF91CF911F910F91089568236130FE
:1008C00021F468E070E082E905C0623029F468E054
:1008D00070E086E90E943D0481E008958F929F9226
:1008E000AF92BF92CF92DF92EF92FF920F931F933E
:1008F000CF93DF936B017C0149015A0120E030E086
:100900004FE753EC0E94CD0E87FD0AC020E030E097
:100910004FE753E4C701B6010E94E60D18167CF5B7
:1009200020E030E04FE753E4C701B6010E94CD0E4E
:1009300018164CF420E030E04FE753E4C701B6014D
:100940000E94810D12C020E030E04FE753ECC70158
:10095000B6010E94E60D87FF12C020E030E04FE7AD
:1009600053E4C701B6010E94820D6B017C0120E0B7
:1009700030E0A9010E94CD0E1816ACF003C0C12CC6
:10098000D12C7601C1E0D0E020E030E0A901C70120
:10099000B6010E94E60D87FD02C0C0E0D0E0D1950F
:1009A000C195D10902C0C1E0D0E020E030E0A9014A
:1009B000C501B4010E94CD0E01E010E0181674F0DC
:1009C00020E030E0A901C501B4010E94E60D87FDD9
:1009D00002C000E010E0119501951109C017D10780
:1009E00059F420E030E0A901C701B6010E94E60DEC
:1009F000882311F081E000C0DF91CF911F910F910A
:100A0000FF90EF90DF90CF90BF90AF909F908F902E
:100A100008954F925F926F927F928F929F92AF92C2
:100A2000BF92CF92DF92EF92FF92CF93DF9300D0ED
:100A300000D0CDB7DEB76B017C0120910C01309165
:100A40000D0140910E0150910F010E94D10E4B01FA
:100A50005C016093640270936502809366029093D8
:100A60006702609158027091590280915A029091E8
:100A70005B02A70196010E946E04882321F020E00A
:100A800030E0A9010AC02DEC3CEC4CE45DE3C70169
:100A9000B6010E94D10E9B01AC0160916002709181
:100AA000610280916202909163020E94820D6093C4
:100AB00060027093610280936202909363022091BE
:100AC00008013091090140910A0150910B01609198
:100AD00060027091610280916202909163020E94B3
:100AE000D10E2B013C0160936002709361028093F0
:100AF0006202909363028091540290915502A091FA
:100B00005602B091570289839A83AB83BC832091AC
:100B10000401309105014091060150910701C70180
:100B2000B6010E94D10E29813A814B815C810E94DD
:100B3000810D2091000130910101409102015091FD
:100B400003010E94D10E6B017C0160935C027093E3
:100B50005D0280935E0290935F02A3019201C50142
:100B6000B4010E94820DA70196010E94820D4B01E3
:100B70005C01609358027093590280935A029093DB
:100B80005B0220E030E04FE753E40E94CD0E1816E0
:100B90008CF020E030E04FE753ECC501B4010E9437
:100BA000E60D87FF0DC0812C912C9FE7A92E93ECB9
:100BB000B92E06C0812C912C8FE7A82E83E4B82E85
:100BC0002DEC3CEC4CE45DE3C701B6010E94D10E74
:100BD0009B01AC0169817A818B819C810E94820D8D
:100BE000609354027093550280935602909357027B
:100BF000C501B4010F900F900F900F90DF91CF912E
:100C0000FF90EF90DF90CF90BF90AF909F908F902C
:100C10007F906F905F904F900895CF92DF92EF9208
:100C2000FF921F93CF93DF9300D0CDB7DEB7109222
:100C30007402109281021092800281E080937F0200
:100C400087E00E94240A892B79F488E090E00E94D2
:100C500026018093740263E00E945E0469E170E003
:100C600080E090E00E94B80880913E02882391F0D5
:100C70009FEF980F9430C0F4909175029130A1F0DD
:100C80008093360282E08093380280913F02809305
:100C900037020AC010927502E6E3F2E0119292E088
:100CA000EE33F907D9F7E4CF66E372E088E00E94FB
:100CB0001C0469E170E080E090E00E94B808809137
:100CC0003E02823009F052C09091750281E098177F
:100CD00009F44CC080937502609150021A82198207
:100CE000CE0101960E94F200809150029091510233
:100CF000A0915202B0915302692F7A2F8B2F99271E
:100D000087FD9A9521E030E03A832983CE01019650
:100D10000E94F20080E090E00E94F000909150026A
:100D2000F090510211E0891310E081E090E00E9400
:100D3000F0008F1105C0112319F081E08093380273
:100D400080E090E00E94F00080934A0281E090E011
:100D50000E94F00080934B0260914A0270914B0216
:100D60004AE050E08FE892E00E943D0D80913E0203
:100D7000833059F49091750281E0981709F444C0CA
:100D800080937502109210010BC0843061F4909131
:100D9000750281E09817C1F180937502809310016C
:100DA0008093380231C0813079F59091750298179F
:100DB00059F1809375028091420280934A0280919A
:100DC000410280934B0260914A0270914B02882746
:100DD00077FD8095982F0E941D0E6093700270938E
:100DE0007102809372029093730220914302211149
:100DF0000BC0DC01CB01B05880937002909371025C
:100E0000A0937202B093730280911001882309F4B9
:100E100087C060915002709151028091520290916E
:100E200053020E941D0E60936802709369028093C2
:100E30006A0290936B02209170023091710240918E
:100E40007202509173020E94810D6B017C0120E0BF
:100E500030E0A9010E94CD0E18165CF42AE939E9A8
:100E600049E15EE3C701B6010E94E60D18165CF089
:100E700013C02AE939E949E15EEBC701B6010E94D6
:100E8000CD0E87FF09C0C0926C02D0926D02E09235
:100E90006E02F0926F0208C010926C0210926D0206
:100EA00010926E0210926F0260916C0270916D024E
:100EB00080916E0290916F020E9409056B017C0186
:100EC00020E030E0A9010E94E60D87FF09C061E043
:100ED00084E00E94EE09F7FAF094F7F8F09404C069
:100EE00060E084E00E94EE09C701B6010E94EA0DAD
:100EF00089E00E942D0910913E02113089F420E012
:100F000030E0A90160916C0270916D0280916E02D7
:100F100090916F020E94E60D811102C01093380279
:100F20000F900F90DF91CF911F91FF90EF90DF9086
:100F3000CF900895CF93CFB7F89480918502811117
:100F400027C0EAE9F0E08491E6E8F0E09491E82F28
:100F5000F0E0EE0FFF1FE854FF4FA591B4918C9184
:100F6000892321F461E08AE00E94EE0961E08AE0D1
:100F70000E94B5098CB580618CBD8CB580648CBD38
:100F800061E08DE00E94B50961E08BE00E94B50947
:100F9000809185028F5F80938502CFBFCF910895A6
:100FA00008958230E8F4E82FF0E0EE0FFF1FEE5EC8
:100FB000FE4F71836083813041F0809169008C7FA6
:100FC000842B80936900E89A089580916900440F0A
:100FD000551F440F551F837F842B80936900E99A26
:100FE00008951F920F920FB60F9211242F933F93E3
:100FF0004F935F936F937F938F939F93AF93BF9321
:10100000EF93FF93E0911201F09113010995FF9185
:10101000EF91BF91AF919F918F917F916F915F9170
:101020004F913F912F910F900FBE0F901F901895E9
:101030001F920F920FB60F9211242F933F934F934D
:101040005F936F937F938F939F93AF93BF93EF9330
:10105000FF93E0911401F09115010995FF91EF9133
:10106000BF91AF919F918F917F916F915F914F91C0
:101070003F912F910F900FBE0F901F9018951F92C8
:101080000F920FB60F9211242F933F938F939F933C
:10109000AF93BF938091870290918802A0918902BB
:1010A000B0918A023091860223E0230F2D3720F47D
:1010B0000196A11DB11D05C026E8230F0296A11DB2
:1010C000B11D209386028093870290938802A0939B
:1010D0008902B0938A0280918B0290918C02A09138
:1010E0008D02B0918E020196A11DB11D80938B02DD
:1010F00090938C02A0938D02B0938E02BF91AF911A
:101100009F918F913F912F910F900FBE0F901F9045
:1011100018952FB7F894609187027091880280919A
:10112000890290918A022FBF08953FB7F894809169
:101130008B0290918C02A0918D02B0918E0226B507
:10114000A89B05C02F3F19F00196A11DB11D3FBFFF
:101150006627782F892F9A2F620F711D811D911D8F
:1011600042E0660F771F881F991F4A95D1F70895AF
:101170008F929F92AF92BF92CF92DF92EF92FF92A7
:101180006B017C010E9495084B015C01C114D104E4
:10119000E104F104F1F00E94800D0E9495086819A5
:1011A00079098A099B09683E73408105910570F3AE
:1011B00021E0C21AD108E108F10888EE880E83E028
:1011C000981EA11CB11CC114D104E104F10429F73B
:1011D000DDCFFF90EF90DF90CF90BF90AF909F90CA
:1011E0008F900895789484B5826084BD84B58160C1
:1011F00084BD85B5826085BD85B5816085BDEEE61F
:10120000F0E0808181608083E1E8F0E010828081FD
:1012100082608083808181608083E0E8F0E080816B
:1012200081608083E1EBF0E0808184608083E0EB8B
:10123000F0E0808181608083EAE7F0E08081846073
:1012400080838081826080838081816080838081CF
:10125000806880831092C10008951F93CF93DF931D
:10126000182FEB0161E00E94B509209711F460E0AE
:1012700004C0CF3FD10539F461E0812FDF91CF91D8
:101280001F910C94EE09E12FF0E0E859FF4FE49133
:10129000E330F9F048F4E130B9F0E230A1F584B57B
:1012A000806284BDC8BD34C0E730E9F0E83019F190
:1012B000E43049F580918000806280938000D09373
:1012C0008B00C0938A0024C084B5806884BDC7BDEC
:1012D0001FC080918000806880938000D093890037
:1012E000C093880015C08091B00080688093B000E2
:1012F000C093B3000DC08091B00080628093B000B5
:10130000C093B40005C0C038D1050CF0B5CFAFCF45
:10131000DF91CF911F910895833081F028F48130BF
:1013200099F08230A1F008958730A9F08830B9F0A3
:101330008430D1F4809180008F7D03C08091800043
:101340008F7780938000089584B58F7702C084B52D
:101350008F7D84BD08958091B0008F7703C0809108
:10136000B0008F7D8093B0000895CF93DF9390E01D
:10137000FC01E458FF4F2491FC01E057FF4F84919A
:10138000882349F190E0880F991FFC01E854FF4F32
:10139000A591B49182559F4FFC01C591D4919FB7FF
:1013A000611108C0F8948C91209582238C938881D8
:1013B00082230AC0623051F4F8948C91322F309518
:1013C00083238C938881822B888304C0F8948C912A
:1013D000822B8C939FBFDF91CF9108950F931F9322
:1013E000CF93DF931F92CDB7DEB7282F30E0F901FE
:1013F000E859FF4F8491F901E458FF4F1491F90126
:10140000E057FF4F04910023C9F0882321F069833E
:101410000E948C096981E02FF0E0EE0FFF1FE2557A
:10142000FF4FA591B4919FB7F8948C91611103C0BF
:101430001095812301C0812B8C939FBF0F90DF916A
:10144000CF911F910F910895CF93DF93282F30E014
:10145000F901E859FF4F8491F901E458FF4FD49105
:10146000F901E057FF4FC491CC2391F081110E9404
:101470008C09EC2FF0E0EE0FFF1FEC55FF4FA5910C
:10148000B4912C912D2381E090E021F480E002C002
:1014900080E090E0DF91CF910895FC01818D228D55
:1014A00090E0805C9F4F821B91098F73992708956C
:1014B000FC01918D828D981731F0828DE80FF11D1E
:1014C000858D90E008958FEF9FEF0895FC01918D39
:1014D000828D981761F0828DDF01A80FB11D5D9696
:1014E0008C91928D9F5F9F73928F90E008958FEF04
:1014F0009FEF08958AEE9BE0892B49F080E090E011
:10150000892B29F00E94EA0B81110C9400000895A8
:10151000FC01848DDF01A80FB11DA35ABF4F2C9190
:10152000848D90E001968F739927848FA689B7895F
:101530002C93A089B1898C9180648C93938D848D38
:10154000981306C00288F389E02D80818F7D808307
:101550000895CF93DF93EC01888D8823C9F0EA8941
:10156000FB89808185FD05C0A889B9898C9186FD9C
:101570000FC00FB607FCF5CF808185FFF2CFA88999
:10158000B9898C9185FFEDCFCE010E94880AE7CF03
:10159000DF91CF910895CF92DF92FF920F931F9327
:1015A000CF93DF931F92CDB7DEB76C0181E0D601F8
:1015B00058968C9358975B969C915B975C968C9110
:1015C0005C97981307C05096ED91FC9151978081DC
:1015D00085FD2EC0F601038D10E00F5F1F4F0F73C6
:1015E0001127F02EF601848DF81211C00FB607FCFA
:1015F000F9CFD6015096ED91FC915197808185FFEE
:10160000F1CFC60169830E94880A6981EBCF838D7F
:10161000E80FF11DE35AFF4F6083D6015B960C93F0
:101620005B975296ED91FC915397808180620CC03C
:10163000D6015696ED91FC91579760835096ED91A7
:10164000FC91519780818064808381E090E00F90CD
:10165000DF91CF911F910F91FF90DF90CF90089570
:10166000BF92CF92DF92EF92FF92CF93DF93EC0184
:101670006A017B01B22EE889F98982E080834115F5
:1016800081EE580761057105A1F060E079E08DE316
:1016900090E0A70196010E94340F215031094109C1
:1016A00051095695479537952795211580E13807BB
:1016B00098F0E889F989108260E874E88EE190E09A
:1016C000A70196010E94340F2150310941095109A7
:1016D0005695479537952795EC85FD853083EE85A2
:1016E000FF852083188EEC89FD89B082EA89FB8909
:1016F000808180618083EA89FB8980818860808322
:10170000EA89FB89808180688083EA89FB898081FE
:101710008F7D8083DF91CF91FF90EF90DF90CF900E
:10172000BF9008951F920F920FB60F9211242F931E
:101730008F939F93EF93FF93E0919F02F091A0020C
:101740008081E091A502F091A60282FD12C09081F5
:101750008091A8028F5F8F732091A902821751F0A8
:10176000E091A802F0E0E157FD4F958F8093A80229
:1017700001C08081FF91EF919F918F912F910F90E8
:101780000FBE0F901F9018951F920F920FB60F92D9
:1017900011242F933F934F935F936F937F938F9376
:1017A0009F93AF93BF93EF93FF938FE892E00E94D4
:1017B000880AFF91EF91BF91AF919F918F917F9197
:1017C0006F915F914F913F912F910F900FBE0F90AE
:1017D0001F9018958FE892E00E944D0A21E0892B16
:1017E00009F420E0822F0895109292021092910243
:1017F00088EE93E0A0E0B0E080939302909394028F
:10180000A0939502B09396028AE192E090939002A1
:1018100080938F0285EC90E090939C0280939B02D2
:1018200084EC90E090939E0280939D0280EC90E087
:101830009093A00280939F0281EC90E09093A2028B
:101840008093A10282EC90E09093A4028093A30283
:1018500086EC90E09093A6028093A5021092A802D5
:101860001092A9021092AA021092AB020895089554
:101870000E94F2080E94370C0E94DC02CAE7DAE0FC
:101880000E940D062097E1F30E947A0AF9CFCF92C9
:10189000DF92EF92FF920F931F93CF93DF937C0120
:1018A0006A01EB0100E010E00C151D0571F0699173
:1018B000D701ED91FC910190F081E02DC7010995D0
:1018C000892B19F00F5F1F4FEFCFC801DF91CF9128
:1018D0001F910F91FF90EF90DF90CF9008956115C9
:1018E000710581F0DB010D900020E9F7AD01415059
:1018F0005109461B570BDC01ED91FC910280F381ED
:10190000E02D099480E090E008950C946F0CDC01C8
:10191000ED91FC910190F081E02D099466E272E076
:101920000C946F0C0F931F93CF93DF93EC010E94E5
:101930006F0C8C01CE010E948E0C800F911FDF91E5
:10194000CF911F910F9108958F929F92AF92BF9266
:10195000DF92EF92FF920F931F93CF93DF93CDB758
:10196000DEB7A1970FB6F894DEBF0FBECDBF7C01E6
:10197000F42FD52ECB0119A2223008F42AE08E01D3
:101980000F5D1F4F822E912CA12CB12C6F2F7D2D1E
:10199000A50194010E94340FF22FD32ECA010150E9
:1019A00011096A3014F4E0E301C0E7E3E60FD8015F
:1019B000EC93232B242B252B49F7B801C7010E9458
:1019C0006F0CA1960FB6F894DEBF0FBECDBFDF91AE
:1019D000CF911F910F91FF90EF90DF90BF90AF904C
:1019E0009F908F900895CF92DF92EF92FF920F9386
:1019F0001F93CF93DF93EC016A017B012115310521
:101A000079F4E881F9810190F081E02D642FDF9174
:101A1000CF911F910F91FF90EF90DF90CF9009949D
:101A20002A303105E9F477FF1AC06DE20E94870C75
:101A30008C0144275527BA014C195D096E097F09AD
:101A40002AE0CE010E94A40C800F911FDF91CF915C
:101A50001F910F91FF90EF90DF90CF9008952AE0B3
:101A6000B701A601CE01DF91CF911F910F91FF9099
:101A7000EF90DF90CF900C94A40C0F931F93CF9313
:101A8000DF93EC019A01AB01662757FD6095762F35
:101A90000E94F30C8C01CE010E948E0C800F911FCE
:101AA000DF91CF911F910F9108952115310541F4D8
:101AB000DC01ED91FC910190F081E02D642F0994FF
:101AC0000C94A40C9A01462F50E060E070E00C9456
:101AD000550D0F931F93CF93DF93EC019A01462F7F
:101AE00050E060E070E00E94550D8C01CE010E9434
:101AF0008E0C800F911FDF91CF911F910F91089550
:101B000008955058BB27AA270ED00DC1FED030F043
:101B100003D120F031F49F3F11F41EF4F3C00EF412
:101B2000E095E7FBE9C0E92F0FD180F3BA17620710
:101B300073078407950718F071F49EF527C10EF41A
:101B4000E0950B2EBA2FA02D0B01B90190010C01CD
:101B5000CA01A0011124FF27591B99F0593F50F4E5
:101B6000503E68F11A16F040A22F232F342F44273D
:101B7000585FF3CF469537952795A795F040539535
:101B8000C9F77EF41F16BA0B620B730B840BBAF005
:101B90009150A1F0FF0FBB1F661F771F881FC2F770
:101BA0000EC0BA0F621F731F841F48F48795779584
:101BB0006795B795F7959E3F08F0B3CF9395880F3B
:101BC00008F09927EE0F97958795089571D008F43E
:101BD00081E0089504D06894B111D9C00895BCD0B3
:101BE00088F09F5790F0B92F9927B751A0F0D1F006
:101BF000660F771F881F991F1AF0BA95C9F712C090
:101C0000B13081F0C3D0B1E00895C0C0672F782F04
:101C10008827B85F39F0B93FCCF3869577956795FB
:101C2000B395D9F73EF490958095709561957F4F67
:101C30008F4F9F4F0895E89409C097FB3EF490950D
:101C40008095709561957F4F8F4F9F4F9923A9F095
:101C5000F92F96E9BB279395F69587957795679524
:101C6000B795F111F8CFFAF4BB0F11F460FF1BC068
:101C70006F5F7F4F8F4F9F4F16C0882311F096E9FB
:101C800011C0772321F09EE8872F762F05C06623A9
:101C900071F096E8862F70E060E02AF09A95660F62
:101CA000771F881FDAF7880F9695879597F908951B
:101CB000990F0008550FAA0BE0E8FEEF161617065D
:101CC000E807F907C0F012161306E407F50798F0C5
:101CD000621B730B840B950B39F40A2661F0232BDE
:101CE000242B252B21F408950A2609F4A140A6955A
:101CF0008FEF811D811D089597F99F6780E870E03F
:101D000060E008959FEF80EC089500240A94161671
:101D1000170618060906089500240A9412161306D9
:101D2000140605060895092E0394000C11F4882367
:101D300052F0BB0F40F4BF2B11F460FF04C06F5F83
:101D40007F4F8F4F9F4F089557FD9058440F551F59
:101D500059F05F3F71F04795880F97FB991F61F02D
:101D60009F3F79F087950895121613061406551FA4
:101D7000F2CF4695F1DF08C0161617061806991F10
:101D8000F1CF86957105610508940895E894BB2705
:101D900066277727CB0197F908958ADF08F48FEF3C
:101DA00008950BD0C0CFB1DF28F0B6DF18F095232F
:101DB00009F0A2CFA7CF1124EACFC6DFA0F3959FE9
:101DC000D1F3950F50E0551F629FF001729FBB2722
:101DD000F00DB11D639FAA27F00DB11DAA1F649FCE
:101DE0006627B00DA11D661F829F2227B00DA11D81
:101DF000621F739FB00DA11D621F839FA00D611D07
:101E0000221F749F3327A00D611D231F849F600D27
:101E1000211D822F762F6A2F11249F5750408AF060
:101E2000E1F088234AF0EE0FFF1FBB1F661F771FEC
:101E3000881F91505040A9F79E3F510570F05CCF2C
:101E4000A6CF5F3FECF3983EDCF3869577956795D8
:101E5000B795F795E7959F5FC1F7FE2B880F911D0A
:101E60009695879597F90895A1E21A2EAA1BBB1B98
:101E7000FD010DC0AA1FBB1FEE1FFF1FA217B30756
:101E8000E407F50720F0A21BB30BE40BF50B661F6C
:101E9000771F881F991F1A9469F760957095809530
:101EA00090959B01AC01BD01CF010895EE0FFF1F7E
:101EB0000590F491E02D0994F999FECF92BD81BD72
:101EC000F89A992780B50895262FF999FECF1FBA61
:101ED00092BD81BD20BD0FB6F894FA9AF99A0FBE53
:081EE00001960895F894FFCF6C
:101EE8002C8F9440E1C89F3EA2D5F9BE4CD929C198
:101EF8000101D007D0074D63703235313520636F4B
:101F08006E666967757265206275732073756363A1
:101F1800657366756C6C79004D63703235313520A8
:101F2800636F6E66696775726520696E7465727233
:101F3800757074732073756363657366756C6C79FB
:101F4800004D63703235313520636F6E6669677591
:101F58007265207278206275666665722073756393
:101F680063657366756C6C790041626F7274207773
:101F7800616974696E672E204D61782E20776169DA
:101F880074696E672074696D652072656163686540
:101F9800642E004D63703235313520737769746370
:101FA8006820746F206D6F64652000547279207406
:101FB8006F207265736574204D637032353135005A
:101FC8004D637032353135207265736574207375D1
:101FD8006363657366756C6C7920616E64207377D2
:101FE8006974636820646F206D6F646520003637FC
:101FF80038393A3B3C3D00000000CB0A470C4D0AFB
:10200800660A580AA90A0D0A006E616E00696E66B2
:06201800006F7666000077
:00000001FF
