:100000000C9462000C9438090C945F090C948A00DB
:100010000C948A000C948A000C948A000C948A0038
:100020000C948A000C948A000C948A000C948A0028
:100030000C948A000C948A000C948A000C948A0018
:100040000C9486090C948A000C94D90C0C940B0D1A
:100050000C948A000C948A000C948A000C948A00F8
:100060000C948A000C948A00000000080002010031
:100070000003040700000000000000000102040863
:100080001020408001020408102001020408102002
:10009000040404040404040402020202020203032E
:1000A00003030303000000002300260029000000D2
:1000B0000000250028002B0000000000240027007D
:1000C0002A003B0D11241FBECFEFD8E0DEBFCDBF0D
:1000D00012E0A0E0B1E0EAE9F1E202C005900D9281
:1000E000A43BB107D9F723E0A4EBB2E001C01D9215
:1000F000A73AB207E1F710E0C4ECD0E004C02297C1
:10010000FE010E94B110C23CD107C9F70E947F0DC9
:100110000C94CB100C94000082E00E946B0B0197B2
:1001200071F483E00E946B0B4091CA025091CB02A4
:100130006091CC027091CD02892B99F40DC083E0BF
:100140000E946B0B4091CA025091CB026091CC028D
:100150007091CD02019729F44F5F5F4F6F4F7F4F32
:1001600004C041505109610971094093CA0250937A
:10017000CB026093CC027093CD02089583E00E947D
:100180006B0B019771F482E00E946B0B4091CA02E5
:100190005091CB026091CC027091CD02019799F4FD
:1001A0000DC082E00E946B0B4091CA025091CB02BD
:1001B0006091CC027091CD02892B29F44F5F5F4F83
:1001C0006F4F7F4F04C0415051096109710940933D
:1001D000CA025093CB026093CC027093CD02089573
:1001E0000C94B510EF92FF920F931F93CF93DF9370
:1001F0001F92CDB7DEB77C01FC0100811181C801DF
:1002000069830E94B5106981681719F0C8010E94BE
:10021000BD10C7010F90DF91CF911F910F91FF90FB
:10022000EF9008958EBD00000DB407FEFDCF8EB592
:100230000895DF92EF92FF920F931F93CF93DF9376
:100240007C01EA01D22E882777FD8095982F0E94A5
:10025000FF09602F8D2D0E94350BB701882777FD90
:100260008095982F0E94FF0961E0012B09F060E062
:100270008D2D0E94350BBE01882777FD8095982F24
:10028000DF91CF911F910F91FF90EF90DF900C9431
:10029000FF09EF92FF920F931F93CF93DF937A01A1
:1002A000672B61F000E010E02DE030E040E050E02E
:1002B00060E070E088EE93E00E94190101E010E038
:1002C0002DE030E044EF51E060E070E084EF91E039
:1002D0000E9419012DE030E048EC50E060E070E051
:1002E00088EC90E00E9419012DE030E048EC50E0ED
:1002F00060E070E088EC90E00E9419012DE030E0B1
:1003000044EF51E060E070E084EF91E00E94190159
:10031000C3E0D0E001E010E02DE030E048EC50E038
:1003200060E070E088EC90E00E941901219791F75D
:100330002DE030E044EF51E060E070E084EF91E0C8
:100340000E941901C4E0D0E001E010E02DE030E0AF
:1003500048EC50E060E070E088EC90E00E94190109
:10036000219791F7EF2861F000E010E02DE030E0F8
:1003700040E050E060E070E088EE93E00E941901F8
:10038000DF91CF911F910F91FF90EF900895CF9340
:10039000DF93D82FC62F8AE00E94350B6C2F8D2F4C
:1003A000DF91CF910C94350B1F93CF93DF93EC012A
:1003B00060E00E94C70180EA0E94120180E00E9472
:1003C0001201182F61E0CE010E94C70164E070E0C5
:1003D00080E090E00E94FF09812FDF91CF911F9173
:1003E00008950F931F93CF93DF93082F162FEA01E1
:1003F00060E0CA010E94C70182E00E941201802FC2
:100400000E941201812F0E94120161E0CE010E9420
:10041000C70164E070E080E090E0DF91CF911F9130
:100420000F910C94FF09CF93DF93D62FC42F48E090
:1004300050E0682F82E30E94F10148E050E06D2F08
:1004400081E30E94F10148E050E06C2F85E3DF91E9
:10045000CF910C94F101CF93DF93D62FC42F48E0B6
:1004600050E0682F82E40E94F10148E050E06D2FD7
:1004700081E40E94F10148E050E06C2F85E4DF91B7
:10048000CF910C94F101CF93DF93D62FC42F48E086
:1004900050E0682F82E50E94F10148E050E06D2FA6
:1004A00081E50E94F10148E050E06C2F85E5DF9185
:1004B000CF910C94F10148E050E060E08AE20E94A4
:1004C000F10148E050E068EB89E20E94F10148E068
:1004D00050E065E088E20E94F1018091F7028823F4
:1004E00031F06DE171E08AE093E00C94D90D08954C
:1004F00048E050E063E08BE20E94F1018091F70256
:10050000882331F06FE371E08AE093E00C94D90D19
:1005100008951F93CF93DF93182FEB0160E0CE0176
:100520000E94C70183E00E941201812F0E941201E4
:1005300080E00E941201182F61E0CE010E94C701E5
:1005400064E070E080E090E00E94FF0948E050E045
:1005500060E08CE20E94F101812FDF91CF911F9129
:100560000895CF92DF92EF92FF920F931F93CF9354
:10057000DF93062FC3E0D0E048E050E0602F8FE02B
:100580000E94F10168E070E08EE00E948902182F5D
:100590000E94D0096B017C0160E070E0CB01101774
:1005A00091F0613177428105910594F468E070E043
:1005B0008EE00E948902182F0E94D0096C197D09D3
:1005C0008E099F09ECCF613177428105910564F076
:1005D0008091F702882331F060E971E08AE093E0CE
:1005E0000E94D90D219741F68091F702882331F0BE
:1005F0006AEB71E08AE093E00E94CC0D8091F702F3
:10060000882339F04AE050E0612F8AE093E00E94AD
:10061000BB0E8091F702882371F063E871E08AE0F5
:1006200093E0DF91CF911F910F91FF90EF90DF90BA
:10063000CF900C94D90DDF91CF911F910F91FF9026
:10064000EF90DF90CF900895FB01E457FD4F48E015
:1006500050E0682F80810C94F1011F93CF93DF93BA
:10066000182FEB0160E0CE010E94C701812F0E948C
:10067000120161E0CE010E94C70164E070E080E0F9
:1006800090E0DF91CF911F910C94FF09CF9368E028
:1006900070E080EC0E942D0368E070E08EE00E9424
:1006A0008902C82F62ED71E08AE093E00E94CC0DD0
:1006B000C7FD0EC068E070E08EE00E948902C82F7E
:1006C0004AE050E0682F8AE093E00E94BB0EF0CF32
:1006D0008091F702882331F067EE71E08AE093E0C1
:1006E0000E94CC0D8091F702882341F04AE050E04F
:1006F0006C2F8AE093E0CF910C94C20ECF910895B5
:100700000E9446030E945B020E94780260E080E043
:100710000C94B102FF920F931F93CF93DF9300D0FD
:10072000CDB7DEB726E040E855E260E070E08AE051
:1007300093E00E94770C81E08093F9028093F702A6
:100740001092F80261E088E00E94FC0A61E08AE011
:100750000E94FC0A60E082E00E94FC0A60E083E004
:100760000E94FC0A60E087E00E94FC0A61E084E0ED
:100770000E94FC0A61E08DE00E94FC0A60E085E0D6
:100780000E94FC0A85E00E946B0B9093F10280931B
:10079000F0028091F802882371F100E010E01A83E2
:1007A000098360E0CE0101960E94F2000F5F1F4FA7
:1007B00005301105A1F700E010E0FF24F394C80113
:1007C0000E94F0008111F12C0F5F1F4F05301105C1
:1007D000B1F7F11009C040E050E061E070E081E065
:1007E00090E00E944901F7CF64EF71E080E090E073
:1007F0000E94FF09F9CF84E090E00E94F000082FEA
:1008000010E00115110541F040E050E061E070E0BA
:10081000C8010E944901F8CF8091FF02882399F016
:100820009FB7F8948091FF02813059F48DB3809383
:10083000FD022DB38091FE02809582238DBB9FBF68
:1008400002C09093FD028CE58CBD1DBC0E94E108A6
:100850000E94800348E060911201809115010E947E
:10086000130248E060911301809116010E942B024F
:1008700048E060911401809117010E94430282E0D8
:1008800090E00E94F0008093C60283E090E00E9416
:10089000F0008093C7028091C6029091C702AA27F8
:1008A00097FDA095BA2F8093CA029093CB02A09394
:1008B000CC02B093CD028091F7028823A1F065E1CC
:1008C00072E08AE093E00E94CC0D4091CA02509100
:1008D000CB026091CC027091CD022AE030E08AE038
:1008E00093E00E949C0E80E090E00E94F0008093D4
:1008F000C40281E090E00E94F0008093C5028091E4
:10090000F702882381F069E272E08AE093E00E94B6
:10091000CC0D6091C4027091C5024AE050E08AE0BB
:1009200093E00E94840E1092C9021092C80241E026
:1009300050E06CE870E080E00E94180941E050E06F
:100940006EEB70E081E00E94180964E670E080E0E0
:1009500090E00E94FF090E94D0096093F302709317
:10096000F4028093F5029093F6020F900F90DF91BE
:10097000CF911F910F91FF9008958130910539F02B
:100980008230910531F0892B29F421E803C022E857
:1009900001C024E868E070E0822F0C942D03EF92F0
:1009A000FF920F931F93CF93DF938B01C0E0D0E0B2
:1009B000E82EF12CCE15DF0548F4A701BE01F801A1
:1009C00081918F010E9424032196F4CF80E090E072
:1009D000DF91CF911F910F91FF90EF900C94BD0488
:1009E0000F931F93CF93DF93C82F8B0160E0C80153
:1009F0000E94C7018C2F0E941201CCEBD2E080E054
:100A00000E941201899382E0C43CD807C1F761E0DB
:100A1000C8010E94C70181E0DF91CF911F910F9122
:100A200008956823613021F468E070E082E905C030
:100A3000623029F468E070E086E90E94F00481E009
:100A400008958F929F92AF92BF92CF92DF92EF92D2
:100A5000FF920F931F93CF93DF936B017C014901AA
:100A60005A0120E030E04FE753EC0E94261087FD4A
:100A70000AC020E030E04FE753E4C701B6010E940E
:100A80003F0F18167CF520E030E04FE753E4C70134
:100A9000B6010E94261018164CF420E030E04FE713
:100AA00053E4C701B6010E94DA0E12C020E030E024
:100AB0004FE753ECC701B6010E943F0F87FF12C0FA
:100AC00020E030E04FE753E4C701B6010E94DB0E9F
:100AD0006B017C0120E030E0A9010E94261018166D
:100AE000ACF003C0C12CD12C7601C1E0D0E020E0F5
:100AF00030E0A901C701B6010E943F0F87FD02C087
:100B0000C0E0D0E0D195C195D10902C0C1E0D0E0EC
:100B100020E030E0A901C501B4010E94261001E0E7
:100B200010E0181674F020E030E0A901C501B4010E
:100B30000E943F0F87FD02C000E010E01195019573
:100B40001109C017D10759F420E030E0A901C7010D
:100B5000B6010E943F0F882311F081E000C0DF91B1
:100B6000CF911F910F91FF90EF90DF90CF90BF90AA
:100B7000AF909F908F9008954F925F926F927F9267
:100B80008F929F92AF92BF92CF92DF92EF92FF929D
:100B9000CF93DF9300D000D0CDB7DEB76B017C01DF
:100BA00020910E0130910F014091100150911101DF
:100BB0000E942A104B015C016093DE027093DF02F9
:100BC0008093E0029093E1026091D2027091D3028F
:100BD0008091D4029091D502A70196010E9421052F
:100BE000882321F020E030E0A9010AC02DEC3CEC84
:100BF0004CE45DE3C701B6010E942A109B01AC01E1
:100C00006091DA027091DB028091DC029091DD024A
:100C10000E94DB0E6093DA027093DB028093DC02A9
:100C20009093DD0220910A0130910B0140910C015B
:100C300050910D016091DA027091DB028091DC022B
:100C40009091DD020E942A102B013C016093DA0290
:100C50007093DB028093DC029093DD028091CE02E0
:100C60009091CF02A091D002B091D10289839A8352
:100C7000AB83BC83209106013091070140910801AC
:100C800050910901C701B6010E942A1029813A81B9
:100C90004B815C810E94DA0E2091020130910301A8
:100CA00040910401509105010E942A106B017C01C2
:100CB0006093D6027093D7028093D8029093D902A2
:100CC000A3019201C501B4010E94DB0EA7019601A8
:100CD0000E94DB0E4B015C016093D2027093D30241
:100CE0008093D4029093D50220E030E04FE753E4A4
:100CF0000E94261018168CF020E030E04FE753ECED
:100D0000C501B4010E943F0F87FF0DC0812C912CBB
:100D10009FE7A92E93ECB92E06C0812C912C8FE76A
:100D2000A82E83E4B82E2DEC3CEC4CE45DE3C70127
:100D3000B6010E942A109B01AC0169817A818B81E6
:100D40009C810E94DB0E6093CE027093CF02809351
:100D5000D0029093D102C501B4010F900F900F9073
:100D60000F90DF91CF91FF90EF90DF90CF90BF90E9
:100D7000AF909F908F907F906F905F904F9008956D
:100D8000CF92DF92EF92FF920F931F93CF93DF9357
:100D900000D0CDB7DEB71092EE021092FC02109296
:100DA000FB0281E08093FA0287E00E946B0B892BA3
:100DB00079F488E090E00E94D4018093EE0263E031
:100DC0000E94110569E170E080E090E00E94FF0957
:100DD0004091BD02242F30E08091000190910101EB
:100DE0002817390709F0E2C18091BC0281110BC0BC
:100DF0001092F202E4EBF2E0119292E0EC3BF90780
:100E0000D9F74093B5029FEF980F943058F4909122
:100E1000F202913039F08093B40282E08093B602FE
:100E20004093B50264EB72E088E00E94CF0469E170
:100E300070E080E090E00E94FF098091BC02823067
:100E400009F06DC09091F20281E0981709F467C033
:100E50008093F2026091CA021A821982CE01019631
:100E60000E94F2008091CA029091CB02A091CC0224
:100E7000B091CD02692F7A2F8B2F992787FD9A95F4
:100E800021E030E03A832983CE0101960E94F200EE
:100E900080E090E00E94F0001091CA02F090CB0236
:100EA00001E0811300E081E090E00E94F0008F11EA
:100EB0002DC0002359F11093C4028093C502809184
:100EC000F702882381F06DE372E08AE093E00E94EC
:100ED000CC0D6091C4027091C5024AE050E08AE0F6
:100EE00093E00E94840E81E08093B60284E090E05B
:100EF0009A83898360E0CE0101960E94F20060E54A
:100F000072E08AE093E00E94D90D09C084E090E08D
:100F10009A83898362E0CE0101960E94F20080915B
:100F2000BC02833089F49091F20281E0981761F05D
:100F30008093F202109218018093B60267E572E086
:100F40008AE093E00E94D90D8091BC02843089F43C
:100F50009091F20281E0981761F08093F202809301
:100F600018018093B6026CE672E08AE093E00E947A
:100F7000D90D8091BC028130A9F59091F2029817A9
:100F800089F18093F2028091C0028093C80280911F
:100F9000BF028093C9026091C8027091C90288277C
:100FA00077FD8095982F0E94760F6093EA027093E8
:100FB000EB028093EC029093ED022091C10221118B
:100FC0000BC0DC01CB01B0588093EA029093EB0296
:100FD000A093EC02B093ED0260E872E08AE093E047
:100FE0000E94D90D80911801882309F4C6C0609130
:100FF000CA027091CB028091CC029091CD020E94E6
:10100000760F6B017C016093E2027093E3028093A0
:10101000E4029093E5026091C8027091C902809148
:10102000C4029091C502680F791F882777FD8095CB
:10103000982F0E94760F9B01AC016093EA02709397
:10104000EB028093EC029093ED02C701B6010E947F
:10105000DA0E6B017C0120E030E0A9010E9426102D
:1010600018165CF42AE939E949E15EE3C701B601E3
:101070000E943F0F18165CF013C02AE939E949E1D4
:101080005EEBC701B6010E94261087FF09C0C0921F
:10109000E602D092E702E092E802F092E90208C08C
:1010A0001092E6021092E7021092E8021092E90212
:1010B0006091E6027091E7028091E8029091E90266
:1010C0000E94BC056B017C0120E030E0A901609129
:1010D000E6027091E7028091E8029091E9020E9495
:1010E0003F0F882391F020E030E0A901C701B6014D
:1010F0000E943F0F87FF0CC060E084E00E94350B28
:10110000F7FAF094F7F8F09407C0C12CD12C7601CF
:1011100061E084E00E94350B8091C8029091C90281
:10112000865A9F4F853B910550F4C701B6010E9436
:10113000430F86E00E94740A1092EF0208C060E03C
:1011400070E086E00E94740A81E08093EF0211E073
:1011500020E030E0A901C701B6010E943F0F8111D4
:1011600010E08091EF02812B41F08091BC02813030
:1011700021F48093B6021092EF0285E00E946B0B7F
:1011800041E050E0009711F040E050E02091F00283
:101190003091F10224233523232B41F4892B31F0A4
:1011A00081E090E09093F1028093F0020F900F9015
:1011B000DF91CF911F910F91FF90EF90DF90CF9033
:1011C0000895CF93CFB7F89480910003811127C081
:1011D000EAE9F0E08491E6E8F0E09491E82FF0E0AD
:1011E000EE0FFF1FE854FF4FA591B4918C91892316
:1011F00021F461E08AE00E94350B61E08AE00E9400
:10120000FC0A8CB580618CBD8CB580648CBD61E0BE
:101210008DE00E94FC0A61E08BE00E94FC0A809154
:1012200000038F5F80930003CFBFCF91089508958F
:101230008230E8F4E82FF0E0EE0FFF1FE75EFE4F8C
:1012400071836083813041F0809169008C7F842BB1
:1012500080936900E89A089580916900440F551FB2
:10126000440F551F837F842B80936900E99A08956A
:101270001F920F920FB60F9211242F933F934F930B
:101280005F936F937F938F939F93AF93BF93EF93EE
:10129000FF93E0911901F0911A010995FF91EF91E7
:1012A000BF91AF919F918F917F916F915F914F917E
:1012B0003F912F910F900FBE0F901F9018951F9286
:1012C0000F920FB60F9211242F933F934F935F937A
:1012D0006F937F938F939F93AF93BF93EF93FF93FE
:1012E000E0911B01F0911C010995FF91EF91BF91D5
:1012F000AF919F918F917F916F915F914F913F91AE
:101300002F910F900FBE0F901F9018951F920F9264
:101310000FB60F9211242F933F938F939F93AF9308
:10132000BF938091020390910303A0910403B091B5
:1013300005033091010323E0230F2D3720F401969C
:10134000A11DB11D05C026E8230F0296A11DB11DE8
:10135000209301038093020390930303A09304035B
:10136000B09305038091060390910703A0910803B1
:10137000B09109030196A11DB11D809306039093BE
:101380000703A0930803B0930903BF91AF919F9106
:101390008F913F912F910F900FBE0F901F90189536
:1013A0002FB7F894609102037091030380910403B6
:1013B000909105032FBF08953FB7F89480910603DD
:1013C00090910703A0910803B091090326B5A89B4B
:1013D00005C02F3F19F00196A11DB11D3FBF662723
:1013E000782F892F9A2F620F711D811D911D42E068
:1013F000660F771F881F991F4A95D1F708958F921E
:101400009F92AF92BF92CF92DF92EF92FF926B01C9
:101410007C010E94DC094B015C01C114D104E10490
:10142000F104F1F00E94D90E0E94DC0968197909D3
:101430008A099B09683E73408105910570F321E09C
:10144000C21AD108E108F10888EE880E83E0981EE0
:10145000A11CB11CC114D104E104F10429F7DDCFB2
:10146000FF90EF90DF90CF90BF90AF909F908F90C4
:101470000895789484B5826084BD84B5816084BD0C
:1014800085B5826085BD85B5816085BDEEE6F0E0FD
:10149000808181608083E1E8F0E010828081826059
:1014A0008083808181608083E0E8F0E080818160DA
:1014B0008083E1EBF0E0808184608083E0EBF0E00A
:1014C000808181608083EAE7F0E0808184608083AE
:1014D0008081826080838081816080838081806858
:1014E00080831092C10008951F93CF93DF93182F2C
:1014F000EB0161E00E94FC0A209711F460E004C057
:10150000CF3FD10539F461E0812FDF91CF911F9159
:101510000C94350BE12FF0E0E859FF4FE491E330F4
:10152000F9F048F4E130B9F0E230A1F584B5806219
:1015300084BDC8BD34C0E730E9F0E83019F1E430CB
:1015400049F580918000806280938000D0938B0069
:10155000C0938A0024C084B5806884BDC7BD1FC005
:1015600080918000806880938000D0938900C09330
:10157000880015C08091B00080688093B000C0934F
:10158000B3000DC08091B00080628093B000C09322
:10159000B40005C0C038D1050CF0B5CFAFCFDF9196
:1015A000CF911F910895833081F028F4813099F014
:1015B0008230A1F008958730A9F08830B9F08430E6
:1015C000D1F4809180008F7D03C0809180008F775F
:1015D00080938000089584B58F7702C084B58F7D95
:1015E00084BD08958091B0008F7703C08091B000D2
:1015F0008F7D8093B0000895CF93DF9390E0FC013E
:10160000E458FF4F2491FC01E057FF4F8491882359
:1016100049F190E0880F991FFC01E854FF4FA59114
:10162000B49182559F4FFC01C591D4919FB7611130
:1016300008C0F8948C91209582238C938881822312
:101640000AC0623051F4F8948C91322F3095832384
:101650008C938881822B888304C0F8948C91822B90
:101660008C939FBFDF91CF9108950F931F93CF93DA
:10167000DF931F92CDB7DEB7282F30E0F901E8598C
:10168000FF4F8491F901E458FF4F1491F901E0579D
:10169000FF4F04910023C9F0882321F069830E9441
:1016A000D30A6981E02FF0E0EE0FFF1FE255FF4FF4
:1016B000A591B4919FB7F8948C91611103C01095D6
:1016C000812301C0812B8C939FBF0F90DF91CF911D
:1016D0001F910F910895CF93DF93282F30E0F901E8
:1016E000E859FF4F8491F901E458FF4FD491F90173
:1016F000E057FF4FC491CC2391F081110E94D30A8F
:10170000EC2FF0E0EE0FFF1FEC55FF4FA591B491C9
:101710002C912D2381E090E021F480E002C080E054
:1017200090E0DF91CF910895FC01818D228D90E0B2
:10173000805C9F4F821B91098F7399270895FC014C
:10174000918D828D981731F0828DE80FF11D858D76
:1017500090E008958FEF9FEF0895FC01918D828DA9
:10176000981761F0828DDF01A80FB11D5D968C91F5
:10177000928D9F5F9F73928F90E008958FEF9FEF00
:10178000089581E39DE0892B49F080E090E0892B6A
:1017900029F00E94310D81110C9400000895FC0184
:1017A000848DDF01A80FB11DA35ABF4F2C91848DEA
:1017B00090E001968F739927848FA689B7892C931F
:1017C000A089B1898C9180648C93938D848D9813BA
:1017D00006C00288F389E02D80818F7D8083089583
:1017E000CF93DF93EC01888D8823C9F0EA89FB89C8
:1017F000808185FD05C0A889B9898C9186FD0FC0BF
:101800000FB607FCF5CF808185FFF2CFA889B98993
:101810008C9185FFEDCFCE010E94CF0BE7CFDF91FA
:10182000CF910895CF92DF92FF920F931F93CF93A2
:10183000DF931F92CDB7DEB76C0181E0D6015896D9
:101840008C9358975B969C915B975C968C915C9778
:10185000981307C05096ED91FC915197808185FDBA
:101860002EC0F601038D10E00F5F1F4F0F7311277D
:10187000F02EF601848DF81211C00FB607FCF9CFD7
:10188000D6015096ED91FC915197808185FFF1CF63
:10189000C60169830E94CF0B6981EBCF838DE80F6E
:1018A000F11DE35AFF4F6083D6015B960C935B9763
:1018B0005296ED91FC915397808180620CC0D601C5
:1018C0005696ED91FC91579760835096ED91FC915F
:1018D000519780818064808381E090E00F90DF9158
:1018E000CF911F910F91FF90DF90CF900895BF92FD
:1018F000CF92DF92EF92FF92CF93DF93EC016A01D8
:101900007B01B22EE889F98982E08083411581EE5E
:10191000580761057105A1F060E079E08DE390E082
:10192000A70196010E948D102150310941095109EA
:101930005695479537952795211580E1380798F0FA
:10194000E889F989108260E874E88EE190E0A701E7
:1019500096010E948D102150310941095109569577
:10196000479537952795EC85FD853083EE85FF8576
:101970002083188EEC89FD89B082EA89FB898081F9
:1019800080618083EA89FB89808188608083EA891D
:10199000FB89808180688083EA89FB8980818F7DD3
:1019A0008083DF91CF91FF90EF90DF90CF90BF9039
:1019B00008951F920F920FB60F9211242F938F93B9
:1019C0009F93EF93FF93E0911A03F0911B038081A3
:1019D000E0912003F091210382FD12C0908180915B
:1019E00023038F5F8F7320912403821751F0E091BE
:1019F0002303F0E0E65FFC4F958F8093230301C043
:101A00008081FF91EF919F918F912F910F900FBE49
:101A10000F901F9018951F920F920FB60F921124DE
:101A20002F933F934F935F936F937F938F939F93E6
:101A3000AF93BF93EF93FF938AE093E00E94CF0BA5
:101A4000FF91EF91BF91AF919F918F917F916F9196
:101A50005F914F913F912F910F900FBE0F901F906C
:101A600018958AE093E00E94940B21E0892B09F4F9
:101A700020E0822F089510920D0310920C0388EE3F
:101A800093E0A0E0B0E080930E0390930F03A09347
:101A90001003B093110388E992E090930B038093B5
:101AA0000A0385EC90E0909317038093160384EC6F
:101AB00090E0909319038093180380EC90E090934A
:101AC0001B0380931A0381EC90E090931D03809395
:101AD0001C0382EC90E090931F0380931E0386EC1E
:101AE00090E090932103809320031092230310929F
:101AF00024031092250310922603089508950E944E
:101B0000390A0E947E0D0E948A03C1ECDBE00E942C
:101B1000C0062097E1F30E94C10BF9CFCF92DF926C
:101B2000EF92FF920F931F93CF93DF937C016A0193
:101B3000EB0100E010E00C151D0571F06991D70173
:101B4000ED91FC910190F081E02DC7010995892B61
:101B500019F00F5F1F4FEFCFC801DF91CF911F9199
:101B60000F91FF90EF90DF90CF9008956115710570
:101B700081F0DB010D900020E9F7AD0141505109E2
:101B8000461B570BDC01ED91FC910280F381E02DA7
:101B9000099480E090E008950C94B60DDC01ED917D
:101BA000FC910190F081E02D099464EA72E00C94BC
:101BB000B60D0F931F93CF93DF93EC010E94B60DE8
:101BC0008C01CE010E94D50D800F911FDF91CF9126
:101BD0001F910F9108958F929F92AF92BF92DF92C3
:101BE000EF92FF920F931F93CF93DF93CDB7DEB7A2
:101BF000A1970FB6F894DEBF0FBECDBF7C01F42FC6
:101C0000D52ECB0119A2223008F42AE08E010F5DF7
:101C10001F4F822E912CA12CB12C6F2F7D2DA50151
:101C200094010E948D10F22FD32ECA010150110988
:101C30006A3014F4E0E301C0E7E3E60FD801EC9367
:101C4000232B242B252B49F7B801C7010E94B60D81
:101C5000A1960FB6F894DEBF0FBECDBFDF91CF9136
:101C60001F910F91FF90EF90DF90BF90AF909F90EA
:101C70008F900895CF92DF92EF92FF920F931F9370
:101C8000CF93DF93EC016A017B012115310579F4D3
:101C9000E881F9810190F081E02D642FDF91CF91EF
:101CA0001F910F91FF90EF90DF90CF9009942A3011
:101CB0003105E9F477FF1AC06DE20E94CE0D8C0168
:101CC00044275527BA014C195D096E097F092AE09E
:101CD000CE010E94EB0D800F911FDF91CF911F91DC
:101CE0000F91FF90EF90DF90CF9008952AE0B70119
:101CF000A601CE01DF91CF911F910F91FF90EF9040
:101D0000DF90CF900C94EB0D0F931F93CF93DF9345
:101D1000EC019A01AB01662757FD6095762F0E9472
:101D20003A0E8C01CE010E94D50D800F911FDF91DC
:101D3000CF911F910F9108950F931F93CF93DF932E
:101D4000EC010E943A0E8C01CE010E94D50D800F4D
:101D5000911FDF91CF911F910F91089521153105AA
:101D600041F4DC01ED91FC910190F081E02D642FB4
:101D700009940C94EB0D9A01462F50E060E070E05E
:101D80000C94AE0E0F931F93CF93DF93EC019A0147
:101D9000462F50E060E070E00E94AE0E8C01CE0154
:101DA0000E94D50D800F911FDF91CF911F910F9150
:101DB000089508955058BB27AA270ED00DC1FED014
:101DC00030F003D120F031F49F3F11F41EF4F3C042
:101DD0000EF4E095E7FBE9C0E92F0FD180F3BA17C5
:101DE000620773078407950718F071F49EF527C101
:101DF0000EF4E0950B2EBA2FA02D0B01B901900126
:101E00000C01CA01A0011124FF27591B99F0593F69
:101E100050F4503E68F11A16F040A22F232F342FB1
:101E20004427585FF3CF469537952795A795F040FF
:101E30005395C9F77EF41F16BA0B620B730B840B14
:101E4000BAF09150A1F0FF0FBB1F661F771F881FCC
:101E5000C2F70EC0BA0F621F731F841F48F4879524
:101E600077956795B795F7959E3F08F0B3CF939513
:101E7000880F08F09927EE0F97958795089571D0F0
:101E800008F481E0089504D06894B111D9C0089590
:101E9000BCD088F09F5790F0B92F9927B751A0F088
:101EA000D1F0660F771F881F991F1AF0BA95C9F7EE
:101EB00012C0B13081F0C3D0B1E00895C0C0672F27
:101EC000782F8827B85F39F0B93FCCF3869577959E
:101ED0006795B395D9F73EF4909580957095619587
:101EE0007F4F8F4F9F4F0895E89409C097FB3EF4B2
:101EF00090958095709561957F4F8F4F9F4F992357
:101F0000A9F0F92F96E9BB279395F69587957795D4
:101F10006795B795F111F8CFFAF4BB0F11F460FF94
:101F20001BC06F5F7F4F8F4F9F4F16C0882311F0EC
:101F300096E911C0772321F09EE8872F762F05C000
:101F4000662371F096E8862F70E060E02AF09A959B
:101F5000660F771F881FDAF7880F9695879597F990
:101F60000895990F0008550FAA0BE0E8FEEF16162A
:101F70001706E807F907C0F012161306E407F5077D
:101F800098F0621B730B840B950B39F40A2661F0F1
:101F9000232B242B252B21F408950A2609F4A14094
:101FA000A6958FEF811D811D089597F99F6780E8A1
:101FB00070E060E008959FEF80EC089500240A949B
:101FC0001616170618060906089500240A94121614
:101FD0001306140605060895092E0394000C11F447
:101FE000882352F0BB0F40F4BF2B11F460FF04C0F4
:101FF0006F5F7F4F8F4F9F4F089557FD9058440F4D
:10200000551F59F05F3F71F04795880F97FB991F57
:1020100061F09F3F79F08795089512161306140614
:10202000551FF2CF4695F1DF08C0161617061806A1
:10203000991FF1CF86957105610508940895E8947C
:10204000BB2766277727CB0197F908958ADF08F425
:102050008FEF08950BD0C0CFB1DF28F0B6DF18F0B6
:10206000952309F0A2CFA7CF1124EACFC6DFA0F3B2
:10207000959FD1F3950F50E0551F629FF001729F1D
:10208000BB27F00DB11D639FAA27F00DB11DAA1F3C
:10209000649F6627B00DA11D661F829F2227B00D89
:1020A000A11D621F739FB00DA11D621F839FA00D14
:1020B000611D221F749F3327A00D611D231F849F64
:1020C000600D211D822F762F6A2F11249F575040BB
:1020D0008AF0E1F088234AF0EE0FFF1FBB1F661F56
:1020E000771F881F91505040A9F79E3F510570F00F
:1020F0005CCFA6CF5F3FECF3983EDCF386957795F7
:102100006795B795F795E7959F5FC1F7FE2B880F09
:10211000911D9695879597F90895A1E21A2EAA1B0D
:10212000BB1BFD010DC0AA1FBB1FEE1FFF1FA21787
:10213000B307E407F50720F0A21BB30BE40BF50B84
:10214000661F771F881F991F1A9469F7609570950D
:10215000809590959B01AC01BD01CF010895EE0FD4
:10216000FF1F0590F491E02D0994F999FECF92BDDF
:1021700081BDF89A992780B50895262FF999FECF49
:102180001FBA92BD81BD20BD0FB6F894FA9AF99A94
:0A2190000FBE01960895F894FFCFEA
:10219A0002002C8F9440E1C89F3EA2D5F9BE4CD9CB
:1021AA0029C103030360606001170917094D6370B1
:1021BA003235313520636F6E6669677572652062E4
:1021CA0075732073756363657366756C6C79004DFE
:1021DA0063703235313520636F6E66696775726573
:1021EA0020696E7465727275707473207375636397
:1021FA00657366756C6C79004D63703235313520C4
:10220A00636F6E666967757265207278206275669B
:10221A006665722073756363657366756C6C7900A5
:10222A0041626F72742077616974696E672E204DFE
:10223A0061782E2077616974696E672074696D65AB
:10224A0020726561636865642E004D6370323531B2
:10225A00352073776974636820746F206D6F6465C5
:10226A00200054727920746F207265736574204D52
:10227A00637032353135004D637032353135207235
:10228A00657365742073756363657366756C6C79C1
:10229A0020616E642073776974636820646F206DAF
:1022AA006F64652000656E636F64657256616C7554
:1022BA0065206C6173743A20007265665F706F7393
:1022CA002E64617461206C6173743A2000726566D1
:1022DA005F706F732E64617461206E65773A2000B7
:1022EA00656570726F6D0064697361626C655069CF
:1022FA0064436F6E74726F6C6C657200656E6162B6
:10230A006C65506964436F6E74726F6C6C657200B1
:10231A006E6577506F736974696F6E003637383936
:10232A003A3B3C3D00000000120C8E0D940BAD0BA5
:10233A009F0BF00B0D0A006E616E00696E66006FEE
:04234A0076660000B3
:00000001FF
