:100000000C9462000C941C060C9443060C948A0019
:100010000C948A000C948A000C948A000C948A0038
:100020000C948A000C948A000C948A000C948A0028
:100030000C948A000C948A000C948A000C948A0018
:100040000C946A060C948A000C94BD090C94EF0978
:100050000C948A000C948A000C948A000C948A00F8
:100060000C948A000C948A00000000080002010031
:100070000003040700000000000000000102040863
:100080001020408001020408102001020408102002
:10009000040404040404040402020202020203032E
:1000A00003030303000000002300260029000000D2
:1000B0000000250028002B0000000000240027007D
:1000C0002A001F0A11241FBECFEFD8E0DEBFCDBF2C
:1000D00012E0A0E0B1E0E2EEFAE102C005900D927C
:1000E000A033B107D9F723E0A0E3B2E001C01D922D
:1000F000A131B207E1F710E0C4ECD0E004C02297D0
:10010000FE010E946B0DC23CD107C9F70E94630A31
:100110000C946F0D0C94000082E00E944F08019730
:1001200071F483E00E944F084091520250915302B3
:100130006091540270915502892B99F40DC083E0AF
:100140000E944F0840915202509153026091540214
:1001500070915502019729F44F5F5F4F6F4F7F4FAA
:1001600004C04150510961097109409352025093F2
:1001700053026093540270935502089583E00E94E5
:100180004F08019771F482E00E944F08409152029B
:10019000509153026091540270915502019799F465
:1001A0000DC082E00E944F084091520250915302CC
:1001B0006091540270915502892B29F44F5F5F4F73
:1001C0006F4F7F4F04C0415051096109710940933D
:1001D0005202509353026093540270935502089553
:1001E0008EBD00000DB407FEFDCF8EB508958F9231
:1001F0009F92AF92BF92CF92DF92EF92FF920F93B6
:100200001F93CF93DF936B017C0149015A0120E0DA
:1002100030E04FE753EC0E94E00C87FD0AC020E07D
:1002200030E04FE753E4C701B6010E94F90B1816FE
:100230007CF520E030E04FE753E4C701B6010E94AF
:10024000E00C18164CF420E030E04FE753E4C7010F
:10025000B6010E94940B12C020E030E04FE753EC4F
:10026000C701B6010E94F90B87FF12C020E030E001
:100270004FE753E4C701B6010E94950B6B017C0167
:1002800020E030E0A9010E94E00C1816ACF003C099
:10029000C12CD12C7601C1E0D0E020E030E0A901F2
:1002A000C701B6010E94F90B87FD02C0C0E0D0E093
:1002B000D195C195D10902C0C1E0D0E020E030E085
:1002C000A901C501B4010E94E00C01E010E018167C
:1002D00074F020E030E0A901C501B4010E94F90BDF
:1002E00087FD02C000E010E0119501951109C017CB
:1002F000D10759F420E030E0A901C701B6010E94FE
:10030000F90B882311F081E000C0DF91CF911F919C
:100310000F91FF90EF90DF90CF90BF90AF909F90A4
:100320008F9008954F925F926F927F928F929F92DB
:10033000AF92BF92CF92DF92EF92FF92CF93DF9373
:1003400000D000D0CDB7DEB76B017C0120910C014D
:1003500030910D0140910E0150910F010E94E40C6B
:100360004B015C0160934002709341028093420212
:10037000909343026091340270913502809136026D
:1003800090913702A70196010E94F700882321F07F
:1003900020E030E0A9010AC02DEC3CEC4CE45DE328
:1003A000C701B6010E94E40C9B01AC0160913C02C4
:1003B00070913D0280913E0290913F020E94950B08
:1003C00060933C0270933D0280933E0290933F0203
:1003D000209108013091090140910A0150910B01CF
:1003E00060913C0270913D0280913E0290913F02EB
:1003F0000E94E40C2B013C0160933C0270933D028F
:1004000080933E0290933F0280913002909131029E
:10041000A0913202B091330289839A83AB83BC836B
:10042000209104013091050140910601509107018E
:10043000C701B6010E94E40C29813A814B815C819D
:100440000E94940B20910001309101014091020122
:10045000509103010E94E40C6B017C01609338020F
:100460007093390280933A0290933B02A301920168
:10047000C501B4010E94950BA70196010E94950B3E
:100480004B015C0160933402709335028093360215
:100490009093370220E030E04FE753E40E94E00CF5
:1004A00018168CF020E030E04FE753ECC501B401A2
:1004B0000E94F90B87FF0DC0812C912C9FE7A92E7C
:1004C00093ECB92E06C0812C912C8FE7A82E83E4E3
:1004D000B82E2DEC3CEC4CE45DE3C701B6010E9464
:1004E000E40C9B01AC0169817A818B819C810E9423
:1004F000950B609330027093310280933202909397
:100500003302C501B4010F900F900F900F90DF914F
:10051000CF91FF90EF90DF90CF90BF90AF909F90E2
:100520008F907F906F905F904F900895CF93DF935F
:10053000D82FC62F8AE00E9419086C2F8D2FDF91CB
:10054000CF910C9419081F93CF93DF93EC0160E0D7
:100550000E94960280EA0E94F00080E00E94F00073
:10056000182F61E0CE010E94960262E070E080E008
:1005700090E00E94E306812FDF91CF911F910895B3
:100580000F931F93CF93DF93082F162FEA0160E09C
:10059000CA010E94960282E00E94F000802F0E9411
:1005A000F000812F0E94F00061E0CE010E949602CF
:1005B00062E070E080E090E0DF91CF911F910F91B9
:1005C0000C94E30648E050E060E08AE20E94C0023A
:1005D00048E050E068EB89E20E94C00248E050E049
:1005E00065E088E20E94C00280915A02882331F0BF
:1005F00064E171E084E792E00C94BD0A089548E05C
:1006000050E063E08BE20E94C00280915A0288238E
:1006100031F066E371E084E792E00C94BD0A08953E
:100620001F93CF93DF93182FEB0160E0CE010E9460
:10063000960283E00E94F000812F0E94F00080E08B
:100640000E94F000182F61E0CE010E94960262E045
:1006500070E080E090E00E94E30648E050E060E057
:100660008CE20E94C002812FDF91CF911F910895EB
:10067000CF92DF92EF92FF920F931F93CF93DF936E
:10068000062FC3E0D0E048E050E0602F8FE00E94EA
:10069000C00268E070E08EE00E941003182F0E94F4
:1006A000B4066B017C0160E070E0CB01101791F0A3
:1006B000613177428105910594F468E070E08EE045
:1006C0000E941003182F0E94B4066C197D098E0930
:1006D0009F09ECCF613177428105910564F08091EB
:1006E0005A02882331F067E871E084E792E00E94C3
:1006F000BD0A219741F680915A02882331F061EBBF
:1007000071E084E792E00E94B00A80915A02882347
:1007100039F04AE050E0612F84E792E00E94750BC7
:1007200080915A02882371F06AE771E084E792E0D1
:10073000DF91CF911F910F91FF90EF90DF90CF90BD
:100740000C94BD0ADF91CF911F910F91FF90EF9014
:10075000DF90CF9008951F93CF93DF93182FEB0175
:1007600060E0CE010E949602812F0E94F00061E0BD
:10077000CE010E94960262E070E080E090E0DF919E
:10078000CF911F910C94E306CF9368E070E080EC6A
:100790000E94AB0368E070E08EE00E941003C82F57
:1007A00069EC71E084E792E00E94B00AC7FD0EC0D8
:1007B00068E070E08EE00E941003C82F4AE050E02D
:1007C000682F84E792E00E94750BF0CF80915A0267
:1007D000882331F06EED71E084E792E00E94B00A68
:1007E00080915A02882341F04AE050E06C2F84E760
:1007F00092E0CF910C947C0BCF9108950E94C4039A
:100800000E94E2020E94FF0260E080E00C94380344
:1008100026E040E855E260E070E084E792E00E9464
:100820005B0981E08093610280935A0261E088E075
:100830000E94E00761E08AE00E94E00760E082E059
:100840000E94E00760E083E00E94E00760E087E04C
:100850000E94E00761E084E00E94E0078091690265
:10086000882399F09FB7F89480916902813059F4F8
:100870008DB3809367022DB38091680280958223A7
:100880008DBB9FBF02C0909367028CE58CBD1DBCE1
:100890000E94C5050E94FE030E94B40660935602A2
:1008A00070935702809358029093590241E050E0B0
:1008B0006CE870E080E00E94FC0541E050E06EEBE7
:1008C00070E081E00E94FC0564E670E080E090E06A
:1008D0000C94E306CF92DF92EF92FF920F931F9357
:1008E000CF93DF9300D01F92CDB7DEB7182F7B01D7
:1008F00060E0C7010E949602812F0E94F0008E01E5
:100900000F5F1F4F6E0184E0C80ED11C80E00E9473
:10091000F000F80181938F01EC15FD05B9F761E056
:10092000C7010E949602898190E0909351028093C2
:1009300050028B81809365028A818093660281E0F8
:100940000F900F900F90DF91CF911F910F91FF901B
:10095000EF90DF90CF9008956823613021F468E034
:1009600070E082E905C0623029F468E070E086E951
:100970000E946A0481E008958F929F92AF92BF9285
:10098000CF92DF92EF92FF92CF93DF9300D000D00F
:10099000CDB7DEB710925E0210926402109263022D
:1009A00081E08093620287E00E944F08019769F41A
:1009B00061E070E080E090E00E94E3066CE072E0AD
:1009C00084E792E00E94B00AEECF88E090E00E94B7
:1009D000A30280935E0263E00E94AC046091650212
:1009E00070916602882777FD8095982F0E94300CC1
:1009F0009B01AC0160934C0270934D0280934E02B8
:100A000090934F028090520290905302A090540213
:100A1000B0905502C501B40129833A834B835C83AE
:100A20000E94300C6093440270934502809346020A
:100A30009093470229813A814B815C810E94940BFB
:100A40006B017C0120E030E0A9010E94E00C181647
:100A50005CF42AE939E949E15EE3C701B6010E9485
:100A6000F90B18165CF013C02AE939E949E15EEB8D
:100A7000C701B6010E94E00C87FF09C0C09248027E
:100A8000D0924902E0924A02F0924B0208C01092C2
:100A900048021092490210924A0210924B022AE038
:100AA00030E0B501A40184E792E00E941E0B609142
:100AB00048027091490280914A0290914B020E9433
:100AC00092016B017C0120E030E0A9010E94F90B4A
:100AD00087FF09C061E084E00E941908F7FAF094EA
:100AE000F7F8F09404C060E084E00E941908C701A0
:100AF000B6010E94FD0B89E00E94580769E170E091
:100B000080E090E00E94E3066091520270915302EF
:100B100080915402909155020E94300C20E030E008
:100B200040E251E40E94E40C0E94FD0B70936002CD
:100B300060935F0277FF0AC010925B027195619526
:100B400071097093600260935F0203C081E080933B
:100B50005B0290915F028091600290935C028093AF
:100B60005D0269E170E080E090E00F900F900F90DF
:100B70000F90DF91CF91FF90EF90DF90CF90BF90DB
:100B8000AF909F908F900C94E306CF93CFB7F894DB
:100B900080916A02811127C0EAE9F0E08491E6E8D9
:100BA000F0E09491E82FF0E0EE0FFF1FE854FF4FC4
:100BB000A591B4918C91892321F461E08AE00E948F
:100BC000190861E08AE00E94E0078CB580618CBD65
:100BD0008CB580648CBD61E08DE00E94E00761E02F
:100BE0008BE00E94E00780916A028F5F80936A0227
:100BF000CFBFCF91089508958230E8F4E82FF0E058
:100C0000EE0FFF1FE05FFE4F71836083813041F084
:100C1000809169008C7F842B80936900E89A089505
:100C200080916900440F551F440F551F837F842B0B
:100C300080936900E99A08951F920F920FB60F9260
:100C400011242F933F934F935F936F937F938F93D1
:100C50009F93AF93BF93EF93FF93E0911001F091B7
:100C600011010995FF91EF91BF91AF919F918F91E4
:100C70007F916F915F914F913F912F910F900FBE98
:100C80000F901F9018951F920F920FB60F9211247C
:100C90002F933F934F935F936F937F938F939F9384
:100CA000AF93BF93EF93FF93E0911201F091130183
:100CB0000995FF91EF91BF91AF919F918F917F9196
:100CC0006F915F914F913F912F910F900FBE0F90B9
:100CD0001F9018951F920F920FB60F9211242F9309
:100CE0003F938F939F93AF93BF9380916C029091AA
:100CF0006D02A0916E02B0916F0230916B0223E001
:100D0000230F2D3720F40196A11DB11D05C026E843
:100D1000230F0296A11DB11D20936B0280936C02DC
:100D200090936D02A0936E02B0936F028091700257
:100D300090917102A0917202B09173020196A11D6F
:100D4000B11D8093700290937102A0937202B093D0
:100D50007302BF91AF919F918F913F912F910F900F
:100D60000FBE0F901F9018952FB7F89460916C02EA
:100D700070916D0280916E0290916F022FBF089565
:100D80003FB7F8948091700290917102A091720225
:100D9000B091730226B5A89B05C02F3F19F00196AC
:100DA000A11DB11D3FBF6627782F892F9A2F620F93
:100DB000711D811D911D42E0660F771F881F991FCD
:100DC0004A95D1F708958F929F92AF92BF92CF929A
:100DD000DF92EF92FF926B017C010E94C0064B01F3
:100DE0005C01C114D104E104F104F1F00E94930B01
:100DF0000E94C006681979098A099B09683E7340F8
:100E00008105910570F321E0C21AD108E108F108CB
:100E100088EE880E83E0981EA11CB11CC114D10479
:100E2000E104F10429F7DDCFFF90EF90DF90CF9040
:100E3000BF90AF909F908F900895789484B5826012
:100E400084BD84B5816084BD85B5826085BD85B56E
:100E5000816085BDEEE6F0E0808181608083E1E81D
:100E6000F0E0108280818260808380818160808355
:100E7000E0E8F0E0808181608083E1EBF0E0808158
:100E800084608083E0EBF0E0808181608083EAE72A
:100E9000F0E08081846080838081826080838081B3
:100EA000816080838081806880831092C100089572
:100EB0001F93CF93DF93182FEB0161E00E94E007AF
:100EC000209711F460E004C0CF3FD10539F461E010
:100ED000812FDF91CF911F910C941908E12FF0E041
:100EE000E859FF4FE491E330F9F048F4E130B9F00C
:100EF000E230A1F584B5806284BDC8BD34C0E7305E
:100F0000E9F0E83019F1E43049F580918000806221
:100F100080938000D0938B00C0938A0024C084B556
:100F2000806884BDC7BD1FC08091800080688093A9
:100F30008000D0938900C093880015C08091B000D4
:100F400080688093B000C093B3000DC08091B00062
:100F500080628093B000C093B40005C0C038D10552
:100F60000CF0B5CFAFCFDF91CF911F9108958330B3
:100F700081F028F4813099F08230A1F00895873013
:100F8000A9F08830B9F08430D1F4809180008F7D51
:100F900003C0809180008F7780938000089584B58E
:100FA0008F7702C084B58F7D84BD08958091B00095
:100FB0008F7703C08091B0008F7D8093B00008953B
:100FC000CF93DF9390E0FC01E458FF4F2491FC01A4
:100FD000E057FF4F8491882349F190E0880F991FD3
:100FE000FC01E854FF4FA591B49182559F4FFC013D
:100FF000C591D4919FB7611108C0F8948C91209548
:1010000082238C93888182230AC0623051F4F89441
:101010008C91322F309583238C938881822B888307
:1010200004C0F8948C91822B8C939FBFDF91CF9159
:1010300008950F931F93CF93DF931F92CDB7DEB721
:10104000282F30E0F901E859FF4F8491F901E45865
:10105000FF4F1491F901E057FF4F04910023C9F0AD
:10106000882321F069830E94B7076981E02FF0E0AF
:10107000EE0FFF1FE255FF4FA591B4919FB7F89473
:101080008C91611103C01095812301C0812B8C9339
:101090009FBF0F90DF91CF911F910F910895CF9334
:1010A000DF93282F30E0F901E859FF4F8491F901CF
:1010B000E458FF4FD491F901E057FF4FC491CC237E
:1010C00091F081110E94B707EC2FF0E0EE0FFF1FA7
:1010D000EC55FF4FA591B4912C912D2381E090E028
:1010E00021F480E002C080E090E0DF91CF9108958C
:1010F000FC01818D228D90E0805C9F4F821B9109C5
:101100008F7399270895FC01918D828D981731F086
:10111000828DE80FF11D858D90E008958FEF9FEF90
:101120000895FC01918D828D981761F0828DDF0109
:10113000A80FB11D5D968C91928D9F5F9F73928FCA
:1011400090E008958FEF9FEF089585E19AE0892B55
:1011500049F080E090E0892B29F00E94150A811166
:101160000C9400000895FC01848DDF01A80FB11DCF
:10117000A35ABF4F2C91848D90E001968F739927CD
:10118000848FA689B7892C93A089B1898C918064BA
:101190008C93938D848D981306C00288F389E02D7B
:1011A00080818F7D80830895CF93DF93EC01888DBC
:1011B0008823C9F0EA89FB89808185FD05C0A8895B
:1011C000B9898C9186FD0FC00FB607FCF5CF8081E1
:1011D00085FFF2CFA889B9898C9185FFEDCFCE012B
:1011E0000E94B308E7CFDF91CF910895CF92DF92AD
:1011F000FF920F931F93CF93DF931F92CDB7DEB76C
:101200006C0181E0D60158968C9358975B969C911F
:101210005B975C968C915C97981307C05096ED9104
:10122000FC915197808185FD2EC0F601038D10E061
:101230000F5F1F4F0F731127F02EF601848DF812E8
:1012400011C00FB607FCF9CFD6015096ED91FC9175
:101250005197808185FFF1CFC60169830E94B30851
:101260006981EBCF838DE80FF11DE35AFF4F608357
:10127000D6015B960C935B975296ED91FC91539738
:10128000808180620CC0D6015696ED91FC915797F3
:1012900060835096ED91FC915197808180648083AA
:1012A00081E090E00F90DF91CF911F910F91FF901F
:1012B000DF90CF900895BF92CF92DF92EF92FF928E
:1012C000CF93DF93EC016A017B01B22EE889F989A3
:1012D00082E08083411581EE580761057105A1F018
:1012E00060E079E08DE390E0A70196010E94470D50
:1012F0002150310941095109569547953795279550
:10130000211580E1380798F0E889F989108260E8B2
:1013100074E88EE190E0A70196010E94470D2150EC
:101320003109410951095695479537952795EC851F
:10133000FD853083EE85FF852083188EEC89FD893D
:10134000B082EA89FB89808180618083EA89FB8998
:10135000808188608083EA89FB89808180688083BE
:10136000EA89FB8980818F7D8083DF91CF91FF9017
:10137000EF90DF90CF90BF9008951F920F920FB61D
:101380000F9211242F938F939F93EF93FF93E091EC
:101390008402F09185028081E0918A02F0918B02B3
:1013A00082FD12C0908180918D028F5F8F7320919A
:1013B0008E02821751F0E0918D02F0E0EC58FD4F63
:1013C000958F80938D0201C08081FF91EF919F9155
:1013D0008F912F910F900FBE0F901F9018951F9215
:1013E0000F920FB60F9211242F933F934F935F9359
:1013F0006F937F938F939F93AF93BF93EF93FF93DD
:1014000084E792E00E94B308FF91EF91BF91AF9102
:101410009F918F917F916F915F914F913F912F910C
:101420000F900FBE0F901F90189584E792E00E94D6
:10143000780821E0892B09F420E0822F089510928A
:1014400077021092760288EE93E0A0E0B0E08093FD
:10145000780290937902A0937A02B0937B0285E19F
:1014600092E0909375028093740285EC90E09093E3
:1014700081028093800284EC90E0909383028093B9
:10148000820280EC90E0909385028093840281EC4C
:1014900090E0909387028093860282EC90E0909394
:1014A00089028093880286EC90E090938B0280936F
:1014B0008A0210928D0210928E0210928F02109268
:1014C0009002089508950E941D070E94620A0E94DA
:1014D0000804C5EAD8E00E94BC042097E1F30E940A
:1014E000A508F9CFCF92DF92EF92FF920F931F934F
:1014F000CF93DF937C016A01EB0100E010E00C1553
:101500001D0571F06991D701ED91FC910190F08179
:10151000E02DC7010995892B19F00F5F1F4FEFCF01
:10152000C801DF91CF911F910F91FF90EF90DF9055
:10153000CF9008956115710581F0DB010D900020B9
:10154000E9F7AD0141505109461B570BDC01ED9104
:10155000FC910280F381E02D099480E090E00895F1
:101560000C949A0ADC01ED91FC910190F081E02D40
:10157000099461E272E00C949A0A0F931F93CF933F
:10158000DF93EC010E949A0A8C01CE010E94B90AF5
:10159000800F911FDF91CF911F910F9108958F922E
:1015A0009F92AF92BF92DF92EF92FF920F931F93A1
:1015B000CF93DF93CDB7DEB7A1970FB6F894DEBF18
:1015C0000FBECDBF7C01F42FD52ECB0119A2223046
:1015D00008F42AE08E010F5D1F4F822E912CA12C62
:1015E000B12C6F2F7D2DA50194010E94470DF22F84
:1015F000D32ECA01015011096A3014F4E0E301C08E
:10160000E7E3E60FD801EC93232B242B252B49F796
:10161000B801C7010E949A0AA1960FB6F894DEBFDE
:101620000FBECDBFDF91CF911F910F91FF90EF9033
:10163000DF90BF90AF909F908F900895CF92DF92F0
:10164000EF92FF920F931F93CF93DF93EC016A0108
:101650007B012115310579F4E881F9810190F08150
:10166000E02D642FDF91CF911F910F91FF90EF90AC
:10167000DF90CF9009942A303105E9F477FF1AC042
:101680006DE20E94B20A8C0144275527BA014C1919
:101690005D096E097F092AE0CE010E94CF0A800F02
:1016A000911FDF91CF911F910F91FF90EF90DF90ED
:1016B000CF9008952AE0B701A601CE01DF91CF9126
:1016C0001F910F91FF90EF90DF90CF900C94CF0A75
:1016D0002115310541F4DC01ED91FC910190F0817F
:1016E000E02D642F09940C94CF0A9A01462F50E004
:1016F00060E070E00C94680B0F931F93CF93DF931F
:10170000EC019A01462F50E060E070E00E94680B07
:101710008C01CE010E94B90A800F911FDF91CF91F9
:101720001F910F91089508955058BB27AA270ED0F6
:101730000DC1FED030F003D120F031F49F3F11F401
:101740001EF4F3C00EF4E095E7FBE9C0E92F0FD1DA
:1017500080F3BA17620773078407950718F071F4CE
:101760009EF527C10EF4E0950B2EBA2FA02D0B018C
:10177000B90190010C01CA01A0011124FF27591BD6
:1017800099F0593F50F4503E68F11A16F040A22FDC
:10179000232F342F4427585FF3CF4695379527954D
:1017A000A795F0405395C9F77EF41F16BA0B620B4C
:1017B000730B840BBAF09150A1F0FF0FBB1F661F93
:1017C000771F881FC2F70EC0BA0F621F731F841FD6
:1017D00048F4879577956795B795F7959E3F08F0FC
:1017E000B3CF9395880F08F09927EE0F97958795BB
:1017F000089571D008F481E0089504D06894B1117F
:10180000D9C00895BCD088F09F5790F0B92F992780
:10181000B751A0F0D1F0660F771F881F991F1AF0FB
:10182000BA95C9F712C0B13081F0C3D0B1E00895C4
:10183000C0C0672F782F8827B85F39F0B93FCCF345
:10184000869577956795B395D9F73EF490958095F1
:10185000709561957F4F8F4F9F4F0895E89409C011
:1018600097FB3EF490958095709561957F4F8F4FD3
:101870009F4F9923A9F0F92F96E9BB279395F695E9
:10188000879577956795B795F111F8CFFAF4BB0F67
:1018900011F460FF1BC06F5F7F4F8F4F9F4F16C0CB
:1018A000882311F096E911C0772321F09EE8872F55
:1018B000762F05C0662371F096E8862F70E060E011
:1018C0002AF09A95660F771F881FDAF7880F96958A
:1018D000879597F90895990F0008550FAA0BE0E82E
:1018E000FEEF16161706E807F907C0F012161306E2
:1018F000E407F50798F0621B730B840B950B39F422
:101900000A2661F0232B242B252B21F408950A2687
:1019100009F4A140A6958FEF811D811D089597F9C7
:101920009F6780E870E060E008959FEF80EC089585
:1019300000240A94161617061806090608950024AE
:101940000A9412161306140605060895092E039428
:10195000000C11F4882352F0BB0F40F4BF2B11F49C
:1019600060FF04C06F5F7F4F8F4F9F4F089557FDFB
:101970009058440F551F59F05F3F71F04795880FFD
:1019800097FB991F61F09F3F79F087950895121694
:1019900013061406551FF2CF4695F1DF08C0161640
:1019A00017061806991FF1CF8695710561050894F1
:1019B0000895E894BB2766277727CB0197F9089508
:1019C0008ADF08F48FEF08950BD0C0CFB1DF28F085
:1019D000B6DF18F0952309F0A2CFA7CF1124EACFE4
:1019E000C6DFA0F3959FD1F3950F50E0551F629F7E
:1019F000F001729FBB27F00DB11D639FAA27F00D68
:101A0000B11DAA1F649F6627B00DA11D661F829F8E
:101A10002227B00DA11D621F739FB00DA11D621F73
:101A2000839FA00D611D221F749F3327A00D611D90
:101A3000231F849F600D211D822F762F6A2F112472
:101A40009F5750408AF0E1F088234AF0EE0FFF1FC5
:101A5000BB1F661F771F881F91505040A9F79E3FFC
:101A6000510570F05CCFA6CF5F3FECF3983EDCF3FE
:101A7000869577956795B795F795E7959F5FC1F739
:101A8000FE2B880F911D9695879597F90895A1E2F1
:101A90001A2EAA1BBB1BFD010DC0AA1FBB1FEE1FE8
:101AA000FF1FA217B307E407F50720F0A21BB30B33
:101AB000E40BF50B661F771F881F991F1A9469F7AF
:101AC00060957095809590959B01AC01BD01CF010B
:101AD0000895EE0FFF1F0590F491E02D0994F894FE
:021AE000FFCF36
:101AE2002C8F9440E1C89F3EA2D5F9BE4CD929C1A2
:101AF200FB05FB054D63703235313520636F6E6631
:101B020069677572652062757320737563636573A7
:101B120066756C6C79004D63703235313520636FB8
:101B22006E66696775726520696E7465727275702A
:101B320074732073756363657366756C6C79004D9D
:101B420063703235313520636F6E66696775726511
:101B520020727820627566666572207375636365AC
:101B62007366756C6C790041626F7274207761697B
:101B720074696E672E204D61782E207761697469D1
:101B82006E672074696D6520726561636865642E95
:101B9200004D637032353135207377697463682084
:101BA200746F206D6F6465200054727920746F2009
:101BB2007265736574204D637032353135004D6343
:101BC20070323531352072657365742073756363C5
:101BD200657366756C6C7920616E642073776974C5
:101BE200636820646F206D6F64652000776169749B
:101BF2000000000000F608720A780891088308D4F1
:101C0200080D0A006E616E00696E66006F766600EE
:00000001FF
