:100000000C9462000C94EF060C9416070C948A0072
:100010000C948A000C948A000C948A000C948A0038
:100020000C948A000C948A000C948A000C948A0028
:100030000C948A000C948A000C948A000C948A0018
:100040000C943D070C948A000C94900A0C94C20AFC
:100050000C948A000C948A000C948A000C948A00F8
:100060000C948A000C948A00000000080002010031
:100070000003040700000000000000000102040863
:100080001020408001020408102001020408102002
:10009000040404040404040402020202020203032E
:1000A00003030303000000002300260029000000D2
:1000B0000000250028002B0000000000240027007D
:1000C0002A00F20A11241FBECFEFD8E0DEBFCDBF59
:1000D00012E0A0E0B1E0EAE8FFE102C005900D9275
:1000E000AA35B107D9F723E0AAE5B2E001C01D9215
:1000F000AF33B207E1F710E0C4ECD0E004C02297C0
:10010000FE010E94BF0FC23CD107C9F70E94360B07
:100110000C94C30F0C94000082E00E942209019706
:1001200071F483E00E942209409180025091810283
:100130006091820270918302892B99F40DC083E053
:100140000E942209409180025091810260918202B6
:1001500070918302019729F44F5F5F4F6F4F7F4F7C
:1001600004C04150510961097109409380025093C4
:1001700081026093820270938302089583E00E945B
:100180002209019771F482E00E94220940918002C5
:10019000509181026091820270918302019799F4DB
:1001A0000DC082E00E94220940918002509181029C
:1001B0006091820270918302892B29F44F5F5F4F17
:1001C0006F4F7F4F04C0415051096109710940933D
:1001D000800250938102609382027093830208959B
:1001E0008EBD00000DB407FEFDCF8EB508958F9231
:1001F0009F92AF92BF92CF92DF92EF92FF920F93B6
:100200001F93CF93DF936B017C0149015A0120E0DA
:1002100030E04FE753EC0E94300F87FD0AC020E02A
:1002200030E04FE753E4C701B6010E94E10D181614
:100230007CF520E030E04FE753E4C701B6010E94AF
:10024000300F18164CF420E030E04FE753E4C701BC
:10025000B6010E947C0D12C020E030E04FE753EC65
:10026000C701B6010E94E10D87FF12C020E030E017
:100270004FE753E4C701B6010E947D0D6B017C017D
:1002800020E030E0A9010E94300F1816ACF003C046
:10029000C12CD12C7601C1E0D0E020E030E0A901F2
:1002A000C701B6010E94E10D87FD02C0C0E0D0E0A9
:1002B000D195C195D10902C0C1E0D0E020E030E085
:1002C000A901C501B4010E94300F01E010E0181629
:1002D00074F020E030E0A901C501B4010E94E10DF5
:1002E00087FD02C000E010E0119501951109C017CB
:1002F000D10759F420E030E0A901C701B6010E94FE
:10030000E10D882311F081E000C0DF91CF911F91B2
:100310000F91FF90EF90DF90CF90BF90AF909F90A4
:100320008F9008954F925F926F927F928F929F92DB
:10033000AF92BF92CF92DF92EF92FF92CF93DF9373
:1003400000D000D0CDB7DEB76B017C0120910C014D
:1003500030910D0140910E0150910F010E94340F18
:100360004B015C0160936E0270936F028093700288
:1003700090937102609162027091630280916402B5
:1003800090916502A70196010E94F700882321F051
:1003900020E030E0A9010AC02AE037ED43E25DE346
:1003A000C701B6010E94340F9B01AC0160916A0243
:1003B00070916B0280916C0290916D020E947D0D94
:1003C00060936A0270936B0280936C0290936D024B
:1003D000209108013091090140910A0150910B01CF
:1003E00060916A0270916B0280916C0290916D0233
:1003F0000E94340F2B013C0160936A0270936B02E0
:1004000080936C0290936D0280915A0290915B02EE
:10041000A0915C02B0915D0289839A83AB83BC8317
:10042000209104013091050140910601509107018E
:10043000C701B6010E94340F29813A814B815C814A
:100440000E947C0D20910001309101014091020138
:10045000509103010E94340F6B017C01609366028E
:10046000709367028093680290936902A3019201DE
:10047000C501B4010E947D0DA70196010E947D0D6A
:100480004B015C016093620270936302809364028B
:100490009093650220E030E04FE753E40E94300F74
:1004A00018162CF480E090E0AFE7B3E40EC020E033
:1004B00030E04FE753ECC501B4010E94E10D87FF26
:1004C0000DC080E090E0AFE7B3EC80935E029093C4
:1004D0005F02A0936002B093610208C080925E0246
:1004E00090925F02A0926002B09261022AE037ED22
:1004F00043E25DE3C701B6010E94340F9B01AC01EA
:1005000069817A818B819C810E947D0D60935A0262
:1005100070935B0280935C0290935D020F900F904A
:100520000F900F90DF91CF91FF90EF90DF90CF90E1
:10053000BF90AF909F908F907F906F905F904F9003
:100540000895CF93DF93D82FC62F8AE00E94EC083E
:100550006C2F8D2FDF91CF910C94EC081F93CF93CC
:10056000DF93EC0160E00E94A10280EA0E94F000AB
:1005700080E00E94F000182F61E0CE010E94A102ED
:1005800062E070E080E090E00E94B607812FDF918A
:10059000CF911F9108950F931F93CF93DF93082F4F
:1005A000162FEA0160E0CA010E94A10282E00E94C7
:1005B000F000802F0E94F000812F0E94F00061E087
:1005C000CE010E94A10262E070E080E090E0DF9145
:1005D000CF911F910F910C94B607CF93DF93D62F35
:1005E000C42F48E050E0682F82E30E94CB0248E02D
:1005F00050E06D2F81E30E94CB0248E050E06C2F69
:1006000085E3DF91CF910C94CB02CF93DF93D62F6C
:10061000C42F48E050E0682F82E40E94CB0248E0FB
:1006200050E06D2F81E40E94CB0248E050E06C2F37
:1006300085E4DF91CF910C94CB02CF93DF93D62F3B
:10064000C42F48E050E0682F82E50E94CB0248E0CA
:1006500050E06D2F81E50E94CB0248E050E06C2F06
:1006600085E5DF91CF910C94CB0248E050E060E04B
:100670008AE20E94CB0248E050E068EB89E20E94E7
:10068000CB0248E050E065E088E20E94CB02809116
:100690008802882331F064E171E082EA92E00C94F0
:1006A000900B089548E050E063E08BE20E94CB029B
:1006B00080918802882331F066E371E082EA92E05B
:1006C0000C94900B08951F93CF93DF93182FEB0199
:1006D00060E0CE010E94A10283E00E94F000812F21
:1006E0000E94F00080E00E94F000182F61E0CE012F
:1006F0000E94A10262E070E080E090E00E94B607F4
:1007000048E050E060E08CE20E94CB02812FDF9154
:10071000CF911F910895CF92DF92EF92FF920F93A6
:100720001F93CF93DF93062FC3E0D0E048E050E063
:10073000602F8FE00E94CB0268E070E08EE00E94A4
:100740006303182F0E9487076B017C0160E070E053
:10075000CB01101791F0613177428105910594F436
:1007600068E070E08EE00E946303182F0E94870704
:100770006C197D098E099F09ECCF613177428105A3
:10078000910564F080918802882331F067E871E078
:1007900082EA92E00E94900B219741F680918802B4
:1007A000882331F061EB71E082EA92E00E94830BD2
:1007B00080918802882339F04AE050E0612F82EA74
:1007C00092E00E94600C80918802882371F06AE7B1
:1007D00071E082EA92E0DF91CF911F910F91FF903B
:1007E000EF90DF90CF900C94900BDF91CF911F9101
:1007F0000F91FF90EF90DF90CF900895FB01EE5C9A
:10080000FD4F48E050E0682F80810C94CB021F938D
:10081000CF93DF93182FEB0160E0CE010E94A1027D
:10082000812F0E94F00061E0CE010E94A10262E0EF
:1008300070E080E090E0DF91CF911F910C94B607BB
:10084000CF9368E070E080EC0E94070468E070E0FD
:100850008EE00E946303C82F69EC71E082EA92E0A7
:100860000E94830BC7FD07C068E070E08EE00E9425
:100870006303C82FF7CF80918802882331F06EED93
:1008800071E082EA92E00E94830B809188028823C3
:1008900041F04AE050E06C2F82EA92E0CF910C9454
:1008A000670CCF9108950E9420040E9435030E9496
:1008B000520360E080E00C948B0326E040E855E2B0
:1008C00060E070E082EA92E00E942E0A81E080936C
:1008D0008F021092880261E088E00E94B30861E014
:1008E0008AE00E94B30860E082E00E94B30860E002
:1008F00083E00E94B30860E087E00E94B30861E0F3
:1009000084E00E94B30880919702882399F09FB7F2
:10091000F89480919702813059F48DB380939502B9
:100920002DB380919602809582238DBB9FBF02C01C
:10093000909395028CE58CBD1DBC0E9498060E9488
:10094000530443E062E080E40E94ED0243E062E091
:1009500080E40E94050343E062E080E40E941D03FE
:100960000E948707609384027093850280938602B9
:100970009093870241E050E06CE870E080E00E94D4
:10098000CF0641E050E06EEB70E081E00E94CF06C0
:1009900064E670E080E090E00C94B6078130910549
:1009A00039F08230910531F0892B29F421E803C018
:1009B00022E801C024E868E070E0822F0C9407046C
:1009C000CF92DF92EF92FF920F931F93CF93DF931B
:1009D00000D01F92CDB7DEB7182F7B0160E0C701B2
:1009E0000E94A102812F0E94F0008E010F5F1F4F15
:1009F0006E0184E0C80ED11C80E00E94F000F80176
:100A000081938F01EC15FD05B9F761E0C7010E94E4
:100A1000A102898190E090937F0280937E028B8176
:100A2000809393028A818093940281E00F900F90CB
:100A30000F90DF91CF911F910F91FF90EF90DF907A
:100A4000CF9008956823613021F468E070E082E976
:100A500005C0623029F468E070E086E90E94E00495
:100A600081E00895CF92DF92EF92FF92CF93DF93D0
:100A700010928C02109292021092910281E0809367
:100A8000900280918F028823C1F180918002909121
:100A90008102A0918202B0918302CC97A105B10599
:100AA00034F462E370E089E00E942B0807C060E044
:100AB00070E089E00E942B0810928F026CE072E0D7
:100AC00082EA92E00E94830B609180027091810221
:100AD00080918202909183020E94800E22E13EE684
:100AE0004AE25CE30E94340FAB01BC0122E030E03B
:100AF00082EA92E00E94690DC4CF87E00E94220939
:100B0000019739F461E070E080E090E00E94B60760
:100B1000F4CF88E090E00E94AE0280938C0263E004
:100B20000E94220560918002709181028091820270
:100B3000909183020E94800E22E13EE64AE25CE34D
:100B40000E94340F6B017C016093720270937302F8
:100B50008093740290937502609193027091940255
:100B6000882777FD8095982F0E94800E9B01AC010D
:100B700060937A0270937B0280937C0290937D0253
:100B8000C701B6010E947C0D6093760270937702D4
:100B9000809378029093790269E172E082EA92E0B0
:100BA0000E94830B40917602509177026091780207
:100BB0007091790222E030E082EA92E00E94690DB1
:100BC000609176027091770280917802909179021B
:100BD0000E94920160935E0270935F0280936002B4
:100BE0009093610265E272E082EA92E00E94830BD8
:100BF00060915E0270915F0280916002909161024B
:100C00000E944D0E4AE050E082EA92E00E943B0CC6
:100C100020E030E0A90160915E0270915F02809156
:100C20006002909161020E94E10D87FF16C061E0B1
:100C300084E00E94EC0880915E0290915F02A09196
:100C40006002B0916102B05880935E0290935F029F
:100C5000A0936002B093610204C060E084E00E944F
:100C6000EC0860915E0270915F0280916002909149
:100C700061020E944D0E89E00E942B0864E170E041
:100C800080E090E00E94B60760918002709181023E
:100C900080918202909183020E94800E22E13EE6C2
:100CA0004AE25CE30E94340F20E030E040E251E48D
:100CB0000E94340F0E944D0E70938E0260938D023D
:100CC00077FF0AC01092890271956195710970933E
:100CD0008E0260938D0203C081E08093890290911F
:100CE0008D0280918E0290938A0280938B02C9E8D4
:100CF000D2E0E12CF12C43E050E0B70189910E9451
:100D0000FE038FEFE81AF80A83E0E816F10499F77A
:100D100080E090E00E94CE0464E170E080E090E02A
:100D2000DF91CF91FF90EF90DF90CF900C94B607BA
:100D3000CF93CFB7F89480919802811127C0EAE948
:100D4000F0E08491E6E8F0E09491E82FF0E0EE0F17
:100D5000FF1FE854FF4FA591B4918C91892321F492
:100D600061E08AE00E94EC0861E08AE00E94B3083A
:100D70008CB580618CBD8CB580648CBD61E08DE0EC
:100D80000E94B30861E08BE00E94B3088091980252
:100D90008F5F80939802CFBFCF91089508958230DE
:100DA000E8F4E82FF0E0EE0FFF1FE05FFE4F7183E5
:100DB0006083813041F0809169008C7F842B809327
:100DC0006900E89A089580916900440F551F440F07
:100DD000551F837F842B80936900E99A08951F92A1
:100DE0000F920FB60F9211242F933F934F935F935F
:100DF0006F937F938F939F93AF93BF93EF93FF93E3
:100E0000E0911001F09111010995FF91EF91BF91CF
:100E1000AF919F918F917F916F915F914F913F9192
:100E20002F910F900FBE0F901F9018951F920F9249
:100E30000FB60F9211242F933F934F935F936F93AD
:100E40007F938F939F93AF93BF93EF93FF93E09123
:100E50001201F09113010995FF91EF91BF91AF91AC
:100E60009F918F917F916F915F914F913F912F91C2
:100E70000F900FBE0F901F9018951F920F920FB6F4
:100E80000F9211242F933F938F939F93AF93BF9310
:100E900080919A0290919B02A0919C02B0919D0238
:100EA0003091990223E0230F2D3720F40196A11DE4
:100EB000B11D05C026E8230F0296A11DB11D209388
:100EC000990280939A0290939B02A0939C02B09304
:100ED0009D0280919E0290919F02A091A002B091EC
:100EE000A1020196A11DB11D80939E0290939F02C5
:100EF000A093A002B093A102BF91AF919F918F9157
:100F00003F912F910F900FBE0F901F9018952FB704
:100F1000F89460919A0270919B0280919C0290914A
:100F20009D022FBF08953FB7F89480919E02909143
:100F30009F02A091A002B091A10226B5A89B05C076
:100F40002F3F19F00196A11DB11D3FBF6627782FD5
:100F5000892F9A2F620F711D811D911D42E0660F2E
:100F6000771F881F991F4A95D1F708958F929F92F6
:100F7000AF92BF92CF92DF92EF92FF926B017C0112
:100F80000E9493074B015C01C114D104E104F104F8
:100F9000F1F00E947B0D0E949307681979098A0974
:100FA0009B09683E73408105910570F321E0C21AE8
:100FB000D108E108F10888EE880E83E0981EA11C94
:100FC000B11CC114D104E104F10429F7DDCFFF9075
:100FD000EF90DF90CF90BF90AF909F908F9008954B
:100FE000789484B5826084BD84B5816084BD85B504
:100FF000826085BD85B5816085BDEEE6F0E08081CB
:1010000081608083E1E8F0E01082808182608083EB
:10101000808181608083E0E8F0E08081816080836E
:10102000E1EBF0E0808184608083E0EBF0E08081A0
:1010300081608083EAE7F0E0808184608083808142
:1010400082608083808181608083808180688083EA
:101050001092C10008951F93CF93DF93182FEB01D7
:1010600061E00E94B308209711F460E004C0CF3F14
:10107000D10539F461E0812FDF91CF911F910C945C
:10108000EC08E12FF0E0E859FF4FE491E330F9F08C
:1010900048F4E130B9F0E230A1F584B5806284BD56
:1010A000C8BD34C0E730E9F0E83019F1E43049F563
:1010B00080918000806280938000D0938B00C093E9
:1010C0008A0024C084B5806884BDC7BD1FC08091DC
:1010D0008000806880938000D0938900C09388004E
:1010E00015C08091B00080688093B000C093B300B9
:1010F0000DC08091B00080628093B000C093B400B6
:1011000005C0C038D1050CF0B5CFAFCFDF91CF917E
:101110001F910895833081F028F4813099F0823056
:10112000A1F008958730A9F08830B9F08430D1F467
:10113000809180008F7D03C0809180008F778093A5
:101140008000089584B58F7702C084B58F7D84BDFB
:1011500008958091B0008F7703C08091B0008F7D9B
:101160008093B0000895CF93DF9390E0FC01E458A2
:10117000FF4F2491FC01E057FF4F8491882349F1F0
:1011800090E0880F991FFC01E854FF4FA591B4919E
:1011900082559F4FFC01C591D4919FB7611108C042
:1011A000F8948C91209582238C93888182230AC0A5
:1011B000623051F4F8948C91322F309583238C93C4
:1011C0008881822B888304C0F8948C91822B8C9325
:1011D0009FBFDF91CF9108950F931F93CF93DF931C
:1011E0001F92CDB7DEB7282F30E0F901E859FF4F45
:1011F0008491F901E458FF4F1491F901E057FF4F32
:1012000004910023C9F0882321F069830E948A0891
:101210006981E02FF0E0EE0FFF1FE255FF4FA5912F
:10122000B4919FB7F8948C91611103C010958123FC
:1012300001C0812B8C939FBF0F90DF91CF911F91A5
:101240000F910895CF93DF93282F30E0F901E859EB
:10125000FF4F8491F901E458FF4FD491F901E05711
:10126000FF4FC491CC2391F081110E948A08EC2F8A
:10127000F0E0EE0FFF1FEC55FF4FA591B4912C91BC
:101280002D2381E090E021F480E002C080E090E036
:10129000DF91CF910895FC01818D228D90E0805CDB
:1012A0009F4F821B91098F7399270895FC01918D9F
:1012B000828D981731F0828DE80FF11D858D90E0B9
:1012C00008958FEF9FEF0895FC01918D828D9817FF
:1012D00061F0828DDF01A80FB11D5D968C91928D1A
:1012E0009F5F9F73928F90E008958FEF9FEF089517
:1012F00088EE9AE0892B49F080E090E0892B29F074
:101300000E94E80A81110C9400000895FC01848D6C
:10131000DF01A80FB11DA35ABF4F2C91848D90E01F
:1013200001968F739927848FA689B7892C93A089FA
:10133000B1898C9180648C93938D848D981306C0B1
:101340000288F389E02D80818F7D80830895CF937B
:10135000DF93EC01888D8823C9F0EA89FB898081BD
:1013600085FD05C0A889B9898C9186FD0FC00FB68F
:1013700007FCF5CF808185FFF2CFA889B9898C91D0
:1013800085FFEDCFCE010E948609E7CFDF91CF9197
:101390000895CF92DF92FF920F931F93CF93DF9325
:1013A0001F92CDB7DEB76C0181E0D60158968C93C1
:1013B00058975B969C915B975C968C915C97981381
:1013C00007C05096ED91FC915197808185FD2EC00C
:1013D000F601038D10E00F5F1F4F0F731127F02EE2
:1013E000F601848DF81211C00FB607FCF9CFD601B3
:1013F0005096ED91FC915197808185FFF1CFC60108
:1014000069830E9486096981EBCF838DE80FF11D06
:10141000E35AFF4F6083D6015B960C935B9752961D
:10142000ED91FC915397808180620CC0D601569655
:10143000ED91FC91579760835096ED91FC915197F7
:1014400080818064808381E090E00F90DF91CF9174
:101450001F910F91FF90DF90CF900895BF92CF9290
:10146000DF92EF92FF92CF93DF93EC016A017B0151
:10147000B22EE889F98982E08083411581EE580710
:1014800061057105A1F060E079E08DE390E0A701CE
:1014900096010E949B0F215031094109510956952F
:1014A000479537952795211580E1380798F0E88909
:1014B000F989108260E874E88EE190E0A701960156
:1014C0000E949B0F215031094109510956954795BA
:1014D00037952795EC85FD853083EE85FF85208344
:1014E000188EEC89FD89B082EA89FB898081806150
:1014F0008083EA89FB89808188608083EA89FB890F
:10150000808180688083EA89FB8980818F7D8083E8
:10151000DF91CF91FF90EF90DF90CF90BF90089533
:101520001F920F920FB60F9211242F938F939F93B8
:10153000EF93FF93E091B202F091B3028081E091CA
:10154000B802F091B90282FD12C090818091BB0275
:101550008F5F8F732091BC02821751F0E091BB0224
:10156000F0E0EE55FD4F958F8093BB0201C0808166
:10157000FF91EF919F918F912F910F900FBE0F9040
:101580001F9018951F920F920FB60F9211242F9350
:101590003F934F935F936F937F938F939F93AF93FB
:1015A000BF93EF93FF9382EA92E00E948609FF9136
:1015B000EF91BF91AF919F918F917F916F915F91CB
:1015C0004F913F912F910F900FBE0F901F90189544
:1015D00082EA92E00E944B0921E0892B09F420E085
:1015E000822F08951092A5021092A40288EE93E033
:1015F000A0E0B0E08093A6029093A702A093A80277
:10160000B093A9028EE392E09093A3028093A2028A
:1016100085EC90E09093AF028093AE0284EC90E072
:101620009093B1028093B00280EC90E09093B3026B
:101630008093B20281EC90E09093B5028093B40263
:1016400082EC90E09093B7028093B60286EC90E033
:101650009093B9028093B8021092BB021092BC0220
:101660001092BD021092BE02089508950E94F007E4
:101670000E94350B0E945D04C8E7D9E00E94320544
:101680002097E1F30E947809F9CFCF92DF92EF9291
:10169000FF920F931F93CF93DF937C016A01EB01BD
:1016A00000E010E00C151D0571F06991D701ED9176
:1016B000FC910190F081E02DC7010995892B19F06B
:1016C0000F5F1F4FEFCFC801DF91CF911F910F9197
:1016D000FF90EF90DF90CF9008956115710581F034
:1016E000DB010D900020E9F7AD0141505109461B87
:1016F000570BDC01ED91FC910280F381E02D099400
:1017000080E090E008950C946D0BDC01ED91FC916C
:101710000190F081E02D09946AE472E00C946D0B65
:101720000F931F93CF93DF93EC010E946D0B8C01FD
:10173000CE010E948C0B800F911FDF91CF911F91E2
:101740000F9108958F929F92AF92BF92DF92EF9286
:10175000FF920F931F93CF93DF93CDB7DEB7A1977F
:101760000FB6F894DEBF0FBECDBF7C01F42FD52E8F
:10177000CB0119A2223008F42AE08E010F5D1F4F21
:10178000822E912CA12CB12C6F2F7D2DA5019401BF
:101790000E949B0FF22FD32ECA01015011096A300B
:1017A00014F4E0E301C0E7E3E60FD801EC93232B48
:1017B000242B252B49F7B801C7010E946D0BA19678
:1017C0000FB6F894DEBF0FBECDBFDF91CF911F9152
:1017D0000F91FF90EF90DF90BF90AF909F908F9010
:1017E0000895CF92DF92EF92FF920F931F93CF93C2
:1017F000DF93EC016A017B012115310579F4E88161
:10180000F9810190F081E02D642FDF91CF911F913C
:101810000F91FF90EF90DF90CF9009942A3031051F
:10182000E9F477FF1AC06DE20E94850B8C01442712
:101830005527BA014C195D096E097F092AE0CE01CE
:101840000E94A20B800F911FDF91CF911F910F91EA
:10185000FF90EF90DF90CF9008952AE0B701A601A6
:10186000CE01DF91CF911F910F91FF90EF90DF900C
:10187000CF900C94A20B0F931F93CF93DF93EC01A7
:101880009A01AB01662757FD6095762F0E94F10BF8
:101890008C01CE010E948C0B800F911FDF91CF91A4
:1018A0001F910F9108952115310541F4DC01ED914F
:1018B000FC910190F081E02D642F09940C94A20B0F
:1018C0009A01462F50E060E070E00C94530C0F93A7
:1018D0001F93CF93DF93EC019A01462F50E060E015
:1018E00070E00E94530C8C01CE010E948C0B800F83
:1018F000911FDF91CF911F910F9108954F925F92A9
:101900006F927F928F929F92AF92BF92CF92DF920F
:10191000EF92FF920F931F93CF93DF93EC016A0135
:101920007B01B22E9A01AB01C701B6010E94970F4D
:10193000882319F06DE472E027C026013701E8948E
:1019400077F82FEF3FEF4FE75FE7C301B2010E9447
:10195000970F81110DC02FEF3FEF4FE75FE7C301F6
:10196000B2010E94E10D18161CF461E572E00CC092
:101970002FEF3FEF4FE75FE4C701B6010E94300F42
:101980001816ACF465E572E0CE01DF91CF911F919E
:101990000F91FF90EF90DF90CF90BF90AF909F900E
:1019A0008F907F906F905F904F900C946D0B2FEF06
:1019B0003FEF4FE75FECC701B6010E94E10D87FDE5
:1019C000E1CF20E030E0A901C701B6010E94E10D9E
:1019D00087FF0AC06DE2CE010E94850B8C01F7FAE9
:1019E000F094F7F8F09402C000E010E0A12C60E061
:1019F00070E080E09FE3AB1441F020E030E040E293
:101A000051E40E94E50DA394F6CF9B01AC01C70100
:101A1000B6010E947D0D6B017C010E94520E2B01CC
:101A20003C010E947E0E9B01AC01C701B6010E94E1
:101A30007C0D6B017C012AE0B301A201CE010E9462
:101A4000A20B080F191FBB2039F06FEA71E0CE011D
:101A50000E946D0B080F191F7B2C772041F120E0AD
:101A600030E040E251E4C701B6010E94340F6B013F
:101A70007C010E944D0E4B01AA2497FCA094BA2C25
:101A80002AE030E0B501A401CE010E94F10B080F5D
:101A9000191FC501B4010E94800E9B01AC01C70152
:101AA000B6010E947C0D6B017C017A94D6CFC801EF
:101AB000DF91CF911F910F91FF90EF90DF90CF902A
:101AC000BF90AF909F908F907F906F905F904F905E
:101AD00008950F931F93CF93DF93EC010E947E0C28
:101AE0008C01CE010E948C0B800F911FDF91CF9152
:101AF0001F910F91089508955058BB27AA270ED023
:101B000075C166D130F06BD120F031F49F3F11F4F4
:101B10001EF45BC10EF4E095E7FB51C1E92F77D1CC
:101B200080F3BA17620773078407950718F071F4FA
:101B30009EF58FC10EF4E0950B2EBA2FA02D0B0150
:101B4000B90190010C01CA01A0011124FF27591B02
:101B500099F0593F50F4503E68F11A16F040A22F08
:101B6000232F342F4427585FF3CF46953795279579
:101B7000A795F0405395C9F77EF41F16BA0B620B78
:101B8000730B840BBAF09150A1F0FF0FBB1F661FBF
:101B9000771F881FC2F70EC0BA0F621F731F841F02
:101BA00048F4879577956795B795F7959E3F08F028
:101BB000B3CF9395880F08F09927EE0F97958795E7
:101BC0000895D9D008F481E008950CD00FC107D151
:101BD00040F0FED030F021F45F3F19F0F0C0511119
:101BE00039C1F3C014D198F39923C9F35523B1F344
:101BF000951B550BBB27AA2762177307840738F07C
:101C00009F5F5F4F220F331F441FAA1FA9F333D0DA
:101C10000E2E3AF0E0E830D091505040E695001C8E
:101C2000CAF729D0FE2F27D0660F771F881FBB1F4A
:101C3000261737074807AB07B0E809F0BB0B802D24
:101C4000BF01FF2793585F4F2AF09E3F510568F070
:101C5000B6C000C15F3FECF3983EDCF38695779504
:101C60006795B795F7959F5FC9F7880F911D969572
:101C7000879597F90895E1E0660F771F881FBB1FCE
:101C8000621773078407BA0720F0621B730B840B7B
:101C9000BA0BEE1F88F7E095089504D06894B1114F
:101CA000D9C00895BCD088F09F5790F0B92F9927DC
:101CB000B751A0F0D1F0660F771F881F991F1AF057
:101CC000BA95C9F712C0B13081F0C3D0B1E0089520
:101CD000C0C0672F782F8827B85F39F0B93FCCF3A1
:101CE000869577956795B395D9F73EF4909580954D
:101CF000709561957F4F8F4F9F4F0895E89409C06D
:101D000097FB3EF490958095709561957F4F8F4F2E
:101D10009F4F9923A9F0F92F96E9BB279395F69544
:101D2000879577956795B795F111F8CFFAF4BB0FC2
:101D300011F460FF1BC06F5F7F4F8F4F9F4F16C026
:101D4000882311F096E911C0772321F09EE8872FB0
:101D5000762F05C0662371F096E8862F70E060E06C
:101D60002AF09A95660F771F881FDAF7880F9695E5
:101D7000879597F90895990F0008550FAA0BE0E889
:101D8000FEEF16161706E807F907C0F0121613063D
:101D9000E407F50798F0621B730B840B950B39F47D
:101DA0000A2661F0232B242B252B21F408950A26E3
:101DB00009F4A140A6958FEF811D811D089597F923
:101DC0009F6780E870E060E008959FEF80EC0895E1
:101DD00000240A941616170618060906089500240A
:101DE0000A9412161306140605060895092E039484
:101DF000000C11F4882352F0BB0F40F4BF2B11F4F8
:101E000060FF04C06F5F7F4F8F4F9F4F089557FD56
:101E10009058440F551F59F05F3F71F04795880F58
:101E200097FB991F61F09F3F79F0879508951216EF
:101E300013061406551FF2CF4695F1DF08C016169B
:101E400017061806991FF1CF86957105610508944C
:101E50000895E894BB2766277727CB0197F9089563
:101E60008ADF08F48FEF08950BD0C0CFB1DF28F0E0
:101E7000B6DF18F0952309F0A2CFA7CF1124EACF3F
:101E8000C6DFA0F3959FD1F3950F50E0551F629FD9
:101E9000F001729FBB27F00DB11D639FAA27F00DC3
:101EA000B11DAA1F649F6627B00DA11D661F829FEA
:101EB0002227B00DA11D621F739FB00DA11D621FCF
:101EC000839FA00D611D221F749F3327A00D611DEC
:101ED000231F849F600D211D822F762F6A2F1124CE
:101EE0009F5750408AF0E1F088234AF0EE0FFF1F21
:101EF000BB1F661F771F881F91505040A9F79E3F58
:101F0000510570F05CCFA6CF5F3FECF3983EDCF359
:101F1000869577956795B795F795E7959F5FC1F794
:101F2000FE2B880F911D9695879597F9089523DFCD
:101F3000880B990B0895A1E21A2EAA1BBB1BFD0169
:101F40000DC0AA1FBB1FEE1FFF1FA217B307E40798
:101F5000F50720F0A21BB30BE40BF50B661F771FF0
:101F6000881F991F1A9469F76095709580959095D0
:101F70009B01AC01BD01CF010895EE0FFF1F05903D
:0A1F8000F491E02D0994F894FFCFCE
:101F8A00FFD0494055EFE8BE93629EC0C34370C27A
:101F9A00CE06CE064D63703235313520636F6E66DC
:101FAA0069677572652062757320737563636573FB
:101FBA0066756C6C79004D63703235313520636F0C
:101FCA006E66696775726520696E7465727275707E
:101FDA0074732073756363657366756C6C79004DF1
:101FEA0063703235313520636F6E66696775726565
:101FFA002072782062756666657220737563636500
:10200A007366756C6C790041626F727420776169CE
:10201A0074696E672E204D61782E20776169746924
:10202A006E672074696D6520726561636865642EE8
:10203A00004D6370323531352073776974636820D7
:10204A00746F206D6F6465200054727920746F205C
:10205A007265736574204D637032353135004D6396
:10206A007032353135207265736574207375636318
:10207A00657366756C6C7920616E64207377697418
:10208A00636820646F206D6F6465200066697273EF
:10209A007456616C75653A20007069645F65727286
:1020AA006F723A20007069645F6F75747075743A64
:1020BA002000363738393A3B3C3D00000000C90958
:1020CA00450B4B0964095609A7090D0A006E616E92
:0A20DA0000696E66006F7666000074
:00000001FF
