:100000000C9462000C94F3070C941A080C948A0068
:100010000C948A000C948A000C948A000C948A0038
:100020000C948A000C948A000C948A000C948A0028
:100030000C948A000C948A000C948A000C948A0018
:100040000C9441080C948A000C94940B0C94C60BED
:100050000C948A000C948A000C948A000C948A00F8
:100060000C948A000C948A00000000080002010031
:100070000003040700000000000000000102040863
:100080001020408001020408102001020408102002
:10009000040404040404040402020202020203032E
:1000A00003030303000000002300260029000000D2
:1000B0000000250028002B0000000000240027007D
:1000C0002A00F60B11241FBECFEFD8E0DEBFCDBF54
:1000D00012E0A0E0B1E0ECEFFEE102C005900D926D
:1000E000A834B107D9F723E0A8E4B2E001C01D921B
:1000F000AE33B207E1F710E0C4ECD0E004C02297C1
:10010000FE010E94620FC23CD107C9F70E943A0C5F
:100110000C947C0F0C94000082E00E94260A019748
:1001200071F483E00E94260A4091620250916302BA
:100130006091640270916502892B99F40DC083E08F
:100140000E94260A4091620250916302609164020B
:1001500070916502019729F44F5F5F4F6F4F7F4F9A
:1001600004C04150510961097109409362025093E2
:1001700063026093640270936502089583E00E94B5
:10018000260A019771F482E00E94260A40916202D9
:10019000509163026091640270916502019799F435
:1001A0000DC082E00E94260A4091620250916302D3
:1001B0006091640270916502892B29F44F5F5F4F53
:1001C0006F4F7F4F04C0415051096109710940933D
:1001D0006202509363026093640270936502089513
:1001E0000C94660FEF92FF920F931F93CF93DF93C0
:1001F0001F92CDB7DEB77C01FC0100811181C801DF
:1002000069830E94660F6981681719F0C8010E940E
:100210006E0FC7010F90DF91CF911F910F91FF904B
:10022000EF9008958EBD00000DB407FEFDCF8EB592
:100230000895CF93DF93D82FC62F8AE00E94F0094C
:100240006C2F8D2FDF91CF910C94F0091F93CF93DA
:10025000DF93EC0160E00E94190180EA0E94120124
:1002600080E00E941201182F61E0CE010E94190166
:1002700064E070E080E090E00E94BA08812FDF9196
:10028000CF911F9108950F931F93CF93DF93082F62
:10029000162FEA0160E0CA010E94190182E00E9463
:1002A0001201802F0E941201812F0E94120161E031
:1002B000CE010E94190164E070E080E090E0DF91DF
:1002C000CF911F910F910C94BA08CF93DF93D62F43
:1002D000C42F48E050E0682F82E30E94430148E0C9
:1002E00050E06D2F81E30E94430148E050E06C2F05
:1002F00085E3DF91CF910C944301CF93DF93D62F09
:10030000C42F48E050E0682F82E40E94430148E097
:1003100050E06D2F81E40E94430148E050E06C2FD3
:1003200085E4DF91CF910C944301CF93DF93D62FD7
:10033000C42F48E050E0682F82E50E94430148E066
:1003400050E06D2F81E50E94430148E050E06C2FA2
:1003500085E5DF91CF910C94430148E050E060E0E7
:100360008AE20E94430148E050E068EB89E20E9483
:10037000430148E050E065E088E20E94430180913B
:100380008E02882331F066E171E081EA92E00C94FC
:10039000940C089548E050E063E08BE20E94430132
:1003A00080918E02882331F068E371E081EA92E067
:1003B0000C94940C08951F93CF93DF93182FEB01A7
:1003C00060E0CE010E94190183E00E941201812F9A
:1003D0000E94120180E00E941201182F61E0CE01FC
:1003E0000E94190164E070E080E090E00E94BA0889
:1003F00048E050E060E08CE20E944301812FDF91F1
:10040000CF911F910895CF92DF92EF92FF920F93B9
:100410001F93CF93DF93062FC3E0D0E048E050E076
:10042000602F8FE00E94430168E070E08EE00E9440
:10043000DB01182F0E948B086B017C0160E070E0EB
:10044000CB01101791F0613177428105910594F449
:1004500068E070E08EE00E94DB01182F0E948B089C
:100460006C197D098E099F09ECCF613177428105B6
:10047000910564F080918E02882331F069E871E083
:1004800081EA92E00E94940C219741F680918E02BD
:10049000882331F063EB71E081EA92E00E94870CDF
:1004A00080918E02882339F04AE050E0612F81EA82
:1004B00092E00E946C0D80918E02882371F06CE7AF
:1004C00071E081EA92E0DF91CF911F910F91FF904F
:1004D000EF90DF90CF900C94940CDF91CF911F910F
:1004E0000F91FF90EF90DF90CF900895FB01E05EB9
:1004F000FD4F48E050E0682F80810C9443011F932A
:10050000CF93DF93182FEB0160E0CE010E94190119
:10051000812F0E94120161E0CE010E94190164E066
:1005200070E080E090E0DF91CF911F910C94BA08C9
:10053000CF9368E070E080EC0E947F0268E070E09A
:100540008EE00E94DB01C82F6BEC71E081EA92E043
:100550000E94870CC7FD0EC068E070E08EE00E942C
:10056000DB01C82F4AE050E0682F81EA92E00E9448
:100570006C0DF0CF80918E02882331F060EE71E037
:1005800081EA92E00E94870C80918E02882341F0DC
:100590004AE050E06C2F81EA92E0CF910C94730D09
:1005A000CF9108950E9498020E94AD010E94CA0155
:1005B00060E080E00C9403020F931F93CF93DF93CE
:1005C00000D0CDB7DEB726E040E855E260E070E04D
:1005D00081EA92E00E94320B81E0809390021092B7
:1005E0005F0210925E0280938E0210928F0261E091
:1005F00088E00E94B70961E08AE00E94B70960E0E4
:1006000082E00E94B70960E083E00E94B70960E0E1
:1006100087E00E94B70961E084E00E94B70961E0C9
:100620008DE00E94B70980918F02811103C000E024
:1006300010E014C000E010E01A83098360E0CE01EE
:1006400001960E94F2000F5F1F4F05301105A1F7C0
:10065000EECF0F5F1F4F0530110501F1C8010E9459
:10066000F0008823B1F310921101F3CF80911101B2
:1006700061E08823C1F08DE00E94F00968EE73E02C
:1006800080E090E00E94BA0860E08DE00E94F009EE
:1006900064E670E080E090E00E94BA0880918F02EA
:1006A0008111E4CF12C08DE00E94F00968EC70E087
:1006B00080E090E00E94BA0860E08DE00E94F009BE
:1006C00068EC70E080E090E0E7CF84E090E00E948A
:1006D000F0008130E9F461E08DE00E94F0096AEFFA
:1006E00070E080E090E00E94BA0860E08DE00E9437
:1006F000F0096AEF70E080E090E00E94BA084AE0FA
:1007000050E061E070E081EA92E00E94470DE3CFA3
:1007100080919602882399F09FB7F8948091960271
:10072000813059F48DB3809394022DB3809195025A
:10073000809582238DBB9FBF02C0909394028CE56D
:100740008CBD1DBC0E949C070E94D20248E062E062
:1007500080E40E94650148E062E080E40E947D013F
:1007600048E062E080E40E94950182E090E00E940F
:10077000F00080935A0283E090E00E94F0008093A2
:100780005B0280915A0290915B02AA2797FDA09587
:10079000BA2F8093620290936302A0936402B09395
:1007A000650280E090E00E94F000182F80935802CC
:1007B00081E090E00E94F00080935902E091600295
:1007C000F0916102E857FD4F108341E050E06CE882
:1007D00070E080E00E94D30741E050E06EEB70E0F3
:1007E00081E00E94D30764E670E080E090E00E9420
:1007F000BA080E948B0860938A0270938B028093E0
:100800008C0290938D020F900F90DF91CF911F91EA
:100810000F9108958130910539F08230910531F0C2
:10082000892B29F421E803C022E801C024E868E00C
:1008300070E0822F0C947F02EF92FF920F931F9330
:10084000CF93DF938B01C0E0D0E0E82EF12CCE15E2
:10085000DF0548F4A701BE01F80181918F010E94D4
:1008600076022196F4CF80E090E0DF91CF911F9146
:100870000F91FF90EF900C940A04CF92DF92EF92C9
:10088000FF920F931F93CF93DF93C82F7B0160E0FC
:10089000C7010E9419018C2F0E94120100E512E08D
:1008A000C0E0D0E080E00E9412016801F80181936D
:1008B0008F016EE072E081EA92E00E94870C4AE0CC
:1008C00050E0BE0181EA92E00E943F0D6DE172E0CE
:1008D00081EA92E00E94870C4AE050E0F6016081D4
:1008E00081EA92E00E94730D2196C830D105D1F6BD
:1008F00061E0C7010E94190181E0DF91CF911F9152
:100900000F91FF90EF90DF90CF90089568236130B2
:1009100021F468E070E082E905C0623029F468E003
:1009200070E086E90E943D0481E008958F929F92D5
:10093000AF92BF92CF92DF92EF92FF920F931F93ED
:10094000CF93DF936B017C0149015A0120E030E035
:100950004FE753EC0E94D70E87FD0AC020E030E03D
:100960004FE753E4C701B6010E94F00D18167CF55D
:1009700020E030E04FE753E4C701B6010E94D70EF4
:1009800018164CF420E030E04FE753E4C701B601FD
:100990000E948B0D12C020E030E04FE753ECC701FE
:1009A000B6010E94F00D87FF12C020E030E04FE753
:1009B00053E4C701B6010E948C0D6B017C0120E05D
:1009C00030E0A9010E94D70E1816ACF003C0C12C6C
:1009D000D12C7601C1E0D0E020E030E0A901C701D0
:1009E000B6010E94F00D87FD02C0C0E0D0E0D195B5
:1009F000C195D10902C0C1E0D0E020E030E0A901FA
:100A0000C501B4010E94D70E01E010E0181674F081
:100A100020E030E0A901C501B4010E94F00D87FD7E
:100A200002C000E010E0119501951109C017D1072F
:100A300059F420E030E0A901C701B6010E94F00D91
:100A4000882311F081E000C0DF91CF911F910F91B9
:100A5000FF90EF90DF90CF90BF90AF909F908F90DE
:100A600008954F925F926F927F928F929F92AF9272
:100A7000BF92CF92DF92EF92FF92CF93DF9300D09D
:100A800000D0CDB7DEB76B017C0120910C01309115
:100A90000D0140910E0150910F010E94DB0E4B01A0
:100AA0005C01609376027093770280937802909352
:100AB000790260916A0270916B0280916C02909150
:100AC0006D02A70196010E949604882321F020E080
:100AD00030E0A9010AC02DEC3CEC4CE45DE3C70119
:100AE000B6010E94DB0E9B01AC0160917202709115
:100AF000730280917402909175020E948C0D609334
:100B00007202709373028093740290937502209125
:100B100008013091090140910A0150910B01609147
:100B200072027091730280917402909175020E941A
:100B3000DB0E2B013C016093720270937302809371
:100B40007402909375028091660290916702A09161
:100B50006802B091690289839A83AB83BC83209138
:100B60000401309105014091060150910701C70130
:100B7000B6010E94DB0E29813A814B815C810E9483
:100B80008B0D2091000130910101409102015091A3
:100B900003010E94DB0E6B017C0160936E02709377
:100BA0006F028093700290937102A3019201C501BC
:100BB000B4010E948C0DA70196010E948C0D4B017F
:100BC0005C0160936A0270936B0280936C02909355
:100BD0006D0220E030E04FE753E40E94D70E181674
:100BE0008CF020E030E04FE753ECC501B4010E94E7
:100BF000F00D87FF0DC0812C912C9FE7A92E93EC5F
:100C0000B92E06C0812C912C8FE7A82E83E4B82E34
:100C10002DEC3CEC4CE45DE3C701B6010E94DB0E19
:100C20009B01AC0169817A818B819C810E948C0D32
:100C300060936602709367028093680290936902E2
:100C4000C501B4010F900F900F900F90DF91CF91DD
:100C5000FF90EF90DF90CF90BF90AF909F908F90DC
:100C60007F906F905F904F900895CF92DF92EF92B8
:100C7000FF921F93CF93DF9300D0CDB7DEB71092D2
:100C80008602109293021092920281E08093910268
:100C9000E8E4F2E0119282E0E035F807D9F787E066
:100CA0000E94260A892B79F488E090E00E942601B0
:100CB0008093860263E00E94860469E170E080E030
:100CC00090E00E94BA0880915002811102C01092F7
:100CD000870221E0823009F020E09091870231E024
:100CE0009327922321E03DEF380F323008F020E0C7
:100CF000922B11F4813049F48093480282E0809372
:100D00004A02809151028093490268E472E088E0CF
:100D10000E941C0469E170E080E090E00E94BA0843
:100D2000809150028230C9F59091870281E0981736
:100D3000A1F180938702609162021A821982CE012A
:100D400001960E94F2008091620290916302A0914C
:100D50006402B0916502692F7A2F8B2F992787FD46
:100D60009A9521E030E03A832983CE0101960E94D2
:100D7000F20080E090E00E94F00090916202F0901A
:100D8000630211E0891310E081E090E00E94F0001E
:100D90008F1103C0111110924A02809150028330CA
:100DA00059F49091870281E0981709F444C0809328
:100DB0008702109210013DC0843051F49091870257
:100DC00081E09817C1F1809387028093100131C0B0
:100DD000813089F590918702981769F18093870295
:100DE0008091530280935C028091540280935D0253
:100DF00060915C0270915D02882777FD8095982F45
:100E00000E94270E60938202709383028093840273
:100E10009093850220E030E0A90160917E027091FC
:100E20007F0280918002909181020E94F00D8111D9
:100E300002C010924A0280911001882309F472C006
:100E400060916202709163028091640290916502E8
:100E50000E94270E60937A0270937B0280937C023B
:100E600090937D022091820230918302409184020E
:100E7000509185020E948B0D6B017C0120E030E0D7
:100E8000A9010E94D70E18165CF42AE939E949E154
:100E90005EE3C701B6010E94F00D18165CF013C0A6
:100EA0002AE939E949E15EEBC701B6010E94D70E94
:100EB00087FF09C0C0927E02D0927F02E09280023A
:100EC000F092810208C010927E0210927F0210926E
:100ED00080021092810260917E0270917F02809167
:100EE0008002909181020E9431056B017C0120E01B
:100EF00030E0A9010E94F00D87FF09C061E084E0A5
:100F00000E94F009F7FAF094F7F8F09404C060E05A
:100F100084E00E94F009C701B6010E94F40D89E047
:100F20000E942F090F900F90DF91CF911F91FF909A
:100F3000EF90DF90CF900895CF93CFB7F894809142
:100F40009702811127C0EAE9F0E08491E6E8F0E039
:100F50009491E82FF0E0EE0FFF1FE854FF4FA591AA
:100F6000B4918C91892321F461E08AE00E94F00918
:100F700061E08AE00E94B7098CB580618CBD8CB5B8
:100F800080648CBD61E08DE00E94B70961E08BE078
:100F90000E94B709809197028F5F80939702CFBF1D
:100FA000CF91089508958230E8F4E82FF0E0EE0F35
:100FB000FF1FEE5EFE4F71836083813041F08091B0
:100FC00069008C7F842B80936900E89A0895809152
:100FD0006900440F551F440F551F837F842B809356
:100FE0006900E99A08951F920F920FB60F9211248B
:100FF0002F933F934F935F936F937F938F939F9321
:10100000AF93BF93EF93FF93E0911201F09113011F
:101010000995FF91EF91BF91AF919F918F917F9132
:101020006F915F914F913F912F910F900FBE0F9055
:101030001F9018951F920F920FB60F9211242F93A5
:101040003F934F935F936F937F938F939F93AF9350
:10105000BF93EF93FF93E0911401F091150109956F
:10106000FF91EF91BF91AF919F918F917F916F9180
:101070005F914F913F912F910F900FBE0F901F9056
:1010800018951F920F920FB60F9211242F933F9332
:101090008F939F93AF93BF938091990290919A02FF
:1010A000A0919B02B0919C023091980223E0230F03
:1010B0002D3720F40196A11DB11D05C026E8230F90
:1010C0000296A11DB11D20939802809399029093DE
:1010D0009A02A0939B02B0939C0280919D029091F2
:1010E0009E02A0919F02B091A0020196A11DB11D88
:1010F00080939D0290939E02A0939F02B093A002C2
:10110000BF91AF919F918F913F912F910F900FBE03
:101110000F901F9018952FB7F894609199027091D5
:101120009A0280919B0290919C022FBF08953FB735
:10113000F89480919D0290919E02A0919F02B0919F
:10114000A00226B5A89B05C02F3F19F00196A11D4E
:10115000B11D3FBF6627782F892F9A2F620F711D0F
:10116000811D911D42E0660F771F881F991F4A95C8
:10117000D1F708958F929F92AF92BF92CF92DF9254
:10118000EF92FF926B017C010E9497084B015C017A
:10119000C114D104E104F104F1F00E948A0D0E940F
:1011A0009708681979098A099B09683E7340810587
:1011B000910570F321E0C21AD108E108F10888EE28
:1011C000880E83E0981EA11CB11CC114D104E10457
:1011D000F10429F7DDCFFF90EF90DF90CF90BF9023
:1011E000AF909F908F900895789484B5826084BD6D
:1011F00084B5816084BD85B5826085BD85B581601B
:1012000085BDEEE6F0E0808181608083E1E8F0E07A
:101210001082808182608083808181608083E0E8A9
:10122000F0E0808181608083E1EBF0E08081846088
:101230008083E0EBF0E0808181608083EAE7F0E08A
:1012400080818460808380818260808380818160EE
:1012500080838081806880831092C10008951F93ED
:10126000CF93DF93182FEB0161E00E94B70920971D
:1012700011F460E004C0CF3FD10539F461E0812F63
:10128000DF91CF911F910C94F009E12FF0E0E85924
:10129000FF4FE491E330F9F048F4E130B9F0E23087
:1012A000A1F584B5806284BDC8BD34C0E730E9F0E3
:1012B000E83019F1E43049F5809180008062809334
:1012C0008000D0938B00C0938A0024C084B58068CE
:1012D00084BDC7BD1FC0809180008068809380005E
:1012E000D0938900C093880015C08091B0008068B9
:1012F0008093B000C093B3000DC08091B0008062B5
:101300008093B000C093B40005C0C038D1050CF084
:10131000B5CFAFCFDF91CF911F910895833081F08A
:1013200028F4813099F08230A1F008958730A9F037
:101330008830B9F08430D1F4809180008F7D03C073
:10134000809180008F7780938000089584B58F7797
:1013500002C084B58F7D84BD08958091B0008F77E1
:1013600003C08091B0008F7D8093B0000895CF932B
:10137000DF9390E0FC01E458FF4F2491FC01E0571B
:10138000FF4F8491882349F190E0880F991FFC0159
:10139000E854FF4FA591B49182559F4FFC01C59130
:1013A000D4919FB7611108C0F8948C912095822345
:1013B0008C93888182230AC0623051F4F8948C9116
:1013C000322F309583238C938881822B888304C0AD
:1013D000F8948C91822B8C939FBFDF91CF910895CD
:1013E0000F931F93CF93DF931F92CDB7DEB7282FB4
:1013F00030E0F901E859FF4F8491F901E458FF4FBB
:101400001491F901E057FF4F04910023C9F088239C
:1014100021F069830E948E096981E02FF0E0EE0FD0
:10142000FF1FE255FF4FA591B4919FB7F8948C919F
:10143000611103C01095812301C0812B8C939FBF44
:101440000F90DF91CF911F910F910895CF93DF936C
:10145000282F30E0F901E859FF4F8491F901E45851
:10146000FF4FD491F901E057FF4FC491CC2391F085
:1014700081110E948E09EC2FF0E0EE0FFF1FEC555A
:10148000FF4FA591B4912C912D2381E090E021F4A0
:1014900080E002C080E090E0DF91CF910895FC01F0
:1014A000818D228D90E0805C9F4F821B91098F730C
:1014B00099270895FC01918D828D981731F0828DC6
:1014C000E80FF11D858D90E008958FEF9FEF08954F
:1014D000FC01918D828D981761F0828DDF01A80F3C
:1014E000B11D5D968C91928D9F5F9F73928F90E05E
:1014F00008958FEF9FEF08958CEE9BE0892B49F0C4
:1015000080E090E0892B29F00E94EC0B81110C9473
:1015100000000895FC01848DDF01A80FB11DA35ABE
:10152000BF4F2C91848D90E001968F739927848F03
:10153000A689B7892C93A089B1898C9180648C93FA
:10154000938D848D981306C00288F389E02D8081E5
:101550008F7D80830895CF93DF93EC01888D88235E
:10156000C9F0EA89FB89808185FD05C0A889B98910
:101570008C9186FD0FC00FB607FCF5CF808185FFEB
:10158000F2CFA889B9898C9185FFEDCFCE010E9459
:101590008A0AE7CFDF91CF910895CF92DF92FF9231
:1015A0000F931F93CF93DF931F92CDB7DEB76C01DC
:1015B00081E0D60158968C9358975B969C915B97E7
:1015C0005C968C915C97981307C05096ED91FC91B6
:1015D0005197808185FD2EC0F601038D10E00F5FCD
:1015E0001F4F0F731127F02EF601848DF81211C0D2
:1015F0000FB607FCF9CFD6015096ED91FC915197AB
:10160000808185FFF1CFC60169830E948A0A6981C2
:10161000EBCF838DE80FF11DE35AFF4F6083D601B6
:101620005B960C935B975296ED91FC91539780815A
:1016300080620CC0D6015696ED91FC91579760835D
:101640005096ED91FC91519780818064808381E078
:1016500090E00F90DF91CF911F910F91FF90DF905D
:10166000CF900895BF92CF92DF92EF92FF92CF93E7
:10167000DF93EC016A017B01B22EE889F98982E0EF
:101680008083411581EE580761057105A1F060E086
:1016900079E08DE390E0A70196010E943E0F215072
:1016A00031094109510956954795379527952115D7
:1016B00080E1380798F0E889F989108260E874E8D9
:1016C0008EE190E0A70196010E943E0F2150310962
:1016D000410951095695479537952795EC85FD8524
:1016E0003083EE85FF852083188EEC89FD89B082DA
:1016F000EA89FB89808180618083EA89FB89808116
:1017000088608083EA89FB89808180688083EA8998
:10171000FB8980818F7D8083DF91CF91FF90EF9057
:10172000DF90CF90BF9008951F920F920FB60F9247
:1017300011242F938F939F93EF93FF93E091B10226
:10174000F091B2028081E091B702F091B80282FD7F
:1017500012C090818091BA028F5F8F732091BB027B
:10176000821751F0E091BA02F0E0EF55FD4F958FEE
:101770008093BA0201C08081FF91EF919F918F9178
:101780002F910F900FBE0F901F9018951F920F92E0
:101790000FB60F9211242F933F934F935F936F9344
:1017A0007F938F939F93AF93BF93EF93FF9381EAC0
:1017B00092E00E948A0AFF91EF91BF91AF919F91B1
:1017C0008F917F916F915F914F913F912F910F90EA
:1017D0000FBE0F901F90189581EA92E00E944F0A69
:1017E00021E0892B09F420E0822F08951092A402B1
:1017F0001092A30288EE93E0A0E0B0E08093A502EF
:101800009093A602A093A702B093A8028CE292E064
:101810009093A2028093A10285EC90E09093AE0297
:101820008093AD0284EC90E09093B0028093AF027D
:1018300080EC90E09093B2028093B10281EC90E052
:101840009093B4028093B30282EC90E09093B6023E
:101850008093B50286EC90E09093B8028093B70233
:101860001092BA021092BB021092BC021092BD02FA
:10187000089508950E94F4080E94390C0E94DC0229
:10188000CCE7DAE00E9435062097E1F30E947C0A5B
:10189000F9CFCF92DF92EF92FF920F931F93CF93E6
:1018A000DF937C016A01EB0100E010E00C151D05DF
:1018B00071F06991D701ED91FC910190F081E02DDB
:1018C000C7010995892B19F00F5F1F4FEFCFC80192
:1018D000DF91CF911F910F91FF90EF90DF90CF900C
:1018E00008956115710581F0DB010D900020E9F785
:1018F000AD0141505109461B570BDC01ED91FC91A4
:101900000280F381E02D099480E090E008950C942A
:10191000710CDC01ED91FC910190F081E02D0994B6
:1019200068E372E00C94710C0F931F93CF93DF93D5
:10193000EC010E94710C8C01CE010E94900C800F72
:10194000911FDF91CF911F910F9108958F929F92D8
:10195000AF92BF92DF92EF92FF920F931F93CF93BC
:10196000DF93CDB7DEB7A1970FB6F894DEBF0FBEF9
:10197000CDBF7C01F42FD52ECB0119A2223008F463
:101980002AE08E010F5D1F4F822E912CA12CB12CCD
:101990006F2F7D2DA50194010E943E0FF22FD32EB3
:1019A000CA01015011096A3014F4E0E301C0E7E311
:1019B000E60FD801EC93232B242B252B49F7B801F4
:1019C000C7010E94710CA1960FB6F894DEBF0FBE3E
:1019D000CDBFDF91CF911F910F91FF90EF90DF90DE
:1019E000BF90AF909F908F900895CF92DF92EF922B
:1019F000FF920F931F93CF93DF93EC016A017B015A
:101A00002115310579F4E881F9810190F081E02D0B
:101A1000642FDF91CF911F910F91FF90EF90DF9096
:101A2000CF9009942A303105E9F477FF1AC06DE2AE
:101A30000E94890C8C0144275527BA014C195D0975
:101A40006E097F092AE0CE010E94A60C800F911F2B
:101A5000DF91CF911F910F91FF90EF90DF90CF908A
:101A600008952AE0B701A601CE01DF91CF911F9121
:101A70000F91FF90EF90DF90CF900C94A60C9A01FD
:101A8000AB01662757FD6095762F0C94F50C0F93EC
:101A90001F93CF93DF93EC019A01AB01662757FDAB
:101AA0006095762F0E94F50C8C01CE010E94900C5F
:101AB000800F911FDF91CF911F910F9108952115F4
:101AC000310541F4DC01ED91FC910190F081E02DB4
:101AD000642F09940C94A60C9A01462F50E060E004
:101AE00070E00C945F0D0F931F93CF93DF93EC0185
:101AF0009A01462F50E060E070E00E945F0D8C017B
:101B0000CE010E94900C800F911FDF91CF911F9109
:101B10000F91089508955058BB27AA270ED00DC1E4
:101B2000FED030F003D120F031F49F3F11F41EF4C9
:101B3000F3C00EF4E095E7FBE9C0E92F0FD180F385
:101B4000BA17620773078407950718F071F49EF5BA
:101B500027C10EF4E0950B2EBA2FA02D0B01B90171
:101B600090010C01CA01A0011124FF27591B99F013
:101B7000593F50F4503E68F11A16F040A22F232F1F
:101B8000342F4427585FF3CF469537952795A7956F
:101B9000F0405395C9F77EF41F16BA0B620B730B16
:101BA000840BBAF09150A1F0FF0FBB1F661F771F87
:101BB000881FC2F70EC0BA0F621F731F841F48F43C
:101BC000879577956795B795F7959E3F08F0B3CFC2
:101BD0009395880F08F09927EE0F979587950895AC
:101BE00071D008F481E0089504D06894B111D9C08F
:101BF0000895BCD088F09F5790F0B92F9927B7511E
:101C0000A0F0D1F0660F771F881F991F1AF0BA95C0
:101C1000C9F712C0B13081F0C3D0B1E00895C0C09F
:101C2000672F782F8827B85F39F0B93FCCF38695B6
:101C300077956795B395D9F73EF490958095709513
:101C400061957F4F8F4F9F4F0895E89409C097FB90
:101C50003EF490958095709561957F4F8F4F9F4F83
:101C60009923A9F0F92F96E9BB279395F6958795C7
:101C700077956795B795F111F8CFFAF4BB0F11F48A
:101C800060FF1BC06F5F7F4F8F4F9F4F16C0882331
:101C900011F096E911C0772321F09EE8872F762F67
:101CA00005C0662371F096E8862F70E060E02AF0A8
:101CB0009A95660F771F881FDAF7880F9695879594
:101CC00097F90895990F0008550FAA0BE0E8FEEF69
:101CD00016161706E807F907C0F012161306E407F0
:101CE000F50798F0621B730B840B950B39F40A26E9
:101CF00061F0232B242B252B21F408950A2609F4C7
:101D0000A140A6958FEF811D811D089597F99F67CA
:101D100080E870E060E008959FEF80EC0895002473
:101D20000A941616170618060906089500240A9440
:101D300012161306140605060895092E0394000CC6
:101D400011F4882352F0BB0F40F4BF2B11F460FF55
:101D500004C06F5F7F4F8F4F9F4F089557FD90587E
:101D6000440F551F59F05F3F71F04795880F97FB5F
:101D7000991F61F09F3F79F0879508951216130619
:101D80001406551FF2CF4695F1DF08C01616170648
:101D90001806991FF1CF869571056105089408957D
:101DA000E894BB2766277727CB0197F908958ADF48
:101DB00008F48FEF08950BD0C0CFB1DF28F0B6DF65
:101DC00018F0952309F0A2CFA7CF1124EACFC6DFE0
:101DD000A0F3959FD1F3950F50E0551F629FF0013E
:101DE000729FBB27F00DB11D639FAA27F00DB11D97
:101DF000AA1F649F6627B00DA11D661F829F222720
:101E0000B00DA11D621F739FB00DA11D621F839FA6
:101E1000A00D611D221F749F3327A00D611D231F7C
:101E2000849F600D211D822F762F6A2F11249F57CA
:101E300050408AF0E1F088234AF0EE0FFF1FBB1FED
:101E4000661F771F881F91505040A9F79E3F51058C
:101E500070F05CCFA6CF5F3FECF3983EDCF3869545
:101E600077956795B795F795E7959F5FC1F7FE2B37
:101E7000880F911D9695879597F90895A1E21A2EDE
:101E8000AA1BBB1BFD010DC0AA1FBB1FEE1FFF1F1E
:101E9000A217B307E407F50720F0A21BB30BE40B6E
:101EA000F50B661F771F881F991F1A9469F76095B5
:101EB0007095809590959B01AC01BD01CF0108956F
:101EC000EE0FFF1F0590F491E02D0994F999FECFD4
:101ED00092BD81BDF89A992780B50895262FF9996A
:101EE000FECF1FBA92BD81BD20BD0FB6F894FA9AFD
:0C1EF000F99A0FBE01960895F894FFCFF8
:101EFC002C8F9440E1C89F3EA2D5F9BE4CD929C184
:101F0C000101D207D2074D63703235313520636F32
:101F1C006E6669677572652062757320737563638D
:101F2C00657366756C6C79004D6370323531352094
:101F3C00636F6E66696775726520696E746572721F
:101F4C00757074732073756363657366756C6C79E7
:101F5C00004D63703235313520636F6E666967757D
:101F6C00726520727820627566666572207375637F
:101F7C0063657366756C6C790041626F727420775F
:101F8C00616974696E672E204D61782E20776169C6
:101F9C0074696E672074696D65207265616368652C
:101FAC00642E004D6370323531352073776974635C
:101FBC006820746F206D6F646520005472792074F2
:101FCC006F207265736574204D6370323531350046
:101FDC004D637032353135207265736574207375BD
:101FEC006363657366756C6C7920616E64207377BE
:101FFC006974636820646F206D6F64652000696E7E
:10200C00636F6D696E675F6461746120003A2000D4
:10201C00363738393A3B3C3D00000000CD0A490CBC
:10202C004F0A680A5A0AAB0A0D0A006E616E006903
:08203C006E66006F766600007D
:00000001FF
