:100000000C9463000C94B1090C94D8090C948B00E7
:100010000C948B000C948B000C948B000C948B0034
:100020000C948B000C948B000C948B000C948B0024
:100030000C948B000C948B000C948B000C948B0014
:100040000C94FF090C948B000C94520D0C94840DAD
:100050000C948B000C948B000C948B000C948B00F4
:100060000C948B000C948B0000000008000201002F
:100070000003040700000000000000000102040863
:100080001020408001020408102001020408102002
:10009000040404040404040402020202020203032E
:1000A00003030303000000002300260029000000D2
:1000B0000000250028002B0000000000240027007D
:1000C0002A004109B40D11241FBECFEFD8E0DEBFD6
:1000D000CDBF12E0A0E0B1E0ECE8F2E202C0059092
:1000E0000D92AC3EB107D9F723E0ACEEB2E001C00F
:1000F0001D92AB3EB207E1F710E0C6ECD0E004C0C1
:100100002297FE010E942A11C23CD107C9F70E9422
:10011000F80D0C9444110C94000082E00E94E40B52
:10012000019771F483E00E94E40B40910203509127
:1001300003036091040370910503892B99F40DC0AA
:1001400083E00E94E40B409102035091030360910D
:10015000040370910503019729F44F5F5F4F6F4FC0
:100160007F4F04C041505109610971094093020356
:10017000509303036093040370930503089583E091
:100180000E94E40B019771F482E00E94E40B40911D
:1001900002035091030360910403709105030197DA
:1001A00099F40DC082E00E94E40B4091020350914B
:1001B00003036091040370910503892B29F44F5FB9
:1001C0005F4F6F4F7F4F04C0415051096109710962
:1001D0004093020350930303609304037093050359
:1001E00008950F931F93CF93DF931F92CDB7DEB780
:1001F0008C0169830E942E116981681741F0C80142
:100200000F90DF91CF911F910F910C9436110F90A9
:10021000DF91CF911F910F9108950C942E118EBDF7
:1002200000000DB407FEFDCF8EB50895DF92EF926A
:10023000FF920F931F93CF93DF937C01EA01D22E9D
:10024000882777FD8095982F0E94780A602F8D2D42
:100250000E94AE0BB701882777FD8095982F0E94EA
:10026000780A61E0012B09F060E08D2D0E94AE0B51
:10027000BE01882777FD8095982FDF91CF911F9140
:100280000F91FF90EF90DF900C94780AEF92FF921D
:100290000F931F93CF93DF937A01672B61F000E0F8
:1002A00010E02DE030E040E050E060E070E088EEEB
:1002B00093E00E94160101E010E02DE030E044EFF1
:1002C00051E060E070E084EF91E00E9416012DE0C3
:1002D00030E048EC50E060E070E088EC90E00E9494
:1002E00016012DE030E048EC50E060E070E088EC72
:1002F00090E00E9416012DE030E044EF51E060E014
:1003000070E084EF91E00E941601C3E0D0E001E0CC
:1003100010E02DE030E048EC50E060E070E088EC68
:1003200090E00E941601219791F72DE030E044EF14
:1003300051E060E070E084EF91E00E941601C4E0BB
:10034000D0E001E010E02DE030E048EC50E060E06B
:1003500070E088EC90E00E941601219791F7EF2859
:1003600061F000E010E02DE030E040E050E060E0BF
:1003700070E088EE93E00E941601DF91CF911F910B
:100380000F91FF90EF900895CF93DF93D82FC62F52
:100390008AE00E94AE0B6C2F8D2FDF91CF910C94D1
:1003A000AE0B1F93CF93DF93EC0160E00E94C4017A
:1003B00080EA0E940F0180E00E940F01182F61E087
:1003C000CE010E94C40164E070E080E090E00E94F1
:1003D000780A812FDF91CF911F9108950F931F937A
:1003E000CF93DF93082F162FEA0160E0CA010E9425
:1003F000C40182E00E940F01802F0E940F01812F13
:100400000E940F0161E0CE010E94C40164E070E02F
:1004100080E090E0DF91CF911F910F910C94780ACA
:10042000CF93DF93D62FC42F48E050E0682F82E3AC
:100430000E94EE0148E050E06D2F81E30E94EE0142
:1004400048E050E06C2F85E3DF91CF910C94EE01F2
:10045000CF93DF93D62FC42F48E050E0682F82E47B
:100460000E94EE0148E050E06D2F81E40E94EE0111
:1004700048E050E06C2F85E4DF91CF910C94EE01C1
:10048000CF93DF93D62FC42F48E050E0682F82E54A
:100490000E94EE0148E050E06D2F81E50E94EE01E0
:1004A00048E050E06C2F85E5DF91CF910C94EE0190
:1004B00048E050E060E08AE20E94EE0148E050E04F
:1004C00068EB89E20E94EE0148E050E065E088E2D6
:1004D0000E94EE0180913B03882331F067E171E0D7
:1004E0008EE493E00C94520E089548E050E063E0EF
:1004F0008BE20E94EE0180913B03882331F069E397
:1005000071E08EE493E00C94520E08951F93CF9304
:10051000DF93182FEB0160E0CE010E94C40183E05D
:100520000E940F01812F0E940F0180E00E940F01A5
:10053000182F61E0CE010E94C40164E070E080E009
:1005400090E00E94780A48E050E060E08CE20E946F
:10055000EE01812FDF91CF911F910895CF92DF920D
:10056000EF92FF920F931F93CF93DF93062FC3E079
:10057000D0E048E050E0602F8FE00E94EE0168E09C
:1005800070E08EE00E948602182F0E94490A6B01DB
:100590007C0160E070E0CB01101791F0613177428F
:1005A0008105910594F468E070E08EE00E94860277
:1005B000182F0E94490A6C197D098E099F09ECCFFA
:1005C000613177428105910564F080913B03882376
:1005D00031F06AE871E08EE493E00E94520E2197B8
:1005E00041F680913B03882331F064EB71E08EE4A7
:1005F00093E00E94450E80913B03882339F04AE046
:1006000050E0612F8EE493E00E94340F80913B0311
:10061000882371F06DE771E08EE493E0DF91CF9174
:100620001F910F91FF90EF90DF90CF900C94520E9E
:10063000DF91CF911F910F91FF90EF90DF90CF90BE
:100640000895FB01EB53FD4F48E050E0682F808197
:100650000C94EE011F93CF93DF93182FEB0160E012
:10066000CE010E94C401812F0E940F0161E0CE01E2
:100670000E94C40164E070E080E090E0DF91CF91DF
:100680001F910C94780ACF9368E070E080EC0E9490
:100690002A0368E070E08EE00E948602C82F6CECAE
:1006A00071E08EE493E00E94450EC7FD0EC068E045
:1006B00070E08EE00E948602C82F4AE050E0682F6A
:1006C0008EE493E00E94340FF0CF80913B038823A7
:1006D00031F061EE71E08EE493E00E94450E80916E
:1006E0003B03882341F04AE050E06C2F8EE493E016
:1006F000CF910C943B0FCF9108950E9443030E9429
:1007000058020E94750260E080E00C94AE021F93D4
:10071000CF93DF9380910001909101018230910588
:10072000C1F054F4019771F589E08093400390E2A1
:100730009093320381E01CC08330910591F00497BF
:1007400009F589E08093400390E89093320384E0B8
:100750000FC089E08093400390E49093320382E0DD
:1007600007C089E08093400390E69093320383E0D2
:10077000809331039093300380932F0390932E0343
:1007800080932D0326E040E855E260E070E08EE4BF
:1007900093E00E94F00C81E080933C0380933B0344
:1007A00061E088E00E94750B61E08AE00E94750BB1
:1007B00060E082E00E94750B60E083E00E94750BB0
:1007C00060E087E00E94750B61E084E00E94750B99
:1007D00061E08DE00E94750B60E085E00E94750B82
:1007E00085E00E94E40B909335038093340385E009
:1007F00090E00E940D01882339F1C0E0D0E060E074
:10080000CE010E9436112196C630D105C1F7C0E055
:10081000D0E011E0CE010E940D01811110E021967F
:10082000C630D105B9F7111109C040E050E061E0D0
:1008300070E081E090E00E944601F7CF6FE072E047
:100840008EE493E00E94520E84E090E00E940D013D
:10085000C82FD0E0209741F040E050E061E070E028
:10086000CE010E944601F8CF80914303882399F07E
:100870009FB7F89480914303813059F48DB38093EE
:1008800041032DB380914203809582238DBB9FBF8E
:1008900002C0909341038CE58CBD1DBC0E945A0997
:1008A0000E947D0348E060913103809132030E94F1
:1008B000100248E060912F03809130030E942802CB
:1008C00048E060912D0380912E030E94400282E057
:1008D00090E00E940D018093FE0283E090E00E9470
:1008E0000D018093FF028091FE029091FF02AA27E2
:1008F00097FDA095BA2F8093020390930303A093D2
:100900000403B093050380913B038823A1F063E2C5
:1009100072E08EE493E00E94450E409102035091F4
:10092000030360910403709105032AE030E08EE434
:1009300093E00E94150F80E090E00E940D018093EB
:10094000FC0281E090E00E940D018093FD02809105
:100950003B03882381F067E372E08EE493E00E941A
:10096000450E6091FC027091FD024AE050E08EE479
:1009700093E00E94FD0E109201031092000341E0EB
:1009800050E06DE870E080E00E94910941E050E0A5
:100990006FEB70E081E00E94910964E670E080E016
:1009A00090E00E94780A0E94490A6093370370938E
:1009B00038038093390390933A03DF91CF911F91CD
:1009C00008958130910539F08230910531F0892BFD
:1009D00029F421E803C022E801C024E868E070E0BF
:1009E000822F0C942A03EF92FF920F931F93CF93C1
:1009F000DF938B01C0E0D0E0E82EF12CCE15DF05AF
:100A000048F4A701BE01F80181918F010E942103E2
:100A10002196F4CF80E090E0DF91CF911F910F916C
:100A2000FF90EF900C94E1040F931F93CF93DF930B
:100A3000C82F8B0160E0C8010E94C4018C2F0E9466
:100A40000F01C4EFD2E080E00E940F01899382E0A1
:100A5000CC3FD807C1F761E0C8010E94C40181E022
:100A6000DF91CF911F910F9108956823613021F498
:100A700068E070E082E905C0623029F468E070E067
:100A800086E90E94140581E008958F929F92AF92AB
:100A9000BF92CF92DF92EF92FF920F931F93CF936B
:100AA000DF936B017C0149015A0120E030E04FE700
:100AB00053EC0E949F1087FD0AC020E030E04FE712
:100AC00053E4C701B6010E94B80F18167CF520E068
:100AD00030E04FE753E4C701B6010E949F1018169B
:100AE0004CF420E030E04FE753E4C701B6010E9428
:100AF000530F12C020E030E04FE753ECC701B601BE
:100B00000E94B80F87FF12C020E030E04FE753E4A7
:100B1000C701B6010E94540F6B017C0120E030E058
:100B2000A9010E949F101816ACF003C0C12CD12C53
:100B30007601C1E0D0E020E030E0A901C701B601B4
:100B40000E94B80F87FD02C0C0E0D0E0D195C195EA
:100B5000D10902C0C1E0D0E020E030E0A901C50128
:100B6000B4010E949F1001E010E0181674F020E01C
:100B700030E0A901C501B4010E94B80F87FD02C091
:100B800000E010E0119501951109C017D10759F443
:100B900020E030E0A901C701B6010E94B80F882308
:100BA00011F081E000C0DF91CF911F910F91FF9074
:100BB000EF90DF90CF90BF90AF909F908F9008956F
:100BC0004F925F926F927F928F929F92AF92BF925D
:100BD000CF92DF92EF92FF92CF93DF9300D000D0BD
:100BE000CDB7DEB76B017C0120910E0130910F0172
:100BF00040911001509111010E94A3104B015C0122
:100C0000609316037093170380931803909319034E
:100C100060910A0370910B0380910C0390910D0376
:100C2000A70196010E944505882321F020E030E0CD
:100C3000A9010AC02DEC3CEC4CE45DE3C701B60110
:100C40000E94A3109B01AC016091120370911303E9
:100C500080911403909115030E94540F6093120326
:100C600070931303809314039093150320910A014A
:100C700030910B0140910C0150910D0160911203D4
:100C80007091130380911403909115030E94A31097
:100C90002B013C01609312037093130380931403A0
:100CA000909315038091060390910703A091080388
:100CB000B091090389839A83AB83BC832091060199
:100CC000309107014091080150910901C701B60117
:100CD0000E94A31029813A814B815C810E94530FAD
:100CE00020910201309103014091040150910501CE
:100CF0000E94A3106B017C0160930E0370930F039D
:100D00008093100390931103A3019201C501B401D4
:100D10000E94540FA70196010E94540F4B015C01E1
:100D200060930A0370930B0380930C0390930D035D
:100D300020E030E04FE753E40E949F1018168CF03B
:100D400020E030E04FE753ECC501B4010E94B80F3A
:100D500087FF0DC0812C912C9FE7A92E93ECB92E13
:100D600006C0812C912C8FE7A82E83E4B82E2DECA1
:100D70003CEC4CE45DE3C701B6010E94A3109B016B
:100D8000AC0169817A818B819C810E94540F6093B0
:100D90000603709307038093080390930903C5012A
:100DA000B4010F900F900F900F90DF91CF91FF90B3
:100DB000EF90DF90CF90BF90AF909F908F907F90FB
:100DC0006F905F904F900895CF92DF92EF92FF92D5
:100DD000CF93DF931092260310923F0310923E03AD
:100DE00081E080933D0387E00E94E40B892B79F436
:100DF00088E090E00E94D1018093260363E00E9486
:100E0000350569E170E080E090E00E94780A409149
:100E1000F502242F30E08091000190910101281704
:100E2000390709F027C28091F40281110BC010929A
:100E30003603ECEEF2E0119292E0E43FF907D9F7C5
:100E40004093ED029FEF980F953058F49091360340
:100E5000913039F08093EC0282E08093EE0240936F
:100E6000ED026CEE72E088E00E94F30469E170E04C
:100E700080E090E00E94780A8091F402823009F0CC
:100E80005CC080913603813009F457C06091020341
:100E900080E090E00E94F1008091020390910303B2
:100EA000A0910403B0910503692F7A2F8B2F992706
:100EB00087FD9A9581E090E00E94F10080E090E04B
:100EC0000E940D01C0910203F0900303D1E08C1346
:100ED000D0E081E090E00E940D018F1129C0DD2358
:100EE00039F1C093FC028093FD0280913B0388237B
:100EF00081F06BE472E08EE493E00E94450E609115
:100F0000FC027091FD024AE050E08EE493E00E9402
:100F1000FD0E81E08093EE0260E084E090E00E94AC
:100F2000F1006EE572E08EE493E00E94520E05C07F
:100F300062E084E090E00E94F1008091F40283304E
:100F400079F49091360381E0981751F010921201D4
:100F50008093EE0265E672E08EE493E00E94520E0A
:100F60008091F402843079F49091360381E09817EF
:100F700051F0809312018093EE026AE772E08EE4F2
:100F800093E00E94520E8091F402813009F04DC02E
:100F900090913603981709F448C08091F802809325
:100FA00000038091F7028093010360910003709128
:100FB0000103882777FD8095982F0E94EF0F60939B
:100FC000220370932303809324039093250320919D
:100FD000F90221110BC0DC01CB01B0588093220330
:100FE00090932303A0932403B093250381E080937F
:100FF000EE026EE872E08EE493E00E94450E4AE055
:1010000050E06091F4028EE493E00E943B0F69EAA5
:1010100072E08EE493E00E94450E4AE050E0609159
:10102000F8028EE493E00E943B0F8091F402853039
:1010300009F053C09091360381E0981709F44DC030
:10104000809336036091020382E090E00E94F100F9
:101050008091020390910303A0910403B0910503D2
:10106000692F7A2F8B2F992787FD9A9583E090E03F
:101070000E94F10082E090E00E940D018093FE0248
:1010800083E090E00E940D018093FF02C091FE0278
:10109000D091FF026E01EE24D7FCE094FE2CC092AA
:1010A0000203D0920303E0920403F092050382E06E
:1010B00090E00E940D01D1E08C13D0E083E090E03D
:1010C0000E940D018D1104C0DD2311F060E001C00C
:1010D00063E084E090E00E94F10080911201882397
:1010E00009F4C8C060910203709103038091040366
:1010F000909105030E94EF0F6B017C0160931A032E
:1011000070931B0380931C0390931D036091000355
:10111000709101038091FC029091FD02680F791F8C
:10112000882777FD8095982F0E94EF0F9B01AC01D7
:1011300060932203709323038093240390932503E9
:10114000C701B6010E94530F6B017C0120E030E023
:10115000A9010E949F1018165CF42AE939E949E1B7
:101160005EE3C701B6010E94B80F18165CF013C009
:101170002AE939E949E15EEBC701B6010E949F10F7
:1011800087FF09C0C0921E03D0921F03E092200384
:10119000F092210308C010921E0310921F031092B8
:1011A00020031092210360911E0370911F03809110
:1011B0002003909121030E94E0056B017C0120E057
:1011C00030E0A90160911E0370911F0380912003FC
:1011D000909121030E94B80F882391F020E030E025
:1011E000A901C701B6010E94B80F87FF0CC060E0DB
:1011F00084E00E94AE0BF7FAF094F7F8F09407C081
:10120000C12CD12C760161E084E00E94AE0B80916C
:10121000000390910103865A9F4F853B910558F436
:10122000C701B6010E94BC0F809140030E94ED0AE5
:101230001092330309C060E070E0809140030E9487
:10124000ED0A81E080933303C1E020E030E0A901A2
:10125000C701B6010E94B80F8111C0E0809133032D
:101260008C2B41F08091F402813021F48093EE02C6
:1012700010923303DF91CF91FF90EF90DF90CF90EA
:1012800008958091320380932A03809130038093E4
:101290002B0380912E0380932C0380913103809344
:1012A000270380912F038093280380912D0380933F
:1012B00029030895CF93CFB7F89480914403811107
:1012C00027C0EAE9F0E08491E6E8F0E09491E82FA5
:1012D000F0E0EE0FFF1FE854FF4FA591B4918C9101
:1012E000892321F461E08AE00E94AE0B61E08AE08C
:1012F0000E94750B8CB580618CBD8CB580648CBDF3
:1013000061E08DE00E94750B61E08BE00E94750B3F
:10131000809144038F5F80934403CFBFCF910895A2
:1013200008958230E8F4E82FF0E0EE0FFF1FED5E45
:10133000FE4F71836083813041F0809169008C7F22
:10134000842B80936900E89A089580916900440F86
:10135000551F440F551F837F842B80936900E99AA2
:1013600008951F920F920FB60F9211242F933F935F
:101370004F935F936F937F938F939F93AF93BF939D
:10138000EF93FF93E0911301F09114010995FF9100
:10139000EF91BF91AF919F918F917F916F915F91ED
:1013A0004F913F912F910F900FBE0F901F90189566
:1013B0001F920F920FB60F9211242F933F934F93CA
:1013C0005F936F937F938F939F93AF93BF93EF93AD
:1013D000FF93E0911501F09116010995FF91EF91AE
:1013E000BF91AF919F918F917F916F915F914F913D
:1013F0003F912F910F900FBE0F901F9018951F9245
:101400000F920FB60F9211242F933F938F939F93B8
:10141000AF93BF938091460390914703A0914803F7
:10142000B09149033091450323E0230F2D3720F479
:101430000196A11DB11D05C026E8230F0296A11D2E
:10144000B11D209345038093460390934703A093D7
:101450004803B093490380914A0390914B03A091B4
:101460004C03B0914D030196A11DB11D80934A0319
:1014700090934B03A0934C03B0934D03BF91AF9156
:101480009F918F913F912F910F900FBE0F901F90C2
:1014900018952FB7F8946091460370914703809197
:1014A0004803909149032FBF08953FB7F894809166
:1014B0004A0390914B03A0914C03B0914D0326B584
:1014C000A89B05C02F3F19F00196A11DB11D3FBF7C
:1014D0006627782F892F9A2F620F711D811D911D0C
:1014E00042E0660F771F881F991F4A95D1F708952C
:1014F0008F929F92AF92BF92CF92DF92EF92FF9224
:101500006B017C010E94550A4B015C01C114D1049E
:10151000E104F104F1F00E94520F0E94550A68198B
:1015200079098A099B09683E73408105910570F32A
:1015300021E0C21AD108E108F10888EE880E83E0A4
:10154000981EA11CB11CC114D104E104F10429F7B7
:10155000DDCFFF90EF90DF90CF90BF90AF909F9046
:101560008F900895789484B5826084BD84B581603D
:1015700084BD85B5826085BD85B5816085BDEEE69B
:10158000F0E0808181608083E1E8F0E0108280817A
:1015900082608083808181608083E0E8F0E08081E8
:1015A00081608083E1EBF0E0808184608083E0EB08
:1015B000F0E0808181608083EAE7F0E080818460F0
:1015C000808380818260808380818160808380814C
:1015D000806880831092C10008951F93CF93DF939A
:1015E000182FEB0161E00E94750B209711F460E069
:1015F00004C0CF3FD10539F461E0812FDF91CF9155
:101600001F910C94AE0BE12FF0E0E859FF4FE491ED
:10161000E330F9F048F4E130B9F0E230A1F584B5F7
:10162000806284BDC8BD34C0E730E9F0E83019F10C
:10163000E43049F580918000806280938000D093EF
:101640008B00C0938A0024C084B5806884BDC7BD68
:101650001FC080918000806880938000D0938900B3
:10166000C093880015C08091B00080688093B0005E
:10167000C093B3000DC08091B00080628093B00031
:10168000C093B40005C0C038D1050CF0B5CFAFCFC2
:10169000DF91CF911F910895833081F028F481303C
:1016A00099F08230A1F008958730A9F08830B9F020
:1016B0008430D1F4809180008F7D03C080918000C0
:1016C0008F7780938000089584B58F7702C084B5AA
:1016D0008F7D84BD08958091B0008F7703C0809185
:1016E000B0008F7D8093B0000895CF93DF9390E09A
:1016F000FC01E458FF4F2491FC01E057FF4F849117
:10170000882349F190E0880F991FFC01E854FF4FAE
:10171000A591B49182559F4FFC01C591D4919FB77B
:10172000611108C0F8948C91209582238C93888154
:1017300082230AC0623051F4F8948C91322F309594
:1017400083238C938881822B888304C0F8948C91A6
:10175000822B8C939FBFDF91CF9108950F931F939E
:10176000CF93DF931F92CDB7DEB7282F30E0F9017A
:10177000E859FF4F8491F901E458FF4F1491F901A2
:10178000E057FF4F04910023C9F0882321F06983BB
:101790000E944C0B6981E02FF0E0EE0FFF1FE25535
:1017A000FF4FA591B4919FB7F8948C91611103C03C
:1017B0001095812301C0812B8C939FBF0F90DF91E7
:1017C000CF911F910F910895CF93DF93282F30E091
:1017D000F901E859FF4F8491F901E458FF4FD49182
:1017E000F901E057FF4FC491CC2391F081110E9481
:1017F0004C0BEC2FF0E0EE0FFF1FEC55FF4FA591C7
:10180000B4912C912D2381E090E021F480E002C07E
:1018100080E090E0DF91CF910895FC01818D228DD1
:1018200090E0805C9F4F821B91098F7399270895E8
:10183000FC01918D828D981731F0828DE80FF11D9A
:10184000858D90E008958FEF9FEF0895FC01918DB5
:10185000828D981761F0828DDF01A80FB11D5D9612
:101860008C91928D9F5F9F73928F90E008958FEF80
:101870009FEF08958AEA9DE0892B49F080E090E08F
:10188000892B29F00E94AA0D81110C940000089563
:10189000FC01848DDF01A80FB11DA35ABF4F2C910D
:1018A000848D90E001968F739927848FA689B789DC
:1018B0002C93A089B1898C9180648C93938D848DB5
:1018C000981306C00288F389E02D80818F7D808384
:1018D0000895CF93DF93EC01888D8823C9F0EA89BE
:1018E000FB89808185FD05C0A889B9898C9186FD19
:1018F0000FC00FB607FCF5CF808185FFF2CFA88916
:10190000B9898C9185FFEDCFCE010E94480CE7CFBD
:10191000DF91CF910895CF92DF92FF920F931F93A3
:10192000CF93DF931F92CDB7DEB76C0181E0D60174
:1019300058968C9358975B969C915B975C968C918C
:101940005C97981307C05096ED91FC915197808158
:1019500085FD2EC0F601038D10E00F5F1F4F0F7342
:101960001127F02EF601848DF81211C00FB607FC76
:10197000F9CFD6015096ED91FC915197808185FF6A
:10198000F1CFC60169830E94480C6981EBCF838D3A
:10199000E80FF11DE35AFF4F6083D6015B960C936D
:1019A0005B975296ED91FC915397808180620CC0B9
:1019B000D6015696ED91FC91579760835096ED9124
:1019C000FC91519780818064808381E090E00F904A
:1019D000DF91CF911F910F91FF90DF90CF900895ED
:1019E000BF92CF92DF92EF92FF92CF93DF93EC0101
:1019F0006A017B01B22EE889F98982E08083411572
:101A000081EE580761057105A1F060E079E08DE392
:101A100090E0A70196010E94061121503109410969
:101A200051095695479537952795211580E1380737
:101A300098F0E889F989108260E874E88EE190E016
:101A4000A70196010E94061121503109410951094F
:101A50005695479537952795EC85FD853083EE851E
:101A6000FF852083188EEC89FD89B082EA89FB8985
:101A7000808180618083EA89FB898081886080839E
:101A8000EA89FB89808180688083EA89FB8980817B
:101A90008F7D8083DF91CF91FF90EF90DF90CF908B
:101AA000BF9008951F920F920FB60F9211242F939B
:101AB0008F939F93EF93FF93E0915E03F0915F0309
:101AC0008081E0916403F091650382FD12C09081F2
:101AD000809167038F5F8F7320916803821751F0A5
:101AE000E0916703F0E0E25BFC4F958F8093670322
:101AF00001C08081FF91EF919F918F912F910F9065
:101B00000FBE0F901F9018951F920F920FB60F9255
:101B100011242F933F934F935F936F937F938F93F2
:101B20009F93AF93BF93EF93FF938EE493E00E9454
:101B3000480CFF91EF91BF91AF919F918F917F9151
:101B40006F915F914F913F912F910F900FBE0F902A
:101B50001F9018958EE493E00E940D0C21E0892BD4
:101B600009F420E0822F089510925103109250033F
:101B700088EE93E0A0E0B0E080935203909353038B
:101B8000A0935403B093550381ED92E090934F03DB
:101B900080934E0385EC90E090935B0380935A030F
:101BA00084EC90E090935D0380935C0380EC90E084
:101BB00090935F0380935E0381EC90E090936103C8
:101BC0008093600382EC90E09093630380936203C0
:101BD00086EC90E090936503809364031092670312
:101BE000109268031092690310926A030895089591
:101BF0000E94B20A0E94F70D0E948703CAE3DCE04C
:101C00000E94E4062097E1F30E943A0CF9CFCF92AC
:101C1000DF92EF92FF920F931F93CF93DF937C019C
:101C20006A01EB0100E010E00C151D0571F06991EF
:101C3000D701ED91FC910190F081E02DC70109954C
:101C4000892B19F00F5F1F4FEFCFC801DF91CF91A4
:101C50001F910F91FF90EF90DF90CF900895611545
:101C6000710581F0DB010D900020E9F7AD014150D5
:101C70005109461B570BDC01ED91FC910280F38169
:101C8000E02D099480E090E008950C942F0EDC0183
:101C9000ED91FC910190F081E02D09946DED72E0E1
:101CA0000C942F0E0F931F93CF93DF93EC010E94A0
:101CB0002F0E8C01CE010E944E0E800F911FDF91DE
:101CC000CF911F910F9108958F929F92AF92BF92E3
:101CD000DF92EF92FF920F931F93CF93DF93CDB7D5
:101CE000DEB7A1970FB6F894DEBF0FBECDBF7C0163
:101CF000F42FD52ECB0119A2223008F42AE08E0150
:101D00000F5D1F4F822E912CA12CB12C6F2F7D2D9A
:101D1000A50194010E940611F22FD32ECA01015091
:101D200011096A3014F4E0E301C0E7E3E60FD801DB
:101D3000EC93232B242B252B49F7B801C7010E94D4
:101D40002F0EA1960FB6F894DEBF0FBECDBFDF9168
:101D5000CF911F910F91FF90EF90DF90BF90AF90C8
:101D60009F908F900895CF92DF92EF92FF920F9302
:101D70001F93CF93DF93EC016A017B01211531059D
:101D800079F4E881F9810190F081E02D642FDF91F1
:101D9000CF911F910F91FF90EF90DF90CF9009941A
:101DA0002A303105E9F477FF1AC06DE20E94470E30
:101DB0008C0144275527BA014C195D096E097F092A
:101DC0002AE0CE010E94640E800F911FDF91CF9117
:101DD0001F910F91FF90EF90DF90CF9008952AE030
:101DE000B701A601CE01DF91CF911F910F91FF9016
:101DF000EF90DF90CF900C94640E0F931F93CF93CE
:101E0000DF93EC019A01AB01662757FD6095762FB1
:101E10000E94B30E8C01CE010E944E0E800F911FC6
:101E2000DF91CF911F910F9108950F931F93CF933F
:101E3000DF93EC010E94B30E8C01CE010E944E0E86
:101E4000800F911FDF91CF911F910F910895211560
:101E5000310541F4DC01ED91FC910190F081E02D20
:101E6000642F09940C94640E9A01462F50E060E0B0
:101E700070E00C94270F0F931F93CF93DF93EC0127
:101E80009A01462F50E060E070E00E94270F8C011D
:101E9000CE010E944E0E800F911FDF91CF911F91B6
:101EA0000F91089508955058BB27AA270ED00DC151
:101EB000FED030F003D120F031F49F3F11F41EF436
:101EC000F3C00EF4E095E7FBE9C0E92F0FD180F3F2
:101ED000BA17620773078407950718F071F49EF527
:101EE00027C10EF4E0950B2EBA2FA02D0B01B901DE
:101EF00090010C01CA01A0011124FF27591B99F080
:101F0000593F50F4503E68F11A16F040A22F232F8B
:101F1000342F4427585FF3CF469537952795A795DB
:101F2000F0405395C9F77EF41F16BA0B620B730B82
:101F3000840BBAF09150A1F0FF0FBB1F661F771FF3
:101F4000881FC2F70EC0BA0F621F731F841F48F4A8
:101F5000879577956795B795F7959E3F08F0B3CF2E
:101F60009395880F08F09927EE0F97958795089518
:101F700071D008F481E0089504D06894B111D9C0FB
:101F80000895BCD088F09F5790F0B92F9927B7518A
:101F9000A0F0D1F0660F771F881F991F1AF0BA952D
:101FA000C9F712C0B13081F0C3D0B1E00895C0C00C
:101FB000672F782F8827B85F39F0B93FCCF3869523
:101FC00077956795B395D9F73EF490958095709580
:101FD00061957F4F8F4F9F4F0895E89409C097FBFD
:101FE0003EF490958095709561957F4F8F4F9F4FF0
:101FF0009923A9F0F92F96E9BB279395F695879534
:1020000077956795B795F111F8CFFAF4BB0F11F4F6
:1020100060FF1BC06F5F7F4F8F4F9F4F16C088239D
:1020200011F096E911C0772321F09EE8872F762FD3
:1020300005C0662371F096E8862F70E060E02AF014
:102040009A95660F771F881FDAF7880F9695879500
:1020500097F90895990F0008550FAA0BE0E8FEEFD5
:1020600016161706E807F907C0F012161306E4075C
:10207000F50798F0621B730B840B950B39F40A2655
:1020800061F0232B242B252B21F408950A2609F433
:10209000A140A6958FEF811D811D089597F99F6737
:1020A00080E870E060E008959FEF80EC08950024E0
:1020B0000A941616170618060906089500240A94AD
:1020C00012161306140605060895092E0394000C33
:1020D00011F4882352F0BB0F40F4BF2B11F460FFC2
:1020E00004C06F5F7F4F8F4F9F4F089557FD9058EB
:1020F000440F551F59F05F3F71F04795880F97FBCC
:10210000991F61F09F3F79F0879508951216130685
:102110001406551FF2CF4695F1DF08C016161706B4
:102120001806991FF1CF86957105610508940895E9
:10213000E894BB2766277727CB0197F908958ADFB4
:1021400008F48FEF08950BD0C0CFB1DF28F0B6DFD1
:1021500018F0952309F0A2CFA7CF1124EACFC6DF4C
:10216000A0F3959FD1F3950F50E0551F629FF001AA
:10217000729FBB27F00DB11D639FAA27F00DB11D03
:10218000AA1F649F6627B00DA11D661F829F22278C
:10219000B00DA11D621F739FB00DA11D621F839F13
:1021A000A00D611D221F749F3327A00D611D231FE9
:1021B000849F600D211D822F762F6A2F11249F5737
:1021C00050408AF0E1F088234AF0EE0FFF1FBB1F5A
:1021D000661F771F881F91505040A9F79E3F5105F9
:1021E00070F05CCFA6CF5F3FECF3983EDCF38695B2
:1021F00077956795B795F795E7959F5FC1F7FE2BA4
:10220000880F911D9695879597F90895A1E21A2E4A
:10221000AA1BBB1BFD010DC0AA1FBB1FEE1FFF1F8A
:10222000A217B307E407F50720F0A21BB30BE40BDA
:10223000F50B661F771F881F991F1A9469F7609521
:102240007095809590959B01AC01BD01CF010895DB
:10225000EE0FFF1F0590F491E02D0994F999FECF40
:1022600092BD81BDF89A992780B50895262FF999D6
:10227000FECF1FBA92BD81BD20BD0FB6F894FA9A69
:0C228000F99A0FBE01960895F894FFCF64
:10228C0003002C8F9440E1C89F3EA2D5F9BE4CD9D7
:10229C0029C101900990094D6370323531352063A5
:1022AC006F6E6669677572652062757320737563EE
:1022BC0063657366756C6C79004D637032353135BE
:1022CC0020636F6E66696775726520696E746572DE
:1022DC0072757074732073756363657366756C6C5B
:1022EC0079004D63703235313520636F6E666967E6
:1022FC0075726520727820627566666572207375DA
:10230C006363657366756C6C790041626F727420DF
:10231C0077616974696E672E204D61782E20776124
:10232C006974696E672074696D6520726561636894
:10233C0065642E004D6370323531352073776974C6
:10234C00636820746F206D6F64652000547279206F
:10235C00746F207265736574204D6370323531353E
:10236C00004D63703235313520726573657420739E
:10237C00756363657366756C6C7920616E6420732C
:10238C00776974636820646F206D6F6465200052F8
:10239C006561647920726573657420656570726F10
:1023AC006D2E00656E636F64657256616C75652089
:1023BC006C6173743A20007265665F706F732E6483
:1023CC00617461206C6173743A20007265665F7091
:1023DC006F732E64617461206E65773A20006565B9
:1023EC0070726F6D0064697361626C6550696443EF
:1023FC006F6E74726F6C6C657200656E61626C6589
:10240C00506964436F6E74726F6C6C657200696EA8
:10241C00636F6D696E675F646174615B696E5F6148
:10242C006374696F6E5D3A2000696E636F6D696EDF
:10243C00675F646174615B696E5F616E676C655F39
:10244C00325D3A2000363738393A3B3C3D000000CB
:10245C00008B0C070E0D0C260C180C690C0D0A00C9
:0C246C006E616E00696E66006F7666009F
:00000001FF
