:100000000C9463000C9493090C94BA090C948B0023
:100010000C948B000C948B000C948B000C948B0034
:100020000C948B000C948B000C948B000C948B0024
:100030000C948B000C948B000C948B000C948B0014
:100040000C94E1090C948B000C94340D0C94660D07
:100050000C948B000C948B000C948B000C948B00F4
:100060000C948B000C948B0000000008000201002F
:100070000003040700000000000000000102040863
:100080001020408001020408102001020408102002
:10009000040404040404040402020202020203032E
:1000A00003030303000000002300260029000000D2
:1000B0000000250028002B0000000000240027007D
:1000C0002A002309960D11241FBECFEFD8E0DEBF12
:1000D000CDBF12E0A0E0B1E0E0E5F2E202C00590A1
:1000E0000D92A23CB107D9F723E0A2ECB2E001C027
:1000F0001D92A23CB207E1F710E0C6ECD0E004C0CC
:100100002297FE010E940C11C23CD107C9F70E9440
:10011000DA0D0C9426110C94000082E00E94C60BAC
:10012000019771F483E00E94C60B4091D802509170
:10013000D9026091DA027091DB02892B99F40DC02B
:1001400083E00E94C60B4091D8025091D902609181
:10015000DA027091DB02019729F44F5F5F4F6F4F16
:100160007F4F04C041505109610971094093D80281
:100170005093D9026093DA027093DB02089583E012
:100180000E94C60B019771F482E00E94C60B409159
:10019000D8025091D9026091DA027091DB02019786
:1001A00099F40DC082E00E94C60B4091D802509194
:1001B000D9026091DA027091DB02892B29F44F5F3A
:1001C0005F4F6F4F7F4F04C0415051096109710962
:1001D0004093D8025093D9026093DA027093DB0205
:1001E00008950F931F93CF93DF931F92CDB7DEB780
:1001F0008C0169830E9410116981681741F0C80160
:100200000F90DF91CF911F910F910C9418110F90C7
:10021000DF91CF911F910F9108950C9410118EBD15
:1002200000000DB407FEFDCF8EB50895DF92EF926A
:10023000FF920F931F93CF93DF937C01EA01D22E9D
:10024000882777FD8095982F0E945A0A602F8D2D60
:100250000E94900BB701882777FD8095982F0E9408
:100260005A0A61E0012B09F060E08D2D0E94900B8D
:10027000BE01882777FD8095982FDF91CF911F9140
:100280000F91FF90EF90DF900C945A0AEF92FF923B
:100290000F931F93CF93DF937A01672B61F000E0F8
:1002A00010E02DE030E040E050E060E070E088EEEB
:1002B00093E00E94160101E010E02DE030E044EFF1
:1002C00051E060E070E084EF91E00E9416012DE0C3
:1002D00030E048EC50E060E070E088EC90E00E9494
:1002E00016012DE030E048EC50E060E070E088EC72
:1002F00090E00E9416012DE030E044EF51E060E014
:1003000070E084EF91E00E941601C3E0D0E001E0CC
:1003100010E02DE030E048EC50E060E070E088EC68
:1003200090E00E941601219791F72DE030E044EF14
:1003300051E060E070E084EF91E00E941601C4E0BB
:10034000D0E001E010E02DE030E048EC50E060E06B
:1003500070E088EC90E00E941601219791F7EF2859
:1003600061F000E010E02DE030E040E050E060E0BF
:1003700070E088EE93E00E941601DF91CF911F910B
:100380000F91FF90EF900895CF93DF93D82FC62F52
:100390008AE00E94900B6C2F8D2FDF91CF910C94EF
:1003A000900B1F93CF93DF93EC0160E00E94C40198
:1003B00080EA0E940F0180E00E940F01182F61E087
:1003C000CE010E94C40164E070E080E090E00E94F1
:1003D0005A0A812FDF91CF911F9108950F931F9398
:1003E000CF93DF93082F162FEA0160E0CA010E9425
:1003F000C40182E00E940F01802F0E940F01812F13
:100400000E940F0161E0CE010E94C40164E070E02F
:1004100080E090E0DF91CF911F910F910C945A0AE8
:10042000CF93DF93D62FC42F48E050E0682F82E3AC
:100430000E94EE0148E050E06D2F81E30E94EE0142
:1004400048E050E06C2F85E3DF91CF910C94EE01F2
:10045000CF93DF93D62FC42F48E050E0682F82E47B
:100460000E94EE0148E050E06D2F81E40E94EE0111
:1004700048E050E06C2F85E4DF91CF910C94EE01C1
:10048000CF93DF93D62FC42F48E050E0682F82E54A
:100490000E94EE0148E050E06D2F81E50E94EE01E0
:1004A00048E050E06C2F85E5DF91CF910C94EE0190
:1004B00048E050E060E08AE20E94EE0148E050E04F
:1004C00068EB89E20E94EE0148E050E065E088E2D6
:1004D0000E94EE0180911103882331F067E171E001
:1004E00085E293E00C94340E089548E050E063E018
:1004F0008BE20E94EE0180911103882331F069E3C1
:1005000071E085E293E00C94340E08951F93CF932D
:10051000DF93182FEB0160E0CE010E94C40183E05D
:100520000E940F01812F0E940F0180E00E940F01A5
:10053000182F61E0CE010E94C40164E070E080E009
:1005400090E00E945A0A48E050E060E08CE20E948D
:10055000EE01812FDF91CF911F910895CF92DF920D
:10056000EF92FF920F931F93CF93DF93062FC3E079
:10057000D0E048E050E0602F8FE00E94EE0168E09C
:1005800070E08EE00E948602182F0E942B0A6B01F9
:100590007C0160E070E0CB01101791F0613177428F
:1005A0008105910594F468E070E08EE00E94860277
:1005B000182F0E942B0A6C197D098E099F09ECCF18
:1005C000613177428105910564F0809111038823A0
:1005D00031F06AE871E085E293E00E94340E2197E1
:1005E00041F680911103882331F064EB71E085E2DC
:1005F00093E00E94270E80911103882339F04AE08E
:1006000050E0612F85E293E00E94160F8091110364
:10061000882371F06DE771E085E293E0DF91CF917F
:100620001F910F91FF90EF90DF90CF900C94340EBC
:10063000DF91CF911F910F91FF90EF90DF90CF90BE
:100640000895FB01E656FD4F48E050E0682F808199
:100650000C94EE011F93CF93DF93182FEB0160E012
:10066000CE010E94C401812F0E940F0161E0CE01E2
:100670000E94C40164E070E080E090E0DF91CF91DF
:100680001F910C945A0ACF9368E070E080EC0E94AE
:100690002A0368E070E08EE00E948602C82F6CECAE
:1006A00071E085E293E00E94270EC7FD0EC068E06E
:1006B00070E08EE00E948602C82F4AE050E0682F6A
:1006C00085E293E00E94160FF0CF809111038823FA
:1006D00031F061EE71E085E293E00E94270E809197
:1006E0001103882341F04AE050E06C2F85E293E04B
:1006F000CF910C941D0FCF9108950E9443030E9447
:1007000058020E94750260E080E00C94AE021F93D4
:10071000CF93DF9380910001909101018130910589
:1007200051F00297C9F486E08093170390E6909306
:10073000080383E007C089E08093170390E4909357
:10074000080382E0809307039093060380930503D8
:10075000909304038093030326E040E855E260E0B1
:1007600070E085E293E00E94D20C81E08093130355
:10077000809311031092120361E088E00E94570BEE
:1007800061E08AE00E94570B60E082E00E94570B14
:1007900060E083E00E94570B60E087E00E94570B07
:1007A00061E084E00E94570B61E08DE00E94570BEE
:1007B00060E085E00E94570B85E00E94C60B909395
:1007C0000B0380930A0380911203882371F1C0E028
:1007D000D0E060E0CE010E94F1002196C530D10545
:1007E000C1F7C0E0D0E011E0CE010E940D018111FF
:1007F00010E02196C530D105B9F7111109C040E0CC
:1008000050E061E070E081E090E00E944601F7CFA7
:1008100064EF71E080E090E00E945A0A6FE072E0BD
:1008200085E293E00E94340EF3CF84E090E00E94D2
:100830000D01C82FD0E0209741F040E050E061E08A
:1008400070E0CE010E944601F8CF80911A03882300
:1008500099F09FB7F89480911A03813059F48DB3C1
:10086000809318032DB380911903809582238DBB4B
:100870009FBF02C0909318038CE58CBD1DBC0E94E5
:100880003C090E947D0348E06091070380910803C2
:100890000E94100248E060910503809106030E94C7
:1008A000280248E060910303809104030E94400203
:1008B00082E090E00E940D018093D40283E090E0FA
:1008C0000E940D018093D5028091D4029091D502AF
:1008D000AA2797FDA095BA2F8093D8029093D902AA
:1008E000A093DA02B093DB02809111038823A1F078
:1008F00063E272E085E293E00E94270E4091D80205
:100900005091D9026091DA027091DB022AE030E066
:1009100085E293E00E94F70E80E090E00E940D01D6
:100920008093D20281E090E00E940D018093D30277
:1009300080911103882381F067E372E085E293E000
:100940000E94270E6091D2027091D3024AE050E0DB
:1009500085E293E00E94DF0E1092D7021092D60239
:1009600041E050E06DE870E080E00E94730941E0F2
:1009700050E06FEB70E081E00E94730964E670E084
:1009800080E090E00E945A0A0E942B0A60930D03B7
:1009900070930E0380930F0390931003DF91CF9118
:1009A0001F9108958130910539F08230910531F021
:1009B000892B29F421E803C022E801C024E868E07B
:1009C00070E0822F0C942A03EF92FF920F931F93F3
:1009D000CF93DF938B01C0E0D0E0E82EF12CCE1551
:1009E000DF0548F4A701BE01F80181918F010E9443
:1009F00021032196F4CF80E090E0DF91CF911F9109
:100A00000F91FF90EF900C94D2040F931F93CF930C
:100A1000DF93C82F8B0160E0C8010E94C4018C2FB6
:100A20000E940F01CAECD2E080E00E940F0189937E
:100A300082E0C23DD807C1F761E0C8010E94C4014D
:100A400081E0DF91CF911F910F910895682361306C
:100A500021F468E070E082E905C0623029F468E0C2
:100A600070E086E90E94050581E008958F929F92CB
:100A7000AF92BF92CF92DF92EF92FF920F931F93AC
:100A8000CF93DF936B017C0149015A0120E030E0F4
:100A90004FE753EC0E94811087FD0AC020E030E050
:100AA0004FE753E4C701B6010E949A0F18167CF570
:100AB00020E030E04FE753E4C701B6010E94811007
:100AC00018164CF420E030E04FE753E4C701B601BC
:100AD0000E94350F12C020E030E04FE753ECC70111
:100AE000B6010E949A0F87FF12C020E030E04FE766
:100AF00053E4C701B6010E94360F6B017C0120E070
:100B000030E0A9010E9481101816ACF003C0C12C7E
:100B1000D12C7601C1E0D0E020E030E0A901C7018E
:100B2000B6010E949A0F87FD02C0C0E0D0E0D195C7
:100B3000C195D10902C0C1E0D0E020E030E0A901B8
:100B4000C501B4010E94811001E010E0181674F094
:100B500020E030E0A901C501B4010E949A0F87FD91
:100B600002C000E010E0119501951109C017D107EE
:100B700059F420E030E0A901C701B6010E949A0FA4
:100B8000882311F081E000C0DF91CF911F910F9178
:100B9000FF90EF90DF90CF90BF90AF909F908F909D
:100BA00008954F925F926F927F928F929F92AF9231
:100BB000BF92CF92DF92EF92FF92CF93DF9300D05C
:100BC00000D0CDB7DEB76B017C0120910E013091D2
:100BD0000F0140911001509111010E9485104B01AD
:100BE0005C016093EC027093ED028093EE029093AF
:100BF000EF026091E0027091E1028091E202909137
:100C0000E302A70196010E943605882321F020E027
:100C100030E0A9010AC02DEC3CEC4CE45DE3C701D7
:100C2000B6010E9485109B01AC016091E8027091B1
:100C3000E9028091EA029091EB020E94360F6093E4
:100C4000E8027093E9028093EA029093EB0220910C
:100C50000A0130910B0140910C0150910D016091FE
:100C6000E8027091E9028091EA029091EB020E9401
:100C700085102B013C016093E8027093E902809398
:100C8000EA029093EB028091DC029091DD02A09148
:100C9000DE02B091DF0289839A83AB83BC8320910B
:100CA0000601309107014091080150910901C701E7
:100CB000B6010E94851029813A814B815C810E9496
:100CC000350F2091020130910301409104015091B0
:100CD00005010E9485106B017C016093E402709312
:100CE000E5028093E6029093E702A3019201C50119
:100CF000B4010E94360FA70196010E94360F4B01E6
:100D00005C016093E0027093E1028093E2029093B1
:100D1000E30220E030E04FE753E40E948110181610
:100D20008CF020E030E04FE753ECC501B4010E94A5
:100D30009A0F87FF0DC0812C912C9FE7A92E93EC71
:100D4000B92E06C0812C912C8FE7A82E83E4B82EF3
:100D50002DEC3CEC4CE45DE3C701B6010E9485102C
:100D60009B01AC0169817A818B819C810E94360F45
:100D70006093DC027093DD028093DE029093DF02C9
:100D8000C501B4010F900F900F900F90DF91CF919C
:100D9000FF90EF90DF90CF90BF90AF909F908F909B
:100DA0007F906F905F904F900895CF92DF92EF9277
:100DB000FF92CF93DF931092FC02109216031092D1
:100DC000150381E08093140387E00E94C60B892BF2
:100DD00079F488E090E00E94D1018093FC0263E006
:100DE0000E94260569E170E080E090E00E945A0AC6
:100DF0004091CB02242F30E08091000190910101BD
:100E00002817390709F018C28091CA0281110BC056
:100E100010920C03E2ECF2E0119292E0EA3CF90746
:100E2000D9F74093C3029FEF980F953058F49091F3
:100E30000C03913039F08093C20282E08093C402A7
:100E40004093C30262EC72E088E00E94E40469E12E
:100E500070E080E090E00E945A0A8091CA028230DD
:100E600009F05FC090910C0381E0981709F459C014
:100E700080930C036091D80280E090E00E94F10022
:100E80008091D8029091D902A091DA02B091DB0250
:100E9000692F7A2F8B2F992787FD9A9581E090E013
:100EA0000E94F10080E090E00E940D01C091D80204
:100EB000F090D902D1E08C13D0E081E090E00E9464
:100EC0000D018F1129C0DD2339F1C093D202809327
:100ED000D30280911103882381F06BE472E085E2F4
:100EE00093E00E94270E6091D2027091D3024AE0F3
:100EF00050E085E293E00E94DF0E81E08093C4021F
:100F000060E084E090E00E94F1006EE572E085E22E
:100F100093E00E94340E05C062E084E090E00E94FD
:100F2000F1008091CA02833089F490910C0381E032
:100F3000981761F080930C03109212018093C40201
:100F400065E672E085E293E00E94340E8091CA0269
:100F5000843089F490910C0381E0981761F08093BC
:100F60000C03809312018093C4026AE772E085E269
:100F700093E00E94340E8091CA028130C1F59091B5
:100F80000C039817A1F180930C038091CE028093FB
:100F9000D6028091CD028093D7026091D6027091E3
:100FA000D702882777FD8095982F0E94D10F6093F4
:100FB000F8027093F9028093FA029093FB02209159
:100FC000CF0221110BC0DC01CB01B0588093F80295
:100FD0009093F902A093FA02B093FB026EE872E0DC
:100FE00085E293E00E94340E81E08093C4028091F8
:100FF000CA02853009F053C090910C0381E0981724
:1010000009F44DC080930C036091D80282E090E017
:101010000E94F1008091D8029091D902A091DA0249
:10102000B091DB02692F7A2F8B2F992787FD9A9534
:1010300083E090E00E94F10082E090E00E940D01C8
:101040008093D40283E090E00E940D018093D5024A
:10105000C091D402D091D5026E01EE24D7FCE09469
:10106000FE2CC092D802D092D902E092DA02F0921D
:10107000DB0282E090E00E940D01D1E08C13D0E011
:1010800083E090E00E940D018D1104C0DD2311F07A
:1010900060E001C063E084E090E00E94F100809194
:1010A0001201882309F4C8C06091D8027091D90256
:1010B0008091DA029091DB020E94D10F6B017C01DA
:1010C0006093F0027093F1028093F2029093F30226
:1010D0006091D6027091D7028091D2029091D30292
:1010E000680F791F882777FD8095982F0E94D10F70
:1010F0009B01AC016093F8027093F9028093FA02AD
:101100009093FB02C701B6010E94350F6B017C0171
:1011100020E030E0A9010E94811018165CF42AE951
:1011200039E949E15EE3C701B6010E949A0F18163A
:101130005CF013C02AE939E949E15EEBC701B60169
:101140000E94811087FF09C0C092F402D092F5027C
:10115000E092F602F092F70208C01092F4021092A8
:10116000F5021092F6021092F7026091F40270916B
:10117000F5028091F6029091F7020E94D1056B0171
:101180007C0120E030E0A9016091F4027091F50249
:101190008091F6029091F7020E949A0F882391F0B5
:1011A00020E030E0A901C701B6010E949A0F87FF35
:1011B0000CC060E084E00E94900BF7FAF094F7F81E
:1011C000F09407C0C12CD12C760161E084E00E942C
:1011D000900B8091D6029091D702865A9F4F853B03
:1011E000910558F4C701B6010E949E0F8091170324
:1011F0000E94CF0A1092090309C060E070E080915C
:1012000017030E94CF0A81E080930903C1E020E028
:1012100030E0A901C701B6010E949A0F8111C0E018
:10122000809109038C2B41F08091CA02813021F416
:101230008093C40210920903DF91CF91FF90EF9049
:10124000DF90CF90089580910803809300038091F0
:10125000060380930103809104038093020380912D
:1012600007038093FD02809105038093FE02809125
:1012700003038093FF020895CF93CFB7F894809132
:101280001B03811127C0EAE9F0E08491E6E8F0E071
:101290009491E82FF0E0EE0FFF1FE854FF4FA59167
:1012A000B4918C91892321F461E08AE00E94900B33
:1012B00061E08AE00E94570B8CB580618CBD8CB5D3
:1012C00080648CBD61E08DE00E94570B61E08BE093
:1012D0000E94570B80911B038F5F80931B03CFBF2E
:1012E000CF91089508958230E8F4E82FF0E0EE0FF2
:1012F000FF1FED5EFE4F71836083813041F080916E
:1013000069008C7F842B80936900E89A089580910E
:101310006900440F551F440F551F837F842B809312
:101320006900E99A08951F920F920FB60F92112447
:101330002F933F934F935F936F937F938F939F93DD
:10134000AF93BF93EF93FF93E0911301F0911401DA
:101350000995FF91EF91BF91AF919F918F917F91EF
:101360006F915F914F913F912F910F900FBE0F9012
:101370001F9018951F920F920FB60F9211242F9362
:101380003F934F935F936F937F938F939F93AF930D
:10139000BF93EF93FF93E0911501F091160109952A
:1013A000FF91EF91BF91AF919F918F917F916F913D
:1013B0005F914F913F912F910F900FBE0F901F9013
:1013C00018951F920F920FB60F9211242F933F93EF
:1013D0008F939F93AF93BF9380911D0390911E03B2
:1013E000A0911F03B091200330911C0323E0230F31
:1013F0002D3720F40196A11DB11D05C026E8230F4D
:101400000296A11DB11D20931C0380931D03909390
:101410001E03A0931F03B09320038091210390919A
:101420002203A0912303B09124030196A11DB11DB5
:101430008093210390932203A0932303B09324036A
:10144000BF91AF919F918F913F912F910F900FBEC0
:101450000F901F9018952FB7F89460911D0370910D
:101460001E0380911F03909120032FBF08953FB763
:10147000F8948091210390912203A0912303B091CD
:10148000240326B5A89B05C02F3F19F00196A11D86
:10149000B11D3FBF6627782F892F9A2F620F711DCC
:1014A000811D911D42E0660F771F881F991F4A9585
:1014B000D1F708958F929F92AF92BF92CF92DF9211
:1014C000EF92FF926B017C010E94370A4B015C0195
:1014D000C114D104E104F104F1F00E94340F0E9420
:1014E000370A681979098A099B09683E73408105A2
:1014F000910570F321E0C21AD108E108F10888EEE5
:10150000880E83E0981EA11CB11CC114D104E10413
:10151000F10429F7DDCFFF90EF90DF90CF90BF90DF
:10152000AF909F908F900895789484B5826084BD29
:1015300084B5816084BD85B5826085BD85B58160D7
:1015400085BDEEE6F0E0808181608083E1E8F0E037
:101550001082808182608083808181608083E0E866
:10156000F0E0808181608083E1EBF0E08081846045
:101570008083E0EBF0E0808181608083EAE7F0E047
:1015800080818460808380818260808380818160AB
:1015900080838081806880831092C10008951F93AA
:1015A000CF93DF93182FEB0161E00E94570B209738
:1015B00011F460E004C0CF3FD10539F461E0812F20
:1015C000DF91CF911F910C94900BE12FF0E0E8593F
:1015D000FF4FE491E330F9F048F4E130B9F0E23044
:1015E000A1F584B5806284BDC8BD34C0E730E9F0A0
:1015F000E83019F1E43049F58091800080628093F1
:101600008000D0938B00C0938A0024C084B580688A
:1016100084BDC7BD1FC0809180008068809380001A
:10162000D0938900C093880015C08091B000806875
:101630008093B000C093B3000DC08091B000806271
:101640008093B000C093B40005C0C038D1050CF041
:10165000B5CFAFCFDF91CF911F910895833081F047
:1016600028F4813099F08230A1F008958730A9F0F4
:101670008830B9F08430D1F4809180008F7D03C030
:10168000809180008F7780938000089584B58F7754
:1016900002C084B58F7D84BD08958091B0008F779E
:1016A00003C08091B0008F7D8093B0000895CF93E8
:1016B000DF9390E0FC01E458FF4F2491FC01E057D8
:1016C000FF4F8491882349F190E0880F991FFC0116
:1016D000E854FF4FA591B49182559F4FFC01C591ED
:1016E000D4919FB7611108C0F8948C912095822302
:1016F0008C93888182230AC0623051F4F8948C91D3
:10170000322F309583238C938881822B888304C069
:10171000F8948C91822B8C939FBFDF91CF91089589
:101720000F931F93CF93DF931F92CDB7DEB7282F70
:1017300030E0F901E859FF4F8491F901E458FF4F77
:101740001491F901E057FF4F04910023C9F0882359
:1017500021F069830E942E0B6981E02FF0E0EE0FEB
:10176000FF1FE255FF4FA591B4919FB7F8948C915C
:10177000611103C01095812301C0812B8C939FBF01
:101780000F90DF91CF911F910F910895CF93DF9329
:10179000282F30E0F901E859FF4F8491F901E4580E
:1017A000FF4FD491F901E057FF4FC491CC2391F042
:1017B00081110E942E0BEC2FF0E0EE0FFF1FEC5575
:1017C000FF4FA591B4912C912D2381E090E021F45D
:1017D00080E002C080E090E0DF91CF910895FC01AD
:1017E000818D228D90E0805C9F4F821B91098F73C9
:1017F00099270895FC01918D828D981731F0828D83
:10180000E80FF11D858D90E008958FEF9FEF08950B
:10181000FC01918D828D981761F0828DDF01A80FF8
:10182000B11D5D968C91928D9F5F9F73928F90E01A
:1018300008958FEF9FEF08958CE89DE0892B49F084
:1018400080E090E0892B29F00E948C0D81110C948E
:1018500000000895FC01848DDF01A80FB11DA35A7B
:10186000BF4F2C91848D90E001968F739927848FC0
:10187000A689B7892C93A089B1898C9180648C93B7
:10188000938D848D981306C00288F389E02D8081A2
:101890008F7D80830895CF93DF93EC01888D88231B
:1018A000C9F0EA89FB89808185FD05C0A889B989CD
:1018B0008C9186FD0FC00FB607FCF5CF808185FFA8
:1018C000F2CFA889B9898C9185FFEDCFCE010E9416
:1018D0002A0CE7CFDF91CF910895CF92DF92FF924C
:1018E0000F931F93CF93DF931F92CDB7DEB76C0199
:1018F00081E0D60158968C9358975B969C915B97A4
:101900005C968C915C97981307C05096ED91FC9172
:101910005197808185FD2EC0F601038D10E00F5F89
:101920001F4F0F731127F02EF601848DF81211C08E
:101930000FB607FCF9CFD6015096ED91FC91519767
:10194000808185FFF1CFC60169830E942A0C6981DD
:10195000EBCF838DE80FF11DE35AFF4F6083D60173
:101960005B960C935B975296ED91FC915397808117
:1019700080620CC0D6015696ED91FC91579760831A
:101980005096ED91FC91519780818064808381E035
:1019900090E00F90DF91CF911F910F91FF90DF901A
:1019A000CF900895BF92CF92DF92EF92FF92CF93A4
:1019B000DF93EC016A017B01B22EE889F98982E0AC
:1019C0008083411581EE580761057105A1F060E043
:1019D00079E08DE390E0A70196010E94E810215084
:1019E0003109410951095695479537952795211594
:1019F00080E1380798F0E889F989108260E874E896
:101A00008EE190E0A70196010E94E8102150310973
:101A1000410951095695479537952795EC85FD85E0
:101A20003083EE85FF852083188EEC89FD89B08296
:101A3000EA89FB89808180618083EA89FB898081D2
:101A400088608083EA89FB89808180688083EA8955
:101A5000FB8980818F7D8083DF91CF91FF90EF9014
:101A6000DF90CF90BF9008951F920F920FB60F9204
:101A700011242F938F939F93EF93FF93E09135035E
:101A8000F09136038081E0913B03F0913C0382FDAD
:101A900012C0908180913E038F5F8F7320913F032E
:101AA000821751F0E0913E03F0E0EB5DFC4F958F23
:101AB00080933E0301C08081FF91EF919F918F91B0
:101AC0002F910F900FBE0F901F9018951F920F929D
:101AD0000FB60F9211242F933F934F935F936F9301
:101AE0007F938F939F93AF93BF93EF93FF9385E281
:101AF00093E00E942A0CFF91EF91BF91AF919F91CB
:101B00008F917F916F915F914F913F912F910F90A6
:101B10000FBE0F901F90189585E293E00E94EF0B87
:101B200021E0892B09F420E0822F089510922803E8
:101B30001092270388EE93E0A0E0B0E080932903A1
:101B400090932A03A0932B03B0932C0386EA92E090
:101B5000909326038093250385EC90E090933203C5
:101B60008093310384EC90E09093340380933303AB
:101B700080EC90E0909336038093350381EC90E005
:101B8000909338038093370382EC90E090933A036C
:101B90008093390386EC90E090933C0380933B0361
:101BA00010923E0310923F031092400310924103A3
:101BB000089508950E94940A0E94D90D0E948703F7
:101BC000CCE1DCE00E94D5062097E1F30E941C0CDA
:101BD000F9CFCF92DF92EF92FF920F931F93CF93A3
:101BE000DF937C016A01EB0100E010E00C151D059C
:101BF00071F06991D701ED91FC910190F081E02D98
:101C0000C7010995892B19F00F5F1F4FEFCFC8014E
:101C1000DF91CF911F910F91FF90EF90DF90CF90C8
:101C200008956115710581F0DB010D900020E9F741
:101C3000AD0141505109461B570BDC01ED91FC9160
:101C40000280F381E02D099480E090E008950C94E7
:101C5000110EDC01ED91FC910190F081E02D0994D1
:101C600062EB72E00C94110E0F931F93CF93DF93EE
:101C7000EC010E94110E8C01CE010E94300E800FEB
:101C8000911FDF91CF911F910F9108958F929F9295
:101C9000AF92BF92DF92EF92FF920F931F93CF9379
:101CA000DF93CDB7DEB7A1970FB6F894DEBF0FBEB6
:101CB000CDBF7C01F42FD52ECB0119A2223008F420
:101CC0002AE08E010F5D1F4F822E912CA12CB12C8A
:101CD0006F2F7D2DA50194010E94E810F22FD32EC5
:101CE000CA01015011096A3014F4E0E301C0E7E3CE
:101CF000E60FD801EC93232B242B252B49F7B801B1
:101D0000C7010E94110EA1960FB6F894DEBF0FBE58
:101D1000CDBFDF91CF911F910F91FF90EF90DF909A
:101D2000BF90AF909F908F900895CF92DF92EF92E7
:101D3000FF920F931F93CF93DF93EC016A017B0116
:101D40002115310579F4E881F9810190F081E02DC8
:101D5000642FDF91CF911F910F91FF90EF90DF9053
:101D6000CF9009942A303105E9F477FF1AC06DE26B
:101D70000E94290E8C0144275527BA014C195D0990
:101D80006E097F092AE0CE010E94460E800F911F46
:101D9000DF91CF911F910F91FF90EF90DF90CF9047
:101DA00008952AE0B701A601CE01DF91CF911F91DE
:101DB0000F91FF90EF90DF90CF900C94460E0F9311
:101DC0001F93CF93DF93EC019A01AB01662757FD78
:101DD0006095762F0E94950E8C01CE010E94300EE8
:101DE000800F911FDF91CF911F910F9108950F9355
:101DF0001F93CF93DF93EC010E94950E8C01CE01CF
:101E00000E94300E800F911FDF91CF911F910F9193
:101E100008952115310541F4DC01ED91FC9101900B
:101E2000F081E02D642F09940C94460E9A01462F00
:101E300050E060E070E00C94090F0F931F93CF9374
:101E4000DF93EC019A01462F50E060E070E00E94C1
:101E5000090F8C01CE010E94300E800F911FDF917F
:101E6000CF911F910F91089508955058BB27AA272D
:101E70000ED00DC1FED030F003D120F031F49F3FE1
:101E800011F41EF4F3C00EF4E095E7FBE9C0E92F6E
:101E90000FD180F3BA17620773078407950718F00C
:101EA00071F49EF527C10EF4E0950B2EBA2FA02DEC
:101EB0000B01B90190010C01CA01A0011124FF27F7
:101EC000591B99F0593F50F4503E68F11A16F040F2
:101ED000A22F232F342F4427585FF3CF46953795F1
:101EE0002795A795F0405395C9F77EF41F16BA0BB6
:101EF000620B730B840BBAF09150A1F0FF0FBB1F64
:101F0000661F771F881FC2F70EC0BA0F621F731FAC
:101F1000841F48F4879577956795B795F7959E3F09
:101F200008F0B3CF9395880F08F09927EE0F979597
:101F30008795089571D008F481E0089504D06894DD
:101F4000B111D9C00895BCD088F09F5790F0B92F37
:101F50009927B751A0F0D1F0660F771F881F991FFE
:101F60001AF0BA95C9F712C0B13081F0C3D0B1E010
:101F70000895C0C0672F782F8827B85F39F0B93F20
:101F8000CCF3869577956795B395D9F73EF4909500
:101F90008095709561957F4F8F4F9F4F0895E8947E
:101FA00009C097FB3EF490958095709561957F4FA1
:101FB0008F4F9F4F9923A9F0F92F96E9BB2793954F
:101FC000F695879577956795B795F111F8CFFAF45F
:101FD000BB0F11F460FF1BC06F5F7F4F8F4F9F4F90
:101FE00016C0882311F096E911C0772321F09EE8EE
:101FF000872F762F05C0662371F096E8862F70E054
:1020000060E02AF09A95660F771F881FDAF7880F2D
:102010009695879597F90895990F0008550FAA0B83
:10202000E0E8FEEF16161706E807F907C0F01216EB
:102030001306E407F50798F0621B730B840B950BEE
:1020400039F40A2661F0232B242B252B21F4089543
:102050000A2609F4A140A6958FEF811D811D0895E0
:1020600097F99F6780E870E060E008959FEF80EC4B
:10207000089500240A9416161706180609060895EE
:1020800000240A9412161306140605060895092E54
:102090000394000C11F4882352F0BB0F40F4BF2BC3
:1020A00011F460FF04C06F5F7F4F8F4F9F4F089503
:1020B00057FD9058440F551F59F05F3F71F04795F9
:1020C000880F97FB991F61F09F3F79F087950895DE
:1020D000121613061406551FF2CF4695F1DF08C0FD
:1020E000161617061806991FF1CF8695710561051A
:1020F00008940895E894BB2766277727CB0197F9C2
:1021000008958ADF08F48FEF08950BD0C0CFB1DFB8
:1021100028F0B6DF18F0952309F0A2CFA7CF11243D
:10212000EACFC6DFA0F3959FD1F3950F50E0551F7E
:10213000629FF001729FBB27F00DB11D639FAA271C
:10214000F00DB11DAA1F649F6627B00DA11D661F6B
:10215000829F2227B00DA11D621F739FB00DA11D8C
:10216000621F839FA00D611D221F749F3327A00D46
:10217000611D231F849F600D211D822F762F6A2FE2
:1021800011249F5750408AF0E1F088234AF0EE0F67
:10219000FF1FBB1F661F771F881F91505040A9F774
:1021A0009E3F510570F05CCFA6CF5F3FECF3983EA9
:1021B000DCF3869577956795B795F795E7959F5FDB
:1021C000C1F7FE2B880F911D9695879597F9089575
:1021D000A1E21A2EAA1BBB1BFD010DC0AA1FBB1F2B
:1021E000EE1FFF1FA217B307E407F50720F0A21B9D
:1021F000B30BE40BF50B661F771F881F991F1A940A
:1022000069F760957095809590959B01AC01BD0133
:10221000CF010895EE0FFF1F0590F491E02D099472
:10222000F999FECF92BD81BDF89A992780B508959E
:10223000262FF999FECF1FBA92BD81BD20BD0FB6E2
:10224000F894FA9AF99A0FBE01960895F894FFCF80
:1022500001002C8F9440E1C89F3EA2D5F9BE4CD915
:1022600029C101720972094D63703235313520631D
:102270006F6E66696775726520627573207375632A
:1022800063657366756C6C79004D637032353135FA
:1022900020636F6E66696775726520696E7465721A
:1022A00072757074732073756363657366756C6C97
:1022B00079004D63703235313520636F6E66696722
:1022C0007572652072782062756666657220737516
:1022D0006363657366756C6C790041626F7274201C
:1022E00077616974696E672E204D61782E20776161
:1022F0006974696E672074696D65207265616368D1
:1023000065642E004D637032353135207377697402
:10231000636820746F206D6F6465200054727920AB
:10232000746F207265736574204D6370323531357A
:10233000004D6370323531352072657365742073DA
:10234000756363657366756C6C7920616E64207368
:10235000776974636820646F206D6F646520005234
:102360006561647920726573657420656570726F4C
:102370006D2E00656E636F64657256616C756520C5
:102380006C6173743A20007265665F706F732E64BF
:10239000617461206C6173743A20007265665F70CD
:1023A0006F732E64617461206E65773A20006565F5
:1023B00070726F6D0064697361626C65506964432B
:1023C0006F6E74726F6C6C657200656E61626C65C5
:1023D000506964436F6E74726F6C6C6572006E65E9
:1023E00077506F736974696F6E00363738393A3BCE
:1023F0003C3D000000006D0CE90DEF0B080CFA0BE2
:102400004B0C0D0A006E616E00696E66006F766699
:022410000000CA
:00000001FF
