:100000000C9463000C9495090C94BC090C948B001F
:100010000C948B000C948B000C948B000C948B0034
:100020000C948B000C948B000C948B000C948B0024
:100030000C948B000C948B000C948B000C948B0014
:100040000C94E3090C948B000C94CB0C0C94FD0CD9
:100050000C948B000C948B000C948B000C948B00F4
:100060000C9447080C948B0000000008000201006B
:100070000003040700000000000000000102040863
:100080001020408001020408102001020408102002
:10009000040404040404040402020202020203032E
:1000A00003030303000000002300260029000000D2
:1000B0000000250028002B0000000000240027007D
:1000C0002A0097072D0D11241FBECFEFD8E0DEBF09
:1000D000CDBF11E0A0E0B1E0E6EDF3E202C0059093
:1000E0000D92A23CB107D9F723E0A2ECB1E001C028
:1000F0001D92AB36B207E1F710E0C6ECD0E004C0C9
:100100002297FE010E94CF11C23CD107C9F70E947D
:10011000710D0C94E9110C94000082E00E945D0BBB
:10012000019771F483E00E945D0B4091C7015091EB
:10013000C8016091C9017091CA01892B99F40DC061
:1001400083E00E945D0B4091C7015091C80160910E
:10015000C9017091CA01019729F44F5F5F4F6F4F3A
:100160007F4F04C041505109610971094093C70193
:100170005093C8016093C9017093CA01089583E048
:100180000E945D0B019771F482E00E945D0B40912B
:10019000C7015091C8016091C9017091CA010197CE
:1001A00099F40DC082E00E945D0B4091C70150910F
:1001B000C8016091C9017091CA01892B29F44F5F70
:1001C0005F4F6F4F7F4F04C0415051096109710962
:1001D0004093C7015093C8016093C9017093CA014D
:1001E00008950F931F93CF93DF931F92CDB7DEB780
:1001F0008C0169830E94D3116981681741F0C8019D
:100200000F90DF91CF911F910F910C94DB110F9004
:10021000DF91CF911F910F9108950C94D311CF933B
:10022000DF9382E090E00E940D01C82FD0E0D093D0
:10023000F601C093F50183E090E00E940D0190E08B
:100240009093F4018093F301892B39F4D195C195F2
:10025000D109D093F601C093F5018091F001882374
:1002600001F165E171E08EEC92E00E94BE0D6091BB
:10027000F5017091F6014AE050E08EEC92E00E94A8
:10028000760E64E271E08EEC92E00E94BE0D609109
:10029000F3017091F4014AE050E08EEC92E00E948C
:1002A000760E80E090E00E940D01C82FD0E0D09340
:1002B000FA01C093F90181E090E00E940D0190E005
:1002C0009093F8018093F701892B39F4D195C1956A
:1002D000D109D093FA01C093F9018091F0018823EC
:1002E00011F168E371E08EEC92E00E94BE0D609126
:1002F000F9017091FA014AE050E08EEC92E00E9420
:10030000760E67E471E08EEC92E00E94BE0D609183
:10031000F7017091F8014AE050E08EEC92E0DF9135
:10032000CF910C94760EDF91CF910895DF92EF92EA
:10033000FF920F931F93CF93DF937C01EA01D22E9C
:10034000882777FD8095982F0E94500A602F8D2D69
:100350000E94270BB701882777FD8095982F0E9470
:10036000500A61E0012B09F060E08D2D0E94270BFF
:10037000BE01882777FD8095982FDF91CF911F913F
:100380000F91FF90EF90DF900C94500AEF92FF9244
:100390000F931F93CF93DF937A01672B61F000E0F7
:1003A00010E02DE030E040E050E060E070E088EEEA
:1003B00093E00E94960101E010E02DE030E044EF70
:1003C00051E060E070E084EF91E00E9496012DE042
:1003D00030E048EC50E060E070E088EC90E00E9493
:1003E00096012DE030E048EC50E060E070E088ECF1
:1003F00090E00E9496012DE030E044EF51E060E093
:1004000070E084EF91E00E949601C3E0D0E001E04B
:1004100010E02DE030E048EC50E060E070E088EC67
:1004200090E00E949601219791F72DE030E044EF93
:1004300051E060E070E084EF91E00E949601C4E03A
:10044000D0E001E010E02DE030E048EC50E060E06A
:1004500070E088EC90E00E949601219791F7EF28D8
:1004600061F000E010E02DE030E040E050E060E0BE
:1004700070E088EE93E00E949601DF91CF911F918A
:100480000F91FF90EF900895CF93DF9385E090E078
:100490000E940D01811104C08091C201882379F16D
:1004A0006BE571E08EEC92E00E94CB0DC0E0D0E0F5
:1004B00060E0CE010E94DB112196C630D105C1F764
:1004C000C0E0D0E0CE010E940D0181111092100118
:1004D0002196C630D105B1F780911001811109C074
:1004E00040E050E061E070E081E090E00E94C601F1
:1004F000F3CF69E671E08EEC92E00E94CB0D84E0D0
:1005000090E00E940D01C82FD0E0209741F040E01C
:1005100050E061E070E0CE010E94C601F8CFDF91AB
:10052000CF91089526E040E855E260E070E08EEC5F
:1005300092E00E94690C81E0809300028093100198
:100540008093F0018093C20160E082E00E94EE0A95
:1005500060E083E00E94EE0A60E08AE00E94EE0A1A
:1005600060E087E00E94EE0A61E088E00E94EE0A07
:1005700061E084E00E94EE0A61E086E00E94EE0AFB
:1005800061E086E00E94270B1092FF011092FE01AD
:100590001092F2011092F1010E9444020E940F0198
:1005A00041E050E06DE870E080E00E94750941E0B4
:1005B00050E06FEB70E081E00E94750968E070E048
:1005C00081E092E00E946E076CEA75E081E092E0C3
:1005D0000E94920764E670E080E090E00C94500A7C
:1005E0008F929F92AF92BF92CF92DF92EF92FF9243
:1005F0000F931F93CF93DF936B017C0149015A0145
:1006000020E030E04FE753EC0E94401187FD0AC024
:1006100020E030E04FE753E4C701B6010E94F10F3C
:1006200018167CF520E030E04FE753E4C701B6012F
:100630000E94401118164CF420E030E04FE753E4DC
:10064000C701B6010E948C0F12C020E030E04FE7D6
:1006500053ECC701B6010E94F10F87FF12C020E0E2
:1006600030E04FE753E4C701B6010E948D0F6B01E4
:100670007C0120E030E0A9010E9440111816ACF086
:1006800003C0C12CD12C7601C1E0D0E020E030E0E5
:10069000A901C701B6010E94F10F87FD02C0C0E0A9
:1006A000D0E0D195C195D10902C0C1E0D0E020E0F1
:1006B00030E0A901C501B4010E94401101E010E041
:1006C000181674F020E030E0A901C501B4010E94C1
:1006D000F10F87FD02C000E010E0119501951109AE
:1006E000C017D10759F420E030E0A901C701B601D5
:1006F0000E94F10F882311F081E000C0DF91CF91BB
:100700001F910F91FF90EF90DF90CF90BF90AF902F
:100710009F908F9008954F925F926F927F928F92E9
:100720009F92AF92BF92CF92DF92EF92FF92CF93C0
:10073000DF9300D000D0CDB7DEB76B017C012091F4
:100740000C0130910D0140910E0150910F010E945A
:1007500044114B015C016093DB017093DC018093D9
:10076000DD019093DE016091CF017091D001809105
:10077000D1019091D201A70196010E94F002882335
:1007800021F020E030E0A9010AC02DEC3CEC4CE463
:100790005DE3C701B6010E9444119B01AC01609169
:1007A000D7017091D8018091D9019091DA010E940E
:1007B0008D0F6093D7017093D8018093D9019093E6
:1007C000DA01209108013091090140910A0150910C
:1007D0000B016091D7017091D8018091D90190915E
:1007E000DA010E9444112B013C016093D701709300
:1007F000D8018093D9019093DA018091CB01909137
:10080000CC01A091CD01B091CE0189839A83AB83B5
:10081000BC83209104013091050140910601509163
:100820000701C701B6010E94441129813A814B8119
:100830005C810E948C0F2091000130910101409158
:100840000201509103010E9444116B017C016093ED
:10085000D3017093D4018093D5019093D601A30165
:100860009201C501B4010E948D0FA70196010E945B
:100870008D0F4B015C016093CF017093D001809389
:10088000D1019093D20120E030E04FE753E40E9481
:10089000401118168CF020E030E04FE753ECC50112
:1008A000B4010E94F10F87FF0DC0812C912C9FE7AE
:1008B000A92E93ECB92E06C0812C912C8FE7A82E7F
:1008C00083E4B82E2DEC3CEC4CE45DE3C701B601AB
:1008D0000E9444119B01AC0169817A818B819C81CA
:1008E0000E948D0F6093CB017093CC018093CD015A
:1008F0009093CE01C501B4010F900F900F900F900F
:10090000DF91CF91FF90EF90DF90CF90BF90AF90AD
:100910009F908F907F906F905F904F900895CF92AF
:10092000DF92EF92FF92CF93DF936091C7017091B6
:10093000C8018091C9019091CA010E9490106B0179
:100940007C016091F5017091F601882777FD809513
:10095000982F0E9490109B01AC01C701B6010E9424
:100960008D0F6B017C016093DF017093E001809338
:10097000E1019093E2016091F9017091FA018827F9
:1009800077FD8095982F0E9490102091EB01309177
:10099000EC014091ED015091EE010E948D0F9B0101
:1009A000AC01C701B6010E948C0F6B017C0120E0F5
:1009B00030E0A9010E94401118165CF42AE939E9D7
:1009C00049E15EE3C701B6010E94F10F18165CF021
:1009D00013C02AE939E949E15EEBC701B6010E947B
:1009E000401187FF09C0C092E301D092E401E09278
:1009F000E501F092E60108C01092E3011092E401D3
:100A00001092E5011092E6016091E3017091E4011A
:100A10008091E5019091E6010E948B036093C301F0
:100A20007093C4018093C5019093C60120E030E02B
:100A3000A9016091E3017091E4018091E501909139
:100A4000E6010E94F10F811108C01092C3011092BB
:100A5000C4011092C5011092C601C090C301D0908C
:100A6000C401E090C501F090C60120E030E0A9018A
:100A7000C701B6010E94F10F87FF1BC022E030E0E2
:100A8000B701A6018EEC92E00E94790F8091C3011C
:100A90009091C401A091C501B091C601B058809356
:100AA000C3019093C401A093C501B093C60160E057
:100AB00001C061E088E00E94270B20E030E048ECB4
:100AC00052E46091C3017091C4018091C50190917D
:100AD000C6010E94F50F2091E7013091E801409195
:100AE000E9015091EA010E9444116093C30170939F
:100AF000C4018093C5019093C60187E00E945D0BFD
:100B0000892B19F169E070E081E092E00E947A0798
:100B1000C0910102D09102026091C3017091C401A1
:100B20008091C5019091C6010E945D10E881F98114
:100B300081E092E0099581E092E0DF91CF91FF9012
:100B4000EF90DF90CF900C948F07DF91CF91FF90C3
:100B5000EF90DF90CF900895CF92DF92EF92FF92C7
:100B60000F931F93CF93DF93CBEFD1E08C01055010
:100B70001E4FC017D10731F081E092E00E9493062A
:100B80008993F7CF2091FC01822F90E09093F2019E
:100B90008093F1012130E1F120F0223009F466C0A8
:100BA000B1C06091FB0170E080E090E00E948E1087
:100BB0006093EB017093EC018093ED019093EE0153
:100BC0006091FD0170E080E090E00E948E106093E3
:100BD000E7017093E8018093E9019093EA018AE0CC
:100BE0000E945D0B892B89F48091EB019091EC01BF
:100BF000A091ED01B091EE01B0588093EB0190937C
:100C0000EC01A093ED01B093EE011092EF017AC0D8
:100C10008091EF01811176C02093EF01C090DF0138
:100C2000D090E001E090E101F090E20120E030E0BE
:100C3000A901C701B6010E94F10F87FF0BC0C701D0
:100C4000B60190580E94621080E090E00E94F1008E
:100C500060E009C0C701B6010E94621080E090E028
:100C60000E94F10061E081E090E042C08091EF01DC
:100C7000811148C081E08093EF016DE771E08EEC57
:100C800092E00E94BE0D4091DF015091E001609121
:100C9000E1017091E20122E030E08EEC92E00E94EE
:100CA000790FC090DF01D090E001E090E101F09079
:100CB000E20120E030E0A901C701B6010E94F10F76
:100CC00087FF0BC0C701B60190580E94621082E0F6
:100CD00090E00E94F10060E009C0C701B6010E94E7
:100CE000621082E090E00E94F10061E083E090E019
:100CF000DF91CF911F910F91FF90EF90DF90CF90F8
:100D00000C94F100DF91CF911F910F91FF90EF9024
:100D1000DF90CF9008958091350290E020913602C7
:100D2000821B91090895209136028091350228177F
:100D300050F4E22FF0E0E95CFD4F808190E02F5FFE
:100D40002093360208958FEF9FEF0895E0913602C9
:100D500080913502E81730F4F0E0E95CFD4F8081C6
:100D600090E008958FEF9FEF08950895E0910D02B0
:100D7000F0910E023097E1F0309136022091350269
:100D80003217B0F040E0242F30E02617370754F434
:100D9000DC01A20FB31F5C91D901A95CBD4F5C932C
:100DA0004F5FF1CF1092360260933502CB01099468
:100DB0000895E0910F02F0911002309729F01092FF
:100DC00013021092120209940895CF92DF92EF92CB
:100DD000FF920F931F93CF93DF937C01CB018A0186
:100DE00020911102222389F0EB016B01C40ED51E64
:100DF000CC15DD0569F06991D701ED91FC91019069
:100E0000F081E02DC7010995F3CF642F0E941408EB
:100E1000C801DF91CF911F910F91FF90EF90DF906C
:100E2000CF900895CF93DF931F92CDB7DEB769833C
:100E3000209111022223D1F020911202203240F0A1
:100E400021E030E0FC013383228380E090E015C094
:100E500080911302E82FF0E0EC5EFD4F99819083C2
:100E60008F5F809313028093120205C061E0CE0170
:100E700001960E94140881E090E00F90DF91CF91DD
:100E80000895FC011382128248EE53E060E070E0A6
:100E9000448355836683778387E991E091838083D8
:100EA0000895109236021092350210921302109299
:100EB00012020C949B07CF93DF93EC01862F0E94C4
:100EC000B90789ED96E00E94320886EB96E00E9411
:100ED0002D08CE01DF91CF910C9451070C945B0744
:100EE00081E08093110260933402109213021092F9
:100EF000120208950C9470070F93062F21E0409181
:100F0000120264E172E0809134020E94BD071092E7
:100F1000130210921202109211020F91089561E0D3
:100F20000C947C0770930E0260930D02089581E08B
:100F300092E00C9441071092C40281E08093C202B7
:100F40001092C10261E082E10E94270B61E083E11F
:100F50000E94270BE9EBF0E080818E7F8083808107
:100F60008D7F808388E48093B80085E48093BC0003
:100F70000895880F8093BA0008950F93413208F0C6
:100F80004AC09091C4029111FCCF92E09093C402A8
:100F90000093C2029FEF9093570210929C024093DD
:100FA0009B02FB016DE972E0DB019A2F961B9417FF
:100FB00018F491919D93F9CF1092C3029091C302BE
:100FC000880F892B8093C3028091C102813061F424
:100FD0001092C1028091C3028093BB008091BC003B
:100FE00083FDF8CF85EC01C085EE8093BC00222301
:100FF00021F08091C4028230E1F3809157028F3F4B
:1010000061F080915702803251F080915702803315
:1010100041F483E007C081E005C080E003C082E0C6
:1010200001C084E00F910895613298F42091C402C8
:10103000243089F460937902FC018BE792E0DC01B3
:101040002A2F281B261718F421912D93F9CF80E021
:10105000089581E0089582E008959093BE02809300
:10106000BD0208959093C0028093BF02089585ED5C
:101070008093BC008091BC0084FDFCCF1092C40220
:10108000089585EC8093BC001092C40208951F92CD
:101090000F920FB60F9211242F933F934F935F93AC
:1010A0006F937F938F939F93AF93BF93EF93FF9330
:1010B0008091B900887F803609F49EC078F5883227
:1010C00009F45DC090F4803109F456C038F48823E7
:1010D00009F4F5C0883009F44FC0F5C0883109F42F
:1010E0004EC0803209F45FC0EEC0803409F46AC09B
:1010F00058F4803309F457C0883309F0E4C0809372
:1011000057020E944108DFC0803509F44FC088357E
:1011100009F45DC0883409F0D6C0D3C0883909F419
:10112000C4C0A8F4883709F467C038F4883609F4D5
:1011300063C0803709F460C0C6C0883809F4B5C000
:10114000803909F45FC0803809F0BDC05BC0803BC6
:1011500009F483C038F4803A09F466C0883A09F487
:101160007CC0B1C0803C09F4A4C0883C09F4A1C093
:10117000883B09F487C0A7C08091C30210C090913A
:101180009C0280919B02981770F5E0919C0281E08F
:101190008E0F80939C02F0E0E356FD4F8081809398
:1011A000BB0085EC83C0809357028BC0E0919C020A
:1011B00081E08E0F80939C028091BB00F0E0E356AB
:1011C000FD4F808390919C0280919B026BC0E091C7
:1011D0009C0281E08E0F80939C028091BB00F0E026
:1011E000E356FD4F80838091C20281116AC081E085
:1011F0008093C10284EA5EC083E08093C4021092AF
:101200005802CFCF80915802803208F04EC0E09152
:10121000580281E08E0F809358028091BB00F0E06D
:10122000E75AFD4F8083BDCF0E944108809158024C
:10123000803230F4E0915802F0E0E75AFD4F10821E
:101240006091580270E0E091BD02F091BE0289E524
:1012500092E009951092580236C084E08093C4024F
:1012600010927A0210927902E091BF02F091C002CE
:10127000099580917902811105C081E080937902FE
:1012800010927B02E0917A0281E08E0F80937A02C5
:10129000F0E0E558FD4F80818093BB0090917A0289
:1012A00080917902981708F47CCF85E88093BC0080
:1012B0000AC085EC8093BC001092C40204C0109256
:1012C00057020E943708FF91EF91BF91AF919F9114
:1012D0008F917F916F915F914F913F912F910F90DF
:1012E0000FBE0F901F90189508958230E8F4E82FF4
:1012F000F0E0EE0FFF1FEF5EFE4F718360838130E1
:1013000041F0809169008C7F842B80936900E89A7A
:10131000089580916900440F551F440F551F837F26
:10132000842B80936900E99A08951F920F920FB65B
:101330000F9211242F933F934F935F936F937F935B
:101340008F939F93AF93BF93EF93FF93E09111011E
:10135000F09112010995FF91EF91BF91AF919F918B
:101360008F917F916F915F914F913F912F910F904E
:101370000FBE0F901F9018951F920F920FB60F92ED
:1013800011242F933F934F935F936F937F938F938A
:101390009F93AF93BF93EF93FF93E0911301F0916D
:1013A00014010995FF91EF91BF91AF919F918F919A
:1013B0007F916F915F914F913F912F910F900FBE51
:1013C0000F901F9018951F920F920FB60F92112435
:1013D0002F933F938F939F93AF93BF938091C602B8
:1013E0009091C702A091C802B091C9023091C50284
:1013F00023E0230F2D3720F40196A11DB11D05C058
:1014000026E8230F0296A11DB11D2093C5028093EB
:10141000C6029093C702A093C802B093C9028091FC
:10142000CA029091CB02A091CC02B091CD0201965C
:10143000A11DB11D8093CA029093CB02A093CC0250
:10144000B093CD02BF91AF919F918F913F912F911A
:101450000F900FBE0F901F9018953FB7F894809192
:10146000CA029091CB02A091CC02B091CD0226B5D8
:10147000A89B05C02F3F19F00196A11DB11D3FBFCC
:101480006627782F892F9A2F620F711D811D911D5C
:1014900042E0660F771F881F991F4A95D1F708957C
:1014A0008F929F92AF92BF92CF92DF92EF92FF9274
:1014B0006B017C010E942D0A4B015C01C114D10417
:1014C000E104F104F1F00E948B0F0E942D0A6819CB
:1014D00079098A099B09683E73408105910570F37B
:1014E00021E0C21AD108E108F10888EE880E83E0F5
:1014F000981EA11CB11CC114D104E104F10429F708
:10150000DDCFFF90EF90DF90CF90BF90AF909F9096
:101510008F900895789484B5826084BD84B581608D
:1015200084BD85B5826085BD85B5816085BDEEE6EB
:10153000F0E0808181608083E1E8F0E010828081CA
:1015400082608083808181608083E0E8F0E0808138
:1015500081608083E1EBF0E0808184608083E0EB58
:10156000F0E0808181608083EAE7F0E08081846040
:10157000808380818260808380818160808380819C
:10158000806880831092C1000895833081F028F430
:10159000813099F08230A1F008958730A9F0883029
:1015A000B9F08430D1F4809180008F7D03C08091A8
:1015B00080008F7780938000089584B58F7702C074
:1015C00084B58F7D84BD08958091B0008F7703C06E
:1015D0008091B0008F7D8093B0000895CF93DF930A
:1015E00090E0FC01E458FF4F2491FC01E057FF4FCD
:1015F0008491882349F190E0880F991FFC01E854F9
:10160000FF4FA591B49182559F4FFC01C591D49194
:101610009FB7611108C0F8948C91209582238C9318
:10162000888182230AC0623051F4F8948C91322F61
:10163000309583238C938881822B888304C0F8940F
:101640008C91822B8C939FBFDF91CF9108950F9344
:101650001F93CF93DF931F92CDB7DEB7282F30E0D3
:10166000F901E859FF4F8491F901E458FF4F1491B3
:10167000F901E057FF4F04910023C9F0882321F0BE
:1016800069830E94C50A6981E02FF0E0EE0FFF1F19
:10169000E255FF4FA591B4919FB7F8948C916111D9
:1016A00003C01095812301C0812B8C939FBF0F90A5
:1016B000DF91CF911F910F910895CF93DF93282F42
:1016C00030E0F901E859FF4F8491F901E458FF4FE8
:1016D000D491F901E057FF4FC491CC2391F08111CF
:1016E0000E94C50AEC2FF0E0EE0FFF1FEC55FF4FF4
:1016F000A591B4912C912D2381E090E021F480E01C
:1017000002C080E090E0DF91CF910895FC01818DCF
:10171000228D90E0805C9F4F821B91098F739927E7
:101720000895FC01918D828D981731F0828DE80F1C
:10173000F11D858D90E008958FEF9FEF0895FC01D6
:10174000918D828D981761F0828DDF01A80FB11DF8
:101750005D968C91928D9F5F9F73928F90E008951C
:101760008FEF9FEF089583E29DE0892B49F080E0A1
:1017700090E0892B29F00E94230D81110C94000028
:101780000895FC01848DDF01A80FB11DA35ABF4F3E
:101790002C91848D90E001968F739927848FA68970
:1017A000B7892C93A089B1898C9180648C93938D97
:1017B000848D981306C00288F389E02D80818F7D87
:1017C00080830895CF93DF93EC01888D8823C9F03F
:1017D000EA89FB89808185FD05C0A889B9898C913A
:1017E00086FD0FC00FB607FCF5CF808185FFF2CFD5
:1017F000A889B9898C9185FFEDCFCE010E94C10BDC
:10180000E7CFDF91CF910895CF92DF92FF920F93B0
:101810001F93CF93DF931F92CDB7DEB76C0181E0AA
:10182000D60158968C9358975B969C915B975C96E3
:101830008C915C97981307C05096ED91FC9151974D
:10184000808185FD2EC0F601038D10E00F5F1F4FD4
:101850000F731127F02EF601848DF81211C00FB608
:1018600007FCF9CFD6015096ED91FC9151978081FC
:1018700085FFF1CFC60169830E94C10B6981EBCF5F
:10188000838DE80FF11DE35AFF4F6083D6015B960D
:101890000C935B975296ED91FC91539780818062F7
:1018A0000CC0D6015696ED91FC91579760835096E7
:1018B000ED91FC91519780818064808381E090E07C
:1018C0000F90DF91CF911F910F91FF90DF90CF90FC
:1018D0000895BF92CF92DF92EF92FF92CF93DF9362
:1018E000EC016A017B01B22EE889F98982E08083EC
:1018F000411581EE580761057105A1F060E079E0BE
:101900008DE390E0A70196010E94AB1121503109AF
:10191000410951095695479537952795211580E13D
:10192000380798F0E889F989108260E874E88EE158
:1019300090E0A70196010E94AB11215031094109A5
:1019400051095695479537952795EC85FD85308348
:10195000EE85FF852083188EEC89FD89B082EA89A7
:10196000FB89808180618083EA89FB89808188602E
:101970008083EA89FB89808180688083EA89FB898A
:1019800080818F7D8083DF91CF91FF90EF90DF90FA
:10199000CF90BF9008951F920F920FB60F9211240F
:1019A0002F938F939F93EF93FF93E091DE02F0913B
:1019B000DF028081E091E402F091E50282FD12C035
:1019C00090818091E7028F5F8F732091E8028217E8
:1019D00051F0E091E702F0E0E253FD4F958F8093E4
:1019E000E70201C08081FF91EF919F918F912F912C
:1019F0000F900FBE0F901F9018951F920F920FB669
:101A00000F9211242F933F934F935F936F937F9384
:101A10008F939F93AF93BF93EF93FF938EEC92E0DE
:101A20000E94C10BFF91EF91BF91AF919F918F9158
:101A30007F916F915F914F913F912F910F900FBECA
:101A40000F901F9018958EEC92E00E94860B21E07B
:101A5000892B09F420E0822F08951092D102109270
:101A6000D00288EE93E0A0E0B0E08093D2029093A1
:101A7000D302A093D402B093D50287EA91E0909369
:101A8000CF028093CE0285EC90E09093DB028093AE
:101A9000DA0284EC90E09093DD028093DC0280EC2B
:101AA00090E09093DF028093DE0281EC90E09093CF
:101AB000E1028093E00282EC90E09093E302809355
:101AC000E20286EC90E09093E5028093E4021092AB
:101AD000E7021092E8021092E9021092EA020895D9
:101AE00008950E948A0A0E94700D0E949202C3EB20
:101AF000DBE00E948F042097E1F30E94B30BF9CF43
:101B0000CF92DF92EF92FF920F931F93CF93DF93C9
:101B10007C016A01EB0100E010E00C151D0571F07D
:101B20006991D701ED91FC910190F081E02DC70101
:101B30000995892B19F00F5F1F4FEFCFC801DF9177
:101B4000CF911F910F91FF90EF90DF90CF9008956C
:101B50006115710581F0DB010D900020E9F7AD0101
:101B600041505109461B570BDC01ED91FC9102805D
:101B7000F381E02D099480E090E008950C94A80D85
:101B8000DC01ED91FC910190F081E02D099463EB73
:101B900071E00C94A80D0F931F93CF93DF93EC018A
:101BA0000E94A80D8C01CE010E94C70D800F911FCD
:101BB000DF91CF911F910F9108958F929F92AF92D5
:101BC000BF92DF92EF92FF920F931F93CF93DF9319
:101BD000CDB7DEB7A1970FB6F894DEBF0FBECDBF6D
:101BE0007C01F42FD52ECB0119A2223008F42AE073
:101BF0008E010F5D1F4F822E912CA12CB12C6F2FC7
:101C00007D2DA50194010E94AB11F22FD32ECA01A4
:101C1000015011096A3014F4E0E301C0E7E3E60F74
:101C2000D801EC93232B242B252B49F7B801C701AE
:101C30000E94A80DA1960FB6F894DEBF0FBECDBFCF
:101C4000DF91CF911F910F91FF90EF90DF90BF90A8
:101C5000AF909F908F900895CF92DF92EF92FF9276
:101C60000F931F93CF93DF93EC016A017B01211542
:101C7000310579F4E881F9810190F081E02D642F3C
:101C8000DF91CF911F910F91FF90EF90DF90CF9058
:101C900009942A303105E9F477FF1AC06DE20E94F9
:101CA000C00D8C0144275527BA014C195D096E09F6
:101CB0007F092AE0CE010E94DD0D800F911FDF9188
:101CC000CF911F910F91FF90EF90DF90CF900895EB
:101CD0002AE0B701A601CE01DF91CF911F910F91AC
:101CE000FF90EF90DF90CF900C94DD0D0F931F933A
:101CF000CF93DF93EC019A01AB01662757FD609506
:101D0000762F0E942C0E8C01CE010E94C70D800FF1
:101D1000911FDF91CF911F910F9108954F925F9284
:101D20006F927F928F929F92AF92BF92CF92DF92EB
:101D3000EF92FF920F931F93CF93DF93EC016A0111
:101D40007B01B22E9A01AB01C701B6010E94A71117
:101D5000882319F066EB71E027C026013701E8946B
:101D600077F82FEF3FEF4FE75FE7C301B2010E9423
:101D7000A71181110DC02FEF3FEF4FE75FE7C301C0
:101D8000B2010E94F10F18161CF46AEB71E00CC04E
:101D90002FEF3FEF4FE75FE4C701B6010E9440110C
:101DA0001816ACF46EEB71E0CE01DF91CF911F916C
:101DB0000F91FF90EF90DF90CF90BF90AF909F90EA
:101DC0008F907F906F905F904F900C94A80D2FEFA5
:101DD0003FEF4FE75FECC701B6010E94F10F87FDAF
:101DE000E1CF20E030E0A901C701B6010E94F10F68
:101DF00087FF0AC06DE2CE010E94C00D8C01F7FA88
:101E0000F094F7F8F09402C000E010E0A12C60E03C
:101E100070E080E09FE3AB1441F020E030E040E26E
:101E200051E40E94F50FA394F6CF9B01AC01C701CA
:101E3000B6010E948D0F6B017C010E9462102B0184
:101E40003C010E948E109B01AC01C701B6010E94AB
:101E50008C0F6B017C012AE0B301A201CE010E942C
:101E6000DD0D080F191FBB2039F067E671E0CE01C8
:101E70000E94A80D080F191F7B2C772041F120E04C
:101E800030E040E251E4C701B6010E9444116B0109
:101E90007C010E945D104B01AA2497FCA094BA2CEF
:101EA0002AE030E0B501A401CE010E942C0E080FFB
:101EB000191FC501B4010E9490109B01AC01C7011C
:101EC000B6010E948C0F6B017C017A94D6CFC801B9
:101ED000DF91CF911F910F91FF90EF90DF90CF9006
:101EE000BF90AF909F908F907F906F905F904F903A
:101EF00008950F931F93CF93DF93EC010E948E0EF2
:101F00008C01CE010E94C70D800F911FDF91CF91F0
:101F10001F910F91089508955058BB27AA270ED0FE
:101F200075C166D130F06BD120F031F49F3F11F4D0
:101F30001EF45BC10EF4E095E7FB51C1E92F77D1A8
:101F400080F3BA17620773078407950718F071F4D6
:101F50009EF58FC10EF4E0950B2EBA2FA02D0B012C
:101F6000B90190010C01CA01A0011124FF27591BDE
:101F700099F0593F50F4503E68F11A16F040A22FE4
:101F8000232F342F4427585FF3CF46953795279555
:101F9000A795F0405395C9F77EF41F16BA0B620B54
:101FA000730B840BBAF09150A1F0FF0FBB1F661F9B
:101FB000771F881FC2F70EC0BA0F621F731F841FDE
:101FC00048F4879577956795B795F7959E3F08F004
:101FD000B3CF9395880F08F09927EE0F97958795C3
:101FE0000895D9D008F481E008950CD00FC107D12D
:101FF00040F0FED030F021F45F3F19F0F0C05111F5
:1020000039C1F3C014D198F39923C9F35523B1F31F
:10201000951B550BBB27AA2762177307840738F057
:102020009F5F5F4F220F331F441FAA1FA9F333D0B6
:102030000E2E3AF0E0E830D091505040E695001C6A
:10204000CAF729D0FE2F27D0660F771F881FBB1F26
:10205000261737074807AB07B0E809F0BB0B802D00
:10206000BF01FF2793585F4F2AF09E3F510568F04C
:10207000B6C000C15F3FECF3983EDCF386957795E0
:102080006795B795F7959F5FC9F7880F911D96954E
:10209000879597F90895E1E0660F771F881FBB1FAA
:1020A000621773078407BA0720F0621B730B840B57
:1020B000BA0BEE1F88F7E095089504D06894B1112B
:1020C000D9C00895BCD088F09F5790F0B92F9927B8
:1020D000B751A0F0D1F0660F771F881F991F1AF033
:1020E000BA95C9F712C0B13081F0C3D0B1E00895FC
:1020F000C0C0672F782F8827B85F39F0B93FCCF37D
:10210000869577956795B395D9F73EF49095809528
:10211000709561957F4F8F4F9F4F0895E89409C048
:1021200097FB3EF490958095709561957F4F8F4F0A
:102130009F4F9923A9F0F92F96E9BB279395F69520
:10214000879577956795B795F111F8CFFAF4BB0F9E
:1021500011F460FF1BC06F5F7F4F8F4F9F4F16C002
:10216000882311F096E911C0772321F09EE8872F8C
:10217000762F05C0662371F096E8862F70E060E048
:102180002AF09A95660F771F881FDAF7880F9695C1
:10219000879597F90895990F0008550FAA0BE0E865
:1021A000FEEF16161706E807F907C0F01216130619
:1021B000E407F50798F0621B730B840B950B39F459
:1021C0000A2661F0232B242B252B21F408950A26BF
:1021D00009F4A140A6958FEF811D811D089597F9FF
:1021E0009F6780E870E060E008959FEF80EC0895BD
:1021F00000240A94161617061806090608950024E6
:102200000A9412161306140605060895092E03945F
:10221000000C11F4882352F0BB0F40F4BF2B11F4D3
:1022200060FF04C06F5F7F4F8F4F9F4F089557FD32
:102230009058440F551F59F05F3F71F04795880F34
:1022400097FB991F61F09F3F79F0879508951216CB
:1022500013061406551FF2CF4695F1DF08C0161677
:1022600017061806991FF1CF869571056105089428
:102270000895E894BB2766277727CB0197F908953F
:102280008ADF08F48FEF08950BD0C0CFB1DF28F0BC
:10229000B6DF18F0952309F0A2CFA7CF1124EACF1B
:1022A000C6DFA0F3959FD1F3950F50E0551F629FB5
:1022B000F001729FBB27F00DB11D639FAA27F00D9F
:1022C000B11DAA1F649F6627B00DA11D661F829FC6
:1022D0002227B00DA11D621F739FB00DA11D621FAB
:1022E000839FA00D611D221F749F3327A00D611DC8
:1022F000231F849F600D211D822F762F6A2F1124AA
:102300009F5750408AF0E1F088234AF0EE0FFF1FFC
:10231000BB1F661F771F881F91505040A9F79E3F33
:10232000510570F05CCFA6CF5F3FECF3983EDCF335
:10233000869577956795B795F795E7959F5FC1F770
:10234000FE2B880F911D9695879597F9089523DFA9
:10235000880B990B0895A1E21A2EAA1BBB1BFD0145
:102360000DC0AA1FBB1FEE1FFF1FA217B307E40774
:10237000F50720F0A21BB30BE40BF50B661F771FCC
:10238000881F991F1A9469F76095709580959095AC
:102390009B01AC01BD01CF010895EE0FFF1F059019
:1023A000F491E02D0994F999FECF92BD81BDF89A80
:1023B000992780B50895262FF999FECF1FBA92BDAF
:1023C00081BD20BD0FB6F894FA9AF99A0FBE019616
:0623D0000895F894FFCF10
:1023D6002C8F9440E1C89F3EA2D5F9BE4CD929C1A5
:1023E60001740974096163745F706F73206C6173A3
:1023F600743A20006163745F706F735F7369676E10
:10240600206C6173743A20007265665F706F73208A
:102416006C6173743A20007265665F706F735F73E8
:1024260069676E206C6173743A2000526573657437
:1024360020656570726F6D2E005265616479207239
:102446006573657420656570726F6D2E00637572B5
:1024560072656E745F6D6F746F725F616E676C65C7
:102466003A2000000000001207E5068B069306A638
:1024760006B50600000000040C800D860B9F0B912C
:102486000BE20B0D0A006E616E00696E66006F76D8
:022496006600DE
:00000001FF
